ARM GAS  C:\Users\dmarsch\AppData\Local\Temp\ccpoCrMH.s 			page 1


   1              		.syntax unified
   2              		.cpu cortex-m3
   3              		.fpu softvfp
   4              		.eabi_attribute 20, 1
   5              		.eabi_attribute 21, 1
   6              		.eabi_attribute 23, 3
   7              		.eabi_attribute 24, 1
   8              		.eabi_attribute 25, 1
   9              		.eabi_attribute 26, 1
  10              		.eabi_attribute 30, 1
  11              		.eabi_attribute 34, 1
  12              		.eabi_attribute 18, 4
  13              		.thumb
  14              		.syntax unified
  15              		.file	"cy_em_eeprom.c"
  16              		.text
  17              	.Ltext0:
  18              		.cfi_sections	.debug_frame
  19              		.section	.text.FindLastWrittenRow,"ax",%progbits
  20              		.align	2
  21              		.thumb
  22              		.thumb_func
  23              		.type	FindLastWrittenRow, %function
  24              	FindLastWrittenRow:
  25              	.LFB5:
  26              		.file 1 "Generated_Source\\PSoC5\\cy_em_eeprom.c"
   1:Generated_Source\PSoC5/cy_em_eeprom.c **** /***************************************************************************//**
   2:Generated_Source\PSoC5/cy_em_eeprom.c **** * \file cy_em_eeprom.c
   3:Generated_Source\PSoC5/cy_em_eeprom.c **** * \version 2.0
   4:Generated_Source\PSoC5/cy_em_eeprom.c **** *
   5:Generated_Source\PSoC5/cy_em_eeprom.c **** * \brief
   6:Generated_Source\PSoC5/cy_em_eeprom.c **** *  This file provides source code of the API for the Emulated EEPROM library.
   7:Generated_Source\PSoC5/cy_em_eeprom.c **** *  The Emulated EEPROM API allows creating of an emulated EEPROM in flash that
   8:Generated_Source\PSoC5/cy_em_eeprom.c **** *  has the ability to do wear leveling and restore corrupted data from a
   9:Generated_Source\PSoC5/cy_em_eeprom.c **** *  redundant copy.
  10:Generated_Source\PSoC5/cy_em_eeprom.c **** *
  11:Generated_Source\PSoC5/cy_em_eeprom.c **** ********************************************************************************
  12:Generated_Source\PSoC5/cy_em_eeprom.c **** * \copyright
  13:Generated_Source\PSoC5/cy_em_eeprom.c **** * Copyright 2017, Cypress Semiconductor Corporation.  All rights reserved.
  14:Generated_Source\PSoC5/cy_em_eeprom.c **** * You may use this file only in accordance with the license, terms, conditions,
  15:Generated_Source\PSoC5/cy_em_eeprom.c **** * disclaimers, and limitations in the end user license agreement accompanying
  16:Generated_Source\PSoC5/cy_em_eeprom.c **** * the software package with which this file was provided.
  17:Generated_Source\PSoC5/cy_em_eeprom.c **** *******************************************************************************/
  18:Generated_Source\PSoC5/cy_em_eeprom.c **** 
  19:Generated_Source\PSoC5/cy_em_eeprom.c **** 
  20:Generated_Source\PSoC5/cy_em_eeprom.c **** #include "cytypes.h"
  21:Generated_Source\PSoC5/cy_em_eeprom.c **** #include <string.h>
  22:Generated_Source\PSoC5/cy_em_eeprom.c **** 
  23:Generated_Source\PSoC5/cy_em_eeprom.c **** #if (CYDEV_CHIP_FAMILY_USED == CYDEV_CHIP_FAMILY_PSOC6)
  24:Generated_Source\PSoC5/cy_em_eeprom.c ****     #include "em_eeprom/cy_em_eeprom.h"
  25:Generated_Source\PSoC5/cy_em_eeprom.c **** #else
  26:Generated_Source\PSoC5/cy_em_eeprom.c ****     #include "cy_em_eeprom.h"
  27:Generated_Source\PSoC5/cy_em_eeprom.c **** #endif /* (CYDEV_CHIP_FAMILY_USED == CYDEV_CHIP_FAMILY_PSOC6) */
  28:Generated_Source\PSoC5/cy_em_eeprom.c **** 
  29:Generated_Source\PSoC5/cy_em_eeprom.c **** 
  30:Generated_Source\PSoC5/cy_em_eeprom.c **** #if defined(__cplusplus)
  31:Generated_Source\PSoC5/cy_em_eeprom.c **** extern "C" {
ARM GAS  C:\Users\dmarsch\AppData\Local\Temp\ccpoCrMH.s 			page 2


  32:Generated_Source\PSoC5/cy_em_eeprom.c **** #endif
  33:Generated_Source\PSoC5/cy_em_eeprom.c **** 
  34:Generated_Source\PSoC5/cy_em_eeprom.c **** 
  35:Generated_Source\PSoC5/cy_em_eeprom.c **** /***************************************
  36:Generated_Source\PSoC5/cy_em_eeprom.c **** * Private Function Prototypes
  37:Generated_Source\PSoC5/cy_em_eeprom.c **** ***************************************/
  38:Generated_Source\PSoC5/cy_em_eeprom.c **** static void FindLastWrittenRow(uint32 * lastWrRowPtr, cy_stc_eeprom_context_t * context);
  39:Generated_Source\PSoC5/cy_em_eeprom.c **** static uint32 GetRowAddrBySeqNum(uint32 seqNum, cy_stc_eeprom_context_t * context);
  40:Generated_Source\PSoC5/cy_em_eeprom.c **** static uint8 CalcChecksum(uint8 rowData[], uint32 len);
  41:Generated_Source\PSoC5/cy_em_eeprom.c **** static void GetNextRowToWrite(uint32 seqNum,
  42:Generated_Source\PSoC5/cy_em_eeprom.c ****                             uint32 * rowToWrPtr,
  43:Generated_Source\PSoC5/cy_em_eeprom.c ****                             uint32 * rowToRdPtr,
  44:Generated_Source\PSoC5/cy_em_eeprom.c ****                             cy_stc_eeprom_context_t * context);
  45:Generated_Source\PSoC5/cy_em_eeprom.c **** static cy_en_em_eeprom_status_t CheckRanges(cy_stc_eeprom_config_t* config);
  46:Generated_Source\PSoC5/cy_em_eeprom.c **** static cy_en_em_eeprom_status_t WriteRow(uint32 rowAddr, uint32 *rowData, cy_stc_eeprom_context_t *
  47:Generated_Source\PSoC5/cy_em_eeprom.c **** static cy_en_em_eeprom_status_t EraseRow(uint32 rowAddr, uint32 ramBuffAddr, cy_stc_eeprom_context_
  48:Generated_Source\PSoC5/cy_em_eeprom.c **** static cy_en_em_eeprom_status_t CheckCrcAndCopy(uint32 startAddr,
  49:Generated_Source\PSoC5/cy_em_eeprom.c ****                                                 uint32 dstAddr,
  50:Generated_Source\PSoC5/cy_em_eeprom.c ****                                                 uint32 rowOffset,
  51:Generated_Source\PSoC5/cy_em_eeprom.c ****                                                 uint32 numBytes,
  52:Generated_Source\PSoC5/cy_em_eeprom.c ****                                                 cy_stc_eeprom_context_t * context);
  53:Generated_Source\PSoC5/cy_em_eeprom.c **** static uint32 GetAddresses(uint32 *startAddr, uint32 *endAddr, uint32 *offset, uint32 rowNum, uint3
  54:Generated_Source\PSoC5/cy_em_eeprom.c **** static cy_en_em_eeprom_status_t FillChecksum(cy_stc_eeprom_context_t * context);
  55:Generated_Source\PSoC5/cy_em_eeprom.c **** 
  56:Generated_Source\PSoC5/cy_em_eeprom.c **** /**
  57:Generated_Source\PSoC5/cy_em_eeprom.c **** * \addtogroup group_em_eeprom_functions
  58:Generated_Source\PSoC5/cy_em_eeprom.c **** * \{
  59:Generated_Source\PSoC5/cy_em_eeprom.c **** */
  60:Generated_Source\PSoC5/cy_em_eeprom.c **** 
  61:Generated_Source\PSoC5/cy_em_eeprom.c **** /*******************************************************************************
  62:Generated_Source\PSoC5/cy_em_eeprom.c **** * Function Name: Cy_Em_EEPROM_Init
  63:Generated_Source\PSoC5/cy_em_eeprom.c **** ****************************************************************************//**
  64:Generated_Source\PSoC5/cy_em_eeprom.c **** *
  65:Generated_Source\PSoC5/cy_em_eeprom.c **** * Initializes the Emulated EEPROM library by filling the context structure. 
  66:Generated_Source\PSoC5/cy_em_eeprom.c **** *
  67:Generated_Source\PSoC5/cy_em_eeprom.c **** * \param config
  68:Generated_Source\PSoC5/cy_em_eeprom.c **** * The pointer to a configuration structure. See \ref cy_stc_eeprom_config_t.
  69:Generated_Source\PSoC5/cy_em_eeprom.c **** *
  70:Generated_Source\PSoC5/cy_em_eeprom.c **** * \param context
  71:Generated_Source\PSoC5/cy_em_eeprom.c **** * The pointer to the EEPROM context structure to be filled by the function.
  72:Generated_Source\PSoC5/cy_em_eeprom.c **** * \ref cy_stc_eeprom_context_t.
  73:Generated_Source\PSoC5/cy_em_eeprom.c **** *
  74:Generated_Source\PSoC5/cy_em_eeprom.c **** * \return
  75:Generated_Source\PSoC5/cy_em_eeprom.c **** * error / status code. See \ref cy_en_em_eeprom_status_t.
  76:Generated_Source\PSoC5/cy_em_eeprom.c **** *
  77:Generated_Source\PSoC5/cy_em_eeprom.c **** * \note
  78:Generated_Source\PSoC5/cy_em_eeprom.c **** * The context structure should not be modified by the user after it is filled
  79:Generated_Source\PSoC5/cy_em_eeprom.c **** * with this function. Modification of context structure may cause the 
  80:Generated_Source\PSoC5/cy_em_eeprom.c **** * unexpected behavior of the Cy_Em_EEPROM API functions which rely on it.
  81:Generated_Source\PSoC5/cy_em_eeprom.c **** *
  82:Generated_Source\PSoC5/cy_em_eeprom.c **** * \note
  83:Generated_Source\PSoC5/cy_em_eeprom.c **** * This function uses a buffer of the flash row size to perform read
  84:Generated_Source\PSoC5/cy_em_eeprom.c **** * operation. For the size of the row refer to the specific PSoC device
  85:Generated_Source\PSoC5/cy_em_eeprom.c **** * datasheet.
  86:Generated_Source\PSoC5/cy_em_eeprom.c **** *
  87:Generated_Source\PSoC5/cy_em_eeprom.c **** * \sideeffect 
  88:Generated_Source\PSoC5/cy_em_eeprom.c **** * If the "Redundant Copy" option is used, the function performs a number of 
ARM GAS  C:\Users\dmarsch\AppData\Local\Temp\ccpoCrMH.s 			page 3


  89:Generated_Source\PSoC5/cy_em_eeprom.c **** * write operations to the EEPROM to initialize flash rows checksums. Therefore,
  90:Generated_Source\PSoC5/cy_em_eeprom.c **** * Cy_Em_EEPROM_NumWrites(), when it is called right after Cy_Em_EEPROM_Init(), 
  91:Generated_Source\PSoC5/cy_em_eeprom.c **** * will return a non-zero value that identifies the number of writes performed 
  92:Generated_Source\PSoC5/cy_em_eeprom.c **** * by Cy_Em_EEPROM_Init().
  93:Generated_Source\PSoC5/cy_em_eeprom.c **** *
  94:Generated_Source\PSoC5/cy_em_eeprom.c **** *******************************************************************************/
  95:Generated_Source\PSoC5/cy_em_eeprom.c **** cy_en_em_eeprom_status_t Cy_Em_EEPROM_Init(cy_stc_eeprom_config_t* config, cy_stc_eeprom_context_t 
  96:Generated_Source\PSoC5/cy_em_eeprom.c **** {
  97:Generated_Source\PSoC5/cy_em_eeprom.c ****     cy_en_em_eeprom_status_t ret = CY_EM_EEPROM_BAD_PARAM;
  98:Generated_Source\PSoC5/cy_em_eeprom.c **** 
  99:Generated_Source\PSoC5/cy_em_eeprom.c ****     if((NULL != context) && (NULL != config) && (NULL != ((uint32 *)config->userFlashStartAddr)) &&
 100:Generated_Source\PSoC5/cy_em_eeprom.c ****         (config->wearLevelingFactor <= CY_EM_EEPROM_MAX_WEAR_LEVELING_FACTOR) && (config->eepromSiz
 101:Generated_Source\PSoC5/cy_em_eeprom.c ****     {
 102:Generated_Source\PSoC5/cy_em_eeprom.c ****         ret = CheckRanges(config);
 103:Generated_Source\PSoC5/cy_em_eeprom.c **** 
 104:Generated_Source\PSoC5/cy_em_eeprom.c ****         if(CY_EM_EEPROM_SUCCESS == ret)
 105:Generated_Source\PSoC5/cy_em_eeprom.c ****         {
 106:Generated_Source\PSoC5/cy_em_eeprom.c ****             /* Copy the user config structure fields into context */
 107:Generated_Source\PSoC5/cy_em_eeprom.c ****             context->eepromSize = config->eepromSize;
 108:Generated_Source\PSoC5/cy_em_eeprom.c ****             context->wearLevelingFactor = config->wearLevelingFactor;
 109:Generated_Source\PSoC5/cy_em_eeprom.c ****             context->redundantCopy = config->redundantCopy;
 110:Generated_Source\PSoC5/cy_em_eeprom.c ****             context->blockingWrite = config->blockingWrite;
 111:Generated_Source\PSoC5/cy_em_eeprom.c ****             context->userFlashStartAddr = config->userFlashStartAddr;
 112:Generated_Source\PSoC5/cy_em_eeprom.c ****             /* Store frequently used data for internal use */
 113:Generated_Source\PSoC5/cy_em_eeprom.c ****             context->numberOfRows = CY_EM_EEPROM_GET_NUM_ROWS_IN_EEPROM(config->eepromSize);
 114:Generated_Source\PSoC5/cy_em_eeprom.c ****             context->wlEndAddr = ((CY_EM_EEPROM_GET_EEPROM_SIZE(context->numberOfRows) * config->we
 115:Generated_Source\PSoC5/cy_em_eeprom.c ****                     config->userFlashStartAddr);
 116:Generated_Source\PSoC5/cy_em_eeprom.c ****             /* Find last written EEPROM row and store it for quick access */
 117:Generated_Source\PSoC5/cy_em_eeprom.c ****             FindLastWrittenRow(&context->lastWrRowAddr, context);
 118:Generated_Source\PSoC5/cy_em_eeprom.c **** 
 119:Generated_Source\PSoC5/cy_em_eeprom.c ****             if((0u == CY_EM_EEPROM_GET_SEQ_NUM(context->lastWrRowAddr)) && (0u != context->redundan
 120:Generated_Source\PSoC5/cy_em_eeprom.c ****             {
 121:Generated_Source\PSoC5/cy_em_eeprom.c ****                 /* Call the function only after device reprogramming in case
 122:Generated_Source\PSoC5/cy_em_eeprom.c ****                 * if redundant copy is enabled.
 123:Generated_Source\PSoC5/cy_em_eeprom.c ****                 */
 124:Generated_Source\PSoC5/cy_em_eeprom.c ****                 ret = FillChecksum(context);
 125:Generated_Source\PSoC5/cy_em_eeprom.c ****                 
 126:Generated_Source\PSoC5/cy_em_eeprom.c ****                 /* Update the last written EEPROM row for Cy_Em_EEPROM_NumWrites() */
 127:Generated_Source\PSoC5/cy_em_eeprom.c ****                 FindLastWrittenRow(&context->lastWrRowAddr, context);
 128:Generated_Source\PSoC5/cy_em_eeprom.c ****             }
 129:Generated_Source\PSoC5/cy_em_eeprom.c ****         }
 130:Generated_Source\PSoC5/cy_em_eeprom.c ****     }
 131:Generated_Source\PSoC5/cy_em_eeprom.c **** 
 132:Generated_Source\PSoC5/cy_em_eeprom.c ****     return(ret);
 133:Generated_Source\PSoC5/cy_em_eeprom.c **** }
 134:Generated_Source\PSoC5/cy_em_eeprom.c **** 
 135:Generated_Source\PSoC5/cy_em_eeprom.c **** 
 136:Generated_Source\PSoC5/cy_em_eeprom.c **** /*******************************************************************************
 137:Generated_Source\PSoC5/cy_em_eeprom.c **** * Function Name: Cy_Em_EEPROM_Read
 138:Generated_Source\PSoC5/cy_em_eeprom.c **** ****************************************************************************//**
 139:Generated_Source\PSoC5/cy_em_eeprom.c **** *
 140:Generated_Source\PSoC5/cy_em_eeprom.c **** * This function takes the logical EEPROM address, converts it to the actual
 141:Generated_Source\PSoC5/cy_em_eeprom.c **** * physical address where the data is stored and returns the data to the user.
 142:Generated_Source\PSoC5/cy_em_eeprom.c **** *
 143:Generated_Source\PSoC5/cy_em_eeprom.c **** * \param addr
 144:Generated_Source\PSoC5/cy_em_eeprom.c **** * The logical start address in EEPROM to start reading data from.
 145:Generated_Source\PSoC5/cy_em_eeprom.c **** *
ARM GAS  C:\Users\dmarsch\AppData\Local\Temp\ccpoCrMH.s 			page 4


 146:Generated_Source\PSoC5/cy_em_eeprom.c **** * \param eepromData
 147:Generated_Source\PSoC5/cy_em_eeprom.c **** * The pointer to a user array to write data to.
 148:Generated_Source\PSoC5/cy_em_eeprom.c **** *
 149:Generated_Source\PSoC5/cy_em_eeprom.c **** * \param size
 150:Generated_Source\PSoC5/cy_em_eeprom.c **** * The amount of data to read.
 151:Generated_Source\PSoC5/cy_em_eeprom.c **** *
 152:Generated_Source\PSoC5/cy_em_eeprom.c **** * \param context
 153:Generated_Source\PSoC5/cy_em_eeprom.c **** * The pointer to the EEPROM context structure \ref cy_stc_eeprom_context_t.
 154:Generated_Source\PSoC5/cy_em_eeprom.c **** *
 155:Generated_Source\PSoC5/cy_em_eeprom.c **** * \return
 156:Generated_Source\PSoC5/cy_em_eeprom.c **** * This function returns \ref cy_en_em_eeprom_status_t.
 157:Generated_Source\PSoC5/cy_em_eeprom.c **** *
 158:Generated_Source\PSoC5/cy_em_eeprom.c **** * \note
 159:Generated_Source\PSoC5/cy_em_eeprom.c **** * This function uses a buffer of the flash row size to perform read
 160:Generated_Source\PSoC5/cy_em_eeprom.c **** * operation. For the size of the row refer to the specific PSoC device
 161:Generated_Source\PSoC5/cy_em_eeprom.c **** * datasheet.
 162:Generated_Source\PSoC5/cy_em_eeprom.c **** *
 163:Generated_Source\PSoC5/cy_em_eeprom.c **** * \note
 164:Generated_Source\PSoC5/cy_em_eeprom.c **** * In case if redundant copy option is enabled the function may perform writes
 165:Generated_Source\PSoC5/cy_em_eeprom.c **** * to EEPROM. This is done in case if the data in the EEPPROM is corrupted and
 166:Generated_Source\PSoC5/cy_em_eeprom.c **** * the data in redundant copy is valid based on CRC-8 data integrity check.
 167:Generated_Source\PSoC5/cy_em_eeprom.c **** *
 168:Generated_Source\PSoC5/cy_em_eeprom.c **** *******************************************************************************/
 169:Generated_Source\PSoC5/cy_em_eeprom.c **** cy_en_em_eeprom_status_t Cy_Em_EEPROM_Read(uint32 addr, 
 170:Generated_Source\PSoC5/cy_em_eeprom.c ****                                         void * eepromData, 
 171:Generated_Source\PSoC5/cy_em_eeprom.c ****                                         uint32 size,
 172:Generated_Source\PSoC5/cy_em_eeprom.c ****                                         cy_stc_eeprom_context_t * context)
 173:Generated_Source\PSoC5/cy_em_eeprom.c **** {
 174:Generated_Source\PSoC5/cy_em_eeprom.c ****     cy_en_em_eeprom_status_t ret = CY_EM_EEPROM_BAD_PARAM;
 175:Generated_Source\PSoC5/cy_em_eeprom.c ****     uint32 i;
 176:Generated_Source\PSoC5/cy_em_eeprom.c ****     uint32 numBytesToRead;
 177:Generated_Source\PSoC5/cy_em_eeprom.c ****     uint32 curEepromBaseAddr;
 178:Generated_Source\PSoC5/cy_em_eeprom.c ****     uint32 curRowOffset;
 179:Generated_Source\PSoC5/cy_em_eeprom.c ****     uint32 startRowAddr;
 180:Generated_Source\PSoC5/cy_em_eeprom.c ****     uint32 actEepromRowNum;
 181:Generated_Source\PSoC5/cy_em_eeprom.c ****     uint32 curRdEepromRowNum = 0u;
 182:Generated_Source\PSoC5/cy_em_eeprom.c ****     uint32 dataStartEepromRowNum = 0u;
 183:Generated_Source\PSoC5/cy_em_eeprom.c ****     uint32 eeData = (uint32) eepromData; /* To avoid the pointer arithmetic with void */
 184:Generated_Source\PSoC5/cy_em_eeprom.c **** 
 185:Generated_Source\PSoC5/cy_em_eeprom.c ****     /* Validate input parameters */
 186:Generated_Source\PSoC5/cy_em_eeprom.c ****     if((0u != size) && ((addr + size) <= (context->eepromSize)) && (NULL != eepromData))
 187:Generated_Source\PSoC5/cy_em_eeprom.c ****     {
 188:Generated_Source\PSoC5/cy_em_eeprom.c ****         uint32 rdAddr = addr;
 189:Generated_Source\PSoC5/cy_em_eeprom.c ****         uint32 rdSize = size;
 190:Generated_Source\PSoC5/cy_em_eeprom.c ****         /* Get the sequence number of the last written row */
 191:Generated_Source\PSoC5/cy_em_eeprom.c ****         uint32 seqNum = CY_EM_EEPROM_GET_SEQ_NUM(context->lastWrRowAddr);
 192:Generated_Source\PSoC5/cy_em_eeprom.c ****         uint32 updateAddrFlag = 0u;
 193:Generated_Source\PSoC5/cy_em_eeprom.c **** 
 194:Generated_Source\PSoC5/cy_em_eeprom.c ****         /* Calculate the number of the row read operations. Currently this only concerns
 195:Generated_Source\PSoC5/cy_em_eeprom.c ****         * the reads from the EEPROM data locations.
 196:Generated_Source\PSoC5/cy_em_eeprom.c ****         */
 197:Generated_Source\PSoC5/cy_em_eeprom.c ****         uint32 numRowReads = ((((rdAddr + rdSize) - 1u) / CY_EM_EEPROM_EEPROM_DATA_LEN) -
 198:Generated_Source\PSoC5/cy_em_eeprom.c ****                               (rdAddr / CY_EM_EEPROM_EEPROM_DATA_LEN)) + 1u;
 199:Generated_Source\PSoC5/cy_em_eeprom.c **** 
 200:Generated_Source\PSoC5/cy_em_eeprom.c ****         /* Get the address of the first row of the currently active EEPROM sector. If
 201:Generated_Source\PSoC5/cy_em_eeprom.c ****         * no wear leveling is used - the EEPROM has only one sector, so use the base
 202:Generated_Source\PSoC5/cy_em_eeprom.c ****         * addr stored in "context->userFlashStartAddr".
ARM GAS  C:\Users\dmarsch\AppData\Local\Temp\ccpoCrMH.s 			page 5


 203:Generated_Source\PSoC5/cy_em_eeprom.c ****         */
 204:Generated_Source\PSoC5/cy_em_eeprom.c ****         curEepromBaseAddr = (((context->lastWrRowAddr - context->userFlashStartAddr) /
 205:Generated_Source\PSoC5/cy_em_eeprom.c ****                               (CY_EM_EEPROM_FLASH_SIZEOF_ROW * context->numberOfRows)) *
 206:Generated_Source\PSoC5/cy_em_eeprom.c ****                               (CY_EM_EEPROM_FLASH_SIZEOF_ROW * context->numberOfRows)) +
 207:Generated_Source\PSoC5/cy_em_eeprom.c ****                                context->userFlashStartAddr;
 208:Generated_Source\PSoC5/cy_em_eeprom.c **** 
 209:Generated_Source\PSoC5/cy_em_eeprom.c ****         /* Find the number of the row that contains the start address of the data */
 210:Generated_Source\PSoC5/cy_em_eeprom.c ****         for(i = 0u; i < context->numberOfRows; i++)
 211:Generated_Source\PSoC5/cy_em_eeprom.c ****         {
 212:Generated_Source\PSoC5/cy_em_eeprom.c ****             if(0u != CY_EM_EEPROM_IS_ADDR_IN_ROW_RANGE(rdAddr, i))
 213:Generated_Source\PSoC5/cy_em_eeprom.c ****             {
 214:Generated_Source\PSoC5/cy_em_eeprom.c ****                 dataStartEepromRowNum = i;
 215:Generated_Source\PSoC5/cy_em_eeprom.c ****                 curRdEepromRowNum = dataStartEepromRowNum;
 216:Generated_Source\PSoC5/cy_em_eeprom.c ****                 break;
 217:Generated_Source\PSoC5/cy_em_eeprom.c ****             }
 218:Generated_Source\PSoC5/cy_em_eeprom.c ****         }
 219:Generated_Source\PSoC5/cy_em_eeprom.c **** 
 220:Generated_Source\PSoC5/cy_em_eeprom.c ****         /* Find the row number of the last written row */
 221:Generated_Source\PSoC5/cy_em_eeprom.c ****         actEepromRowNum = (context->lastWrRowAddr - curEepromBaseAddr) / CY_EM_EEPROM_FLASH_SIZEOF_
 222:Generated_Source\PSoC5/cy_em_eeprom.c **** 
 223:Generated_Source\PSoC5/cy_em_eeprom.c ****         /* Check if wear leveling is used */
 224:Generated_Source\PSoC5/cy_em_eeprom.c ****         if(context->wearLevelingFactor > 1u)
 225:Generated_Source\PSoC5/cy_em_eeprom.c ****         {
 226:Generated_Source\PSoC5/cy_em_eeprom.c ****             uint32 dataEndEepromRowNum = dataStartEepromRowNum + (numRowReads - 1u);
 227:Generated_Source\PSoC5/cy_em_eeprom.c **** 
 228:Generated_Source\PSoC5/cy_em_eeprom.c ****             /* Check if the future validation of the read address is required. */
 229:Generated_Source\PSoC5/cy_em_eeprom.c ****             updateAddrFlag = (dataStartEepromRowNum > actEepromRowNum) ? 1u :
 230:Generated_Source\PSoC5/cy_em_eeprom.c ****                               ((dataEndEepromRowNum > actEepromRowNum) ? 1u : 0u);
 231:Generated_Source\PSoC5/cy_em_eeprom.c ****         }
 232:Generated_Source\PSoC5/cy_em_eeprom.c **** 
 233:Generated_Source\PSoC5/cy_em_eeprom.c ****         /* Copy data from the EEPROM data locations to the user buffer */
 234:Generated_Source\PSoC5/cy_em_eeprom.c ****         for(i = 0u; i < numRowReads; i++)
 235:Generated_Source\PSoC5/cy_em_eeprom.c ****         {
 236:Generated_Source\PSoC5/cy_em_eeprom.c ****             startRowAddr = curEepromBaseAddr + (curRdEepromRowNum * CY_EM_EEPROM_FLASH_SIZEOF_ROW);
 237:Generated_Source\PSoC5/cy_em_eeprom.c ****             curRowOffset = CY_EM_EEPROM_EEPROM_DATA_LEN + (rdAddr % CY_EM_EEPROM_EEPROM_DATA_LEN);
 238:Generated_Source\PSoC5/cy_em_eeprom.c **** 
 239:Generated_Source\PSoC5/cy_em_eeprom.c ****             /* Check if there are more reads pending and update the number of the
 240:Generated_Source\PSoC5/cy_em_eeprom.c ****             * remaining bytes to read respectively.
 241:Generated_Source\PSoC5/cy_em_eeprom.c ****             */
 242:Generated_Source\PSoC5/cy_em_eeprom.c ****             if((i + 1u) < numRowReads)
 243:Generated_Source\PSoC5/cy_em_eeprom.c ****             {
 244:Generated_Source\PSoC5/cy_em_eeprom.c ****                 numBytesToRead = CY_EM_EEPROM_EEPROM_DATA_LEN - (rdAddr % CY_EM_EEPROM_EEPROM_DATA_
 245:Generated_Source\PSoC5/cy_em_eeprom.c ****             }
 246:Generated_Source\PSoC5/cy_em_eeprom.c ****             else
 247:Generated_Source\PSoC5/cy_em_eeprom.c ****             {
 248:Generated_Source\PSoC5/cy_em_eeprom.c ****                 numBytesToRead = rdSize;
 249:Generated_Source\PSoC5/cy_em_eeprom.c ****             }
 250:Generated_Source\PSoC5/cy_em_eeprom.c **** 
 251:Generated_Source\PSoC5/cy_em_eeprom.c ****             /* Check if the read address needs to be updated to point to the correct
 252:Generated_Source\PSoC5/cy_em_eeprom.c ****             * EEPROM sector.
 253:Generated_Source\PSoC5/cy_em_eeprom.c ****             */
 254:Generated_Source\PSoC5/cy_em_eeprom.c ****             if((0u != updateAddrFlag) && (curRdEepromRowNum > actEepromRowNum))
 255:Generated_Source\PSoC5/cy_em_eeprom.c ****             {
 256:Generated_Source\PSoC5/cy_em_eeprom.c ****                 startRowAddr -= context->numberOfRows * CY_EM_EEPROM_FLASH_SIZEOF_ROW;
 257:Generated_Source\PSoC5/cy_em_eeprom.c **** 
 258:Generated_Source\PSoC5/cy_em_eeprom.c ****                 if(startRowAddr < context->userFlashStartAddr)
 259:Generated_Source\PSoC5/cy_em_eeprom.c ****                 {
ARM GAS  C:\Users\dmarsch\AppData\Local\Temp\ccpoCrMH.s 			page 6


 260:Generated_Source\PSoC5/cy_em_eeprom.c ****                     startRowAddr = context->wlEndAddr -
 261:Generated_Source\PSoC5/cy_em_eeprom.c ****                         ((context->numberOfRows - curRdEepromRowNum) * CY_EM_EEPROM_FLASH_SIZEOF_RO
 262:Generated_Source\PSoC5/cy_em_eeprom.c ****                 }
 263:Generated_Source\PSoC5/cy_em_eeprom.c ****             }
 264:Generated_Source\PSoC5/cy_em_eeprom.c **** 
 265:Generated_Source\PSoC5/cy_em_eeprom.c ****             if(0u != context->redundantCopy)
 266:Generated_Source\PSoC5/cy_em_eeprom.c ****             {
 267:Generated_Source\PSoC5/cy_em_eeprom.c ****                 /* Check a checksum of the EEPROM row and if it is bad, check a checksum in
 268:Generated_Source\PSoC5/cy_em_eeprom.c ****                 * the corresponding row in redundant copy, otherwise return failure.
 269:Generated_Source\PSoC5/cy_em_eeprom.c ****                 */
 270:Generated_Source\PSoC5/cy_em_eeprom.c ****                 ret = CheckCrcAndCopy(startRowAddr, eeData, curRowOffset, numBytesToRead, context);
 271:Generated_Source\PSoC5/cy_em_eeprom.c **** 
 272:Generated_Source\PSoC5/cy_em_eeprom.c ****                 if(CY_EM_EEPROM_SUCCESS != ret)
 273:Generated_Source\PSoC5/cy_em_eeprom.c ****                 {
 274:Generated_Source\PSoC5/cy_em_eeprom.c ****                     break;
 275:Generated_Source\PSoC5/cy_em_eeprom.c ****                 }
 276:Generated_Source\PSoC5/cy_em_eeprom.c ****             }
 277:Generated_Source\PSoC5/cy_em_eeprom.c ****             else
 278:Generated_Source\PSoC5/cy_em_eeprom.c ****             {
 279:Generated_Source\PSoC5/cy_em_eeprom.c ****                 /* Copy the data to the user buffer */
 280:Generated_Source\PSoC5/cy_em_eeprom.c ****                 (void)memcpy((void *)(eeData),
 281:Generated_Source\PSoC5/cy_em_eeprom.c ****                              (void *)(startRowAddr + curRowOffset),
 282:Generated_Source\PSoC5/cy_em_eeprom.c ****                              numBytesToRead);
 283:Generated_Source\PSoC5/cy_em_eeprom.c **** 
 284:Generated_Source\PSoC5/cy_em_eeprom.c ****                 /* Indicate success to be able to execute next code block */
 285:Generated_Source\PSoC5/cy_em_eeprom.c ****                 ret = CY_EM_EEPROM_SUCCESS;
 286:Generated_Source\PSoC5/cy_em_eeprom.c ****             }
 287:Generated_Source\PSoC5/cy_em_eeprom.c **** 
 288:Generated_Source\PSoC5/cy_em_eeprom.c ****             /* Update variables anticipated in the read operation */
 289:Generated_Source\PSoC5/cy_em_eeprom.c ****             rdAddr += numBytesToRead;
 290:Generated_Source\PSoC5/cy_em_eeprom.c ****             rdSize -= numBytesToRead;
 291:Generated_Source\PSoC5/cy_em_eeprom.c ****             eeData += numBytesToRead;
 292:Generated_Source\PSoC5/cy_em_eeprom.c ****             curRdEepromRowNum++;
 293:Generated_Source\PSoC5/cy_em_eeprom.c ****         }
 294:Generated_Source\PSoC5/cy_em_eeprom.c **** 
 295:Generated_Source\PSoC5/cy_em_eeprom.c ****         /* This code block will copy the latest data from the EEPROM headers into the
 296:Generated_Source\PSoC5/cy_em_eeprom.c ****         * user buffer. The data previously copied into the user buffer may be updated
 297:Generated_Source\PSoC5/cy_em_eeprom.c ****         * as the EEPROM headers contain more recent data. 
 298:Generated_Source\PSoC5/cy_em_eeprom.c ****         * The code block is executed when two following conditions are true:
 299:Generated_Source\PSoC5/cy_em_eeprom.c ****         *  1) The reads from "historic" data locations were successful;
 300:Generated_Source\PSoC5/cy_em_eeprom.c ****         *  2) The user performed at least one write operation to Em_EEPROM (0u !=
 301:Generated_Source\PSoC5/cy_em_eeprom.c ****         *     seqNum).        
 302:Generated_Source\PSoC5/cy_em_eeprom.c ****         */
 303:Generated_Source\PSoC5/cy_em_eeprom.c ****         if((CY_EM_EEPROM_SUCCESS == ret) && (0u != seqNum))
 304:Generated_Source\PSoC5/cy_em_eeprom.c ****         {
 305:Generated_Source\PSoC5/cy_em_eeprom.c ****             numRowReads = (context->numberOfRows <= seqNum) ? (context->numberOfRows) : (seqNum);
 306:Generated_Source\PSoC5/cy_em_eeprom.c ****             numRowReads--;
 307:Generated_Source\PSoC5/cy_em_eeprom.c **** 
 308:Generated_Source\PSoC5/cy_em_eeprom.c ****             for(i = (seqNum - numRowReads); i <= seqNum; i++)
 309:Generated_Source\PSoC5/cy_em_eeprom.c ****             {
 310:Generated_Source\PSoC5/cy_em_eeprom.c ****                 startRowAddr = GetRowAddrBySeqNum(i, context);
 311:Generated_Source\PSoC5/cy_em_eeprom.c **** 
 312:Generated_Source\PSoC5/cy_em_eeprom.c ****                 if (0u != startRowAddr)
 313:Generated_Source\PSoC5/cy_em_eeprom.c ****                 {
 314:Generated_Source\PSoC5/cy_em_eeprom.c ****                     /* The following variables are introduced to increase code readability. */
 315:Generated_Source\PSoC5/cy_em_eeprom.c ****                     uint32 startAddr  = *(uint32 *)(startRowAddr + CY_EM_EEPROM_HEADER_ADDR_OFFSET)
 316:Generated_Source\PSoC5/cy_em_eeprom.c ****                     uint32 endAddr    = startAddr + (*(uint32 *)(startRowAddr + CY_EM_EEPROM_HEADER
ARM GAS  C:\Users\dmarsch\AppData\Local\Temp\ccpoCrMH.s 			page 7


 317:Generated_Source\PSoC5/cy_em_eeprom.c **** 
 318:Generated_Source\PSoC5/cy_em_eeprom.c ****                     /* Check if the current row EEPROM header contains the data requested for read 
 319:Generated_Source\PSoC5/cy_em_eeprom.c ****                     if(0u != CY_EM_EEPROM_IS_ADDRESES_CROSSING(startAddr, endAddr, addr, addr + siz
 320:Generated_Source\PSoC5/cy_em_eeprom.c ****                     {
 321:Generated_Source\PSoC5/cy_em_eeprom.c ****                         uint32 srcOffset = (startAddr > addr) ? (0u) : (addr - startAddr);
 322:Generated_Source\PSoC5/cy_em_eeprom.c ****                         uint32 dstOffset = (startAddr > addr) ? (startAddr - addr): (0u);
 323:Generated_Source\PSoC5/cy_em_eeprom.c ****                         rdAddr = (startAddr > addr) ? (startAddr) : (addr);
 324:Generated_Source\PSoC5/cy_em_eeprom.c **** 
 325:Generated_Source\PSoC5/cy_em_eeprom.c ****                         srcOffset += CY_EM_EEPROM_HEADER_DATA_OFFSET;
 326:Generated_Source\PSoC5/cy_em_eeprom.c **** 
 327:Generated_Source\PSoC5/cy_em_eeprom.c ****                         /* Calculate the number of bytes to be read from the current row's EEPROM h
 328:Generated_Source\PSoC5/cy_em_eeprom.c ****                         numBytesToRead = ((endAddr < (addr + size)) ? endAddr : (addr + size)) - rd
 329:Generated_Source\PSoC5/cy_em_eeprom.c **** 
 330:Generated_Source\PSoC5/cy_em_eeprom.c ****                         /* Calculate the offset in the user buffer from which the data will be upda
 331:Generated_Source\PSoC5/cy_em_eeprom.c ****                         eeData = ((uint32)eepromData) + dstOffset;
 332:Generated_Source\PSoC5/cy_em_eeprom.c **** 
 333:Generated_Source\PSoC5/cy_em_eeprom.c ****                         /* Check a checksum of the EEPROM row and if it is bad, check a checksum in
 334:Generated_Source\PSoC5/cy_em_eeprom.c ****                         * corresponding row in redundant copy, otherwise return failure. Copy the d
 335:Generated_Source\PSoC5/cy_em_eeprom.c ****                         * from the recent EEPROM headers to the user buffer. This will overwrite th
 336:Generated_Source\PSoC5/cy_em_eeprom.c ****                         * data copied form EEPROM data locations as the data in EEPROM headers is n
 337:Generated_Source\PSoC5/cy_em_eeprom.c ****                         */
 338:Generated_Source\PSoC5/cy_em_eeprom.c ****                         if(0u != context->redundantCopy)
 339:Generated_Source\PSoC5/cy_em_eeprom.c ****                         {
 340:Generated_Source\PSoC5/cy_em_eeprom.c ****                             ret = CheckCrcAndCopy(startRowAddr, eeData, srcOffset, numBytesToRead, 
 341:Generated_Source\PSoC5/cy_em_eeprom.c **** 
 342:Generated_Source\PSoC5/cy_em_eeprom.c ****                             if(CY_EM_EEPROM_SUCCESS != ret)
 343:Generated_Source\PSoC5/cy_em_eeprom.c ****                             {
 344:Generated_Source\PSoC5/cy_em_eeprom.c ****                                 break;
 345:Generated_Source\PSoC5/cy_em_eeprom.c ****                             }
 346:Generated_Source\PSoC5/cy_em_eeprom.c ****                         }
 347:Generated_Source\PSoC5/cy_em_eeprom.c ****                         else
 348:Generated_Source\PSoC5/cy_em_eeprom.c ****                         {
 349:Generated_Source\PSoC5/cy_em_eeprom.c ****                             (void)memcpy((void *)(eeData), (void *)(startRowAddr + srcOffset), numB
 350:Generated_Source\PSoC5/cy_em_eeprom.c ****                         }
 351:Generated_Source\PSoC5/cy_em_eeprom.c ****                     }
 352:Generated_Source\PSoC5/cy_em_eeprom.c ****                 }
 353:Generated_Source\PSoC5/cy_em_eeprom.c ****             }
 354:Generated_Source\PSoC5/cy_em_eeprom.c ****         }
 355:Generated_Source\PSoC5/cy_em_eeprom.c ****     }
 356:Generated_Source\PSoC5/cy_em_eeprom.c **** 
 357:Generated_Source\PSoC5/cy_em_eeprom.c ****     return(ret);
 358:Generated_Source\PSoC5/cy_em_eeprom.c **** }
 359:Generated_Source\PSoC5/cy_em_eeprom.c **** 
 360:Generated_Source\PSoC5/cy_em_eeprom.c **** 
 361:Generated_Source\PSoC5/cy_em_eeprom.c **** /*******************************************************************************
 362:Generated_Source\PSoC5/cy_em_eeprom.c **** * Function Name: Cy_Em_EEPROM_Write
 363:Generated_Source\PSoC5/cy_em_eeprom.c **** ****************************************************************************//**
 364:Generated_Source\PSoC5/cy_em_eeprom.c **** *
 365:Generated_Source\PSoC5/cy_em_eeprom.c **** * This function takes the logical EEPROM address and converts it to the actual
 366:Generated_Source\PSoC5/cy_em_eeprom.c **** * physical address and writes data there. If wear leveling is implemented, the
 367:Generated_Source\PSoC5/cy_em_eeprom.c **** * writing process will use the wear leveling techniques. This is a blocking
 368:Generated_Source\PSoC5/cy_em_eeprom.c **** * function and it does not return until the write operation is completed. The
 369:Generated_Source\PSoC5/cy_em_eeprom.c **** * user firmware should not enter Hibernate mode until write is completed. The
 370:Generated_Source\PSoC5/cy_em_eeprom.c **** * write operation is allowed in Sleep and Deep-Sleep modes. During the flash
 371:Generated_Source\PSoC5/cy_em_eeprom.c **** * operation, the device should not be reset, including the XRES pin, a software
 372:Generated_Source\PSoC5/cy_em_eeprom.c **** * reset, and watchdog reset sources. Also, low-voltage detect circuits should
 373:Generated_Source\PSoC5/cy_em_eeprom.c **** * be configured to generate an interrupt instead of a reset. Otherwise, portions
ARM GAS  C:\Users\dmarsch\AppData\Local\Temp\ccpoCrMH.s 			page 8


 374:Generated_Source\PSoC5/cy_em_eeprom.c **** * of flash may undergo unexpected changes.
 375:Generated_Source\PSoC5/cy_em_eeprom.c **** *
 376:Generated_Source\PSoC5/cy_em_eeprom.c **** * \param addr
 377:Generated_Source\PSoC5/cy_em_eeprom.c **** * The logical start address in EEPROM to start writing data from.
 378:Generated_Source\PSoC5/cy_em_eeprom.c **** *
 379:Generated_Source\PSoC5/cy_em_eeprom.c **** * \param eepromData
 380:Generated_Source\PSoC5/cy_em_eeprom.c **** * Data to write to EEPROM.
 381:Generated_Source\PSoC5/cy_em_eeprom.c **** *
 382:Generated_Source\PSoC5/cy_em_eeprom.c **** * \param size
 383:Generated_Source\PSoC5/cy_em_eeprom.c **** * The amount of data to write to EEPROM.
 384:Generated_Source\PSoC5/cy_em_eeprom.c **** *
 385:Generated_Source\PSoC5/cy_em_eeprom.c **** * \param context
 386:Generated_Source\PSoC5/cy_em_eeprom.c **** * The pointer to the EEPROM context structure \ref cy_stc_eeprom_context_t.
 387:Generated_Source\PSoC5/cy_em_eeprom.c **** *
 388:Generated_Source\PSoC5/cy_em_eeprom.c **** * \return
 389:Generated_Source\PSoC5/cy_em_eeprom.c **** * This function returns \ref cy_en_em_eeprom_status_t.
 390:Generated_Source\PSoC5/cy_em_eeprom.c **** *
 391:Generated_Source\PSoC5/cy_em_eeprom.c **** * \note
 392:Generated_Source\PSoC5/cy_em_eeprom.c **** * This function uses a buffer of the flash row size to perform write
 393:Generated_Source\PSoC5/cy_em_eeprom.c **** * operation. For the size of the row refer to the specific PSoC device
 394:Generated_Source\PSoC5/cy_em_eeprom.c **** * datasheet.
 395:Generated_Source\PSoC5/cy_em_eeprom.c **** *
 396:Generated_Source\PSoC5/cy_em_eeprom.c **** * \sideeffect
 397:Generated_Source\PSoC5/cy_em_eeprom.c **** * In case when blocking write option is used, if this function is called by
 398:Generated_Source\PSoC5/cy_em_eeprom.c **** * the CM4 the user code on CM0P and the user code on CM4 are blocked until erase
 399:Generated_Source\PSoC5/cy_em_eeprom.c **** * flash row operation is finished. If this function is called by the CM0P the
 400:Generated_Source\PSoC5/cy_em_eeprom.c **** * user code on CM4 is not blocked and the user code on CM0P is blocked until
 401:Generated_Source\PSoC5/cy_em_eeprom.c **** * erase flash row operation is finished. Plan your task allocation accordingly.
 402:Generated_Source\PSoC5/cy_em_eeprom.c **** *
 403:Generated_Source\PSoC5/cy_em_eeprom.c **** * \sideeffect
 404:Generated_Source\PSoC5/cy_em_eeprom.c **** * In case if non-blocking write option is used and when user flash is used as
 405:Generated_Source\PSoC5/cy_em_eeprom.c **** * an EEPROM storage care should be taken to prevent the read while write (RWW)
 406:Generated_Source\PSoC5/cy_em_eeprom.c **** * exception. To prevent the RWW exception the user flash macro that includes
 407:Generated_Source\PSoC5/cy_em_eeprom.c **** * the EEPROM storage should not be read while the EEPROM write is not completed.
 408:Generated_Source\PSoC5/cy_em_eeprom.c **** * The read also means the user code execution from the respective flash macro.
 409:Generated_Source\PSoC5/cy_em_eeprom.c **** *
 410:Generated_Source\PSoC5/cy_em_eeprom.c **** *******************************************************************************/
 411:Generated_Source\PSoC5/cy_em_eeprom.c **** cy_en_em_eeprom_status_t Cy_Em_EEPROM_Write(uint32 addr,
 412:Generated_Source\PSoC5/cy_em_eeprom.c ****                                             void * eepromData,
 413:Generated_Source\PSoC5/cy_em_eeprom.c ****                                             uint32 size,
 414:Generated_Source\PSoC5/cy_em_eeprom.c ****                                             cy_stc_eeprom_context_t * context)
 415:Generated_Source\PSoC5/cy_em_eeprom.c **** {
 416:Generated_Source\PSoC5/cy_em_eeprom.c ****     cy_en_em_eeprom_status_t ret = CY_EM_EEPROM_BAD_PARAM;
 417:Generated_Source\PSoC5/cy_em_eeprom.c ****     uint32 i;
 418:Generated_Source\PSoC5/cy_em_eeprom.c ****     uint32 wrCnt;
 419:Generated_Source\PSoC5/cy_em_eeprom.c ****     uint32 actEmEepromRowNum;
 420:Generated_Source\PSoC5/cy_em_eeprom.c ****     uint32 writeRamBuffer[CY_EM_EEPROM_FLASH_SIZEOF_ROW / CY_EM_EEPROM_U32_DIV];
 421:Generated_Source\PSoC5/cy_em_eeprom.c ****     uint32 startAddr = 0u;
 422:Generated_Source\PSoC5/cy_em_eeprom.c ****     uint32 endAddr = 0u;
 423:Generated_Source\PSoC5/cy_em_eeprom.c ****     uint32 tmpRowAddr;
 424:Generated_Source\PSoC5/cy_em_eeprom.c ****     uint32 emEepromRowAddr = context->lastWrRowAddr;
 425:Generated_Source\PSoC5/cy_em_eeprom.c ****     uint32 emEepromRowRdAddr;
 426:Generated_Source\PSoC5/cy_em_eeprom.c ****     void * tmpData;
 427:Generated_Source\PSoC5/cy_em_eeprom.c ****     uint32 eeData = (uint32) eepromData; /* To avoid the pointer arithmetic with void */
 428:Generated_Source\PSoC5/cy_em_eeprom.c **** 
 429:Generated_Source\PSoC5/cy_em_eeprom.c ****     /* Check if the EEPROM data does not exceed the EEPROM capacity */
 430:Generated_Source\PSoC5/cy_em_eeprom.c ****     if((0u != size) && ((addr + size) <= (context->eepromSize)) && (NULL != eepromData))
ARM GAS  C:\Users\dmarsch\AppData\Local\Temp\ccpoCrMH.s 			page 9


 431:Generated_Source\PSoC5/cy_em_eeprom.c ****     {
 432:Generated_Source\PSoC5/cy_em_eeprom.c ****         uint32 numWrites = ((size - 1u) / CY_EM_EEPROM_HEADER_DATA_LEN) + 1u;
 433:Generated_Source\PSoC5/cy_em_eeprom.c ****         uint32 eeHeaderDataOffset = 0u;
 434:Generated_Source\PSoC5/cy_em_eeprom.c **** 
 435:Generated_Source\PSoC5/cy_em_eeprom.c ****         for(wrCnt = 0u; wrCnt < numWrites; wrCnt++)
 436:Generated_Source\PSoC5/cy_em_eeprom.c ****         {
 437:Generated_Source\PSoC5/cy_em_eeprom.c ****             uint32 skipOperation = 0u;
 438:Generated_Source\PSoC5/cy_em_eeprom.c ****             /* Get the sequence number of the last written row */
 439:Generated_Source\PSoC5/cy_em_eeprom.c ****             uint32 seqNum = CY_EM_EEPROM_GET_SEQ_NUM(emEepromRowAddr);
 440:Generated_Source\PSoC5/cy_em_eeprom.c **** 
 441:Generated_Source\PSoC5/cy_em_eeprom.c ****             /* Get the address of the row to be written. The "emEepromRowAddr" may be
 442:Generated_Source\PSoC5/cy_em_eeprom.c ****             * updated with the proper address (if wear leveling is used). The
 443:Generated_Source\PSoC5/cy_em_eeprom.c ****             * "emEepromRowRdAddr" will point to the row address from which the historic
 444:Generated_Source\PSoC5/cy_em_eeprom.c ****             * data will be read into the RAM buffer.
 445:Generated_Source\PSoC5/cy_em_eeprom.c ****             */
 446:Generated_Source\PSoC5/cy_em_eeprom.c ****             GetNextRowToWrite(seqNum, &emEepromRowAddr, &emEepromRowRdAddr, context);
 447:Generated_Source\PSoC5/cy_em_eeprom.c **** 
 448:Generated_Source\PSoC5/cy_em_eeprom.c ****             /* Clear the RAM buffer so to not put junk into flash */
 449:Generated_Source\PSoC5/cy_em_eeprom.c ****             (void)memset(writeRamBuffer, 0, CY_EM_EEPROM_FLASH_SIZEOF_ROW);
 450:Generated_Source\PSoC5/cy_em_eeprom.c **** 
 451:Generated_Source\PSoC5/cy_em_eeprom.c ****             /* Fill the EM_EEPROM header info for the row in the RAM buffer */
 452:Generated_Source\PSoC5/cy_em_eeprom.c ****             seqNum++;
 453:Generated_Source\PSoC5/cy_em_eeprom.c ****             writeRamBuffer[CY_EM_EEPROM_HEADER_SEQ_NUM_OFFSET_U32] = seqNum;
 454:Generated_Source\PSoC5/cy_em_eeprom.c ****             writeRamBuffer[CY_EM_EEPROM_HEADER_ADDR_OFFSET_U32] = addr;
 455:Generated_Source\PSoC5/cy_em_eeprom.c ****             tmpData = (void *) eeData;
 456:Generated_Source\PSoC5/cy_em_eeprom.c **** 
 457:Generated_Source\PSoC5/cy_em_eeprom.c ****             /* Check if this is the last row to write */
 458:Generated_Source\PSoC5/cy_em_eeprom.c ****             if(wrCnt == (numWrites - 1u))
 459:Generated_Source\PSoC5/cy_em_eeprom.c ****             {
 460:Generated_Source\PSoC5/cy_em_eeprom.c ****                 /* Fill in the remaining size value to the EEPROM header. */
 461:Generated_Source\PSoC5/cy_em_eeprom.c ****                 writeRamBuffer[CY_EM_EEPROM_HEADER_LEN_OFFSET_U32] = size;
 462:Generated_Source\PSoC5/cy_em_eeprom.c ****             }
 463:Generated_Source\PSoC5/cy_em_eeprom.c ****             else
 464:Generated_Source\PSoC5/cy_em_eeprom.c ****             {
 465:Generated_Source\PSoC5/cy_em_eeprom.c ****                 /* This is not the last row to write in the current EEPROM write operation.
 466:Generated_Source\PSoC5/cy_em_eeprom.c ****                 * Write the maximum possible data size to the EEPROM header. Update the
 467:Generated_Source\PSoC5/cy_em_eeprom.c ****                 * size, eeData and addr respectively.
 468:Generated_Source\PSoC5/cy_em_eeprom.c ****                 */
 469:Generated_Source\PSoC5/cy_em_eeprom.c ****                 writeRamBuffer[CY_EM_EEPROM_HEADER_LEN_OFFSET_U32] = CY_EM_EEPROM_HEADER_DATA_LEN;
 470:Generated_Source\PSoC5/cy_em_eeprom.c ****                 size -= CY_EM_EEPROM_HEADER_DATA_LEN;
 471:Generated_Source\PSoC5/cy_em_eeprom.c ****                 addr += CY_EM_EEPROM_HEADER_DATA_LEN;
 472:Generated_Source\PSoC5/cy_em_eeprom.c ****                 eeData += CY_EM_EEPROM_HEADER_DATA_LEN;
 473:Generated_Source\PSoC5/cy_em_eeprom.c ****             }
 474:Generated_Source\PSoC5/cy_em_eeprom.c **** 
 475:Generated_Source\PSoC5/cy_em_eeprom.c ****             /* Write the data to the EEPROM header */
 476:Generated_Source\PSoC5/cy_em_eeprom.c ****             (void)memcpy((void *)&writeRamBuffer[CY_EM_EEPROM_HEADER_DATA_OFFSET_U32],
 477:Generated_Source\PSoC5/cy_em_eeprom.c ****                          tmpData,
 478:Generated_Source\PSoC5/cy_em_eeprom.c ****                          writeRamBuffer[CY_EM_EEPROM_HEADER_LEN_OFFSET_U32]);
 479:Generated_Source\PSoC5/cy_em_eeprom.c **** 
 480:Generated_Source\PSoC5/cy_em_eeprom.c ****             if(emEepromRowRdAddr != 0UL)
 481:Generated_Source\PSoC5/cy_em_eeprom.c ****             {
 482:Generated_Source\PSoC5/cy_em_eeprom.c ****                 /* Copy the EEPROM historic data for this row from flash to RAM */
 483:Generated_Source\PSoC5/cy_em_eeprom.c ****                 (void)memcpy((void *)&writeRamBuffer[CY_EM_EEPROM_EEPROM_DATA_OFFSET_U32],
 484:Generated_Source\PSoC5/cy_em_eeprom.c ****                              (void *)(emEepromRowRdAddr + CY_EM_EEPROM_EEPROM_DATA_LEN),
 485:Generated_Source\PSoC5/cy_em_eeprom.c ****                              CY_EM_EEPROM_EEPROM_DATA_LEN);
 486:Generated_Source\PSoC5/cy_em_eeprom.c ****             }
 487:Generated_Source\PSoC5/cy_em_eeprom.c **** 
ARM GAS  C:\Users\dmarsch\AppData\Local\Temp\ccpoCrMH.s 			page 10


 488:Generated_Source\PSoC5/cy_em_eeprom.c ****             /* Check if there is data for this location in other EEPROM headers:
 489:Generated_Source\PSoC5/cy_em_eeprom.c ****             * find out the row with the lowest possible sequence number which
 490:Generated_Source\PSoC5/cy_em_eeprom.c ****             * may contain the data for the current row.
 491:Generated_Source\PSoC5/cy_em_eeprom.c ****             */
 492:Generated_Source\PSoC5/cy_em_eeprom.c ****             i = (seqNum > context->numberOfRows) ? ((seqNum - (context->numberOfRows)) + 1u) : 1u;
 493:Generated_Source\PSoC5/cy_em_eeprom.c **** 
 494:Generated_Source\PSoC5/cy_em_eeprom.c ****             for(; i <= seqNum; i++)
 495:Generated_Source\PSoC5/cy_em_eeprom.c ****             {
 496:Generated_Source\PSoC5/cy_em_eeprom.c ****                 if(i == seqNum)
 497:Generated_Source\PSoC5/cy_em_eeprom.c ****                 {
 498:Generated_Source\PSoC5/cy_em_eeprom.c ****                     /* The code reached the row that is about to be written. Analyze the recently
 499:Generated_Source\PSoC5/cy_em_eeprom.c ****                     * created EEPROM header (stored in the RAM buffer currently): if it contains
 500:Generated_Source\PSoC5/cy_em_eeprom.c ****                     * the data for EEPROM data locations in the row that is about to be written.
 501:Generated_Source\PSoC5/cy_em_eeprom.c ****                     */
 502:Generated_Source\PSoC5/cy_em_eeprom.c ****                     tmpRowAddr = (uint32) writeRamBuffer;
 503:Generated_Source\PSoC5/cy_em_eeprom.c ****                 }
 504:Generated_Source\PSoC5/cy_em_eeprom.c ****                 else
 505:Generated_Source\PSoC5/cy_em_eeprom.c ****                 {
 506:Generated_Source\PSoC5/cy_em_eeprom.c ****                     /* Retrieve the address of the previously written row by its sequence number.
 507:Generated_Source\PSoC5/cy_em_eeprom.c ****                     * The pointer will be used to get data from the respective EEPROM header.
 508:Generated_Source\PSoC5/cy_em_eeprom.c ****                     */
 509:Generated_Source\PSoC5/cy_em_eeprom.c ****                     tmpRowAddr = GetRowAddrBySeqNum(i, context);
 510:Generated_Source\PSoC5/cy_em_eeprom.c ****                 }
 511:Generated_Source\PSoC5/cy_em_eeprom.c **** 
 512:Generated_Source\PSoC5/cy_em_eeprom.c ****                 actEmEepromRowNum = CY_EM_EEPROM_GET_ACT_ROW_NUM_FROM_ADDR(emEepromRowAddr,
 513:Generated_Source\PSoC5/cy_em_eeprom.c ****                                                                            context->numberOfRows,
 514:Generated_Source\PSoC5/cy_em_eeprom.c ****                                                                            context->userFlashStartA
 515:Generated_Source\PSoC5/cy_em_eeprom.c ****                 if(0UL != tmpRowAddr)
 516:Generated_Source\PSoC5/cy_em_eeprom.c ****                 {
 517:Generated_Source\PSoC5/cy_em_eeprom.c ****                     /* Calculate the required addressed for the later EEPROM historic data update *
 518:Generated_Source\PSoC5/cy_em_eeprom.c ****                     skipOperation = GetAddresses(
 519:Generated_Source\PSoC5/cy_em_eeprom.c ****                                               &startAddr,
 520:Generated_Source\PSoC5/cy_em_eeprom.c ****                                               &endAddr,
 521:Generated_Source\PSoC5/cy_em_eeprom.c ****                                               &eeHeaderDataOffset,
 522:Generated_Source\PSoC5/cy_em_eeprom.c ****                                               actEmEepromRowNum,
 523:Generated_Source\PSoC5/cy_em_eeprom.c ****                                               *(uint32 *)(tmpRowAddr + CY_EM_EEPROM_HEADER_ADDR_OFF
 524:Generated_Source\PSoC5/cy_em_eeprom.c ****                                               *(uint32 *)(tmpRowAddr + CY_EM_EEPROM_HEADER_LEN_OFFS
 525:Generated_Source\PSoC5/cy_em_eeprom.c ****                 }
 526:Generated_Source\PSoC5/cy_em_eeprom.c ****                 else
 527:Generated_Source\PSoC5/cy_em_eeprom.c ****                 {
 528:Generated_Source\PSoC5/cy_em_eeprom.c ****                     /* Skip writes to the RAM buffer */
 529:Generated_Source\PSoC5/cy_em_eeprom.c ****                     skipOperation++;
 530:Generated_Source\PSoC5/cy_em_eeprom.c ****                 }
 531:Generated_Source\PSoC5/cy_em_eeprom.c **** 
 532:Generated_Source\PSoC5/cy_em_eeprom.c ****                 /* Write data to the RAM buffer */
 533:Generated_Source\PSoC5/cy_em_eeprom.c ****                 if(0u == skipOperation)
 534:Generated_Source\PSoC5/cy_em_eeprom.c ****                 {
 535:Generated_Source\PSoC5/cy_em_eeprom.c ****                     uint32 dataAddr = ((uint32)((uint8 *)&writeRamBuffer)) + startAddr;
 536:Generated_Source\PSoC5/cy_em_eeprom.c **** 
 537:Generated_Source\PSoC5/cy_em_eeprom.c ****                     /* Update the address to point to the EEPROM header data and not to
 538:Generated_Source\PSoC5/cy_em_eeprom.c ****                     * the start of the row.
 539:Generated_Source\PSoC5/cy_em_eeprom.c ****                     */
 540:Generated_Source\PSoC5/cy_em_eeprom.c ****                     tmpRowAddr = tmpRowAddr + CY_EM_EEPROM_HEADER_DATA_OFFSET + eeHeaderDataOffset;
 541:Generated_Source\PSoC5/cy_em_eeprom.c ****                     (void)memcpy((void *)(dataAddr), (void *)(tmpRowAddr), endAddr - startAddr);
 542:Generated_Source\PSoC5/cy_em_eeprom.c ****                 }
 543:Generated_Source\PSoC5/cy_em_eeprom.c **** 
 544:Generated_Source\PSoC5/cy_em_eeprom.c ****                 /* Calculate the checksum if redundant copy is enabled */
ARM GAS  C:\Users\dmarsch\AppData\Local\Temp\ccpoCrMH.s 			page 11


 545:Generated_Source\PSoC5/cy_em_eeprom.c ****                 if(0u != context->redundantCopy)
 546:Generated_Source\PSoC5/cy_em_eeprom.c ****                 {
 547:Generated_Source\PSoC5/cy_em_eeprom.c ****                     writeRamBuffer[CY_EM_EEPROM_HEADER_CHECKSUM_OFFSET_U32] = (uint32)
 548:Generated_Source\PSoC5/cy_em_eeprom.c ****                         CalcChecksum((uint8 *) &writeRamBuffer[CY_EM_EEPROM_EEPROM_DATA_OFFSET_U32]
 549:Generated_Source\PSoC5/cy_em_eeprom.c ****                                                   CY_EM_EEPROM_EEPROM_DATA_LEN);
 550:Generated_Source\PSoC5/cy_em_eeprom.c ****                 }
 551:Generated_Source\PSoC5/cy_em_eeprom.c ****             }
 552:Generated_Source\PSoC5/cy_em_eeprom.c **** 
 553:Generated_Source\PSoC5/cy_em_eeprom.c ****             /* Write the data to the specified flash row */
 554:Generated_Source\PSoC5/cy_em_eeprom.c ****             ret = WriteRow(emEepromRowAddr, writeRamBuffer, context);
 555:Generated_Source\PSoC5/cy_em_eeprom.c ****             tmpRowAddr = emEepromRowAddr;
 556:Generated_Source\PSoC5/cy_em_eeprom.c **** 
 557:Generated_Source\PSoC5/cy_em_eeprom.c ****             /* Check if redundant copy is used */
 558:Generated_Source\PSoC5/cy_em_eeprom.c ****             if((0u != context->redundantCopy) && (CY_EM_EEPROM_SUCCESS == ret))
 559:Generated_Source\PSoC5/cy_em_eeprom.c ****             {
 560:Generated_Source\PSoC5/cy_em_eeprom.c ****                 /* Update the row address to point to the row in the redundant EEPROM's copy */
 561:Generated_Source\PSoC5/cy_em_eeprom.c ****                 tmpRowAddr = (emEepromRowAddr - context->userFlashStartAddr) + context->wlEndAddr;
 562:Generated_Source\PSoC5/cy_em_eeprom.c **** 
 563:Generated_Source\PSoC5/cy_em_eeprom.c ****                 /* Write the data to the specified flash row */
 564:Generated_Source\PSoC5/cy_em_eeprom.c ****                 ret = WriteRow(tmpRowAddr, writeRamBuffer, context);
 565:Generated_Source\PSoC5/cy_em_eeprom.c ****             }
 566:Generated_Source\PSoC5/cy_em_eeprom.c **** 
 567:Generated_Source\PSoC5/cy_em_eeprom.c ****             if(CY_EM_EEPROM_SUCCESS == ret)
 568:Generated_Source\PSoC5/cy_em_eeprom.c ****             {
 569:Generated_Source\PSoC5/cy_em_eeprom.c ****                 /* Store last written row address only when EEPROM and redundant
 570:Generated_Source\PSoC5/cy_em_eeprom.c ****                 * copy writes were successful.
 571:Generated_Source\PSoC5/cy_em_eeprom.c ****                 */
 572:Generated_Source\PSoC5/cy_em_eeprom.c ****                 context->lastWrRowAddr = emEepromRowAddr;
 573:Generated_Source\PSoC5/cy_em_eeprom.c ****             }
 574:Generated_Source\PSoC5/cy_em_eeprom.c ****             else
 575:Generated_Source\PSoC5/cy_em_eeprom.c ****             {
 576:Generated_Source\PSoC5/cy_em_eeprom.c ****                 break;
 577:Generated_Source\PSoC5/cy_em_eeprom.c ****             }
 578:Generated_Source\PSoC5/cy_em_eeprom.c ****         }
 579:Generated_Source\PSoC5/cy_em_eeprom.c ****     }
 580:Generated_Source\PSoC5/cy_em_eeprom.c ****     return(ret);
 581:Generated_Source\PSoC5/cy_em_eeprom.c **** }
 582:Generated_Source\PSoC5/cy_em_eeprom.c **** 
 583:Generated_Source\PSoC5/cy_em_eeprom.c **** 
 584:Generated_Source\PSoC5/cy_em_eeprom.c **** /*******************************************************************************
 585:Generated_Source\PSoC5/cy_em_eeprom.c **** * Function Name: Cy_Em_EEPROM_Erase
 586:Generated_Source\PSoC5/cy_em_eeprom.c **** ****************************************************************************//**
 587:Generated_Source\PSoC5/cy_em_eeprom.c **** *
 588:Generated_Source\PSoC5/cy_em_eeprom.c **** * This function erases the entire contents of the EEPROM. Erased values are all
 589:Generated_Source\PSoC5/cy_em_eeprom.c **** * zeros. This is a blocking function and it does not return until the write
 590:Generated_Source\PSoC5/cy_em_eeprom.c **** * operation is completed. The user firmware should not enter Hibernate mode until
 591:Generated_Source\PSoC5/cy_em_eeprom.c **** * erase is completed. The erase operation is allowed in Sleep and Deep-Sleep modes.
 592:Generated_Source\PSoC5/cy_em_eeprom.c **** * During the flash operation, the device should not be reset, including the
 593:Generated_Source\PSoC5/cy_em_eeprom.c **** * XRES pin, a software reset, and watchdog reset sources. Also, low-voltage
 594:Generated_Source\PSoC5/cy_em_eeprom.c **** * detect circuits should be configured to generate an interrupt instead of a
 595:Generated_Source\PSoC5/cy_em_eeprom.c **** * reset. Otherwise, portions of flash may undergo unexpected changes.
 596:Generated_Source\PSoC5/cy_em_eeprom.c **** *
 597:Generated_Source\PSoC5/cy_em_eeprom.c **** * \param context
 598:Generated_Source\PSoC5/cy_em_eeprom.c **** * The pointer to the EEPROM context structure \ref cy_stc_eeprom_context_t.
 599:Generated_Source\PSoC5/cy_em_eeprom.c **** *
 600:Generated_Source\PSoC5/cy_em_eeprom.c **** * \return
 601:Generated_Source\PSoC5/cy_em_eeprom.c **** * This function returns \ref cy_en_em_eeprom_status_t.
ARM GAS  C:\Users\dmarsch\AppData\Local\Temp\ccpoCrMH.s 			page 12


 602:Generated_Source\PSoC5/cy_em_eeprom.c **** *
 603:Generated_Source\PSoC5/cy_em_eeprom.c **** * \note
 604:Generated_Source\PSoC5/cy_em_eeprom.c **** * For all non PSoC 6 devices the erase operation is performed by clearing
 605:Generated_Source\PSoC5/cy_em_eeprom.c **** * the EEPROM data using flash write. This affects the flash durability.
 606:Generated_Source\PSoC5/cy_em_eeprom.c **** * So it is recommended to use this function in utmost case to prolongate
 607:Generated_Source\PSoC5/cy_em_eeprom.c **** * flash life.
 608:Generated_Source\PSoC5/cy_em_eeprom.c **** *
 609:Generated_Source\PSoC5/cy_em_eeprom.c **** * \note
 610:Generated_Source\PSoC5/cy_em_eeprom.c **** * This function uses a buffer of the flash row size to perform erase
 611:Generated_Source\PSoC5/cy_em_eeprom.c **** * operation. For the size of the row refer to the specific PSoC device
 612:Generated_Source\PSoC5/cy_em_eeprom.c **** * datasheet.
 613:Generated_Source\PSoC5/cy_em_eeprom.c **** *
 614:Generated_Source\PSoC5/cy_em_eeprom.c **** * \sideeffect
 615:Generated_Source\PSoC5/cy_em_eeprom.c **** * In case when blocking write option is used, if this function is called by
 616:Generated_Source\PSoC5/cy_em_eeprom.c **** * the CM4 the user code on CM0P and the user code on CM4 are blocked until erase
 617:Generated_Source\PSoC5/cy_em_eeprom.c **** * flash row operation is finished. If this function is called by the CM0P the
 618:Generated_Source\PSoC5/cy_em_eeprom.c **** * user code on CM4 is not blocked and the user code on CM0P is blocked until
 619:Generated_Source\PSoC5/cy_em_eeprom.c **** * erase flash row operation is finished. Plan your task allocation accordingly.
 620:Generated_Source\PSoC5/cy_em_eeprom.c **** *
 621:Generated_Source\PSoC5/cy_em_eeprom.c **** * \sideeffect
 622:Generated_Source\PSoC5/cy_em_eeprom.c **** * In case if non-blocking write option is used and when user flash is used as
 623:Generated_Source\PSoC5/cy_em_eeprom.c **** * an EEPROM storage care should be taken to prevent the read while write (RWW)
 624:Generated_Source\PSoC5/cy_em_eeprom.c **** * exception. To prevent the RWW exception the user flash macro that includes
 625:Generated_Source\PSoC5/cy_em_eeprom.c **** * the EEPROM storage should not be read while the EEPROM erase is not completed.
 626:Generated_Source\PSoC5/cy_em_eeprom.c **** * The read also means the user code execution from the respective flash macro.
 627:Generated_Source\PSoC5/cy_em_eeprom.c **** *
 628:Generated_Source\PSoC5/cy_em_eeprom.c **** *******************************************************************************/
 629:Generated_Source\PSoC5/cy_em_eeprom.c **** cy_en_em_eeprom_status_t Cy_Em_EEPROM_Erase(cy_stc_eeprom_context_t * context)
 630:Generated_Source\PSoC5/cy_em_eeprom.c **** {
 631:Generated_Source\PSoC5/cy_em_eeprom.c ****     uint32 i;
 632:Generated_Source\PSoC5/cy_em_eeprom.c ****     uint32 seqNum;
 633:Generated_Source\PSoC5/cy_em_eeprom.c ****     uint32 emEepromRowAddr = context->lastWrRowAddr;
 634:Generated_Source\PSoC5/cy_em_eeprom.c ****     uint32 emEepromRowRdAddr;
 635:Generated_Source\PSoC5/cy_em_eeprom.c ****     cy_en_em_eeprom_status_t ret = CY_EM_EEPROM_WRITE_FAIL;
 636:Generated_Source\PSoC5/cy_em_eeprom.c ****     uint32 writeRamBuffer[CY_EM_EEPROM_FLASH_SIZEOF_ROW / CY_EM_EEPROM_U32_DIV] = {0u};
 637:Generated_Source\PSoC5/cy_em_eeprom.c **** #if (CY_PSOC6)
 638:Generated_Source\PSoC5/cy_em_eeprom.c ****     uint32 emEepromStoredRowAddr = context->lastWrRowAddr;
 639:Generated_Source\PSoC5/cy_em_eeprom.c ****     uint32 storedSeqNum;
 640:Generated_Source\PSoC5/cy_em_eeprom.c **** #endif /* (!CY_PSOC6) */
 641:Generated_Source\PSoC5/cy_em_eeprom.c **** 
 642:Generated_Source\PSoC5/cy_em_eeprom.c ****     /* Get the sequence number of the last written row */
 643:Generated_Source\PSoC5/cy_em_eeprom.c ****     seqNum = CY_EM_EEPROM_GET_SEQ_NUM(emEepromRowAddr);
 644:Generated_Source\PSoC5/cy_em_eeprom.c **** 
 645:Generated_Source\PSoC5/cy_em_eeprom.c ****     /* If there were no writes to EEPROM - nothing to erase */
 646:Generated_Source\PSoC5/cy_em_eeprom.c ****     if(0u != seqNum)
 647:Generated_Source\PSoC5/cy_em_eeprom.c ****     {
 648:Generated_Source\PSoC5/cy_em_eeprom.c ****         /* Calculate the number of row erase operations required */
 649:Generated_Source\PSoC5/cy_em_eeprom.c ****         uint32 numWrites = context->numberOfRows * context->wearLevelingFactor;
 650:Generated_Source\PSoC5/cy_em_eeprom.c **** 
 651:Generated_Source\PSoC5/cy_em_eeprom.c ****     #if (CY_PSOC6)
 652:Generated_Source\PSoC5/cy_em_eeprom.c ****         GetNextRowToWrite(seqNum, &emEepromStoredRowAddr, &emEepromRowRdAddr, context);
 653:Generated_Source\PSoC5/cy_em_eeprom.c ****         storedSeqNum = seqNum + 1u;
 654:Generated_Source\PSoC5/cy_em_eeprom.c ****     #endif /* (CY_PSOC6) */
 655:Generated_Source\PSoC5/cy_em_eeprom.c **** 
 656:Generated_Source\PSoC5/cy_em_eeprom.c ****         if(0u != context->redundantCopy)
 657:Generated_Source\PSoC5/cy_em_eeprom.c ****         {
 658:Generated_Source\PSoC5/cy_em_eeprom.c ****             writeRamBuffer[CY_EM_EEPROM_HEADER_CHECKSUM_OFFSET_U32] = (uint32)
ARM GAS  C:\Users\dmarsch\AppData\Local\Temp\ccpoCrMH.s 			page 13


 659:Generated_Source\PSoC5/cy_em_eeprom.c ****                         CalcChecksum((uint8 *) &writeRamBuffer[CY_EM_EEPROM_EEPROM_DATA_OFFSET_U32]
 660:Generated_Source\PSoC5/cy_em_eeprom.c ****                                                   CY_EM_EEPROM_EEPROM_DATA_LEN);
 661:Generated_Source\PSoC5/cy_em_eeprom.c ****         }
 662:Generated_Source\PSoC5/cy_em_eeprom.c **** 
 663:Generated_Source\PSoC5/cy_em_eeprom.c ****         for(i = 0u; i < numWrites; i++)
 664:Generated_Source\PSoC5/cy_em_eeprom.c ****         {
 665:Generated_Source\PSoC5/cy_em_eeprom.c ****         #if (CY_PSOC6)
 666:Generated_Source\PSoC5/cy_em_eeprom.c ****             /* For PSoC 6 the erase operation moves backwards. From last written row
 667:Generated_Source\PSoC5/cy_em_eeprom.c ****             * identified by "seqNum" down to "seqNum" - "numWrites". If "emEepromRowAddr"
 668:Generated_Source\PSoC5/cy_em_eeprom.c ****             * is zero this means that the row identified by "seqNum" was previously 
 669:Generated_Source\PSoC5/cy_em_eeprom.c ****             * erased.
 670:Generated_Source\PSoC5/cy_em_eeprom.c ****             */
 671:Generated_Source\PSoC5/cy_em_eeprom.c ****             if(0u != emEepromRowAddr)
 672:Generated_Source\PSoC5/cy_em_eeprom.c ****             {
 673:Generated_Source\PSoC5/cy_em_eeprom.c ****                 ret = EraseRow(emEepromRowAddr, (uint32)writeRamBuffer, context);
 674:Generated_Source\PSoC5/cy_em_eeprom.c ****             }
 675:Generated_Source\PSoC5/cy_em_eeprom.c **** 
 676:Generated_Source\PSoC5/cy_em_eeprom.c ****             seqNum--;
 677:Generated_Source\PSoC5/cy_em_eeprom.c **** 
 678:Generated_Source\PSoC5/cy_em_eeprom.c ****             if(0u == seqNum)
 679:Generated_Source\PSoC5/cy_em_eeprom.c ****             {
 680:Generated_Source\PSoC5/cy_em_eeprom.c ****                 /* Exit the loop as there is no more row is EEPROM to be erased */
 681:Generated_Source\PSoC5/cy_em_eeprom.c ****                 break;
 682:Generated_Source\PSoC5/cy_em_eeprom.c ****             }
 683:Generated_Source\PSoC5/cy_em_eeprom.c ****             emEepromRowAddr = GetRowAddrBySeqNum(seqNum, context);
 684:Generated_Source\PSoC5/cy_em_eeprom.c ****         #else
 685:Generated_Source\PSoC5/cy_em_eeprom.c ****             seqNum = CY_EM_EEPROM_GET_SEQ_NUM(emEepromRowAddr);
 686:Generated_Source\PSoC5/cy_em_eeprom.c ****             /* Get the address of the row to be erased. "emEepromRowAddr" may be updated
 687:Generated_Source\PSoC5/cy_em_eeprom.c ****             * with the proper address (if wear leveling is used).
 688:Generated_Source\PSoC5/cy_em_eeprom.c ****             */
 689:Generated_Source\PSoC5/cy_em_eeprom.c ****             GetNextRowToWrite(seqNum, &emEepromRowAddr, &emEepromRowRdAddr, context);
 690:Generated_Source\PSoC5/cy_em_eeprom.c ****             seqNum++;
 691:Generated_Source\PSoC5/cy_em_eeprom.c ****             writeRamBuffer[0u] = seqNum;
 692:Generated_Source\PSoC5/cy_em_eeprom.c ****             ret = EraseRow(emEepromRowAddr, (uint32)writeRamBuffer, context);
 693:Generated_Source\PSoC5/cy_em_eeprom.c ****         #endif /* (CY_PSOC6) */
 694:Generated_Source\PSoC5/cy_em_eeprom.c ****         }
 695:Generated_Source\PSoC5/cy_em_eeprom.c **** 
 696:Generated_Source\PSoC5/cy_em_eeprom.c ****     #if (CY_PSOC6)
 697:Generated_Source\PSoC5/cy_em_eeprom.c ****         if(CY_EM_EEPROM_SUCCESS == ret)
 698:Generated_Source\PSoC5/cy_em_eeprom.c ****         {
 699:Generated_Source\PSoC5/cy_em_eeprom.c ****             writeRamBuffer[0u] = storedSeqNum;
 700:Generated_Source\PSoC5/cy_em_eeprom.c **** 
 701:Generated_Source\PSoC5/cy_em_eeprom.c ****             /* Write the previously stored sequence number to the flash row which would be
 702:Generated_Source\PSoC5/cy_em_eeprom.c ****             * written next if the erase wouldn't happen. In this case the write to
 703:Generated_Source\PSoC5/cy_em_eeprom.c ****             * redundant copy can be skipped as it does not add any value.
 704:Generated_Source\PSoC5/cy_em_eeprom.c ****             */
 705:Generated_Source\PSoC5/cy_em_eeprom.c ****             ret = WriteRow(emEepromStoredRowAddr, writeRamBuffer, context);
 706:Generated_Source\PSoC5/cy_em_eeprom.c **** 
 707:Generated_Source\PSoC5/cy_em_eeprom.c ****             if(CY_EM_EEPROM_SUCCESS == ret)
 708:Generated_Source\PSoC5/cy_em_eeprom.c ****             {
 709:Generated_Source\PSoC5/cy_em_eeprom.c ****                 context->lastWrRowAddr = emEepromStoredRowAddr;
 710:Generated_Source\PSoC5/cy_em_eeprom.c ****             }
 711:Generated_Source\PSoC5/cy_em_eeprom.c ****         }
 712:Generated_Source\PSoC5/cy_em_eeprom.c ****     #endif /* (CY_PSOC6) */
 713:Generated_Source\PSoC5/cy_em_eeprom.c **** 
 714:Generated_Source\PSoC5/cy_em_eeprom.c ****     }
 715:Generated_Source\PSoC5/cy_em_eeprom.c ****     return(ret);
ARM GAS  C:\Users\dmarsch\AppData\Local\Temp\ccpoCrMH.s 			page 14


 716:Generated_Source\PSoC5/cy_em_eeprom.c **** }
 717:Generated_Source\PSoC5/cy_em_eeprom.c **** 
 718:Generated_Source\PSoC5/cy_em_eeprom.c **** 
 719:Generated_Source\PSoC5/cy_em_eeprom.c **** /*******************************************************************************
 720:Generated_Source\PSoC5/cy_em_eeprom.c **** * Function Name: Cy_Em_EEPROM_NumWrites
 721:Generated_Source\PSoC5/cy_em_eeprom.c **** ****************************************************************************//**
 722:Generated_Source\PSoC5/cy_em_eeprom.c **** *
 723:Generated_Source\PSoC5/cy_em_eeprom.c **** * Returns the number of the EEPROM writes completed so far.
 724:Generated_Source\PSoC5/cy_em_eeprom.c **** *
 725:Generated_Source\PSoC5/cy_em_eeprom.c **** * \param context
 726:Generated_Source\PSoC5/cy_em_eeprom.c **** * The pointer to the EEPROM context structure \ref cy_stc_eeprom_context_t.
 727:Generated_Source\PSoC5/cy_em_eeprom.c **** *
 728:Generated_Source\PSoC5/cy_em_eeprom.c **** * \return
 729:Generated_Source\PSoC5/cy_em_eeprom.c **** * The number of writes performed to the EEPROM.
 730:Generated_Source\PSoC5/cy_em_eeprom.c **** *
 731:Generated_Source\PSoC5/cy_em_eeprom.c **** *******************************************************************************/
 732:Generated_Source\PSoC5/cy_em_eeprom.c **** uint32 Cy_Em_EEPROM_NumWrites(cy_stc_eeprom_context_t * context)
 733:Generated_Source\PSoC5/cy_em_eeprom.c **** {
 734:Generated_Source\PSoC5/cy_em_eeprom.c ****     return(CY_EM_EEPROM_GET_SEQ_NUM(context->lastWrRowAddr));
 735:Generated_Source\PSoC5/cy_em_eeprom.c **** }
 736:Generated_Source\PSoC5/cy_em_eeprom.c **** 
 737:Generated_Source\PSoC5/cy_em_eeprom.c **** /** \} */
 738:Generated_Source\PSoC5/cy_em_eeprom.c **** 
 739:Generated_Source\PSoC5/cy_em_eeprom.c **** /** \cond INTERNAL */
 740:Generated_Source\PSoC5/cy_em_eeprom.c **** 
 741:Generated_Source\PSoC5/cy_em_eeprom.c **** 
 742:Generated_Source\PSoC5/cy_em_eeprom.c **** /*******************************************************************************
 743:Generated_Source\PSoC5/cy_em_eeprom.c **** * Function Name: FindLastWrittenRow
 744:Generated_Source\PSoC5/cy_em_eeprom.c **** ****************************************************************************//**
 745:Generated_Source\PSoC5/cy_em_eeprom.c **** *
 746:Generated_Source\PSoC5/cy_em_eeprom.c **** * Performs a search of the last written row address of the EEPROM associated
 747:Generated_Source\PSoC5/cy_em_eeprom.c **** * with the context structure. If there were no writes to the EEPROM the
 748:Generated_Source\PSoC5/cy_em_eeprom.c **** * function returns the start address of the EEPROM. The row address is returned
 749:Generated_Source\PSoC5/cy_em_eeprom.c **** * in the input parameter.
 750:Generated_Source\PSoC5/cy_em_eeprom.c **** *
 751:Generated_Source\PSoC5/cy_em_eeprom.c **** * \param lastWrRowPtr
 752:Generated_Source\PSoC5/cy_em_eeprom.c **** * The pointer to a memory where the last written row will be returned.
 753:Generated_Source\PSoC5/cy_em_eeprom.c **** *
 754:Generated_Source\PSoC5/cy_em_eeprom.c **** * \param context
 755:Generated_Source\PSoC5/cy_em_eeprom.c **** * The pointer to the EEPROM context structure \ref cy_stc_eeprom_context_t.
 756:Generated_Source\PSoC5/cy_em_eeprom.c **** *
 757:Generated_Source\PSoC5/cy_em_eeprom.c **** *******************************************************************************/
 758:Generated_Source\PSoC5/cy_em_eeprom.c **** static void FindLastWrittenRow(uint32 * lastWrRowPtr, cy_stc_eeprom_context_t * context)
 759:Generated_Source\PSoC5/cy_em_eeprom.c **** {
  27              		.loc 1 759 0
  28              		.cfi_startproc
  29              		@ args = 0, pretend = 0, frame = 0
  30              		@ frame_needed = 0, uses_anonymous_args = 0
  31              		@ link register save eliminated.
  32              	.LVL0:
  33 0000 70B4     		push	{r4, r5, r6}
  34              		.cfi_def_cfa_offset 12
  35              		.cfi_offset 4, -12
  36              		.cfi_offset 5, -8
  37              		.cfi_offset 6, -4
  38              	.LVL1:
 760:Generated_Source\PSoC5/cy_em_eeprom.c ****     uint32 seqNum = 0u;
ARM GAS  C:\Users\dmarsch\AppData\Local\Temp\ccpoCrMH.s 			page 15


 761:Generated_Source\PSoC5/cy_em_eeprom.c ****     uint32 prevSeqNum = 0u;
 762:Generated_Source\PSoC5/cy_em_eeprom.c ****     uint32 numRows;
 763:Generated_Source\PSoC5/cy_em_eeprom.c ****     uint32 emEepromAddr = context->userFlashStartAddr;
  39              		.loc 1 763 0
  40 0002 8A69     		ldr	r2, [r1, #24]
  41              	.LVL2:
 764:Generated_Source\PSoC5/cy_em_eeprom.c **** 
 765:Generated_Source\PSoC5/cy_em_eeprom.c ****     *lastWrRowPtr = emEepromAddr;
  42              		.loc 1 765 0
  43 0004 0260     		str	r2, [r0]
  44              	.LVL3:
 766:Generated_Source\PSoC5/cy_em_eeprom.c **** 
 767:Generated_Source\PSoC5/cy_em_eeprom.c ****     for(numRows = 0u; numRows < (context->numberOfRows * context->wearLevelingFactor); numRows++)
  45              		.loc 1 767 0
  46 0006 0024     		movs	r4, #0
 761:Generated_Source\PSoC5/cy_em_eeprom.c ****     uint32 numRows;
  47              		.loc 1 761 0
  48 0008 2646     		mov	r6, r4
  49              		.loc 1 767 0
  50 000a 08E0     		b	.L2
  51              	.LVL4:
  52              	.L4:
 768:Generated_Source\PSoC5/cy_em_eeprom.c ****     {
 769:Generated_Source\PSoC5/cy_em_eeprom.c ****         seqNum = CY_EM_EEPROM_GET_SEQ_NUM(emEepromAddr);
  53              		.loc 1 769 0
  54 000c 1368     		ldr	r3, [r2]
  55              	.LVL5:
 770:Generated_Source\PSoC5/cy_em_eeprom.c ****         if((0u != seqNum) && (seqNum > prevSeqNum))
  56              		.loc 1 770 0
  57 000e 1BB1     		cbz	r3, .L3
  58              		.loc 1 770 0 is_stmt 0 discriminator 1
  59 0010 9E42     		cmp	r6, r3
  60 0012 01D2     		bcs	.L3
  61              	.LVL6:
 771:Generated_Source\PSoC5/cy_em_eeprom.c ****         {
 772:Generated_Source\PSoC5/cy_em_eeprom.c ****             /* Some record in EEPROM was found. Store found sequence
 773:Generated_Source\PSoC5/cy_em_eeprom.c ****             * number and row address.
 774:Generated_Source\PSoC5/cy_em_eeprom.c ****             */
 775:Generated_Source\PSoC5/cy_em_eeprom.c ****             prevSeqNum = seqNum;
 776:Generated_Source\PSoC5/cy_em_eeprom.c ****             *lastWrRowPtr = emEepromAddr;
  62              		.loc 1 776 0 is_stmt 1
  63 0014 0260     		str	r2, [r0]
 775:Generated_Source\PSoC5/cy_em_eeprom.c ****             *lastWrRowPtr = emEepromAddr;
  64              		.loc 1 775 0
  65 0016 1E46     		mov	r6, r3
  66              	.LVL7:
  67              	.L3:
 777:Generated_Source\PSoC5/cy_em_eeprom.c ****         }
 778:Generated_Source\PSoC5/cy_em_eeprom.c **** 
 779:Generated_Source\PSoC5/cy_em_eeprom.c ****         /* Switch to the next row */
 780:Generated_Source\PSoC5/cy_em_eeprom.c ****         emEepromAddr = emEepromAddr + CY_EM_EEPROM_FLASH_SIZEOF_ROW;
  68              		.loc 1 780 0 discriminator 2
  69 0018 02F58072 		add	r2, r2, #256
  70              	.LVL8:
 767:Generated_Source\PSoC5/cy_em_eeprom.c ****     {
  71              		.loc 1 767 0 discriminator 2
  72 001c 0134     		adds	r4, r4, #1
ARM GAS  C:\Users\dmarsch\AppData\Local\Temp\ccpoCrMH.s 			page 16


  73              	.LVL9:
  74              	.L2:
 767:Generated_Source\PSoC5/cy_em_eeprom.c ****     {
  75              		.loc 1 767 0 is_stmt 0 discriminator 1
  76 001e 4D68     		ldr	r5, [r1, #4]
  77 0020 0B69     		ldr	r3, [r1, #16]
  78 0022 03FB05F3 		mul	r3, r3, r5
  79 0026 9C42     		cmp	r4, r3
  80 0028 F0D3     		bcc	.L4
 781:Generated_Source\PSoC5/cy_em_eeprom.c ****     }
 782:Generated_Source\PSoC5/cy_em_eeprom.c **** }
  81              		.loc 1 782 0 is_stmt 1
  82 002a 70BC     		pop	{r4, r5, r6}
  83              		.cfi_restore 6
  84              		.cfi_restore 5
  85              		.cfi_restore 4
  86              		.cfi_def_cfa_offset 0
  87              	.LVL10:
  88 002c 7047     		bx	lr
  89              		.cfi_endproc
  90              	.LFE5:
  91              		.size	FindLastWrittenRow, .-FindLastWrittenRow
  92 002e 00BF     		.section	.text.GetRowAddrBySeqNum,"ax",%progbits
  93              		.align	2
  94              		.thumb
  95              		.thumb_func
  96              		.type	GetRowAddrBySeqNum, %function
  97              	GetRowAddrBySeqNum:
  98              	.LFB6:
 783:Generated_Source\PSoC5/cy_em_eeprom.c **** 
 784:Generated_Source\PSoC5/cy_em_eeprom.c **** 
 785:Generated_Source\PSoC5/cy_em_eeprom.c **** /*******************************************************************************
 786:Generated_Source\PSoC5/cy_em_eeprom.c **** * Function Name: GetRowAddrBySeqNum
 787:Generated_Source\PSoC5/cy_em_eeprom.c **** ****************************************************************************//**
 788:Generated_Source\PSoC5/cy_em_eeprom.c **** *
 789:Generated_Source\PSoC5/cy_em_eeprom.c **** * Returns the address of the row in EEPROM using its sequence number.
 790:Generated_Source\PSoC5/cy_em_eeprom.c **** *
 791:Generated_Source\PSoC5/cy_em_eeprom.c **** * \param seqNum
 792:Generated_Source\PSoC5/cy_em_eeprom.c **** * The sequence number of the row.
 793:Generated_Source\PSoC5/cy_em_eeprom.c **** *
 794:Generated_Source\PSoC5/cy_em_eeprom.c **** * \param context
 795:Generated_Source\PSoC5/cy_em_eeprom.c **** * The pointer to the EEPROM context structure.
 796:Generated_Source\PSoC5/cy_em_eeprom.c **** *
 797:Generated_Source\PSoC5/cy_em_eeprom.c **** * \return
 798:Generated_Source\PSoC5/cy_em_eeprom.c **** * The address of the row or zero if the row with the sequence number was not
 799:Generated_Source\PSoC5/cy_em_eeprom.c **** * found.
 800:Generated_Source\PSoC5/cy_em_eeprom.c **** *
 801:Generated_Source\PSoC5/cy_em_eeprom.c **** *******************************************************************************/
 802:Generated_Source\PSoC5/cy_em_eeprom.c **** static uint32 GetRowAddrBySeqNum(uint32 seqNum, cy_stc_eeprom_context_t * context)
 803:Generated_Source\PSoC5/cy_em_eeprom.c **** {
  99              		.loc 1 803 0
 100              		.cfi_startproc
 101              		@ args = 0, pretend = 0, frame = 0
 102              		@ frame_needed = 0, uses_anonymous_args = 0
 103              		@ link register save eliminated.
 104              	.LVL11:
 804:Generated_Source\PSoC5/cy_em_eeprom.c ****     uint32 emEepromAddr = context->userFlashStartAddr;
ARM GAS  C:\Users\dmarsch\AppData\Local\Temp\ccpoCrMH.s 			page 17


 105              		.loc 1 804 0
 106 0000 8B69     		ldr	r3, [r1, #24]
 107              	.LVL12:
 805:Generated_Source\PSoC5/cy_em_eeprom.c **** 
 806:Generated_Source\PSoC5/cy_em_eeprom.c ****     while(CY_EM_EEPROM_GET_SEQ_NUM(emEepromAddr) != seqNum)
 108              		.loc 1 806 0
 109 0002 04E0     		b	.L7
 110              	.L9:
 807:Generated_Source\PSoC5/cy_em_eeprom.c ****     {
 808:Generated_Source\PSoC5/cy_em_eeprom.c ****         /* Switch to the next row */
 809:Generated_Source\PSoC5/cy_em_eeprom.c ****         emEepromAddr = emEepromAddr + CY_EM_EEPROM_FLASH_SIZEOF_ROW;
 111              		.loc 1 809 0
 112 0004 03F58073 		add	r3, r3, #256
 113              	.LVL13:
 810:Generated_Source\PSoC5/cy_em_eeprom.c **** 
 811:Generated_Source\PSoC5/cy_em_eeprom.c ****         if (CY_EM_EEPROM_ADDR_IN_RANGE !=
 812:Generated_Source\PSoC5/cy_em_eeprom.c ****             CY_EM_EEPROM_IS_ADDR_EXCEED_RANGE(emEepromAddr, context->wlEndAddr))
 114              		.loc 1 812 0
 115 0008 0A68     		ldr	r2, [r1]
 811:Generated_Source\PSoC5/cy_em_eeprom.c ****             CY_EM_EEPROM_IS_ADDR_EXCEED_RANGE(emEepromAddr, context->wlEndAddr))
 116              		.loc 1 811 0
 117 000a 9342     		cmp	r3, r2
 118 000c 03D2     		bcs	.L10
 119              	.L7:
 806:Generated_Source\PSoC5/cy_em_eeprom.c ****     {
 120              		.loc 1 806 0
 121 000e 1A68     		ldr	r2, [r3]
 122 0010 8242     		cmp	r2, r0
 123 0012 F7D1     		bne	.L9
 124 0014 00E0     		b	.L8
 125              	.L10:
 813:Generated_Source\PSoC5/cy_em_eeprom.c ****         {
 814:Generated_Source\PSoC5/cy_em_eeprom.c ****             emEepromAddr = 0u;
 126              		.loc 1 814 0
 127 0016 0023     		movs	r3, #0
 128              	.LVL14:
 129              	.L8:
 815:Generated_Source\PSoC5/cy_em_eeprom.c ****             /* Exit the loop as we reached the end of EEPROM */
 816:Generated_Source\PSoC5/cy_em_eeprom.c ****             break;
 817:Generated_Source\PSoC5/cy_em_eeprom.c ****         }
 818:Generated_Source\PSoC5/cy_em_eeprom.c ****     }
 819:Generated_Source\PSoC5/cy_em_eeprom.c **** 
 820:Generated_Source\PSoC5/cy_em_eeprom.c ****     return (emEepromAddr);
 821:Generated_Source\PSoC5/cy_em_eeprom.c **** }
 130              		.loc 1 821 0
 131 0018 1846     		mov	r0, r3
 132              	.LVL15:
 133 001a 7047     		bx	lr
 134              		.cfi_endproc
 135              	.LFE6:
 136              		.size	GetRowAddrBySeqNum, .-GetRowAddrBySeqNum
 137              		.section	.text.GetNextRowToWrite,"ax",%progbits
 138              		.align	2
 139              		.thumb
 140              		.thumb_func
 141              		.type	GetNextRowToWrite, %function
 142              	GetNextRowToWrite:
ARM GAS  C:\Users\dmarsch\AppData\Local\Temp\ccpoCrMH.s 			page 18


 143              	.LFB7:
 822:Generated_Source\PSoC5/cy_em_eeprom.c **** 
 823:Generated_Source\PSoC5/cy_em_eeprom.c **** 
 824:Generated_Source\PSoC5/cy_em_eeprom.c **** /*******************************************************************************
 825:Generated_Source\PSoC5/cy_em_eeprom.c **** * Function Name: GetNextRowToWrite
 826:Generated_Source\PSoC5/cy_em_eeprom.c **** ****************************************************************************//**
 827:Generated_Source\PSoC5/cy_em_eeprom.c **** *
 828:Generated_Source\PSoC5/cy_em_eeprom.c **** * Performs a range check of the row that should be written and updates the
 829:Generated_Source\PSoC5/cy_em_eeprom.c **** * address to the row respectively. The similar actions are done for the read
 830:Generated_Source\PSoC5/cy_em_eeprom.c **** * address.
 831:Generated_Source\PSoC5/cy_em_eeprom.c **** *
 832:Generated_Source\PSoC5/cy_em_eeprom.c **** * \param seqNum
 833:Generated_Source\PSoC5/cy_em_eeprom.c **** * The sequence number of the last written row.
 834:Generated_Source\PSoC5/cy_em_eeprom.c **** *
 835:Generated_Source\PSoC5/cy_em_eeprom.c **** * \param rowToWrPtr
 836:Generated_Source\PSoC5/cy_em_eeprom.c **** * The address of the last written row (input). The address of the row to be 
 837:Generated_Source\PSoC5/cy_em_eeprom.c **** * written (output).
 838:Generated_Source\PSoC5/cy_em_eeprom.c **** *
 839:Generated_Source\PSoC5/cy_em_eeprom.c **** * \param rowToRdPtr
 840:Generated_Source\PSoC5/cy_em_eeprom.c **** * The address of the row from which the data should be read into the RAM buffer
 841:Generated_Source\PSoC5/cy_em_eeprom.c **** * in a later write operation. Out parameter.
 842:Generated_Source\PSoC5/cy_em_eeprom.c **** *
 843:Generated_Source\PSoC5/cy_em_eeprom.c **** * \param context
 844:Generated_Source\PSoC5/cy_em_eeprom.c **** * The pointer to the EEPROM context structure \ref cy_stc_eeprom_context_t.
 845:Generated_Source\PSoC5/cy_em_eeprom.c **** *
 846:Generated_Source\PSoC5/cy_em_eeprom.c **** *******************************************************************************/
 847:Generated_Source\PSoC5/cy_em_eeprom.c **** static void GetNextRowToWrite(uint32 seqNum,
 848:Generated_Source\PSoC5/cy_em_eeprom.c ****                             uint32 * rowToWrPtr,
 849:Generated_Source\PSoC5/cy_em_eeprom.c ****                             uint32 * rowToRdPtr,
 850:Generated_Source\PSoC5/cy_em_eeprom.c ****                             cy_stc_eeprom_context_t * context)
 851:Generated_Source\PSoC5/cy_em_eeprom.c **** {
 144              		.loc 1 851 0
 145              		.cfi_startproc
 146              		@ args = 0, pretend = 0, frame = 0
 147              		@ frame_needed = 0, uses_anonymous_args = 0
 148              		@ link register save eliminated.
 149              	.LVL16:
 150 0000 30B4     		push	{r4, r5}
 151              		.cfi_def_cfa_offset 8
 152              		.cfi_offset 4, -8
 153              		.cfi_offset 5, -4
 852:Generated_Source\PSoC5/cy_em_eeprom.c ****     /* Switch to the next row to be written if the current sequence number is
 853:Generated_Source\PSoC5/cy_em_eeprom.c ****     * not zero.
 854:Generated_Source\PSoC5/cy_em_eeprom.c ****     */
 855:Generated_Source\PSoC5/cy_em_eeprom.c ****     if(0u != seqNum)
 154              		.loc 1 855 0
 155 0002 0446     		mov	r4, r0
 156 0004 18B1     		cbz	r0, .L12
 856:Generated_Source\PSoC5/cy_em_eeprom.c ****     {
 857:Generated_Source\PSoC5/cy_em_eeprom.c ****         *rowToWrPtr = (*rowToWrPtr + CY_EM_EEPROM_FLASH_SIZEOF_ROW);
 157              		.loc 1 857 0
 158 0006 0868     		ldr	r0, [r1]
 159              	.LVL17:
 160 0008 00F58070 		add	r0, r0, #256
 161 000c 0860     		str	r0, [r1]
 162              	.L12:
 858:Generated_Source\PSoC5/cy_em_eeprom.c ****     }
ARM GAS  C:\Users\dmarsch\AppData\Local\Temp\ccpoCrMH.s 			page 19


 859:Generated_Source\PSoC5/cy_em_eeprom.c **** 
 860:Generated_Source\PSoC5/cy_em_eeprom.c ****     /* If the resulting row address is out of EEPROM, then switch to the base
 861:Generated_Source\PSoC5/cy_em_eeprom.c ****     * EEPROM address (Row#0).
 862:Generated_Source\PSoC5/cy_em_eeprom.c ****     */
 863:Generated_Source\PSoC5/cy_em_eeprom.c ****     if(CY_EM_EEPROM_ADDR_IN_RANGE !=
 864:Generated_Source\PSoC5/cy_em_eeprom.c ****             CY_EM_EEPROM_IS_ADDR_EXCEED_RANGE(*rowToWrPtr, context->wlEndAddr))
 163              		.loc 1 864 0
 164 000e 0D68     		ldr	r5, [r1]
 165 0010 1868     		ldr	r0, [r3]
 863:Generated_Source\PSoC5/cy_em_eeprom.c ****             CY_EM_EEPROM_IS_ADDR_EXCEED_RANGE(*rowToWrPtr, context->wlEndAddr))
 166              		.loc 1 863 0
 167 0012 8542     		cmp	r5, r0
 168 0014 01D3     		bcc	.L13
 865:Generated_Source\PSoC5/cy_em_eeprom.c ****     {
 866:Generated_Source\PSoC5/cy_em_eeprom.c ****         *rowToWrPtr = context->userFlashStartAddr;
 169              		.loc 1 866 0
 170 0016 9869     		ldr	r0, [r3, #24]
 171 0018 0860     		str	r0, [r1]
 172              	.L13:
 867:Generated_Source\PSoC5/cy_em_eeprom.c ****     }
 868:Generated_Source\PSoC5/cy_em_eeprom.c **** 
 869:Generated_Source\PSoC5/cy_em_eeprom.c ****     *rowToRdPtr = 0u;
 173              		.loc 1 869 0
 174 001a 0020     		movs	r0, #0
 175 001c 1060     		str	r0, [r2]
 870:Generated_Source\PSoC5/cy_em_eeprom.c **** 
 871:Generated_Source\PSoC5/cy_em_eeprom.c ****     /* Check if the sequence number is larger than the number of rows in the EEPROM.
 872:Generated_Source\PSoC5/cy_em_eeprom.c ****     * If not, do not update the row read address because there is no historic
 873:Generated_Source\PSoC5/cy_em_eeprom.c ****     * data to be read.
 874:Generated_Source\PSoC5/cy_em_eeprom.c ****     */
 875:Generated_Source\PSoC5/cy_em_eeprom.c ****     if(context->numberOfRows <= seqNum)
 176              		.loc 1 875 0
 177 001e 5868     		ldr	r0, [r3, #4]
 178 0020 8442     		cmp	r4, r0
 179 0022 18D3     		bcc	.L11
 876:Generated_Source\PSoC5/cy_em_eeprom.c ****     {
 877:Generated_Source\PSoC5/cy_em_eeprom.c ****         /* Check if wear leveling is used in EEPROM */
 878:Generated_Source\PSoC5/cy_em_eeprom.c ****         if(context->wearLevelingFactor > 1u)
 180              		.loc 1 878 0
 181 0024 1C69     		ldr	r4, [r3, #16]
 182              	.LVL18:
 183 0026 012C     		cmp	r4, #1
 184 0028 13D9     		bls	.L15
 879:Generated_Source\PSoC5/cy_em_eeprom.c ****         {
 880:Generated_Source\PSoC5/cy_em_eeprom.c ****             /* The read row address should be taken from an EEPROM copy that became
 881:Generated_Source\PSoC5/cy_em_eeprom.c ****             * inactive recently. This condition check handles that.
 882:Generated_Source\PSoC5/cy_em_eeprom.c ****             */
 883:Generated_Source\PSoC5/cy_em_eeprom.c ****             if((*rowToWrPtr - (context->numberOfRows * CY_EM_EEPROM_FLASH_SIZEOF_ROW)) <
 185              		.loc 1 883 0
 186 002a 0968     		ldr	r1, [r1]
 187              	.LVL19:
 188 002c A1EB0025 		sub	r5, r1, r0, lsl #8
 884:Generated_Source\PSoC5/cy_em_eeprom.c ****                 context->userFlashStartAddr)
 189              		.loc 1 884 0
 190 0030 9B69     		ldr	r3, [r3, #24]
 191              	.LVL20:
 883:Generated_Source\PSoC5/cy_em_eeprom.c ****                 context->userFlashStartAddr)
ARM GAS  C:\Users\dmarsch\AppData\Local\Temp\ccpoCrMH.s 			page 20


 192              		.loc 1 883 0
 193 0032 9D42     		cmp	r5, r3
 194 0034 0BD2     		bcs	.L16
 885:Generated_Source\PSoC5/cy_em_eeprom.c ****             {
 886:Generated_Source\PSoC5/cy_em_eeprom.c ****                 *rowToRdPtr = context->userFlashStartAddr +
 887:Generated_Source\PSoC5/cy_em_eeprom.c ****                     (context->numberOfRows * (context->wearLevelingFactor - 1u) *
 195              		.loc 1 887 0
 196 0036 04F1FF14 		add	r4, r4, #16711935
 197 003a 04F57F44 		add	r4, r4, #65280
 198 003e 00FB04F0 		mul	r0, r0, r4
 886:Generated_Source\PSoC5/cy_em_eeprom.c ****                     (context->numberOfRows * (context->wearLevelingFactor - 1u) *
 199              		.loc 1 886 0
 200 0042 03EB0020 		add	r0, r3, r0, lsl #8
 888:Generated_Source\PSoC5/cy_em_eeprom.c ****                         CY_EM_EEPROM_FLASH_SIZEOF_ROW) + (*rowToWrPtr - context->userFlashStartAddr
 201              		.loc 1 888 0
 202 0046 C91A     		subs	r1, r1, r3
 203 0048 0844     		add	r0, r0, r1
 886:Generated_Source\PSoC5/cy_em_eeprom.c ****                     (context->numberOfRows * (context->wearLevelingFactor - 1u) *
 204              		.loc 1 886 0
 205 004a 1060     		str	r0, [r2]
 206 004c 03E0     		b	.L11
 207              	.L16:
 889:Generated_Source\PSoC5/cy_em_eeprom.c ****             }
 890:Generated_Source\PSoC5/cy_em_eeprom.c ****             else
 891:Generated_Source\PSoC5/cy_em_eeprom.c ****             {
 892:Generated_Source\PSoC5/cy_em_eeprom.c ****                 *rowToRdPtr = *rowToWrPtr - (context->numberOfRows * CY_EM_EEPROM_FLASH_SIZEOF_ROW)
 208              		.loc 1 892 0
 209 004e 1560     		str	r5, [r2]
 210 0050 01E0     		b	.L11
 211              	.LVL21:
 212              	.L15:
 893:Generated_Source\PSoC5/cy_em_eeprom.c ****             }
 894:Generated_Source\PSoC5/cy_em_eeprom.c ****         }
 895:Generated_Source\PSoC5/cy_em_eeprom.c ****         else
 896:Generated_Source\PSoC5/cy_em_eeprom.c ****         {
 897:Generated_Source\PSoC5/cy_em_eeprom.c ****             /* If no wear leveling, always read from the same flash row that
 898:Generated_Source\PSoC5/cy_em_eeprom.c ****             * should be written.
 899:Generated_Source\PSoC5/cy_em_eeprom.c ****             */
 900:Generated_Source\PSoC5/cy_em_eeprom.c ****             *rowToRdPtr = *rowToWrPtr;
 213              		.loc 1 900 0
 214 0052 0B68     		ldr	r3, [r1]
 215              	.LVL22:
 216 0054 1360     		str	r3, [r2]
 217              	.LVL23:
 218              	.L11:
 901:Generated_Source\PSoC5/cy_em_eeprom.c ****         }
 902:Generated_Source\PSoC5/cy_em_eeprom.c ****     }
 903:Generated_Source\PSoC5/cy_em_eeprom.c **** }
 219              		.loc 1 903 0
 220 0056 30BC     		pop	{r4, r5}
 221              		.cfi_restore 5
 222              		.cfi_restore 4
 223              		.cfi_def_cfa_offset 0
 224 0058 7047     		bx	lr
 225              		.cfi_endproc
 226              	.LFE7:
 227              		.size	GetNextRowToWrite, .-GetNextRowToWrite
ARM GAS  C:\Users\dmarsch\AppData\Local\Temp\ccpoCrMH.s 			page 21


 228 005a 00BF     		.section	.text.CalcChecksum,"ax",%progbits
 229              		.align	2
 230              		.thumb
 231              		.thumb_func
 232              		.type	CalcChecksum, %function
 233              	CalcChecksum:
 234              	.LFB8:
 904:Generated_Source\PSoC5/cy_em_eeprom.c **** 
 905:Generated_Source\PSoC5/cy_em_eeprom.c **** 
 906:Generated_Source\PSoC5/cy_em_eeprom.c **** /*******************************************************************************
 907:Generated_Source\PSoC5/cy_em_eeprom.c **** * Function Name: CalcChecksum
 908:Generated_Source\PSoC5/cy_em_eeprom.c **** ****************************************************************************//**
 909:Generated_Source\PSoC5/cy_em_eeprom.c **** *
 910:Generated_Source\PSoC5/cy_em_eeprom.c **** * Implements CRC-8 that is used in checksum calculation for the redundant copy
 911:Generated_Source\PSoC5/cy_em_eeprom.c **** * algorithm.
 912:Generated_Source\PSoC5/cy_em_eeprom.c **** *
 913:Generated_Source\PSoC5/cy_em_eeprom.c **** * \param rowData
 914:Generated_Source\PSoC5/cy_em_eeprom.c **** * The row data to be used to calculate the checksum.
 915:Generated_Source\PSoC5/cy_em_eeprom.c **** *
 916:Generated_Source\PSoC5/cy_em_eeprom.c **** * \param len
 917:Generated_Source\PSoC5/cy_em_eeprom.c **** * The length of rowData.
 918:Generated_Source\PSoC5/cy_em_eeprom.c **** *
 919:Generated_Source\PSoC5/cy_em_eeprom.c **** * \return
 920:Generated_Source\PSoC5/cy_em_eeprom.c **** * The calculated value of CRC-8.
 921:Generated_Source\PSoC5/cy_em_eeprom.c **** *
 922:Generated_Source\PSoC5/cy_em_eeprom.c **** *******************************************************************************/
 923:Generated_Source\PSoC5/cy_em_eeprom.c **** static uint8 CalcChecksum(uint8 rowData[], uint32 len)
 924:Generated_Source\PSoC5/cy_em_eeprom.c **** {
 235              		.loc 1 924 0
 236              		.cfi_startproc
 237              		@ args = 0, pretend = 0, frame = 0
 238              		@ frame_needed = 0, uses_anonymous_args = 0
 239              		@ link register save eliminated.
 240              	.LVL24:
 241 0000 10B4     		push	{r4}
 242              		.cfi_def_cfa_offset 4
 243              		.cfi_offset 4, -4
 244 0002 0446     		mov	r4, r0
 245              	.LVL25:
 925:Generated_Source\PSoC5/cy_em_eeprom.c ****     uint8 crc = CY_EM_EEPROM_CRC8_SEED;
 926:Generated_Source\PSoC5/cy_em_eeprom.c ****     uint8 i;
 927:Generated_Source\PSoC5/cy_em_eeprom.c ****     uint16 cnt = 0u;
 246              		.loc 1 927 0
 247 0004 0022     		movs	r2, #0
 925:Generated_Source\PSoC5/cy_em_eeprom.c ****     uint8 crc = CY_EM_EEPROM_CRC8_SEED;
 248              		.loc 1 925 0
 249 0006 FF20     		movs	r0, #255
 250              	.LVL26:
 928:Generated_Source\PSoC5/cy_em_eeprom.c **** 
 929:Generated_Source\PSoC5/cy_em_eeprom.c ****     while(cnt != len)
 251              		.loc 1 929 0
 252 0008 13E0     		b	.L19
 253              	.LVL27:
 254              	.L24:
 930:Generated_Source\PSoC5/cy_em_eeprom.c ****     {
 931:Generated_Source\PSoC5/cy_em_eeprom.c ****         crc ^= rowData[cnt];
 255              		.loc 1 931 0
ARM GAS  C:\Users\dmarsch\AppData\Local\Temp\ccpoCrMH.s 			page 22


 256 000a A35C     		ldrb	r3, [r4, r2]	@ zero_extendqisi2
 257 000c 5840     		eors	r0, r0, r3
 258              	.LVL28:
 932:Generated_Source\PSoC5/cy_em_eeprom.c ****         for (i = 0u; i < CY_EM_EEPROM_CRC8_POLYNOM_LEN; i++)
 259              		.loc 1 932 0
 260 000e 0023     		movs	r3, #0
 261 0010 0BE0     		b	.L20
 262              	.LVL29:
 263              	.L23:
 933:Generated_Source\PSoC5/cy_em_eeprom.c ****         {
 934:Generated_Source\PSoC5/cy_em_eeprom.c ****             crc = CY_EM_EEPROM_CALCULATE_CRC8(crc);
 264              		.loc 1 934 0
 265 0012 10F0800F 		tst	r0, #128
 266 0016 04D0     		beq	.L21
 267              		.loc 1 934 0 is_stmt 0 discriminator 1
 268 0018 4000     		lsls	r0, r0, #1
 269              	.LVL30:
 270 001a C0B2     		uxtb	r0, r0
 271 001c 80F03100 		eor	r0, r0, #49
 272 0020 01E0     		b	.L22
 273              	.LVL31:
 274              	.L21:
 275              		.loc 1 934 0 discriminator 2
 276 0022 4000     		lsls	r0, r0, #1
 277              	.LVL32:
 278 0024 C0B2     		uxtb	r0, r0
 279              	.L22:
 280              	.LVL33:
 932:Generated_Source\PSoC5/cy_em_eeprom.c ****         for (i = 0u; i < CY_EM_EEPROM_CRC8_POLYNOM_LEN; i++)
 281              		.loc 1 932 0 is_stmt 1 discriminator 4
 282 0026 0133     		adds	r3, r3, #1
 283              	.LVL34:
 284 0028 DBB2     		uxtb	r3, r3
 285              	.LVL35:
 286              	.L20:
 932:Generated_Source\PSoC5/cy_em_eeprom.c ****         for (i = 0u; i < CY_EM_EEPROM_CRC8_POLYNOM_LEN; i++)
 287              		.loc 1 932 0 is_stmt 0 discriminator 2
 288 002a 072B     		cmp	r3, #7
 289 002c F1D9     		bls	.L23
 935:Generated_Source\PSoC5/cy_em_eeprom.c ****         }
 936:Generated_Source\PSoC5/cy_em_eeprom.c ****         cnt++;
 290              		.loc 1 936 0 is_stmt 1
 291 002e 0132     		adds	r2, r2, #1
 292              	.LVL36:
 293 0030 92B2     		uxth	r2, r2
 294              	.LVL37:
 295              	.L19:
 929:Generated_Source\PSoC5/cy_em_eeprom.c ****     {
 296              		.loc 1 929 0
 297 0032 8A42     		cmp	r2, r1
 298 0034 E9D1     		bne	.L24
 937:Generated_Source\PSoC5/cy_em_eeprom.c ****     }
 938:Generated_Source\PSoC5/cy_em_eeprom.c **** 
 939:Generated_Source\PSoC5/cy_em_eeprom.c ****     return (crc);
 940:Generated_Source\PSoC5/cy_em_eeprom.c **** }
 299              		.loc 1 940 0
 300 0036 10BC     		pop	{r4}
ARM GAS  C:\Users\dmarsch\AppData\Local\Temp\ccpoCrMH.s 			page 23


 301              		.cfi_restore 4
 302              		.cfi_def_cfa_offset 0
 303              	.LVL38:
 304 0038 7047     		bx	lr
 305              		.cfi_endproc
 306              	.LFE8:
 307              		.size	CalcChecksum, .-CalcChecksum
 308 003a 00BF     		.section	.text.CheckRanges,"ax",%progbits
 309              		.align	2
 310              		.thumb
 311              		.thumb_func
 312              		.type	CheckRanges, %function
 313              	CheckRanges:
 314              	.LFB9:
 941:Generated_Source\PSoC5/cy_em_eeprom.c **** 
 942:Generated_Source\PSoC5/cy_em_eeprom.c **** 
 943:Generated_Source\PSoC5/cy_em_eeprom.c **** /*******************************************************************************
 944:Generated_Source\PSoC5/cy_em_eeprom.c **** * Function Name: CheckRanges
 945:Generated_Source\PSoC5/cy_em_eeprom.c **** ****************************************************************************//**
 946:Generated_Source\PSoC5/cy_em_eeprom.c **** *
 947:Generated_Source\PSoC5/cy_em_eeprom.c **** * Checks if the EEPROM of the requested size can be placed in flash.
 948:Generated_Source\PSoC5/cy_em_eeprom.c **** *
 949:Generated_Source\PSoC5/cy_em_eeprom.c **** * \param config
 950:Generated_Source\PSoC5/cy_em_eeprom.c **** * The pointer to a configuration structure. See \ref cy_stc_eeprom_config_t.
 951:Generated_Source\PSoC5/cy_em_eeprom.c **** *
 952:Generated_Source\PSoC5/cy_em_eeprom.c **** * \return
 953:Generated_Source\PSoC5/cy_em_eeprom.c **** * error / status code. See \ref cy_en_em_eeprom_status_t.
 954:Generated_Source\PSoC5/cy_em_eeprom.c **** *
 955:Generated_Source\PSoC5/cy_em_eeprom.c **** *******************************************************************************/
 956:Generated_Source\PSoC5/cy_em_eeprom.c **** static cy_en_em_eeprom_status_t CheckRanges(cy_stc_eeprom_config_t* config)
 957:Generated_Source\PSoC5/cy_em_eeprom.c **** {
 315              		.loc 1 957 0
 316              		.cfi_startproc
 317              		@ args = 0, pretend = 0, frame = 0
 318              		@ frame_needed = 0, uses_anonymous_args = 0
 319              		@ link register save eliminated.
 320              	.LVL39:
 958:Generated_Source\PSoC5/cy_em_eeprom.c ****     cy_en_em_eeprom_status_t ret = CY_EM_EEPROM_BAD_DATA;
 959:Generated_Source\PSoC5/cy_em_eeprom.c ****     uint32 startAddr = config->userFlashStartAddr;
 321              		.loc 1 959 0
 322 0000 C168     		ldr	r1, [r0, #12]
 323              	.LVL40:
 960:Generated_Source\PSoC5/cy_em_eeprom.c ****     uint32 endAddr = startAddr + CY_EM_EEPROM_GET_PHYSICAL_SIZE(config->eepromSize,
 324              		.loc 1 960 0
 325 0002 0268     		ldr	r2, [r0]
 326 0004 D309     		lsrs	r3, r2, #7
 327 0006 12F07F02 		ands	r2, r2, #127
 328 000a 00D0     		beq	.L27
 329 000c 0122     		movs	r2, #1
 330              	.L27:
 331              		.loc 1 960 0 is_stmt 0 discriminator 4
 332 000e 1A44     		add	r2, r2, r3
 333 0010 4368     		ldr	r3, [r0, #4]
 334 0012 03FB02F3 		mul	r3, r3, r2
 335 0016 027A     		ldrb	r2, [r0, #8]	@ zero_extendqisi2
 336 0018 02FB0333 		mla	r3, r2, r3, r3
 337 001c 01EB0323 		add	r3, r1, r3, lsl #8
ARM GAS  C:\Users\dmarsch\AppData\Local\Temp\ccpoCrMH.s 			page 24


 338              	.LVL41:
 961:Generated_Source\PSoC5/cy_em_eeprom.c ****             config->wearLevelingFactor, config->redundantCopy);
 962:Generated_Source\PSoC5/cy_em_eeprom.c **** 
 963:Generated_Source\PSoC5/cy_em_eeprom.c ****     /* Range check if there is enough flash for EEPROM */
 964:Generated_Source\PSoC5/cy_em_eeprom.c ****     if (CY_EM_EEPROM_IS_IN_FLASH_RANGE(startAddr, endAddr))
 339              		.loc 1 964 0 is_stmt 1 discriminator 4
 340 0020 21B1     		cbz	r1, .L29
 341              		.loc 1 964 0 is_stmt 0 discriminator 1
 342 0022 B3F5802F 		cmp	r3, #262144
 343 0026 03D9     		bls	.L30
 958:Generated_Source\PSoC5/cy_em_eeprom.c ****     uint32 startAddr = config->userFlashStartAddr;
 344              		.loc 1 958 0 is_stmt 1
 345 0028 0320     		movs	r0, #3
 346              	.LVL42:
 347 002a 7047     		bx	lr
 348              	.LVL43:
 349              	.L29:
 350 002c 0320     		movs	r0, #3
 351              	.LVL44:
 352 002e 7047     		bx	lr
 353              	.LVL45:
 354              	.L30:
 965:Generated_Source\PSoC5/cy_em_eeprom.c ****     {
 966:Generated_Source\PSoC5/cy_em_eeprom.c ****         ret = CY_EM_EEPROM_SUCCESS;
 355              		.loc 1 966 0
 356 0030 0020     		movs	r0, #0
 357              	.LVL46:
 967:Generated_Source\PSoC5/cy_em_eeprom.c ****     }
 968:Generated_Source\PSoC5/cy_em_eeprom.c ****     return (ret);
 969:Generated_Source\PSoC5/cy_em_eeprom.c **** }
 358              		.loc 1 969 0
 359 0032 7047     		bx	lr
 360              		.cfi_endproc
 361              	.LFE9:
 362              		.size	CheckRanges, .-CheckRanges
 363              		.section	.text.GetAddresses,"ax",%progbits
 364              		.align	2
 365              		.thumb
 366              		.thumb_func
 367              		.type	GetAddresses, %function
 368              	GetAddresses:
 369              	.LFB13:
 970:Generated_Source\PSoC5/cy_em_eeprom.c **** 
 971:Generated_Source\PSoC5/cy_em_eeprom.c **** 
 972:Generated_Source\PSoC5/cy_em_eeprom.c **** /*******************************************************************************
 973:Generated_Source\PSoC5/cy_em_eeprom.c **** * Function Name: WriteRow
 974:Generated_Source\PSoC5/cy_em_eeprom.c **** ****************************************************************************//**
 975:Generated_Source\PSoC5/cy_em_eeprom.c **** *
 976:Generated_Source\PSoC5/cy_em_eeprom.c **** * Writes one flash row starting from the specified row address.
 977:Generated_Source\PSoC5/cy_em_eeprom.c **** *
 978:Generated_Source\PSoC5/cy_em_eeprom.c **** * \param rowAdd
 979:Generated_Source\PSoC5/cy_em_eeprom.c **** * The address of the flash row.
 980:Generated_Source\PSoC5/cy_em_eeprom.c **** *
 981:Generated_Source\PSoC5/cy_em_eeprom.c **** * \param rowData
 982:Generated_Source\PSoC5/cy_em_eeprom.c **** * The pointer to the data to be written to the row.
 983:Generated_Source\PSoC5/cy_em_eeprom.c **** *
 984:Generated_Source\PSoC5/cy_em_eeprom.c **** * \param context
ARM GAS  C:\Users\dmarsch\AppData\Local\Temp\ccpoCrMH.s 			page 25


 985:Generated_Source\PSoC5/cy_em_eeprom.c **** * The pointer to the EEPROM context structure \ref cy_stc_eeprom_context_t.
 986:Generated_Source\PSoC5/cy_em_eeprom.c **** *
 987:Generated_Source\PSoC5/cy_em_eeprom.c **** * \return
 988:Generated_Source\PSoC5/cy_em_eeprom.c **** * error / status code. See \ref cy_en_em_eeprom_status_t.
 989:Generated_Source\PSoC5/cy_em_eeprom.c **** *
 990:Generated_Source\PSoC5/cy_em_eeprom.c **** *******************************************************************************/
 991:Generated_Source\PSoC5/cy_em_eeprom.c **** static cy_en_em_eeprom_status_t WriteRow(uint32 rowAddr,
 992:Generated_Source\PSoC5/cy_em_eeprom.c ****                                         uint32 *rowData,
 993:Generated_Source\PSoC5/cy_em_eeprom.c ****                                         cy_stc_eeprom_context_t * context)
 994:Generated_Source\PSoC5/cy_em_eeprom.c **** {
 995:Generated_Source\PSoC5/cy_em_eeprom.c ****     cy_en_em_eeprom_status_t ret = CY_EM_EEPROM_WRITE_FAIL;
 996:Generated_Source\PSoC5/cy_em_eeprom.c **** #if (!CY_PSOC6)
 997:Generated_Source\PSoC5/cy_em_eeprom.c ****     cystatus rc;
 998:Generated_Source\PSoC5/cy_em_eeprom.c ****     uint32 rowId;
 999:Generated_Source\PSoC5/cy_em_eeprom.c ****     #if ((CY_PSOC3) || (CY_PSOC5))
1000:Generated_Source\PSoC5/cy_em_eeprom.c ****         uint32 arrayId;
1001:Generated_Source\PSoC5/cy_em_eeprom.c ****     #endif /* (CY_PSOC3) */
1002:Generated_Source\PSoC5/cy_em_eeprom.c ****     
1003:Generated_Source\PSoC5/cy_em_eeprom.c ****     #if (CY_PSOC3)
1004:Generated_Source\PSoC5/cy_em_eeprom.c ****         rowAddr &= CY_EM_EEPROM_CODE_ADDR_MASK;
1005:Generated_Source\PSoC5/cy_em_eeprom.c ****         context = context;      /* To avoid compiler warning generation */
1006:Generated_Source\PSoC5/cy_em_eeprom.c ****     #else
1007:Generated_Source\PSoC5/cy_em_eeprom.c ****         (void)context;          /* To avoid compiler warning generation */
1008:Generated_Source\PSoC5/cy_em_eeprom.c ****     #endif /* ((CY_PSOC3) */
1009:Generated_Source\PSoC5/cy_em_eeprom.c ****     
1010:Generated_Source\PSoC5/cy_em_eeprom.c ****     /* For non-PSoC 6 devices, the Array ID and Row ID needed to write the row */
1011:Generated_Source\PSoC5/cy_em_eeprom.c ****     rowId = (rowAddr / CY_EM_EEPROM_FLASH_SIZEOF_ROW) % CY_EM_EEPROM_ROWS_IN_ARRAY;
1012:Generated_Source\PSoC5/cy_em_eeprom.c **** 
1013:Generated_Source\PSoC5/cy_em_eeprom.c ****     /* Write the flash row */
1014:Generated_Source\PSoC5/cy_em_eeprom.c ****     #if (CY_PSOC4)
1015:Generated_Source\PSoC5/cy_em_eeprom.c ****         rc = CySysFlashWriteRow(rowId, (uint8 *)rowData);
1016:Generated_Source\PSoC5/cy_em_eeprom.c ****     #else
1017:Generated_Source\PSoC5/cy_em_eeprom.c **** 
1018:Generated_Source\PSoC5/cy_em_eeprom.c ****         #ifndef CY_EM_EEPROM_SKIP_TEMP_MEASUREMENT
1019:Generated_Source\PSoC5/cy_em_eeprom.c ****             (void)CySetTemp();
1020:Generated_Source\PSoC5/cy_em_eeprom.c ****         #endif /* (CY_EM_EEPROM_SKIP_TEMP_MEASUREMENT) */
1021:Generated_Source\PSoC5/cy_em_eeprom.c **** 
1022:Generated_Source\PSoC5/cy_em_eeprom.c ****         arrayId = rowAddr / CY_FLASH_SIZEOF_ARRAY;
1023:Generated_Source\PSoC5/cy_em_eeprom.c ****         rc = CyWriteRowData((uint8)arrayId, (uint16)rowId, (uint8 *)rowData);
1024:Generated_Source\PSoC5/cy_em_eeprom.c ****         
1025:Generated_Source\PSoC5/cy_em_eeprom.c ****         #if (CY_PSOC5)
1026:Generated_Source\PSoC5/cy_em_eeprom.c ****             CyFlushCache();
1027:Generated_Source\PSoC5/cy_em_eeprom.c ****         #endif /* (CY_PSOC5) */
1028:Generated_Source\PSoC5/cy_em_eeprom.c ****     #endif /* (CY_PSOC4) */
1029:Generated_Source\PSoC5/cy_em_eeprom.c **** 
1030:Generated_Source\PSoC5/cy_em_eeprom.c ****     if(CYRET_SUCCESS == rc)
1031:Generated_Source\PSoC5/cy_em_eeprom.c ****     {
1032:Generated_Source\PSoC5/cy_em_eeprom.c ****         ret = CY_EM_EEPROM_SUCCESS;
1033:Generated_Source\PSoC5/cy_em_eeprom.c ****     }
1034:Generated_Source\PSoC5/cy_em_eeprom.c **** #else /* PSoC 6 */
1035:Generated_Source\PSoC5/cy_em_eeprom.c ****     if(0u != context->blockingWrite)
1036:Generated_Source\PSoC5/cy_em_eeprom.c ****     {
1037:Generated_Source\PSoC5/cy_em_eeprom.c ****         /* Do blocking write */
1038:Generated_Source\PSoC5/cy_em_eeprom.c ****         if(CY_FLASH_DRV_SUCCESS == Cy_Flash_WriteRow(rowAddr, (const uint32 *)rowData))
1039:Generated_Source\PSoC5/cy_em_eeprom.c ****         {
1040:Generated_Source\PSoC5/cy_em_eeprom.c ****             ret = CY_EM_EEPROM_SUCCESS;
1041:Generated_Source\PSoC5/cy_em_eeprom.c ****         }
ARM GAS  C:\Users\dmarsch\AppData\Local\Temp\ccpoCrMH.s 			page 26


1042:Generated_Source\PSoC5/cy_em_eeprom.c ****     }
1043:Generated_Source\PSoC5/cy_em_eeprom.c ****     else
1044:Generated_Source\PSoC5/cy_em_eeprom.c ****     {
1045:Generated_Source\PSoC5/cy_em_eeprom.c ****         /* Initiate write */
1046:Generated_Source\PSoC5/cy_em_eeprom.c ****         if(CY_FLASH_DRV_OPERATION_STARTED == Cy_Flash_StartWrite(rowAddr, (const uint32 *)rowData))
1047:Generated_Source\PSoC5/cy_em_eeprom.c ****         {
1048:Generated_Source\PSoC5/cy_em_eeprom.c ****             uint32 countMs = CY_EM_EEPROM_MAX_WRITE_DURATION_MS;
1049:Generated_Source\PSoC5/cy_em_eeprom.c ****             cy_en_flashdrv_status_t rc;
1050:Generated_Source\PSoC5/cy_em_eeprom.c **** 
1051:Generated_Source\PSoC5/cy_em_eeprom.c ****             do
1052:Generated_Source\PSoC5/cy_em_eeprom.c ****             {
1053:Generated_Source\PSoC5/cy_em_eeprom.c ****                 CyDelay(1u);                         /* Wait 1ms */
1054:Generated_Source\PSoC5/cy_em_eeprom.c ****                 rc = Cy_Flash_IsWriteComplete();     /* Check if write completed */
1055:Generated_Source\PSoC5/cy_em_eeprom.c ****                 countMs--;
1056:Generated_Source\PSoC5/cy_em_eeprom.c ****             }
1057:Generated_Source\PSoC5/cy_em_eeprom.c ****             while ((rc == CY_FLASH_DRV_OPCODE_BUSY) && (0u != countMs));
1058:Generated_Source\PSoC5/cy_em_eeprom.c **** 
1059:Generated_Source\PSoC5/cy_em_eeprom.c ****             if(CY_FLASH_DRV_SUCCESS == rc)
1060:Generated_Source\PSoC5/cy_em_eeprom.c ****             {
1061:Generated_Source\PSoC5/cy_em_eeprom.c ****                 ret = CY_EM_EEPROM_SUCCESS;
1062:Generated_Source\PSoC5/cy_em_eeprom.c ****             }
1063:Generated_Source\PSoC5/cy_em_eeprom.c ****         }
1064:Generated_Source\PSoC5/cy_em_eeprom.c ****     }
1065:Generated_Source\PSoC5/cy_em_eeprom.c **** #endif /* (CY_PSOC6) */
1066:Generated_Source\PSoC5/cy_em_eeprom.c **** 
1067:Generated_Source\PSoC5/cy_em_eeprom.c ****     return (ret);
1068:Generated_Source\PSoC5/cy_em_eeprom.c **** }
1069:Generated_Source\PSoC5/cy_em_eeprom.c **** 
1070:Generated_Source\PSoC5/cy_em_eeprom.c **** 
1071:Generated_Source\PSoC5/cy_em_eeprom.c **** /*******************************************************************************
1072:Generated_Source\PSoC5/cy_em_eeprom.c **** * Function Name: EraseRow
1073:Generated_Source\PSoC5/cy_em_eeprom.c **** ****************************************************************************//**
1074:Generated_Source\PSoC5/cy_em_eeprom.c **** *
1075:Generated_Source\PSoC5/cy_em_eeprom.c **** * Erases one flash row starting from the specified row address. If the redundant
1076:Generated_Source\PSoC5/cy_em_eeprom.c **** * copy option is enabled the corresponding row in the redundant copy will also
1077:Generated_Source\PSoC5/cy_em_eeprom.c **** * be erased.
1078:Generated_Source\PSoC5/cy_em_eeprom.c **** *
1079:Generated_Source\PSoC5/cy_em_eeprom.c **** * \param rowAdd
1080:Generated_Source\PSoC5/cy_em_eeprom.c **** * The address of the flash row.
1081:Generated_Source\PSoC5/cy_em_eeprom.c **** *
1082:Generated_Source\PSoC5/cy_em_eeprom.c **** * \param ramBuffAddr
1083:Generated_Source\PSoC5/cy_em_eeprom.c **** * The address of the RAM buffer that contains zeroed data (used only for
1084:Generated_Source\PSoC5/cy_em_eeprom.c **** * non-PSoC 6 devices).
1085:Generated_Source\PSoC5/cy_em_eeprom.c **** *
1086:Generated_Source\PSoC5/cy_em_eeprom.c **** * \param context
1087:Generated_Source\PSoC5/cy_em_eeprom.c **** * The pointer to the EEPROM context structure \ref cy_stc_eeprom_context_t.
1088:Generated_Source\PSoC5/cy_em_eeprom.c **** *
1089:Generated_Source\PSoC5/cy_em_eeprom.c **** * \return
1090:Generated_Source\PSoC5/cy_em_eeprom.c **** * error / status code. See \ref cy_en_em_eeprom_status_t.
1091:Generated_Source\PSoC5/cy_em_eeprom.c **** *
1092:Generated_Source\PSoC5/cy_em_eeprom.c **** *******************************************************************************/
1093:Generated_Source\PSoC5/cy_em_eeprom.c **** static cy_en_em_eeprom_status_t EraseRow(uint32 rowAddr,
1094:Generated_Source\PSoC5/cy_em_eeprom.c ****                                         uint32 ramBuffAddr,
1095:Generated_Source\PSoC5/cy_em_eeprom.c ****                                         cy_stc_eeprom_context_t * context)
1096:Generated_Source\PSoC5/cy_em_eeprom.c **** {
1097:Generated_Source\PSoC5/cy_em_eeprom.c ****     uint32 emEepromRowAddr = rowAddr;
1098:Generated_Source\PSoC5/cy_em_eeprom.c ****     cy_en_em_eeprom_status_t ret = CY_EM_EEPROM_WRITE_FAIL;
ARM GAS  C:\Users\dmarsch\AppData\Local\Temp\ccpoCrMH.s 			page 27


1099:Generated_Source\PSoC5/cy_em_eeprom.c **** #if (CY_PSOC6)
1100:Generated_Source\PSoC5/cy_em_eeprom.c ****     uint32 i = 1u;
1101:Generated_Source\PSoC5/cy_em_eeprom.c **** 
1102:Generated_Source\PSoC5/cy_em_eeprom.c ****     (void)ramBuffAddr; /* To avoid compiler warning */
1103:Generated_Source\PSoC5/cy_em_eeprom.c **** 
1104:Generated_Source\PSoC5/cy_em_eeprom.c ****     if(0u != context->redundantCopy)
1105:Generated_Source\PSoC5/cy_em_eeprom.c ****     {
1106:Generated_Source\PSoC5/cy_em_eeprom.c ****         i++;
1107:Generated_Source\PSoC5/cy_em_eeprom.c ****     }
1108:Generated_Source\PSoC5/cy_em_eeprom.c **** 
1109:Generated_Source\PSoC5/cy_em_eeprom.c ****     do
1110:Generated_Source\PSoC5/cy_em_eeprom.c ****     {
1111:Generated_Source\PSoC5/cy_em_eeprom.c ****         if(0u != context->blockingWrite)
1112:Generated_Source\PSoC5/cy_em_eeprom.c ****         {
1113:Generated_Source\PSoC5/cy_em_eeprom.c ****             /* Erase the flash row */
1114:Generated_Source\PSoC5/cy_em_eeprom.c ****             if(CY_FLASH_DRV_SUCCESS == Cy_Flash_EraseRow(emEepromRowAddr))
1115:Generated_Source\PSoC5/cy_em_eeprom.c ****             {
1116:Generated_Source\PSoC5/cy_em_eeprom.c ****                 ret = CY_EM_EEPROM_SUCCESS;
1117:Generated_Source\PSoC5/cy_em_eeprom.c ****             }
1118:Generated_Source\PSoC5/cy_em_eeprom.c ****         }
1119:Generated_Source\PSoC5/cy_em_eeprom.c ****         else
1120:Generated_Source\PSoC5/cy_em_eeprom.c ****         {
1121:Generated_Source\PSoC5/cy_em_eeprom.c ****             /* Initiate erase */
1122:Generated_Source\PSoC5/cy_em_eeprom.c ****             if(CY_FLASH_DRV_OPERATION_STARTED == Cy_Flash_StartErase(emEepromRowAddr))
1123:Generated_Source\PSoC5/cy_em_eeprom.c ****             {
1124:Generated_Source\PSoC5/cy_em_eeprom.c ****                 uint32 countMs = CY_EM_EEPROM_MAX_WRITE_DURATION_MS;
1125:Generated_Source\PSoC5/cy_em_eeprom.c ****                 cy_en_flashdrv_status_t rc;
1126:Generated_Source\PSoC5/cy_em_eeprom.c **** 
1127:Generated_Source\PSoC5/cy_em_eeprom.c ****                 do
1128:Generated_Source\PSoC5/cy_em_eeprom.c ****                 {
1129:Generated_Source\PSoC5/cy_em_eeprom.c ****                     CyDelay(1u);                         /* Wait 1ms */
1130:Generated_Source\PSoC5/cy_em_eeprom.c ****                     rc = Cy_Flash_IsWriteComplete();     /* Check if erase completed */
1131:Generated_Source\PSoC5/cy_em_eeprom.c ****                     countMs--;
1132:Generated_Source\PSoC5/cy_em_eeprom.c ****                 }
1133:Generated_Source\PSoC5/cy_em_eeprom.c ****                 while ((rc == CY_FLASH_DRV_OPCODE_BUSY) && (0u != countMs));
1134:Generated_Source\PSoC5/cy_em_eeprom.c **** 
1135:Generated_Source\PSoC5/cy_em_eeprom.c ****                 if(CY_FLASH_DRV_SUCCESS == rc)
1136:Generated_Source\PSoC5/cy_em_eeprom.c ****                 {
1137:Generated_Source\PSoC5/cy_em_eeprom.c ****                     ret = CY_EM_EEPROM_SUCCESS;
1138:Generated_Source\PSoC5/cy_em_eeprom.c ****                 }
1139:Generated_Source\PSoC5/cy_em_eeprom.c ****             }
1140:Generated_Source\PSoC5/cy_em_eeprom.c ****         }
1141:Generated_Source\PSoC5/cy_em_eeprom.c **** 
1142:Generated_Source\PSoC5/cy_em_eeprom.c ****         if(CY_EM_EEPROM_SUCCESS == ret)
1143:Generated_Source\PSoC5/cy_em_eeprom.c ****         {
1144:Generated_Source\PSoC5/cy_em_eeprom.c ****             /* Update the address to point to the redundant copy row */
1145:Generated_Source\PSoC5/cy_em_eeprom.c ****             emEepromRowAddr = (emEepromRowAddr - context->userFlashStartAddr) + context->wlEndAddr;
1146:Generated_Source\PSoC5/cy_em_eeprom.c ****         }
1147:Generated_Source\PSoC5/cy_em_eeprom.c ****         else
1148:Generated_Source\PSoC5/cy_em_eeprom.c ****         {
1149:Generated_Source\PSoC5/cy_em_eeprom.c ****             break;
1150:Generated_Source\PSoC5/cy_em_eeprom.c ****         }
1151:Generated_Source\PSoC5/cy_em_eeprom.c ****         i--;
1152:Generated_Source\PSoC5/cy_em_eeprom.c ****     } while (0u != i);
1153:Generated_Source\PSoC5/cy_em_eeprom.c **** #else
1154:Generated_Source\PSoC5/cy_em_eeprom.c ****     /* Write the data to the specified flash row */
1155:Generated_Source\PSoC5/cy_em_eeprom.c ****     ret = WriteRow(emEepromRowAddr, (uint32 *)ramBuffAddr, context);
ARM GAS  C:\Users\dmarsch\AppData\Local\Temp\ccpoCrMH.s 			page 28


1156:Generated_Source\PSoC5/cy_em_eeprom.c **** 
1157:Generated_Source\PSoC5/cy_em_eeprom.c ****     if((CY_EM_EEPROM_SUCCESS == ret) && (0u != context->redundantCopy))
1158:Generated_Source\PSoC5/cy_em_eeprom.c ****     {
1159:Generated_Source\PSoC5/cy_em_eeprom.c ****         /* Update the address to point to the redundant copy row */
1160:Generated_Source\PSoC5/cy_em_eeprom.c ****         emEepromRowAddr = (emEepromRowAddr - context->userFlashStartAddr) + context->wlEndAddr;
1161:Generated_Source\PSoC5/cy_em_eeprom.c ****         ret = WriteRow(emEepromRowAddr, (uint32 *)ramBuffAddr, context);
1162:Generated_Source\PSoC5/cy_em_eeprom.c ****     }
1163:Generated_Source\PSoC5/cy_em_eeprom.c **** 
1164:Generated_Source\PSoC5/cy_em_eeprom.c ****     if(CY_EM_EEPROM_SUCCESS == ret)
1165:Generated_Source\PSoC5/cy_em_eeprom.c ****     {
1166:Generated_Source\PSoC5/cy_em_eeprom.c ****         context->lastWrRowAddr = rowAddr;
1167:Generated_Source\PSoC5/cy_em_eeprom.c ****     }
1168:Generated_Source\PSoC5/cy_em_eeprom.c **** #endif /* (CY_PSOC6) */
1169:Generated_Source\PSoC5/cy_em_eeprom.c **** 
1170:Generated_Source\PSoC5/cy_em_eeprom.c ****     return(ret);
1171:Generated_Source\PSoC5/cy_em_eeprom.c **** }
1172:Generated_Source\PSoC5/cy_em_eeprom.c **** 
1173:Generated_Source\PSoC5/cy_em_eeprom.c **** 
1174:Generated_Source\PSoC5/cy_em_eeprom.c **** /*******************************************************************************
1175:Generated_Source\PSoC5/cy_em_eeprom.c **** * Function Name: CheckCrcAndCopy
1176:Generated_Source\PSoC5/cy_em_eeprom.c **** ****************************************************************************//**
1177:Generated_Source\PSoC5/cy_em_eeprom.c **** *
1178:Generated_Source\PSoC5/cy_em_eeprom.c **** * Checks the checksum of the specific row in EEPROM. If the CRC matches - copies
1179:Generated_Source\PSoC5/cy_em_eeprom.c **** * the data to the "datAddr" from EEPROM. f the CRC does not match checks the
1180:Generated_Source\PSoC5/cy_em_eeprom.c **** * CRC of the corresponding row in the EEPROM's redundant copy. If the CRC
1181:Generated_Source\PSoC5/cy_em_eeprom.c **** * matches - copies the data to the "datAddr" from EEPROM redundant copy. If the
1182:Generated_Source\PSoC5/cy_em_eeprom.c **** * CRC of the redundant copy does not match - returns bad checksum.
1183:Generated_Source\PSoC5/cy_em_eeprom.c **** *
1184:Generated_Source\PSoC5/cy_em_eeprom.c **** * \param startAddr
1185:Generated_Source\PSoC5/cy_em_eeprom.c **** * The address that points to the start of the specified row.
1186:Generated_Source\PSoC5/cy_em_eeprom.c **** *
1187:Generated_Source\PSoC5/cy_em_eeprom.c **** * \param datAddr
1188:Generated_Source\PSoC5/cy_em_eeprom.c **** * The start address of where the row data will be copied if the CRC check
1189:Generated_Source\PSoC5/cy_em_eeprom.c **** * will succeed.
1190:Generated_Source\PSoC5/cy_em_eeprom.c **** *
1191:Generated_Source\PSoC5/cy_em_eeprom.c **** * \param rowOffset
1192:Generated_Source\PSoC5/cy_em_eeprom.c **** * The offset in the row from which the data should be copied.
1193:Generated_Source\PSoC5/cy_em_eeprom.c **** *
1194:Generated_Source\PSoC5/cy_em_eeprom.c **** * \param numBytes
1195:Generated_Source\PSoC5/cy_em_eeprom.c **** * The number of bytes to be copied.
1196:Generated_Source\PSoC5/cy_em_eeprom.c **** *
1197:Generated_Source\PSoC5/cy_em_eeprom.c **** * \param context
1198:Generated_Source\PSoC5/cy_em_eeprom.c **** * The pointer to the EEPROM context structure \ref cy_stc_eeprom_context_t.
1199:Generated_Source\PSoC5/cy_em_eeprom.c **** *
1200:Generated_Source\PSoC5/cy_em_eeprom.c **** * \return
1201:Generated_Source\PSoC5/cy_em_eeprom.c **** * error / status code. See \ref cy_en_em_eeprom_status_t.
1202:Generated_Source\PSoC5/cy_em_eeprom.c **** *
1203:Generated_Source\PSoC5/cy_em_eeprom.c **** * \note
1204:Generated_Source\PSoC5/cy_em_eeprom.c **** * This function uses a buffer of the flash row size to perform read
1205:Generated_Source\PSoC5/cy_em_eeprom.c **** * operation. For the size of the row refer to the specific PSoC device
1206:Generated_Source\PSoC5/cy_em_eeprom.c **** * datasheet.
1207:Generated_Source\PSoC5/cy_em_eeprom.c **** *
1208:Generated_Source\PSoC5/cy_em_eeprom.c **** *******************************************************************************/
1209:Generated_Source\PSoC5/cy_em_eeprom.c **** static cy_en_em_eeprom_status_t CheckCrcAndCopy(uint32 startAddr,
1210:Generated_Source\PSoC5/cy_em_eeprom.c ****                                                 uint32 dstAddr,
1211:Generated_Source\PSoC5/cy_em_eeprom.c ****                                                 uint32 rowOffset,
1212:Generated_Source\PSoC5/cy_em_eeprom.c ****                                                 uint32 numBytes,
ARM GAS  C:\Users\dmarsch\AppData\Local\Temp\ccpoCrMH.s 			page 29


1213:Generated_Source\PSoC5/cy_em_eeprom.c ****                                                 cy_stc_eeprom_context_t * context)
1214:Generated_Source\PSoC5/cy_em_eeprom.c **** {
1215:Generated_Source\PSoC5/cy_em_eeprom.c ****     cy_en_em_eeprom_status_t ret;
1216:Generated_Source\PSoC5/cy_em_eeprom.c ****     uint32 writeRamBuffer[CY_EM_EEPROM_FLASH_SIZEOF_ROW / CY_EM_EEPROM_U32_DIV];
1217:Generated_Source\PSoC5/cy_em_eeprom.c **** 
1218:Generated_Source\PSoC5/cy_em_eeprom.c ****     /* Calculate the row address in the EEPROM's redundant copy */
1219:Generated_Source\PSoC5/cy_em_eeprom.c ****     uint32 rcStartRowAddr = (startAddr - context->userFlashStartAddr) + context->wlEndAddr;
1220:Generated_Source\PSoC5/cy_em_eeprom.c **** 
1221:Generated_Source\PSoC5/cy_em_eeprom.c ****     /* Check the row data CRC in the EEPROM */
1222:Generated_Source\PSoC5/cy_em_eeprom.c ****     if((*(uint32 *)(startAddr + CY_EM_EEPROM_HEADER_CHECKSUM_OFFSET)) ==
1223:Generated_Source\PSoC5/cy_em_eeprom.c ****         ((uint32) CalcChecksum((uint8 *)(startAddr + CY_EM_EEPROM_EEPROM_DATA_OFFSET),
1224:Generated_Source\PSoC5/cy_em_eeprom.c ****             CY_EM_EEPROM_EEPROM_DATA_LEN)))
1225:Generated_Source\PSoC5/cy_em_eeprom.c ****     {
1226:Generated_Source\PSoC5/cy_em_eeprom.c ****         (void)memcpy((void *)(dstAddr), (void *)(startAddr + rowOffset), numBytes);
1227:Generated_Source\PSoC5/cy_em_eeprom.c **** 
1228:Generated_Source\PSoC5/cy_em_eeprom.c ****         ret = CY_EM_EEPROM_SUCCESS;
1229:Generated_Source\PSoC5/cy_em_eeprom.c ****     }
1230:Generated_Source\PSoC5/cy_em_eeprom.c ****     /* Check the row data CRC in the EEPROM's redundant copy */
1231:Generated_Source\PSoC5/cy_em_eeprom.c ****     else if((*(uint32 *)(rcStartRowAddr + CY_EM_EEPROM_HEADER_CHECKSUM_OFFSET)) ==
1232:Generated_Source\PSoC5/cy_em_eeprom.c ****             ((uint32) CalcChecksum((uint8 *)(rcStartRowAddr + CY_EM_EEPROM_EEPROM_DATA_OFFSET),
1233:Generated_Source\PSoC5/cy_em_eeprom.c ****                 CY_EM_EEPROM_EEPROM_DATA_LEN)))
1234:Generated_Source\PSoC5/cy_em_eeprom.c ****     {
1235:Generated_Source\PSoC5/cy_em_eeprom.c ****         /* Copy the redundant copy row to RAM buffer to avoid read while write (RWW)
1236:Generated_Source\PSoC5/cy_em_eeprom.c ****         * flash exception. The RWW occurs while trying to write and read the data from
1237:Generated_Source\PSoC5/cy_em_eeprom.c ****         * same flash macro.
1238:Generated_Source\PSoC5/cy_em_eeprom.c ****         */
1239:Generated_Source\PSoC5/cy_em_eeprom.c ****         (void)memcpy((void *)(writeRamBuffer), (void *)(rcStartRowAddr), CY_EM_EEPROM_FLASH_SIZEOF_
1240:Generated_Source\PSoC5/cy_em_eeprom.c **** 
1241:Generated_Source\PSoC5/cy_em_eeprom.c ****         /* Restore bad row data from the RAM buffer */
1242:Generated_Source\PSoC5/cy_em_eeprom.c ****         ret = WriteRow(startAddr, (uint32 *)writeRamBuffer, context);
1243:Generated_Source\PSoC5/cy_em_eeprom.c **** 
1244:Generated_Source\PSoC5/cy_em_eeprom.c ****         if(CY_EM_EEPROM_SUCCESS == ret)
1245:Generated_Source\PSoC5/cy_em_eeprom.c ****         {
1246:Generated_Source\PSoC5/cy_em_eeprom.c ****             (void)memcpy((void *)(dstAddr), (void *)(writeRamBuffer + rowOffset), numBytes);
1247:Generated_Source\PSoC5/cy_em_eeprom.c ****         }
1248:Generated_Source\PSoC5/cy_em_eeprom.c ****     }
1249:Generated_Source\PSoC5/cy_em_eeprom.c ****     else
1250:Generated_Source\PSoC5/cy_em_eeprom.c ****     {
1251:Generated_Source\PSoC5/cy_em_eeprom.c ****         ret = CY_EM_EEPROM_BAD_CHECKSUM;
1252:Generated_Source\PSoC5/cy_em_eeprom.c ****     }
1253:Generated_Source\PSoC5/cy_em_eeprom.c **** 
1254:Generated_Source\PSoC5/cy_em_eeprom.c ****     return(ret);
1255:Generated_Source\PSoC5/cy_em_eeprom.c **** }
1256:Generated_Source\PSoC5/cy_em_eeprom.c **** 
1257:Generated_Source\PSoC5/cy_em_eeprom.c **** 
1258:Generated_Source\PSoC5/cy_em_eeprom.c **** /*******************************************************************************
1259:Generated_Source\PSoC5/cy_em_eeprom.c **** * Function Name: GetAddresses
1260:Generated_Source\PSoC5/cy_em_eeprom.c **** ****************************************************************************//**
1261:Generated_Source\PSoC5/cy_em_eeprom.c **** *
1262:Generated_Source\PSoC5/cy_em_eeprom.c **** * Calculates the start and end address of the row's EEPROM data to be updated.
1263:Generated_Source\PSoC5/cy_em_eeprom.c **** * The start and end are not absolute addresses but a relative addresses in a
1264:Generated_Source\PSoC5/cy_em_eeprom.c **** * flash row.
1265:Generated_Source\PSoC5/cy_em_eeprom.c **** *
1266:Generated_Source\PSoC5/cy_em_eeprom.c **** * \param startAddr
1267:Generated_Source\PSoC5/cy_em_eeprom.c **** * The pointer the address where the EEPROM data start address will be returned.
1268:Generated_Source\PSoC5/cy_em_eeprom.c **** *
1269:Generated_Source\PSoC5/cy_em_eeprom.c **** * \param endAddr
ARM GAS  C:\Users\dmarsch\AppData\Local\Temp\ccpoCrMH.s 			page 30


1270:Generated_Source\PSoC5/cy_em_eeprom.c **** * The pointer the address where the EEPROM data end address will be returned.
1271:Generated_Source\PSoC5/cy_em_eeprom.c **** *
1272:Generated_Source\PSoC5/cy_em_eeprom.c **** * \param offset
1273:Generated_Source\PSoC5/cy_em_eeprom.c **** * The pointer the address where the calculated offset of the EEPROM header data
1274:Generated_Source\PSoC5/cy_em_eeprom.c **** * will be returned.
1275:Generated_Source\PSoC5/cy_em_eeprom.c **** *
1276:Generated_Source\PSoC5/cy_em_eeprom.c **** * \param rowNum
1277:Generated_Source\PSoC5/cy_em_eeprom.c **** * The row number that is about to be written.
1278:Generated_Source\PSoC5/cy_em_eeprom.c **** *
1279:Generated_Source\PSoC5/cy_em_eeprom.c **** * \param addr
1280:Generated_Source\PSoC5/cy_em_eeprom.c **** * The address of the EEPROM header data in the currently analyzed row that may
1281:Generated_Source\PSoC5/cy_em_eeprom.c **** * concern to the row about to be written.
1282:Generated_Source\PSoC5/cy_em_eeprom.c **** *
1283:Generated_Source\PSoC5/cy_em_eeprom.c **** * \param len
1284:Generated_Source\PSoC5/cy_em_eeprom.c **** * The length of the EEPROM header data in the currently analyzed row that may
1285:Generated_Source\PSoC5/cy_em_eeprom.c **** * concern to the row about to be written.
1286:Generated_Source\PSoC5/cy_em_eeprom.c **** *
1287:Generated_Source\PSoC5/cy_em_eeprom.c **** * \return
1288:Generated_Source\PSoC5/cy_em_eeprom.c **** * Zero indicates that the currently analyzed row has the data to be written to
1289:Generated_Source\PSoC5/cy_em_eeprom.c **** * the active EEPROM row data locations. Non zero value indicates that there is
1290:Generated_Source\PSoC5/cy_em_eeprom.c **** * no data to be written
1291:Generated_Source\PSoC5/cy_em_eeprom.c **** *
1292:Generated_Source\PSoC5/cy_em_eeprom.c **** *******************************************************************************/
1293:Generated_Source\PSoC5/cy_em_eeprom.c **** static uint32 GetAddresses(uint32 *startAddr, 
1294:Generated_Source\PSoC5/cy_em_eeprom.c ****                         uint32 *endAddr, 
1295:Generated_Source\PSoC5/cy_em_eeprom.c ****                         uint32 *offset,
1296:Generated_Source\PSoC5/cy_em_eeprom.c ****                         uint32 rowNum,
1297:Generated_Source\PSoC5/cy_em_eeprom.c ****                         uint32 addr,
1298:Generated_Source\PSoC5/cy_em_eeprom.c ****                         uint32 len)
1299:Generated_Source\PSoC5/cy_em_eeprom.c **** {
 370              		.loc 1 1299 0
 371              		.cfi_startproc
 372              		@ args = 8, pretend = 0, frame = 0
 373              		@ frame_needed = 0, uses_anonymous_args = 0
 374              	.LVL47:
 375 0000 F0B5     		push	{r4, r5, r6, r7, lr}
 376              		.cfi_def_cfa_offset 20
 377              		.cfi_offset 4, -20
 378              		.cfi_offset 5, -16
 379              		.cfi_offset 6, -12
 380              		.cfi_offset 7, -8
 381              		.cfi_offset 14, -4
 382 0002 059C     		ldr	r4, [sp, #20]
 383 0004 069F     		ldr	r7, [sp, #24]
 384              	.LVL48:
1300:Generated_Source\PSoC5/cy_em_eeprom.c ****     uint32 skip = 0u;
1301:Generated_Source\PSoC5/cy_em_eeprom.c **** 
1302:Generated_Source\PSoC5/cy_em_eeprom.c ****     *offset =0u;
 385              		.loc 1 1302 0
 386 0006 0025     		movs	r5, #0
 387 0008 1560     		str	r5, [r2]
1303:Generated_Source\PSoC5/cy_em_eeprom.c **** 
1304:Generated_Source\PSoC5/cy_em_eeprom.c ****     if(0u != CY_EM_EEPROM_IS_ADDR_IN_ROW_RANGE(addr, rowNum))
 388              		.loc 1 1304 0
 389 000a DD01     		lsls	r5, r3, #7
 390 000c A542     		cmp	r5, r4
 391 000e 06D8     		bhi	.L38
ARM GAS  C:\Users\dmarsch\AppData\Local\Temp\ccpoCrMH.s 			page 31


 392              		.loc 1 1304 0 is_stmt 0 discriminator 1
 393 0010 5E1C     		adds	r6, r3, #1
 394 0012 F601     		lsls	r6, r6, #7
 395 0014 013E     		subs	r6, r6, #1
 396 0016 B442     		cmp	r4, r6
 397 0018 03D9     		bls	.L39
 398              		.loc 1 1304 0
 399 001a 0026     		movs	r6, #0
 400 001c 02E0     		b	.L32
 401              	.L38:
 402 001e 0026     		movs	r6, #0
 403 0020 00E0     		b	.L32
 404              	.L39:
 405 0022 0126     		movs	r6, #1
 406              	.L32:
 407              		.loc 1 1304 0 discriminator 6
 408 0024 D6B1     		cbz	r6, .L33
1305:Generated_Source\PSoC5/cy_em_eeprom.c ****     {
1306:Generated_Source\PSoC5/cy_em_eeprom.c ****         *startAddr = CY_EM_EEPROM_EEPROM_DATA_LEN + (addr % CY_EM_EEPROM_EEPROM_DATA_LEN);
 409              		.loc 1 1306 0 is_stmt 1
 410 0026 04F07F02 		and	r2, r4, #127
 411              	.LVL49:
 412 002a 8032     		adds	r2, r2, #128
 413 002c 0260     		str	r2, [r0]
1307:Generated_Source\PSoC5/cy_em_eeprom.c **** 
1308:Generated_Source\PSoC5/cy_em_eeprom.c ****         if(0u != CY_EM_EEPROM_IS_ADDR_IN_ROW_RANGE(addr + len, rowNum))
 414              		.loc 1 1308 0
 415 002e 3C44     		add	r4, r4, r7
 416 0030 A542     		cmp	r5, r4
 417 0032 06D8     		bhi	.L40
 418              		.loc 1 1308 0 is_stmt 0 discriminator 1
 419 0034 0133     		adds	r3, r3, #1
 420              	.LVL50:
 421 0036 DB01     		lsls	r3, r3, #7
 422              	.LVL51:
 423 0038 013B     		subs	r3, r3, #1
 424 003a 9C42     		cmp	r4, r3
 425 003c 03D9     		bls	.L41
 426              		.loc 1 1308 0
 427 003e 0023     		movs	r3, #0
 428 0040 02E0     		b	.L34
 429              	.LVL52:
 430              	.L40:
 431 0042 0023     		movs	r3, #0
 432              	.LVL53:
 433 0044 00E0     		b	.L34
 434              	.L41:
 435 0046 0123     		movs	r3, #1
 436              	.L34:
 437              		.loc 1 1308 0 discriminator 6
 438 0048 1BB1     		cbz	r3, .L35
1309:Generated_Source\PSoC5/cy_em_eeprom.c ****         {
1310:Generated_Source\PSoC5/cy_em_eeprom.c ****             *endAddr = *startAddr + len;
 439              		.loc 1 1310 0 is_stmt 1
 440 004a 1744     		add	r7, r7, r2
 441 004c 0F60     		str	r7, [r1]
1300:Generated_Source\PSoC5/cy_em_eeprom.c **** 
ARM GAS  C:\Users\dmarsch\AppData\Local\Temp\ccpoCrMH.s 			page 32


 442              		.loc 1 1300 0
 443 004e 0020     		movs	r0, #0
 444              	.LVL54:
 445 0050 F0BD     		pop	{r4, r5, r6, r7, pc}
 446              	.LVL55:
 447              	.L35:
1311:Generated_Source\PSoC5/cy_em_eeprom.c ****         }
1312:Generated_Source\PSoC5/cy_em_eeprom.c ****         else
1313:Generated_Source\PSoC5/cy_em_eeprom.c ****         {
1314:Generated_Source\PSoC5/cy_em_eeprom.c ****             *endAddr = CY_EM_EEPROM_FLASH_SIZEOF_ROW;
 448              		.loc 1 1314 0
 449 0052 4FF48073 		mov	r3, #256
 450 0056 0B60     		str	r3, [r1]
1300:Generated_Source\PSoC5/cy_em_eeprom.c **** 
 451              		.loc 1 1300 0
 452 0058 0020     		movs	r0, #0
 453              	.LVL56:
 454 005a F0BD     		pop	{r4, r5, r6, r7, pc}
 455              	.LVL57:
 456              	.L33:
1315:Generated_Source\PSoC5/cy_em_eeprom.c ****         }
1316:Generated_Source\PSoC5/cy_em_eeprom.c ****     }
1317:Generated_Source\PSoC5/cy_em_eeprom.c ****     else
1318:Generated_Source\PSoC5/cy_em_eeprom.c ****     {
1319:Generated_Source\PSoC5/cy_em_eeprom.c **** 
1320:Generated_Source\PSoC5/cy_em_eeprom.c ****         if(0u != CY_EM_EEPROM_IS_ADDR_IN_ROW_RANGE(addr + len, rowNum))
 457              		.loc 1 1320 0
 458 005c 04EB070E 		add	lr, r4, r7
 459 0060 7545     		cmp	r5, lr
 460 0062 05D8     		bhi	.L37
 461              		.loc 1 1320 0 is_stmt 0 discriminator 1
 462 0064 0133     		adds	r3, r3, #1
 463              	.LVL58:
 464 0066 DB01     		lsls	r3, r3, #7
 465              	.LVL59:
 466 0068 013B     		subs	r3, r3, #1
 467 006a 9E45     		cmp	lr, r3
 468 006c 00D8     		bhi	.L37
 469              		.loc 1 1320 0
 470 006e 0126     		movs	r6, #1
 471              	.L37:
 472              		.loc 1 1320 0 discriminator 6
 473 0070 66B1     		cbz	r6, .L43
1321:Generated_Source\PSoC5/cy_em_eeprom.c ****         {
1322:Generated_Source\PSoC5/cy_em_eeprom.c ****             *startAddr = CY_EM_EEPROM_EEPROM_DATA_LEN;
 474              		.loc 1 1322 0 is_stmt 1
 475 0072 8023     		movs	r3, #128
 476 0074 0360     		str	r3, [r0]
1323:Generated_Source\PSoC5/cy_em_eeprom.c ****             *endAddr = (*startAddr + len) - (*startAddr - (addr % CY_EM_EEPROM_EEPROM_DATA_LEN));
 477              		.loc 1 1323 0
 478 0076 FB18     		adds	r3, r7, r3
 479 0078 64F07F04 		orn	r4, r4, #127
 480 007c 1C44     		add	r4, r4, r3
 481 007e 0C60     		str	r4, [r1]
1324:Generated_Source\PSoC5/cy_em_eeprom.c ****             *offset = len - (*endAddr - *startAddr);
 482              		.loc 1 1324 0
 483 0080 0368     		ldr	r3, [r0]
ARM GAS  C:\Users\dmarsch\AppData\Local\Temp\ccpoCrMH.s 			page 33


 484 0082 1C1B     		subs	r4, r3, r4
 485 0084 2744     		add	r7, r7, r4
 486 0086 1760     		str	r7, [r2]
1300:Generated_Source\PSoC5/cy_em_eeprom.c **** 
 487              		.loc 1 1300 0
 488 0088 0020     		movs	r0, #0
 489              	.LVL60:
 490 008a F0BD     		pop	{r4, r5, r6, r7, pc}
 491              	.LVL61:
 492              	.L43:
1325:Generated_Source\PSoC5/cy_em_eeprom.c ****         }
1326:Generated_Source\PSoC5/cy_em_eeprom.c ****         else
1327:Generated_Source\PSoC5/cy_em_eeprom.c ****         {
1328:Generated_Source\PSoC5/cy_em_eeprom.c ****             skip++;
 493              		.loc 1 1328 0
 494 008c 0120     		movs	r0, #1
 495              	.LVL62:
1329:Generated_Source\PSoC5/cy_em_eeprom.c ****         }
1330:Generated_Source\PSoC5/cy_em_eeprom.c ****     }
1331:Generated_Source\PSoC5/cy_em_eeprom.c **** 
1332:Generated_Source\PSoC5/cy_em_eeprom.c ****     return (skip);
1333:Generated_Source\PSoC5/cy_em_eeprom.c **** }
 496              		.loc 1 1333 0
 497 008e F0BD     		pop	{r4, r5, r6, r7, pc}
 498              		.cfi_endproc
 499              	.LFE13:
 500              		.size	GetAddresses, .-GetAddresses
 501              		.section	.text.WriteRow,"ax",%progbits
 502              		.align	2
 503              		.thumb
 504              		.thumb_func
 505              		.type	WriteRow, %function
 506              	WriteRow:
 507              	.LFB10:
 994:Generated_Source\PSoC5/cy_em_eeprom.c ****     cy_en_em_eeprom_status_t ret = CY_EM_EEPROM_WRITE_FAIL;
 508              		.loc 1 994 0
 509              		.cfi_startproc
 510              		@ args = 0, pretend = 0, frame = 0
 511              		@ frame_needed = 0, uses_anonymous_args = 0
 512              	.LVL63:
 513 0000 70B5     		push	{r4, r5, r6, lr}
 514              		.cfi_def_cfa_offset 16
 515              		.cfi_offset 4, -16
 516              		.cfi_offset 5, -12
 517              		.cfi_offset 6, -8
 518              		.cfi_offset 14, -4
 519 0002 0446     		mov	r4, r0
 520 0004 0E46     		mov	r6, r1
 521              	.LVL64:
1011:Generated_Source\PSoC5/cy_em_eeprom.c **** 
 522              		.loc 1 1011 0
 523 0006 C0F30725 		ubfx	r5, r0, #8, #8
 524              	.LVL65:
1019:Generated_Source\PSoC5/cy_em_eeprom.c ****         #endif /* (CY_EM_EEPROM_SKIP_TEMP_MEASUREMENT) */
 525              		.loc 1 1019 0
 526 000a FFF7FEFF 		bl	CySetTemp
 527              	.LVL66:
ARM GAS  C:\Users\dmarsch\AppData\Local\Temp\ccpoCrMH.s 			page 34


1023:Generated_Source\PSoC5/cy_em_eeprom.c ****         
 528              		.loc 1 1023 0
 529 000e 3246     		mov	r2, r6
 530 0010 2946     		mov	r1, r5
 531 0012 C4F30740 		ubfx	r0, r4, #16, #8
 532 0016 FFF7FEFF 		bl	CyWriteRowData
 533              	.LVL67:
 534 001a 0446     		mov	r4, r0
 535              	.LVL68:
1026:Generated_Source\PSoC5/cy_em_eeprom.c ****         #endif /* (CY_PSOC5) */
 536              		.loc 1 1026 0
 537 001c FFF7FEFF 		bl	CyFlushCache
 538              	.LVL69:
1030:Generated_Source\PSoC5/cy_em_eeprom.c ****     {
 539              		.loc 1 1030 0
 540 0020 0CB1     		cbz	r4, .L47
 995:Generated_Source\PSoC5/cy_em_eeprom.c **** #if (!CY_PSOC6)
 541              		.loc 1 995 0
 542 0022 0420     		movs	r0, #4
 543 0024 70BD     		pop	{r4, r5, r6, pc}
 544              	.LVL70:
 545              	.L47:
1032:Generated_Source\PSoC5/cy_em_eeprom.c ****     }
 546              		.loc 1 1032 0
 547 0026 0020     		movs	r0, #0
 548              	.LVL71:
1068:Generated_Source\PSoC5/cy_em_eeprom.c **** 
 549              		.loc 1 1068 0
 550 0028 70BD     		pop	{r4, r5, r6, pc}
 551              		.cfi_endproc
 552              	.LFE10:
 553              		.size	WriteRow, .-WriteRow
 554 002a 00BF     		.section	.text.FillChecksum,"ax",%progbits
 555              		.align	2
 556              		.thumb
 557              		.thumb_func
 558              		.type	FillChecksum, %function
 559              	FillChecksum:
 560              	.LFB14:
1334:Generated_Source\PSoC5/cy_em_eeprom.c **** 
1335:Generated_Source\PSoC5/cy_em_eeprom.c **** 
1336:Generated_Source\PSoC5/cy_em_eeprom.c **** /*******************************************************************************
1337:Generated_Source\PSoC5/cy_em_eeprom.c **** * Function Name: FillChecksum
1338:Generated_Source\PSoC5/cy_em_eeprom.c **** ****************************************************************************//**
1339:Generated_Source\PSoC5/cy_em_eeprom.c **** *
1340:Generated_Source\PSoC5/cy_em_eeprom.c **** * Performs calculation of the checksum on each row in the Em_EEPROM and fills
1341:Generated_Source\PSoC5/cy_em_eeprom.c **** * the Em_EEPROM headers checksum field with the calculated checksums.
1342:Generated_Source\PSoC5/cy_em_eeprom.c **** *
1343:Generated_Source\PSoC5/cy_em_eeprom.c **** * \param context
1344:Generated_Source\PSoC5/cy_em_eeprom.c **** * The pointer to the EEPROM context structure.
1345:Generated_Source\PSoC5/cy_em_eeprom.c **** *
1346:Generated_Source\PSoC5/cy_em_eeprom.c **** * \return
1347:Generated_Source\PSoC5/cy_em_eeprom.c **** * error / status code. See \ref cy_en_em_eeprom_status_t.
1348:Generated_Source\PSoC5/cy_em_eeprom.c **** *
1349:Generated_Source\PSoC5/cy_em_eeprom.c **** * \theory 
1350:Generated_Source\PSoC5/cy_em_eeprom.c **** * In case if redundant copy option is used the Em_EEPROM would return bad 
1351:Generated_Source\PSoC5/cy_em_eeprom.c **** * checksum while trying to read the EEPROM rows which were not yet written by 
ARM GAS  C:\Users\dmarsch\AppData\Local\Temp\ccpoCrMH.s 			page 35


1352:Generated_Source\PSoC5/cy_em_eeprom.c **** * the user. E.g. any read after device reprogramming without previous Write() 
1353:Generated_Source\PSoC5/cy_em_eeprom.c **** * operation to the EEPROM would fail. This would happen because the Em_EEPROM 
1354:Generated_Source\PSoC5/cy_em_eeprom.c **** * headers checksum field values (which is zero at the moment) would not be 
1355:Generated_Source\PSoC5/cy_em_eeprom.c **** * equal to the actual data checksum. This function allows to avoid read failure
1356:Generated_Source\PSoC5/cy_em_eeprom.c **** * after device reprogramming. 
1357:Generated_Source\PSoC5/cy_em_eeprom.c **** *
1358:Generated_Source\PSoC5/cy_em_eeprom.c **** * \note
1359:Generated_Source\PSoC5/cy_em_eeprom.c **** * This function uses a buffer of the flash row size to perform read
1360:Generated_Source\PSoC5/cy_em_eeprom.c **** * operation. For the size of the row refer to the specific PSoC device
1361:Generated_Source\PSoC5/cy_em_eeprom.c **** * datasheet.
1362:Generated_Source\PSoC5/cy_em_eeprom.c **** *
1363:Generated_Source\PSoC5/cy_em_eeprom.c **** *******************************************************************************/
1364:Generated_Source\PSoC5/cy_em_eeprom.c **** static cy_en_em_eeprom_status_t FillChecksum(cy_stc_eeprom_context_t * context)
1365:Generated_Source\PSoC5/cy_em_eeprom.c **** {
 561              		.loc 1 1365 0
 562              		.cfi_startproc
 563              		@ args = 0, pretend = 0, frame = 264
 564              		@ frame_needed = 0, uses_anonymous_args = 0
 565              	.LVL72:
 566 0000 F0B5     		push	{r4, r5, r6, r7, lr}
 567              		.cfi_def_cfa_offset 20
 568              		.cfi_offset 4, -20
 569              		.cfi_offset 5, -16
 570              		.cfi_offset 6, -12
 571              		.cfi_offset 7, -8
 572              		.cfi_offset 14, -4
 573 0002 C3B0     		sub	sp, sp, #268
 574              		.cfi_def_cfa_offset 288
 575 0004 0446     		mov	r4, r0
1366:Generated_Source\PSoC5/cy_em_eeprom.c ****     uint32 i;
1367:Generated_Source\PSoC5/cy_em_eeprom.c ****     uint32 rdAddr;
1368:Generated_Source\PSoC5/cy_em_eeprom.c ****     uint32 writeRamBuffer[CY_EM_EEPROM_FLASH_SIZEOF_ROW / CY_EM_EEPROM_U32_DIV];
1369:Generated_Source\PSoC5/cy_em_eeprom.c ****     uint32 wrAddr = context->lastWrRowAddr;
 576              		.loc 1 1369 0
 577 0006 8368     		ldr	r3, [r0, #8]
 578 0008 0093     		str	r3, [sp]
1370:Generated_Source\PSoC5/cy_em_eeprom.c ****     uint32 tmpRowAddr;
1371:Generated_Source\PSoC5/cy_em_eeprom.c ****     /* Get the sequence number (number of writes) */
1372:Generated_Source\PSoC5/cy_em_eeprom.c ****     uint32 seqNum = CY_EM_EEPROM_GET_SEQ_NUM(wrAddr);
 579              		.loc 1 1372 0
 580 000a 1D68     		ldr	r5, [r3]
 581              	.LVL73:
1373:Generated_Source\PSoC5/cy_em_eeprom.c ****     cy_en_em_eeprom_status_t ret = CY_EM_EEPROM_BAD_PARAM;
 582              		.loc 1 1373 0
 583 000c 0127     		movs	r7, #1
1374:Generated_Source\PSoC5/cy_em_eeprom.c **** 
1375:Generated_Source\PSoC5/cy_em_eeprom.c ****     for(i = 0u; i < (context->numberOfRows * context->wearLevelingFactor); i++)
 584              		.loc 1 1375 0
 585 000e 0026     		movs	r6, #0
 586 0010 23E0     		b	.L50
 587              	.LVL74:
 588              	.L51:
1376:Generated_Source\PSoC5/cy_em_eeprom.c ****     {
1377:Generated_Source\PSoC5/cy_em_eeprom.c ****         /* Copy the EEPROM row from Flash to RAM */
1378:Generated_Source\PSoC5/cy_em_eeprom.c ****         (void)memcpy((void *)&writeRamBuffer[0u], (void *)(wrAddr), CY_EM_EEPROM_FLASH_SIZEOF_ROW);
 589              		.loc 1 1378 0 discriminator 3
 590 0012 009F     		ldr	r7, [sp]
ARM GAS  C:\Users\dmarsch\AppData\Local\Temp\ccpoCrMH.s 			page 36


 591              	.LVL75:
 592 0014 4FF48072 		mov	r2, #256
 593 0018 3946     		mov	r1, r7
 594 001a 01A8     		add	r0, sp, #4
 595 001c FFF7FEFF 		bl	memcpy
 596              	.LVL76:
1379:Generated_Source\PSoC5/cy_em_eeprom.c **** 
1380:Generated_Source\PSoC5/cy_em_eeprom.c ****         /* Increment the sequence number */
1381:Generated_Source\PSoC5/cy_em_eeprom.c ****         seqNum++;
 597              		.loc 1 1381 0 discriminator 3
 598 0020 0135     		adds	r5, r5, #1
 599              	.LVL77:
1382:Generated_Source\PSoC5/cy_em_eeprom.c ****         writeRamBuffer[CY_EM_EEPROM_HEADER_SEQ_NUM_OFFSET_U32] = seqNum;
 600              		.loc 1 1382 0 discriminator 3
 601 0022 0195     		str	r5, [sp, #4]
1383:Generated_Source\PSoC5/cy_em_eeprom.c **** 
1384:Generated_Source\PSoC5/cy_em_eeprom.c ****         /* Calculate and fill the checksum to the Em_EEPROM header */
1385:Generated_Source\PSoC5/cy_em_eeprom.c ****         writeRamBuffer[CY_EM_EEPROM_HEADER_CHECKSUM_OFFSET_U32] = (uint32)
1386:Generated_Source\PSoC5/cy_em_eeprom.c ****                     CalcChecksum((uint8 *) &writeRamBuffer[CY_EM_EEPROM_EEPROM_DATA_OFFSET_U32],
 602              		.loc 1 1386 0 discriminator 3
 603 0024 8021     		movs	r1, #128
 604 0026 21A8     		add	r0, sp, #132
 605 0028 FFF7FEFF 		bl	CalcChecksum
 606              	.LVL78:
1385:Generated_Source\PSoC5/cy_em_eeprom.c ****                     CalcChecksum((uint8 *) &writeRamBuffer[CY_EM_EEPROM_EEPROM_DATA_OFFSET_U32],
 607              		.loc 1 1385 0 discriminator 3
 608 002c 2090     		str	r0, [sp, #128]
1387:Generated_Source\PSoC5/cy_em_eeprom.c ****                                               CY_EM_EEPROM_EEPROM_DATA_LEN);
1388:Generated_Source\PSoC5/cy_em_eeprom.c **** 
1389:Generated_Source\PSoC5/cy_em_eeprom.c ****         /* Write the data to the specified flash row */
1390:Generated_Source\PSoC5/cy_em_eeprom.c ****         ret = WriteRow(wrAddr, writeRamBuffer, context);
 609              		.loc 1 1390 0 discriminator 3
 610 002e 2246     		mov	r2, r4
 611 0030 01A9     		add	r1, sp, #4
 612 0032 3846     		mov	r0, r7
 613 0034 FFF7FEFF 		bl	WriteRow
 614              	.LVL79:
1391:Generated_Source\PSoC5/cy_em_eeprom.c **** 
1392:Generated_Source\PSoC5/cy_em_eeprom.c ****         /* Update the row address to point to the relevant row in the redundant 
1393:Generated_Source\PSoC5/cy_em_eeprom.c ****         * EEPROM's copy.
1394:Generated_Source\PSoC5/cy_em_eeprom.c ****         */
1395:Generated_Source\PSoC5/cy_em_eeprom.c ****         tmpRowAddr = (wrAddr - context->userFlashStartAddr) + context->wlEndAddr;
 615              		.loc 1 1395 0 discriminator 3
 616 0038 A069     		ldr	r0, [r4, #24]
 617 003a 009B     		ldr	r3, [sp]
 618 003c 1B1A     		subs	r3, r3, r0
 619 003e 2068     		ldr	r0, [r4]
 620              	.LVL80:
1396:Generated_Source\PSoC5/cy_em_eeprom.c **** 
1397:Generated_Source\PSoC5/cy_em_eeprom.c ****         /* Write the data to the specified flash row */
1398:Generated_Source\PSoC5/cy_em_eeprom.c ****         ret = WriteRow(tmpRowAddr, writeRamBuffer, context);
 621              		.loc 1 1398 0 discriminator 3
 622 0040 2246     		mov	r2, r4
 623 0042 01A9     		add	r1, sp, #4
 624 0044 1844     		add	r0, r0, r3
 625              	.LVL81:
 626 0046 FFF7FEFF 		bl	WriteRow
ARM GAS  C:\Users\dmarsch\AppData\Local\Temp\ccpoCrMH.s 			page 37


 627              	.LVL82:
 628 004a 0746     		mov	r7, r0
 629              	.LVL83:
1399:Generated_Source\PSoC5/cy_em_eeprom.c **** 
1400:Generated_Source\PSoC5/cy_em_eeprom.c ****         /* Get the address of the next row to be written. 
1401:Generated_Source\PSoC5/cy_em_eeprom.c ****         * "rdAddr" is not used in this function but provided to prevent NULL 
1402:Generated_Source\PSoC5/cy_em_eeprom.c ****         * pointer exception in GetNextRowToWrite().
1403:Generated_Source\PSoC5/cy_em_eeprom.c ****         */
1404:Generated_Source\PSoC5/cy_em_eeprom.c ****         GetNextRowToWrite(seqNum, &wrAddr, &rdAddr, context);
 630              		.loc 1 1404 0 discriminator 3
 631 004c 2346     		mov	r3, r4
 632 004e 41AA     		add	r2, sp, #260
 633 0050 6946     		mov	r1, sp
 634 0052 2846     		mov	r0, r5
 635 0054 FFF7FEFF 		bl	GetNextRowToWrite
 636              	.LVL84:
1375:Generated_Source\PSoC5/cy_em_eeprom.c ****     {
 637              		.loc 1 1375 0 discriminator 3
 638 0058 0136     		adds	r6, r6, #1
 639              	.LVL85:
 640              	.L50:
1375:Generated_Source\PSoC5/cy_em_eeprom.c ****     {
 641              		.loc 1 1375 0 is_stmt 0 discriminator 1
 642 005a 6268     		ldr	r2, [r4, #4]
 643 005c 2369     		ldr	r3, [r4, #16]
 644 005e 03FB02F3 		mul	r3, r3, r2
 645 0062 9E42     		cmp	r6, r3
 646 0064 D5D3     		bcc	.L51
1405:Generated_Source\PSoC5/cy_em_eeprom.c ****     }
1406:Generated_Source\PSoC5/cy_em_eeprom.c ****     
1407:Generated_Source\PSoC5/cy_em_eeprom.c ****     return(ret);
1408:Generated_Source\PSoC5/cy_em_eeprom.c **** }
 647              		.loc 1 1408 0 is_stmt 1
 648 0066 3846     		mov	r0, r7
 649 0068 43B0     		add	sp, sp, #268
 650              		.cfi_def_cfa_offset 20
 651              		@ sp needed
 652 006a F0BD     		pop	{r4, r5, r6, r7, pc}
 653              		.cfi_endproc
 654              	.LFE14:
 655              		.size	FillChecksum, .-FillChecksum
 656              		.section	.text.CheckCrcAndCopy,"ax",%progbits
 657              		.align	2
 658              		.thumb
 659              		.thumb_func
 660              		.type	CheckCrcAndCopy, %function
 661              	CheckCrcAndCopy:
 662              	.LFB12:
1214:Generated_Source\PSoC5/cy_em_eeprom.c ****     cy_en_em_eeprom_status_t ret;
 663              		.loc 1 1214 0
 664              		.cfi_startproc
 665              		@ args = 4, pretend = 0, frame = 256
 666              		@ frame_needed = 0, uses_anonymous_args = 0
 667              	.LVL86:
 668 0000 2DE9F047 		push	{r4, r5, r6, r7, r8, r9, r10, lr}
 669              		.cfi_def_cfa_offset 32
 670              		.cfi_offset 4, -32
ARM GAS  C:\Users\dmarsch\AppData\Local\Temp\ccpoCrMH.s 			page 38


 671              		.cfi_offset 5, -28
 672              		.cfi_offset 6, -24
 673              		.cfi_offset 7, -20
 674              		.cfi_offset 8, -16
 675              		.cfi_offset 9, -12
 676              		.cfi_offset 10, -8
 677              		.cfi_offset 14, -4
 678 0004 C0B0     		sub	sp, sp, #256
 679              		.cfi_def_cfa_offset 288
 680 0006 0546     		mov	r5, r0
 681 0008 8A46     		mov	r10, r1
 682 000a 9046     		mov	r8, r2
 683 000c 9946     		mov	r9, r3
 684 000e 489E     		ldr	r6, [sp, #288]
1219:Generated_Source\PSoC5/cy_em_eeprom.c **** 
 685              		.loc 1 1219 0
 686 0010 B469     		ldr	r4, [r6, #24]
 687 0012 041B     		subs	r4, r0, r4
 688 0014 3368     		ldr	r3, [r6]
 689              	.LVL87:
 690 0016 1C44     		add	r4, r4, r3
 691              	.LVL88:
1222:Generated_Source\PSoC5/cy_em_eeprom.c ****         ((uint32) CalcChecksum((uint8 *)(startAddr + CY_EM_EEPROM_EEPROM_DATA_OFFSET),
 692              		.loc 1 1222 0
 693 0018 C76F     		ldr	r7, [r0, #124]
1223:Generated_Source\PSoC5/cy_em_eeprom.c ****             CY_EM_EEPROM_EEPROM_DATA_LEN)))
 694              		.loc 1 1223 0
 695 001a 8021     		movs	r1, #128
 696              	.LVL89:
 697 001c 0844     		add	r0, r0, r1
 698              	.LVL90:
 699 001e FFF7FEFF 		bl	CalcChecksum
 700              	.LVL91:
1222:Generated_Source\PSoC5/cy_em_eeprom.c ****         ((uint32) CalcChecksum((uint8 *)(startAddr + CY_EM_EEPROM_EEPROM_DATA_OFFSET),
 701              		.loc 1 1222 0
 702 0022 8742     		cmp	r7, r0
 703 0024 07D1     		bne	.L54
1226:Generated_Source\PSoC5/cy_em_eeprom.c **** 
 704              		.loc 1 1226 0
 705 0026 4A46     		mov	r2, r9
 706 0028 05EB0801 		add	r1, r5, r8
 707 002c 5046     		mov	r0, r10
 708 002e FFF7FEFF 		bl	memcpy
 709              	.LVL92:
1228:Generated_Source\PSoC5/cy_em_eeprom.c ****     }
 710              		.loc 1 1228 0
 711 0032 0024     		movs	r4, #0
 712              	.LVL93:
 713 0034 1BE0     		b	.L55
 714              	.LVL94:
 715              	.L54:
1231:Generated_Source\PSoC5/cy_em_eeprom.c ****             ((uint32) CalcChecksum((uint8 *)(rcStartRowAddr + CY_EM_EEPROM_EEPROM_DATA_OFFSET),
 716              		.loc 1 1231 0
 717 0036 E76F     		ldr	r7, [r4, #124]
1232:Generated_Source\PSoC5/cy_em_eeprom.c ****                 CY_EM_EEPROM_EEPROM_DATA_LEN)))
 718              		.loc 1 1232 0
 719 0038 8021     		movs	r1, #128
ARM GAS  C:\Users\dmarsch\AppData\Local\Temp\ccpoCrMH.s 			page 39


 720 003a 6018     		adds	r0, r4, r1
 721 003c FFF7FEFF 		bl	CalcChecksum
 722              	.LVL95:
1231:Generated_Source\PSoC5/cy_em_eeprom.c ****             ((uint32) CalcChecksum((uint8 *)(rcStartRowAddr + CY_EM_EEPROM_EEPROM_DATA_OFFSET),
 723              		.loc 1 1231 0
 724 0040 8742     		cmp	r7, r0
 725 0042 13D1     		bne	.L56
1239:Generated_Source\PSoC5/cy_em_eeprom.c **** 
 726              		.loc 1 1239 0
 727 0044 4FF48072 		mov	r2, #256
 728 0048 2146     		mov	r1, r4
 729 004a 6846     		mov	r0, sp
 730 004c FFF7FEFF 		bl	memcpy
 731              	.LVL96:
1242:Generated_Source\PSoC5/cy_em_eeprom.c **** 
 732              		.loc 1 1242 0
 733 0050 3246     		mov	r2, r6
 734 0052 6946     		mov	r1, sp
 735 0054 2846     		mov	r0, r5
 736 0056 FFF7FEFF 		bl	WriteRow
 737              	.LVL97:
1244:Generated_Source\PSoC5/cy_em_eeprom.c ****         {
 738              		.loc 1 1244 0
 739 005a 0446     		mov	r4, r0
 740              	.LVL98:
 741 005c 38B9     		cbnz	r0, .L55
1246:Generated_Source\PSoC5/cy_em_eeprom.c ****         }
 742              		.loc 1 1246 0
 743 005e 4A46     		mov	r2, r9
 744 0060 0DEB8801 		add	r1, sp, r8, lsl #2
 745 0064 5046     		mov	r0, r10
 746              	.LVL99:
 747 0066 FFF7FEFF 		bl	memcpy
 748              	.LVL100:
 749 006a 00E0     		b	.L55
 750              	.LVL101:
 751              	.L56:
1251:Generated_Source\PSoC5/cy_em_eeprom.c ****     }
 752              		.loc 1 1251 0
 753 006c 0224     		movs	r4, #2
 754              	.LVL102:
 755              	.L55:
1255:Generated_Source\PSoC5/cy_em_eeprom.c **** 
 756              		.loc 1 1255 0
 757 006e 2046     		mov	r0, r4
 758 0070 40B0     		add	sp, sp, #256
 759              		.cfi_def_cfa_offset 32
 760              		@ sp needed
 761 0072 BDE8F087 		pop	{r4, r5, r6, r7, r8, r9, r10, pc}
 762              		.cfi_endproc
 763              	.LFE12:
 764              		.size	CheckCrcAndCopy, .-CheckCrcAndCopy
 765 0076 00BF     		.section	.text.EraseRow,"ax",%progbits
 766              		.align	2
 767              		.thumb
 768              		.thumb_func
 769              		.type	EraseRow, %function
ARM GAS  C:\Users\dmarsch\AppData\Local\Temp\ccpoCrMH.s 			page 40


 770              	EraseRow:
 771              	.LFB11:
1096:Generated_Source\PSoC5/cy_em_eeprom.c ****     uint32 emEepromRowAddr = rowAddr;
 772              		.loc 1 1096 0
 773              		.cfi_startproc
 774              		@ args = 0, pretend = 0, frame = 0
 775              		@ frame_needed = 0, uses_anonymous_args = 0
 776              	.LVL103:
 777 0000 70B5     		push	{r4, r5, r6, lr}
 778              		.cfi_def_cfa_offset 16
 779              		.cfi_offset 4, -16
 780              		.cfi_offset 5, -12
 781              		.cfi_offset 6, -8
 782              		.cfi_offset 14, -4
 783 0002 0546     		mov	r5, r0
 784 0004 0E46     		mov	r6, r1
 785 0006 1446     		mov	r4, r2
 786              	.LVL104:
1155:Generated_Source\PSoC5/cy_em_eeprom.c **** 
 787              		.loc 1 1155 0
 788 0008 FFF7FEFF 		bl	WriteRow
 789              	.LVL105:
1157:Generated_Source\PSoC5/cy_em_eeprom.c ****     {
 790              		.loc 1 1157 0
 791 000c 0346     		mov	r3, r0
 792 000e 50B9     		cbnz	r0, .L59
1157:Generated_Source\PSoC5/cy_em_eeprom.c ****     {
 793              		.loc 1 1157 0 is_stmt 0 discriminator 1
 794 0010 227D     		ldrb	r2, [r4, #20]	@ zero_extendqisi2
 795 0012 42B1     		cbz	r2, .L59
1160:Generated_Source\PSoC5/cy_em_eeprom.c ****         ret = WriteRow(emEepromRowAddr, (uint32 *)ramBuffAddr, context);
 796              		.loc 1 1160 0 is_stmt 1
 797 0014 A069     		ldr	r0, [r4, #24]
 798              	.LVL106:
 799 0016 281A     		subs	r0, r5, r0
 800 0018 2368     		ldr	r3, [r4]
 801              	.LVL107:
1161:Generated_Source\PSoC5/cy_em_eeprom.c ****     }
 802              		.loc 1 1161 0
 803 001a 2246     		mov	r2, r4
 804 001c 3146     		mov	r1, r6
 805 001e 1844     		add	r0, r0, r3
 806              	.LVL108:
 807 0020 FFF7FEFF 		bl	WriteRow
 808              	.LVL109:
 809 0024 0346     		mov	r3, r0
 810              	.LVL110:
 811              	.L59:
1164:Generated_Source\PSoC5/cy_em_eeprom.c ****     {
 812              		.loc 1 1164 0
 813 0026 03B9     		cbnz	r3, .L60
1166:Generated_Source\PSoC5/cy_em_eeprom.c ****     }
 814              		.loc 1 1166 0
 815 0028 A560     		str	r5, [r4, #8]
 816              	.L60:
1171:Generated_Source\PSoC5/cy_em_eeprom.c **** 
 817              		.loc 1 1171 0
ARM GAS  C:\Users\dmarsch\AppData\Local\Temp\ccpoCrMH.s 			page 41


 818 002a 1846     		mov	r0, r3
 819 002c 70BD     		pop	{r4, r5, r6, pc}
 820              		.cfi_endproc
 821              	.LFE11:
 822              		.size	EraseRow, .-EraseRow
 823 002e 00BF     		.section	.text.Cy_Em_EEPROM_Init,"ax",%progbits
 824              		.align	2
 825              		.global	Cy_Em_EEPROM_Init
 826              		.thumb
 827              		.thumb_func
 828              		.type	Cy_Em_EEPROM_Init, %function
 829              	Cy_Em_EEPROM_Init:
 830              	.LFB0:
  96:Generated_Source\PSoC5/cy_em_eeprom.c ****     cy_en_em_eeprom_status_t ret = CY_EM_EEPROM_BAD_PARAM;
 831              		.loc 1 96 0
 832              		.cfi_startproc
 833              		@ args = 0, pretend = 0, frame = 0
 834              		@ frame_needed = 0, uses_anonymous_args = 0
 835              	.LVL111:
 836 0000 F8B5     		push	{r3, r4, r5, r6, r7, lr}
 837              		.cfi_def_cfa_offset 24
 838              		.cfi_offset 3, -24
 839              		.cfi_offset 4, -20
 840              		.cfi_offset 5, -16
 841              		.cfi_offset 6, -12
 842              		.cfi_offset 7, -8
 843              		.cfi_offset 14, -4
 844              	.LVL112:
  99:Generated_Source\PSoC5/cy_em_eeprom.c ****         (config->wearLevelingFactor <= CY_EM_EEPROM_MAX_WEAR_LEVELING_FACTOR) && (config->eepromSiz
 845              		.loc 1 99 0
 846 0002 0029     		cmp	r1, #0
 847 0004 3DD0     		beq	.L65
 848 0006 0D46     		mov	r5, r1
  99:Generated_Source\PSoC5/cy_em_eeprom.c ****         (config->wearLevelingFactor <= CY_EM_EEPROM_MAX_WEAR_LEVELING_FACTOR) && (config->eepromSiz
 849              		.loc 1 99 0 is_stmt 0 discriminator 1
 850 0008 0028     		cmp	r0, #0
 851 000a 3CD0     		beq	.L66
  99:Generated_Source\PSoC5/cy_em_eeprom.c ****         (config->wearLevelingFactor <= CY_EM_EEPROM_MAX_WEAR_LEVELING_FACTOR) && (config->eepromSiz
 852              		.loc 1 99 0 discriminator 2
 853 000c C368     		ldr	r3, [r0, #12]
 854 000e 002B     		cmp	r3, #0
 855 0010 3BD0     		beq	.L67
 100:Generated_Source\PSoC5/cy_em_eeprom.c ****     {
 856              		.loc 1 100 0 is_stmt 1 discriminator 3
 857 0012 4368     		ldr	r3, [r0, #4]
  99:Generated_Source\PSoC5/cy_em_eeprom.c ****         (config->wearLevelingFactor <= CY_EM_EEPROM_MAX_WEAR_LEVELING_FACTOR) && (config->eepromSiz
 858              		.loc 1 99 0 discriminator 3
 859 0014 0A2B     		cmp	r3, #10
 860 0016 3AD8     		bhi	.L68
 100:Generated_Source\PSoC5/cy_em_eeprom.c ****     {
 861              		.loc 1 100 0
 862 0018 0768     		ldr	r7, [r0]
 863 001a 002F     		cmp	r7, #0
 864 001c 39D0     		beq	.L69
 865 001e 0446     		mov	r4, r0
 102:Generated_Source\PSoC5/cy_em_eeprom.c **** 
 866              		.loc 1 102 0
ARM GAS  C:\Users\dmarsch\AppData\Local\Temp\ccpoCrMH.s 			page 42


 867 0020 FFF7FEFF 		bl	CheckRanges
 868              	.LVL113:
 104:Generated_Source\PSoC5/cy_em_eeprom.c ****         {
 869              		.loc 1 104 0
 870 0024 0646     		mov	r6, r0
 871 0026 0028     		cmp	r0, #0
 872 0028 34D1     		bne	.L63
 107:Generated_Source\PSoC5/cy_em_eeprom.c ****             context->wearLevelingFactor = config->wearLevelingFactor;
 873              		.loc 1 107 0
 874 002a EF60     		str	r7, [r5, #12]
 108:Generated_Source\PSoC5/cy_em_eeprom.c ****             context->redundantCopy = config->redundantCopy;
 875              		.loc 1 108 0
 876 002c 6368     		ldr	r3, [r4, #4]
 877 002e 2B61     		str	r3, [r5, #16]
 109:Generated_Source\PSoC5/cy_em_eeprom.c ****             context->blockingWrite = config->blockingWrite;
 878              		.loc 1 109 0
 879 0030 237A     		ldrb	r3, [r4, #8]	@ zero_extendqisi2
 880 0032 2B75     		strb	r3, [r5, #20]
 110:Generated_Source\PSoC5/cy_em_eeprom.c ****             context->userFlashStartAddr = config->userFlashStartAddr;
 881              		.loc 1 110 0
 882 0034 637A     		ldrb	r3, [r4, #9]	@ zero_extendqisi2
 883 0036 6B75     		strb	r3, [r5, #21]
 111:Generated_Source\PSoC5/cy_em_eeprom.c ****             /* Store frequently used data for internal use */
 884              		.loc 1 111 0
 885 0038 E368     		ldr	r3, [r4, #12]
 886 003a AB61     		str	r3, [r5, #24]
 113:Generated_Source\PSoC5/cy_em_eeprom.c ****             context->wlEndAddr = ((CY_EM_EEPROM_GET_EEPROM_SIZE(context->numberOfRows) * config->we
 887              		.loc 1 113 0
 888 003c 2368     		ldr	r3, [r4]
 889 003e DA09     		lsrs	r2, r3, #7
 890 0040 13F07F03 		ands	r3, r3, #127
 891 0044 00D0     		beq	.L64
 892 0046 0123     		movs	r3, #1
 893              	.L64:
 113:Generated_Source\PSoC5/cy_em_eeprom.c ****             context->wlEndAddr = ((CY_EM_EEPROM_GET_EEPROM_SIZE(context->numberOfRows) * config->we
 894              		.loc 1 113 0 is_stmt 0 discriminator 4
 895 0048 1344     		add	r3, r3, r2
 896 004a 6B60     		str	r3, [r5, #4]
 114:Generated_Source\PSoC5/cy_em_eeprom.c ****                     config->userFlashStartAddr);
 897              		.loc 1 114 0 is_stmt 1 discriminator 4
 898 004c 6268     		ldr	r2, [r4, #4]
 899 004e 02FB03F3 		mul	r3, r2, r3
 115:Generated_Source\PSoC5/cy_em_eeprom.c ****             /* Find last written EEPROM row and store it for quick access */
 900              		.loc 1 115 0 discriminator 4
 901 0052 E268     		ldr	r2, [r4, #12]
 114:Generated_Source\PSoC5/cy_em_eeprom.c ****                     config->userFlashStartAddr);
 902              		.loc 1 114 0 discriminator 4
 903 0054 02EB0323 		add	r3, r2, r3, lsl #8
 904 0058 2C46     		mov	r4, r5
 905              	.LVL114:
 906 005a 44F8083B 		str	r3, [r4], #8
 117:Generated_Source\PSoC5/cy_em_eeprom.c **** 
 907              		.loc 1 117 0 discriminator 4
 908 005e 2946     		mov	r1, r5
 909 0060 2046     		mov	r0, r4
 910              	.LVL115:
 911 0062 FFF7FEFF 		bl	FindLastWrittenRow
ARM GAS  C:\Users\dmarsch\AppData\Local\Temp\ccpoCrMH.s 			page 43


 912              	.LVL116:
 119:Generated_Source\PSoC5/cy_em_eeprom.c ****             {
 913              		.loc 1 119 0 discriminator 4
 914 0066 AB68     		ldr	r3, [r5, #8]
 915 0068 1B68     		ldr	r3, [r3]
 916 006a 9BB9     		cbnz	r3, .L63
 119:Generated_Source\PSoC5/cy_em_eeprom.c ****             {
 917              		.loc 1 119 0 is_stmt 0 discriminator 1
 918 006c 2B7D     		ldrb	r3, [r5, #20]	@ zero_extendqisi2
 919 006e 8BB1     		cbz	r3, .L63
 124:Generated_Source\PSoC5/cy_em_eeprom.c ****                 
 920              		.loc 1 124 0 is_stmt 1
 921 0070 2846     		mov	r0, r5
 922 0072 FFF7FEFF 		bl	FillChecksum
 923              	.LVL117:
 924 0076 0646     		mov	r6, r0
 925              	.LVL118:
 127:Generated_Source\PSoC5/cy_em_eeprom.c ****             }
 926              		.loc 1 127 0
 927 0078 2946     		mov	r1, r5
 928 007a 2046     		mov	r0, r4
 929 007c FFF7FEFF 		bl	FindLastWrittenRow
 930              	.LVL119:
 931 0080 08E0     		b	.L63
 932              	.LVL120:
 933              	.L65:
  97:Generated_Source\PSoC5/cy_em_eeprom.c **** 
 934              		.loc 1 97 0
 935 0082 0126     		movs	r6, #1
 936 0084 06E0     		b	.L63
 937              	.L66:
 938 0086 0126     		movs	r6, #1
 939 0088 04E0     		b	.L63
 940              	.L67:
 941 008a 0126     		movs	r6, #1
 942 008c 02E0     		b	.L63
 943              	.L68:
 944 008e 0126     		movs	r6, #1
 945 0090 00E0     		b	.L63
 946              	.L69:
 947 0092 0126     		movs	r6, #1
 948              	.LVL121:
 949              	.L63:
 133:Generated_Source\PSoC5/cy_em_eeprom.c **** 
 950              		.loc 1 133 0
 951 0094 3046     		mov	r0, r6
 952 0096 F8BD     		pop	{r3, r4, r5, r6, r7, pc}
 953              		.cfi_endproc
 954              	.LFE0:
 955              		.size	Cy_Em_EEPROM_Init, .-Cy_Em_EEPROM_Init
 956              		.section	.text.Cy_Em_EEPROM_Read,"ax",%progbits
 957              		.align	2
 958              		.global	Cy_Em_EEPROM_Read
 959              		.thumb
 960              		.thumb_func
 961              		.type	Cy_Em_EEPROM_Read, %function
 962              	Cy_Em_EEPROM_Read:
ARM GAS  C:\Users\dmarsch\AppData\Local\Temp\ccpoCrMH.s 			page 44


 963              	.LFB1:
 173:Generated_Source\PSoC5/cy_em_eeprom.c ****     cy_en_em_eeprom_status_t ret = CY_EM_EEPROM_BAD_PARAM;
 964              		.loc 1 173 0
 965              		.cfi_startproc
 966              		@ args = 0, pretend = 0, frame = 32
 967              		@ frame_needed = 0, uses_anonymous_args = 0
 968              	.LVL122:
 969 0000 2DE9F04F 		push	{r4, r5, r6, r7, r8, r9, r10, fp, lr}
 970              		.cfi_def_cfa_offset 36
 971              		.cfi_offset 4, -36
 972              		.cfi_offset 5, -32
 973              		.cfi_offset 6, -28
 974              		.cfi_offset 7, -24
 975              		.cfi_offset 8, -20
 976              		.cfi_offset 9, -16
 977              		.cfi_offset 10, -12
 978              		.cfi_offset 11, -8
 979              		.cfi_offset 14, -4
 980 0004 8BB0     		sub	sp, sp, #44
 981              		.cfi_def_cfa_offset 80
 982              	.LVL123:
 183:Generated_Source\PSoC5/cy_em_eeprom.c **** 
 983              		.loc 1 183 0
 984 0006 0691     		str	r1, [sp, #24]
 985              	.LVL124:
 186:Generated_Source\PSoC5/cy_em_eeprom.c ****     {
 986              		.loc 1 186 0
 987 0008 002A     		cmp	r2, #0
 988 000a 00F0E680 		beq	.L93
 989 000e 8146     		mov	r9, r0
 990 0010 1F46     		mov	r7, r3
 991 0012 9346     		mov	fp, r2
 186:Generated_Source\PSoC5/cy_em_eeprom.c ****     {
 992              		.loc 1 186 0 is_stmt 0 discriminator 1
 993 0014 1318     		adds	r3, r2, r0
 994              	.LVL125:
 995 0016 1C46     		mov	r4, r3
 996 0018 0793     		str	r3, [sp, #28]
 997 001a FB68     		ldr	r3, [r7, #12]
 998 001c 9C42     		cmp	r4, r3
 999 001e 00F2DF80 		bhi	.L94
 186:Generated_Source\PSoC5/cy_em_eeprom.c ****     {
 1000              		.loc 1 186 0 discriminator 2
 1001 0022 0029     		cmp	r1, #0
 1002 0024 00F0DF80 		beq	.L95
 1003              	.LVL126:
 1004              	.LBB2:
 191:Generated_Source\PSoC5/cy_em_eeprom.c ****         uint32 updateAddrFlag = 0u;
 1005              		.loc 1 191 0 is_stmt 1
 1006 0028 B868     		ldr	r0, [r7, #8]
 1007              	.LVL127:
 1008 002a 0368     		ldr	r3, [r0]
 1009 002c 0993     		str	r3, [sp, #36]
 1010              	.LVL128:
 197:Generated_Source\PSoC5/cy_em_eeprom.c ****                               (rdAddr / CY_EM_EEPROM_EEPROM_DATA_LEN)) + 1u;
 1011              		.loc 1 197 0
 1012 002e 04F1FF3A 		add	r10, r4, #-1
ARM GAS  C:\Users\dmarsch\AppData\Local\Temp\ccpoCrMH.s 			page 45


 198:Generated_Source\PSoC5/cy_em_eeprom.c **** 
 1013              		.loc 1 198 0
 1014 0032 4FEAD913 		lsr	r3, r9, #7
 1015              	.LVL129:
 197:Generated_Source\PSoC5/cy_em_eeprom.c ****                               (rdAddr / CY_EM_EEPROM_EEPROM_DATA_LEN)) + 1u;
 1016              		.loc 1 197 0
 1017 0036 C3EBDA1A 		rsb	r10, r3, r10, lsr #7
 1018 003a 0AF1010A 		add	r10, r10, #1
 1019              	.LVL130:
 204:Generated_Source\PSoC5/cy_em_eeprom.c ****                               (CY_EM_EEPROM_FLASH_SIZEOF_ROW * context->numberOfRows)) *
 1020              		.loc 1 204 0
 1021 003e BC69     		ldr	r4, [r7, #24]
 1022 0040 031B     		subs	r3, r0, r4
 205:Generated_Source\PSoC5/cy_em_eeprom.c ****                               (CY_EM_EEPROM_FLASH_SIZEOF_ROW * context->numberOfRows)) +
 1023              		.loc 1 205 0
 1024 0042 7A68     		ldr	r2, [r7, #4]
 1025              	.LVL131:
 1026 0044 1502     		lsls	r5, r2, #8
 204:Generated_Source\PSoC5/cy_em_eeprom.c ****                               (CY_EM_EEPROM_FLASH_SIZEOF_ROW * context->numberOfRows)) *
 1027              		.loc 1 204 0
 1028 0046 B3FBF5F3 		udiv	r3, r3, r5
 205:Generated_Source\PSoC5/cy_em_eeprom.c ****                               (CY_EM_EEPROM_FLASH_SIZEOF_ROW * context->numberOfRows)) +
 1029              		.loc 1 205 0
 1030 004a 03FB02F3 		mul	r3, r3, r2
 204:Generated_Source\PSoC5/cy_em_eeprom.c ****                               (CY_EM_EEPROM_FLASH_SIZEOF_ROW * context->numberOfRows)) *
 1031              		.loc 1 204 0
 1032 004e 04EB0323 		add	r3, r4, r3, lsl #8
 1033 0052 0393     		str	r3, [sp, #12]
 1034              	.LVL132:
 210:Generated_Source\PSoC5/cy_em_eeprom.c ****         {
 1035              		.loc 1 210 0
 1036 0054 0025     		movs	r5, #0
 1037 0056 0EE0     		b	.L73
 1038              	.LVL133:
 1039              	.L76:
 212:Generated_Source\PSoC5/cy_em_eeprom.c ****             {
 1040              		.loc 1 212 0
 1041 0058 B9EBC51F 		cmp	r9, r5, lsl #7
 1042 005c 06D3     		bcc	.L96
 212:Generated_Source\PSoC5/cy_em_eeprom.c ****             {
 1043              		.loc 1 212 0 is_stmt 0 discriminator 1
 1044 005e 6B1C     		adds	r3, r5, #1
 1045 0060 DB01     		lsls	r3, r3, #7
 1046 0062 013B     		subs	r3, r3, #1
 1047 0064 9945     		cmp	r9, r3
 1048 0066 03D9     		bls	.L97
 212:Generated_Source\PSoC5/cy_em_eeprom.c ****             {
 1049              		.loc 1 212 0
 1050 0068 0023     		movs	r3, #0
 1051 006a 02E0     		b	.L74
 1052              	.L96:
 1053 006c 0023     		movs	r3, #0
 1054 006e 00E0     		b	.L74
 1055              	.L97:
 1056 0070 0123     		movs	r3, #1
 1057              	.L74:
 212:Generated_Source\PSoC5/cy_em_eeprom.c ****             {
ARM GAS  C:\Users\dmarsch\AppData\Local\Temp\ccpoCrMH.s 			page 46


 1058              		.loc 1 212 0 discriminator 6
 1059 0072 1BB9     		cbnz	r3, .L75
 210:Generated_Source\PSoC5/cy_em_eeprom.c ****         {
 1060              		.loc 1 210 0 is_stmt 1 discriminator 2
 1061 0074 0135     		adds	r5, r5, #1
 1062              	.LVL134:
 1063              	.L73:
 210:Generated_Source\PSoC5/cy_em_eeprom.c ****         {
 1064              		.loc 1 210 0 is_stmt 0 discriminator 1
 1065 0076 9542     		cmp	r5, r2
 1066 0078 EED3     		bcc	.L76
 1067              	.LBE2:
 181:Generated_Source\PSoC5/cy_em_eeprom.c ****     uint32 dataStartEepromRowNum = 0u;
 1068              		.loc 1 181 0 is_stmt 1
 1069 007a 0025     		movs	r5, #0
 1070              	.LVL135:
 1071              	.L75:
 1072              	.LBB9:
 221:Generated_Source\PSoC5/cy_em_eeprom.c **** 
 1073              		.loc 1 221 0
 1074 007c 039B     		ldr	r3, [sp, #12]
 1075 007e C01A     		subs	r0, r0, r3
 1076              	.LVL136:
 1077 0080 030A     		lsrs	r3, r0, #8
 1078 0082 1846     		mov	r0, r3
 1079 0084 0593     		str	r3, [sp, #20]
 1080              	.LVL137:
 224:Generated_Source\PSoC5/cy_em_eeprom.c ****         {
 1081              		.loc 1 224 0
 1082 0086 3B69     		ldr	r3, [r7, #16]
 1083 0088 012B     		cmp	r3, #1
 1084 008a 09D9     		bls	.L98
 1085              	.LBB3:
 226:Generated_Source\PSoC5/cy_em_eeprom.c **** 
 1086              		.loc 1 226 0
 1087 008c 05EB0A03 		add	r3, r5, r10
 1088 0090 013B     		subs	r3, r3, #1
 1089              	.LVL138:
 229:Generated_Source\PSoC5/cy_em_eeprom.c ****                               ((dataEndEepromRowNum > actEepromRowNum) ? 1u : 0u);
 1090              		.loc 1 229 0
 1091 0092 8542     		cmp	r5, r0
 1092 0094 07D8     		bhi	.L99
 229:Generated_Source\PSoC5/cy_em_eeprom.c ****                               ((dataEndEepromRowNum > actEepromRowNum) ? 1u : 0u);
 1093              		.loc 1 229 0 is_stmt 0 discriminator 1
 1094 0096 9842     		cmp	r0, r3
 1095 0098 08D2     		bcs	.L100
 229:Generated_Source\PSoC5/cy_em_eeprom.c ****                               ((dataEndEepromRowNum > actEepromRowNum) ? 1u : 0u);
 1096              		.loc 1 229 0
 1097 009a 0123     		movs	r3, #1
 1098              	.LVL139:
 1099 009c 0493     		str	r3, [sp, #16]
 1100 009e 07E0     		b	.L77
 1101              	.LVL140:
 1102              	.L98:
 1103              	.LBE3:
 192:Generated_Source\PSoC5/cy_em_eeprom.c **** 
 1104              		.loc 1 192 0 is_stmt 1
ARM GAS  C:\Users\dmarsch\AppData\Local\Temp\ccpoCrMH.s 			page 47


 1105 00a0 0023     		movs	r3, #0
 1106 00a2 0493     		str	r3, [sp, #16]
 1107 00a4 04E0     		b	.L77
 1108              	.LVL141:
 1109              	.L99:
 1110              	.LBB4:
 229:Generated_Source\PSoC5/cy_em_eeprom.c ****                               ((dataEndEepromRowNum > actEepromRowNum) ? 1u : 0u);
 1111              		.loc 1 229 0
 1112 00a6 0123     		movs	r3, #1
 1113              	.LVL142:
 1114 00a8 0493     		str	r3, [sp, #16]
 1115 00aa 01E0     		b	.L77
 1116              	.LVL143:
 1117              	.L100:
 1118 00ac 0023     		movs	r3, #0
 1119              	.LVL144:
 1120 00ae 0493     		str	r3, [sp, #16]
 1121              	.LVL145:
 1122              	.L77:
 1123              	.LBE4:
 188:Generated_Source\PSoC5/cy_em_eeprom.c ****         uint32 rdSize = size;
 1124              		.loc 1 188 0
 1125 00b0 C846     		mov	r8, r9
 234:Generated_Source\PSoC5/cy_em_eeprom.c ****         {
 1126              		.loc 1 234 0
 1127 00b2 0026     		movs	r6, #0
 1128              	.LBE9:
 174:Generated_Source\PSoC5/cy_em_eeprom.c ****     uint32 i;
 1129              		.loc 1 174 0
 1130 00b4 0123     		movs	r3, #1
 1131 00b6 CDF82090 		str	r9, [sp, #32]
 1132 00ba 8946     		mov	r9, r1
 1133              	.LVL146:
 1134              	.LBB10:
 234:Generated_Source\PSoC5/cy_em_eeprom.c ****         {
 1135              		.loc 1 234 0
 1136 00bc 35E0     		b	.L78
 1137              	.LVL147:
 1138              	.L84:
 236:Generated_Source\PSoC5/cy_em_eeprom.c ****             curRowOffset = CY_EM_EEPROM_EEPROM_DATA_LEN + (rdAddr % CY_EM_EEPROM_EEPROM_DATA_LEN);
 1139              		.loc 1 236 0
 1140 00be 039B     		ldr	r3, [sp, #12]
 1141              	.LVL148:
 1142 00c0 03EB0520 		add	r0, r3, r5, lsl #8
 1143              	.LVL149:
 237:Generated_Source\PSoC5/cy_em_eeprom.c **** 
 1144              		.loc 1 237 0
 1145 00c4 08F07F04 		and	r4, r8, #127
 1146 00c8 04F18001 		add	r1, r4, #128
 1147              	.LVL150:
 242:Generated_Source\PSoC5/cy_em_eeprom.c ****             {
 1148              		.loc 1 242 0
 1149 00cc 0136     		adds	r6, r6, #1
 1150              	.LVL151:
 1151 00ce B245     		cmp	r10, r6
 1152 00d0 02D9     		bls	.L101
 244:Generated_Source\PSoC5/cy_em_eeprom.c ****             }
ARM GAS  C:\Users\dmarsch\AppData\Local\Temp\ccpoCrMH.s 			page 48


 1153              		.loc 1 244 0
 1154 00d2 C4F18004 		rsb	r4, r4, #128
 1155              	.LVL152:
 1156 00d6 00E0     		b	.L79
 1157              	.LVL153:
 1158              	.L101:
 248:Generated_Source\PSoC5/cy_em_eeprom.c ****             }
 1159              		.loc 1 248 0
 1160 00d8 5C46     		mov	r4, fp
 1161              	.L79:
 1162              	.LVL154:
 254:Generated_Source\PSoC5/cy_em_eeprom.c ****             {
 1163              		.loc 1 254 0
 1164 00da 049B     		ldr	r3, [sp, #16]
 1165 00dc 63B1     		cbz	r3, .L80
 254:Generated_Source\PSoC5/cy_em_eeprom.c ****             {
 1166              		.loc 1 254 0 is_stmt 0 discriminator 1
 1167 00de 059B     		ldr	r3, [sp, #20]
 1168 00e0 9D42     		cmp	r5, r3
 1169 00e2 09D9     		bls	.L80
 256:Generated_Source\PSoC5/cy_em_eeprom.c **** 
 1170              		.loc 1 256 0 is_stmt 1
 1171 00e4 7B68     		ldr	r3, [r7, #4]
 1172 00e6 A0EB0320 		sub	r0, r0, r3, lsl #8
 1173              	.LVL155:
 258:Generated_Source\PSoC5/cy_em_eeprom.c ****                 {
 1174              		.loc 1 258 0
 1175 00ea BA69     		ldr	r2, [r7, #24]
 1176 00ec 9042     		cmp	r0, r2
 1177 00ee 03D2     		bcs	.L80
 260:Generated_Source\PSoC5/cy_em_eeprom.c ****                         ((context->numberOfRows - curRdEepromRowNum) * CY_EM_EEPROM_FLASH_SIZEOF_RO
 1178              		.loc 1 260 0
 1179 00f0 3868     		ldr	r0, [r7]
 1180              	.LVL156:
 261:Generated_Source\PSoC5/cy_em_eeprom.c ****                 }
 1181              		.loc 1 261 0
 1182 00f2 5B1B     		subs	r3, r3, r5
 1183              	.LVL157:
 260:Generated_Source\PSoC5/cy_em_eeprom.c ****                         ((context->numberOfRows - curRdEepromRowNum) * CY_EM_EEPROM_FLASH_SIZEOF_RO
 1184              		.loc 1 260 0
 1185 00f4 A0EB0320 		sub	r0, r0, r3, lsl #8
 1186              	.LVL158:
 1187              	.L80:
 265:Generated_Source\PSoC5/cy_em_eeprom.c ****             {
 1188              		.loc 1 265 0
 1189 00f8 3B7D     		ldrb	r3, [r7, #20]	@ zero_extendqisi2
 1190 00fa 5BB1     		cbz	r3, .L81
 270:Generated_Source\PSoC5/cy_em_eeprom.c **** 
 1191              		.loc 1 270 0
 1192 00fc 0097     		str	r7, [sp]
 1193 00fe 2346     		mov	r3, r4
 1194 0100 0A46     		mov	r2, r1
 1195 0102 4946     		mov	r1, r9
 1196              	.LVL159:
 1197 0104 FFF7FEFF 		bl	CheckCrcAndCopy
 1198              	.LVL160:
 272:Generated_Source\PSoC5/cy_em_eeprom.c ****                 {
ARM GAS  C:\Users\dmarsch\AppData\Local\Temp\ccpoCrMH.s 			page 49


 1199              		.loc 1 272 0
 1200 0108 0346     		mov	r3, r0
 1201 010a 48B1     		cbz	r0, .L83
 1202 010c 8246     		mov	r10, r0
 1203              	.LVL161:
 1204 010e DDF82090 		ldr	r9, [sp, #32]
 1205              	.LVL162:
 1206 0112 0FE0     		b	.L82
 1207              	.LVL163:
 1208              	.L81:
 280:Generated_Source\PSoC5/cy_em_eeprom.c ****                              (void *)(startRowAddr + curRowOffset),
 1209              		.loc 1 280 0
 1210 0114 2246     		mov	r2, r4
 1211 0116 0144     		add	r1, r1, r0
 1212              	.LVL164:
 1213 0118 4846     		mov	r0, r9
 1214              	.LVL165:
 1215 011a FFF7FEFF 		bl	memcpy
 1216              	.LVL166:
 285:Generated_Source\PSoC5/cy_em_eeprom.c ****             }
 1217              		.loc 1 285 0
 1218 011e 0023     		movs	r3, #0
 1219              	.LVL167:
 1220              	.L83:
 289:Generated_Source\PSoC5/cy_em_eeprom.c ****             rdSize -= numBytesToRead;
 1221              		.loc 1 289 0 discriminator 2
 1222 0120 A044     		add	r8, r8, r4
 1223              	.LVL168:
 290:Generated_Source\PSoC5/cy_em_eeprom.c ****             eeData += numBytesToRead;
 1224              		.loc 1 290 0 discriminator 2
 1225 0122 C4EB0B0B 		rsb	fp, r4, fp
 1226              	.LVL169:
 291:Generated_Source\PSoC5/cy_em_eeprom.c ****             curRdEepromRowNum++;
 1227              		.loc 1 291 0 discriminator 2
 1228 0126 A144     		add	r9, r9, r4
 1229              	.LVL170:
 292:Generated_Source\PSoC5/cy_em_eeprom.c ****         }
 1230              		.loc 1 292 0 discriminator 2
 1231 0128 0135     		adds	r5, r5, #1
 1232              	.LVL171:
 1233              	.L78:
 234:Generated_Source\PSoC5/cy_em_eeprom.c ****         {
 1234              		.loc 1 234 0 discriminator 1
 1235 012a 5645     		cmp	r6, r10
 1236 012c C7D3     		bcc	.L84
 1237 012e 9A46     		mov	r10, r3
 1238              	.LVL172:
 1239 0130 DDF82090 		ldr	r9, [sp, #32]
 1240              	.LVL173:
 1241              	.L82:
 303:Generated_Source\PSoC5/cy_em_eeprom.c ****         {
 1242              		.loc 1 303 0
 1243 0134 5346     		mov	r3, r10
 1244 0136 002B     		cmp	r3, #0
 1245 0138 57D1     		bne	.L72
 303:Generated_Source\PSoC5/cy_em_eeprom.c ****         {
 1246              		.loc 1 303 0 is_stmt 0 discriminator 1
ARM GAS  C:\Users\dmarsch\AppData\Local\Temp\ccpoCrMH.s 			page 50


 1247 013a 099B     		ldr	r3, [sp, #36]
 1248 013c 002B     		cmp	r3, #0
 1249 013e 54D0     		beq	.L72
 305:Generated_Source\PSoC5/cy_em_eeprom.c ****             numRowReads--;
 1250              		.loc 1 305 0 is_stmt 1
 1251 0140 7D68     		ldr	r5, [r7, #4]
 1252              	.LVL174:
 1253 0142 9D42     		cmp	r5, r3
 1254 0144 28BF     		it	cs
 1255 0146 1D46     		movcs	r5, r3
 1256              	.LVL175:
 306:Generated_Source\PSoC5/cy_em_eeprom.c **** 
 1257              		.loc 1 306 0
 1258 0148 013D     		subs	r5, r5, #1
 1259              	.LVL176:
 308:Generated_Source\PSoC5/cy_em_eeprom.c ****             {
 1260              		.loc 1 308 0
 1261 014a 5D1B     		subs	r5, r3, r5
 1262              	.LVL177:
 1263 014c DDF81880 		ldr	r8, [sp, #24]
 1264              	.LVL178:
 1265 0150 079E     		ldr	r6, [sp, #28]
 1266 0152 1C46     		mov	r4, r3
 1267 0154 3EE0     		b	.L85
 1268              	.LVL179:
 1269              	.L92:
 310:Generated_Source\PSoC5/cy_em_eeprom.c **** 
 1270              		.loc 1 310 0
 1271 0156 3946     		mov	r1, r7
 1272 0158 2846     		mov	r0, r5
 1273 015a FFF7FEFF 		bl	GetRowAddrBySeqNum
 1274              	.LVL180:
 312:Generated_Source\PSoC5/cy_em_eeprom.c ****                 {
 1275              		.loc 1 312 0
 1276 015e 8646     		mov	lr, r0
 1277 0160 0028     		cmp	r0, #0
 1278 0162 36D0     		beq	.L86
 1279              	.LBB5:
 315:Generated_Source\PSoC5/cy_em_eeprom.c ****                     uint32 endAddr    = startAddr + (*(uint32 *)(startRowAddr + CY_EM_EEPROM_HEADER
 1280              		.loc 1 315 0
 1281 0164 4368     		ldr	r3, [r0, #4]
 1282              	.LVL181:
 316:Generated_Source\PSoC5/cy_em_eeprom.c **** 
 1283              		.loc 1 316 0
 1284 0166 8168     		ldr	r1, [r0, #8]
 1285 0168 1944     		add	r1, r1, r3
 1286              	.LVL182:
 319:Generated_Source\PSoC5/cy_em_eeprom.c ****                     {
 1287              		.loc 1 319 0
 1288 016a 9945     		cmp	r9, r3
 1289 016c 04D2     		bcs	.L87
 319:Generated_Source\PSoC5/cy_em_eeprom.c ****                     {
 1290              		.loc 1 319 0 is_stmt 0 discriminator 1
 1291 016e 9E42     		cmp	r6, r3
 1292 0170 94BF     		ite	ls
 1293 0172 0022     		movls	r2, #0
 1294 0174 0122     		movhi	r2, #1
ARM GAS  C:\Users\dmarsch\AppData\Local\Temp\ccpoCrMH.s 			page 51


 1295 0176 03E0     		b	.L88
 1296              	.L87:
 319:Generated_Source\PSoC5/cy_em_eeprom.c ****                     {
 1297              		.loc 1 319 0 discriminator 2
 1298 0178 8945     		cmp	r9, r1
 1299 017a 2CBF     		ite	cs
 1300 017c 0022     		movcs	r2, #0
 1301 017e 0122     		movcc	r2, #1
 1302              	.L88:
 319:Generated_Source\PSoC5/cy_em_eeprom.c ****                     {
 1303              		.loc 1 319 0 discriminator 4
 1304 0180 3AB3     		cbz	r2, .L86
 1305              	.LBB6:
 321:Generated_Source\PSoC5/cy_em_eeprom.c ****                         uint32 dstOffset = (startAddr > addr) ? (startAddr - addr): (0u);
 1306              		.loc 1 321 0 is_stmt 1
 1307 0182 9945     		cmp	r9, r3
 1308 0184 02D3     		bcc	.L102
 321:Generated_Source\PSoC5/cy_em_eeprom.c ****                         uint32 dstOffset = (startAddr > addr) ? (startAddr - addr): (0u);
 1309              		.loc 1 321 0 is_stmt 0 discriminator 1
 1310 0186 C3EB090C 		rsb	ip, r3, r9
 1311 018a 01E0     		b	.L89
 1312              	.L102:
 321:Generated_Source\PSoC5/cy_em_eeprom.c ****                         uint32 dstOffset = (startAddr > addr) ? (startAddr - addr): (0u);
 1313              		.loc 1 321 0
 1314 018c 4FF0000C 		mov	ip, #0
 1315              	.L89:
 1316              	.LVL183:
 322:Generated_Source\PSoC5/cy_em_eeprom.c ****                         rdAddr = (startAddr > addr) ? (startAddr) : (addr);
 1317              		.loc 1 322 0 is_stmt 1 discriminator 4
 1318 0190 9945     		cmp	r9, r3
 1319 0192 02D2     		bcs	.L103
 322:Generated_Source\PSoC5/cy_em_eeprom.c ****                         rdAddr = (startAddr > addr) ? (startAddr) : (addr);
 1320              		.loc 1 322 0 is_stmt 0 discriminator 1
 1321 0194 C9EB0300 		rsb	r0, r9, r3
 1322              	.LVL184:
 1323 0198 00E0     		b	.L90
 1324              	.LVL185:
 1325              	.L103:
 322:Generated_Source\PSoC5/cy_em_eeprom.c ****                         rdAddr = (startAddr > addr) ? (startAddr) : (addr);
 1326              		.loc 1 322 0
 1327 019a 0020     		movs	r0, #0
 1328              	.LVL186:
 1329              	.L90:
 325:Generated_Source\PSoC5/cy_em_eeprom.c **** 
 1330              		.loc 1 325 0 is_stmt 1 discriminator 4
 1331 019c 0CF10C0C 		add	ip, ip, #12
 1332              	.LVL187:
 328:Generated_Source\PSoC5/cy_em_eeprom.c **** 
 1333              		.loc 1 328 0 discriminator 4
 1334 01a0 B142     		cmp	r1, r6
 1335 01a2 28BF     		it	cs
 1336 01a4 3146     		movcs	r1, r6
 1337              	.LVL188:
 1338 01a6 9945     		cmp	r9, r3
 1339 01a8 2CBF     		ite	cs
 1340 01aa C9EB0103 		rsbcs	r3, r9, r1
 1341              	.LVL189:
ARM GAS  C:\Users\dmarsch\AppData\Local\Temp\ccpoCrMH.s 			page 52


 1342 01ae CB1A     		subcc	r3, r1, r3
 1343              	.LVL190:
 331:Generated_Source\PSoC5/cy_em_eeprom.c **** 
 1344              		.loc 1 331 0 discriminator 4
 1345 01b0 4044     		add	r0, r0, r8
 1346              	.LVL191:
 338:Generated_Source\PSoC5/cy_em_eeprom.c ****                         {
 1347              		.loc 1 338 0 discriminator 4
 1348 01b2 3A7D     		ldrb	r2, [r7, #20]	@ zero_extendqisi2
 1349 01b4 42B1     		cbz	r2, .L91
 340:Generated_Source\PSoC5/cy_em_eeprom.c **** 
 1350              		.loc 1 340 0
 1351 01b6 0097     		str	r7, [sp]
 1352              	.LVL192:
 1353 01b8 6246     		mov	r2, ip
 1354 01ba 0146     		mov	r1, r0
 1355 01bc 7046     		mov	r0, lr
 1356              	.LVL193:
 1357 01be FFF7FEFF 		bl	CheckCrcAndCopy
 1358              	.LVL194:
 342:Generated_Source\PSoC5/cy_em_eeprom.c ****                             {
 1359              		.loc 1 342 0
 1360 01c2 8246     		mov	r10, r0
 1361 01c4 28B1     		cbz	r0, .L86
 1362              	.LBE6:
 1363              	.LBE5:
 1364 01c6 10E0     		b	.L72
 1365              	.LVL195:
 1366              	.L91:
 1367              	.LBB8:
 1368              	.LBB7:
 349:Generated_Source\PSoC5/cy_em_eeprom.c ****                         }
 1369              		.loc 1 349 0
 1370 01c8 1A46     		mov	r2, r3
 1371 01ca 0EEB0C01 		add	r1, lr, ip
 1372 01ce FFF7FEFF 		bl	memcpy
 1373              	.LVL196:
 1374              	.L86:
 1375              	.LBE7:
 1376              	.LBE8:
 308:Generated_Source\PSoC5/cy_em_eeprom.c ****             {
 1377              		.loc 1 308 0 discriminator 2
 1378 01d2 0135     		adds	r5, r5, #1
 1379              	.LVL197:
 1380              	.L85:
 308:Generated_Source\PSoC5/cy_em_eeprom.c ****             {
 1381              		.loc 1 308 0 is_stmt 0 discriminator 1
 1382 01d4 A542     		cmp	r5, r4
 1383 01d6 BED9     		bls	.L92
 1384 01d8 07E0     		b	.L72
 1385              	.LVL198:
 1386              	.L93:
 1387              	.LBE10:
 174:Generated_Source\PSoC5/cy_em_eeprom.c ****     uint32 i;
 1388              		.loc 1 174 0 is_stmt 1
 1389 01da 0123     		movs	r3, #1
 1390              	.LVL199:
ARM GAS  C:\Users\dmarsch\AppData\Local\Temp\ccpoCrMH.s 			page 53


 1391 01dc 9A46     		mov	r10, r3
 1392 01de 04E0     		b	.L72
 1393              	.LVL200:
 1394              	.L94:
 1395 01e0 0123     		movs	r3, #1
 1396 01e2 9A46     		mov	r10, r3
 1397 01e4 01E0     		b	.L72
 1398              	.L95:
 1399 01e6 0123     		movs	r3, #1
 1400 01e8 9A46     		mov	r10, r3
 1401              	.LVL201:
 1402              	.L72:
 358:Generated_Source\PSoC5/cy_em_eeprom.c **** 
 1403              		.loc 1 358 0
 1404 01ea 5046     		mov	r0, r10
 1405 01ec 0BB0     		add	sp, sp, #44
 1406              		.cfi_def_cfa_offset 36
 1407              		@ sp needed
 1408 01ee BDE8F08F 		pop	{r4, r5, r6, r7, r8, r9, r10, fp, pc}
 1409              		.cfi_endproc
 1410              	.LFE1:
 1411              		.size	Cy_Em_EEPROM_Read, .-Cy_Em_EEPROM_Read
 1412 01f2 00BF     		.section	.text.Cy_Em_EEPROM_Write,"ax",%progbits
 1413              		.align	2
 1414              		.global	Cy_Em_EEPROM_Write
 1415              		.thumb
 1416              		.thumb_func
 1417              		.type	Cy_Em_EEPROM_Write, %function
 1418              	Cy_Em_EEPROM_Write:
 1419              	.LFB2:
 415:Generated_Source\PSoC5/cy_em_eeprom.c ****     cy_en_em_eeprom_status_t ret = CY_EM_EEPROM_BAD_PARAM;
 1420              		.loc 1 415 0
 1421              		.cfi_startproc
 1422              		@ args = 0, pretend = 0, frame = 296
 1423              		@ frame_needed = 0, uses_anonymous_args = 0
 1424              	.LVL202:
 1425 0000 2DE9F04F 		push	{r4, r5, r6, r7, r8, r9, r10, fp, lr}
 1426              		.cfi_def_cfa_offset 36
 1427              		.cfi_offset 4, -36
 1428              		.cfi_offset 5, -32
 1429              		.cfi_offset 6, -28
 1430              		.cfi_offset 7, -24
 1431              		.cfi_offset 8, -20
 1432              		.cfi_offset 9, -16
 1433              		.cfi_offset 10, -12
 1434              		.cfi_offset 11, -8
 1435              		.cfi_offset 14, -4
 1436 0004 CDB0     		sub	sp, sp, #308
 1437              		.cfi_def_cfa_offset 344
 1438 0006 1D46     		mov	r5, r3
 1439              	.LVL203:
 421:Generated_Source\PSoC5/cy_em_eeprom.c ****     uint32 endAddr = 0u;
 1440              		.loc 1 421 0
 1441 0008 0023     		movs	r3, #0
 1442              	.LVL204:
 1443 000a 0B93     		str	r3, [sp, #44]
 422:Generated_Source\PSoC5/cy_em_eeprom.c ****     uint32 tmpRowAddr;
ARM GAS  C:\Users\dmarsch\AppData\Local\Temp\ccpoCrMH.s 			page 54


 1444              		.loc 1 422 0
 1445 000c 0A93     		str	r3, [sp, #40]
 424:Generated_Source\PSoC5/cy_em_eeprom.c ****     uint32 emEepromRowRdAddr;
 1446              		.loc 1 424 0
 1447 000e AB68     		ldr	r3, [r5, #8]
 1448 0010 0993     		str	r3, [sp, #36]
 427:Generated_Source\PSoC5/cy_em_eeprom.c **** 
 1449              		.loc 1 427 0
 1450 0012 0391     		str	r1, [sp, #12]
 1451              	.LVL205:
 430:Generated_Source\PSoC5/cy_em_eeprom.c ****     {
 1452              		.loc 1 430 0
 1453 0014 002A     		cmp	r2, #0
 1454 0016 00F09F80 		beq	.L124
 1455 001a 8246     		mov	r10, r0
 1456 001c 9346     		mov	fp, r2
 430:Generated_Source\PSoC5/cy_em_eeprom.c ****     {
 1457              		.loc 1 430 0 is_stmt 0 discriminator 1
 1458 001e 1318     		adds	r3, r2, r0
 1459 0020 EA68     		ldr	r2, [r5, #12]
 1460              	.LVL206:
 1461 0022 9342     		cmp	r3, r2
 1462 0024 00F29A80 		bhi	.L125
 430:Generated_Source\PSoC5/cy_em_eeprom.c ****     {
 1463              		.loc 1 430 0 discriminator 2
 1464 0028 0029     		cmp	r1, #0
 1465 002a 00F09980 		beq	.L126
 1466              	.LBB11:
 432:Generated_Source\PSoC5/cy_em_eeprom.c ****         uint32 eeHeaderDataOffset = 0u;
 1467              		.loc 1 432 0 is_stmt 1
 1468 002e 0BF1FF33 		add	r3, fp, #-1
 1469 0032 1B09     		lsrs	r3, r3, #4
 1470 0034 4C4A     		ldr	r2, .L130
 1471 0036 A2FB0323 		umull	r2, r3, r2, r3
 1472 003a 0593     		str	r3, [sp, #20]
 1473 003c 0133     		adds	r3, r3, #1
 1474 003e 0493     		str	r3, [sp, #16]
 1475              	.LVL207:
 433:Generated_Source\PSoC5/cy_em_eeprom.c **** 
 1476              		.loc 1 433 0
 1477 0040 0023     		movs	r3, #0
 1478              	.LVL208:
 1479 0042 0793     		str	r3, [sp, #28]
 1480              	.LVL209:
 435:Generated_Source\PSoC5/cy_em_eeprom.c ****         {
 1481              		.loc 1 435 0
 1482 0044 9946     		mov	r9, r3
 1483              	.LBE11:
 416:Generated_Source\PSoC5/cy_em_eeprom.c ****     uint32 i;
 1484              		.loc 1 416 0
 1485 0046 0120     		movs	r0, #1
 1486              	.LVL210:
 1487              	.LBB14:
 435:Generated_Source\PSoC5/cy_em_eeprom.c ****         {
 1488              		.loc 1 435 0
 1489 0048 81E0     		b	.L108
 1490              	.LVL211:
ARM GAS  C:\Users\dmarsch\AppData\Local\Temp\ccpoCrMH.s 			page 55


 1491              	.L123:
 1492              	.LBB12:
 439:Generated_Source\PSoC5/cy_em_eeprom.c **** 
 1493              		.loc 1 439 0
 1494 004a 099B     		ldr	r3, [sp, #36]
 1495 004c 1C68     		ldr	r4, [r3]
 1496              	.LVL212:
 446:Generated_Source\PSoC5/cy_em_eeprom.c **** 
 1497              		.loc 1 446 0
 1498 004e 2B46     		mov	r3, r5
 1499 0050 08AA     		add	r2, sp, #32
 1500 0052 09A9     		add	r1, sp, #36
 1501 0054 2046     		mov	r0, r4
 1502              	.LVL213:
 1503 0056 FFF7FEFF 		bl	GetNextRowToWrite
 1504              	.LVL214:
 449:Generated_Source\PSoC5/cy_em_eeprom.c **** 
 1505              		.loc 1 449 0
 1506 005a 4FF48072 		mov	r2, #256
 1507 005e 0021     		movs	r1, #0
 1508 0060 0CA8     		add	r0, sp, #48
 1509 0062 FFF7FEFF 		bl	memset
 1510              	.LVL215:
 452:Generated_Source\PSoC5/cy_em_eeprom.c ****             writeRamBuffer[CY_EM_EEPROM_HEADER_SEQ_NUM_OFFSET_U32] = seqNum;
 1511              		.loc 1 452 0
 1512 0066 04F10108 		add	r8, r4, #1
 1513              	.LVL216:
 453:Generated_Source\PSoC5/cy_em_eeprom.c ****             writeRamBuffer[CY_EM_EEPROM_HEADER_ADDR_OFFSET_U32] = addr;
 1514              		.loc 1 453 0
 1515 006a CDF83080 		str	r8, [sp, #48]
 454:Generated_Source\PSoC5/cy_em_eeprom.c ****             tmpData = (void *) eeData;
 1516              		.loc 1 454 0
 1517 006e CDF834A0 		str	r10, [sp, #52]
 455:Generated_Source\PSoC5/cy_em_eeprom.c **** 
 1518              		.loc 1 455 0
 1519 0072 0399     		ldr	r1, [sp, #12]
 1520              	.LVL217:
 458:Generated_Source\PSoC5/cy_em_eeprom.c ****             {
 1521              		.loc 1 458 0
 1522 0074 059B     		ldr	r3, [sp, #20]
 1523 0076 9945     		cmp	r9, r3
 1524 0078 02D1     		bne	.L109
 461:Generated_Source\PSoC5/cy_em_eeprom.c ****             }
 1525              		.loc 1 461 0
 1526 007a CDF838B0 		str	fp, [sp, #56]
 1527 007e 07E0     		b	.L110
 1528              	.L109:
 469:Generated_Source\PSoC5/cy_em_eeprom.c ****                 size -= CY_EM_EEPROM_HEADER_DATA_LEN;
 1529              		.loc 1 469 0
 1530 0080 7023     		movs	r3, #112
 1531 0082 0E93     		str	r3, [sp, #56]
 470:Generated_Source\PSoC5/cy_em_eeprom.c ****                 addr += CY_EM_EEPROM_HEADER_DATA_LEN;
 1532              		.loc 1 470 0
 1533 0084 ABF1700B 		sub	fp, fp, #112
 1534              	.LVL218:
 471:Generated_Source\PSoC5/cy_em_eeprom.c ****                 eeData += CY_EM_EEPROM_HEADER_DATA_LEN;
 1535              		.loc 1 471 0
ARM GAS  C:\Users\dmarsch\AppData\Local\Temp\ccpoCrMH.s 			page 56


 1536 0088 9A44     		add	r10, r10, r3
 1537              	.LVL219:
 472:Generated_Source\PSoC5/cy_em_eeprom.c ****             }
 1538              		.loc 1 472 0
 1539 008a 039B     		ldr	r3, [sp, #12]
 1540 008c 7033     		adds	r3, r3, #112
 1541 008e 0393     		str	r3, [sp, #12]
 1542              	.LVL220:
 1543              	.L110:
 476:Generated_Source\PSoC5/cy_em_eeprom.c ****                          tmpData,
 1544              		.loc 1 476 0
 1545 0090 0E9A     		ldr	r2, [sp, #56]
 1546 0092 0FA8     		add	r0, sp, #60
 1547 0094 FFF7FEFF 		bl	memcpy
 1548              	.LVL221:
 480:Generated_Source\PSoC5/cy_em_eeprom.c ****             {
 1549              		.loc 1 480 0
 1550 0098 0899     		ldr	r1, [sp, #32]
 1551 009a 21B1     		cbz	r1, .L111
 483:Generated_Source\PSoC5/cy_em_eeprom.c ****                              (void *)(emEepromRowRdAddr + CY_EM_EEPROM_EEPROM_DATA_LEN),
 1552              		.loc 1 483 0
 1553 009c 8022     		movs	r2, #128
 1554 009e 1144     		add	r1, r1, r2
 1555 00a0 2CA8     		add	r0, sp, #176
 1556 00a2 FFF7FEFF 		bl	memcpy
 1557              	.LVL222:
 1558              	.L111:
 492:Generated_Source\PSoC5/cy_em_eeprom.c **** 
 1559              		.loc 1 492 0
 1560 00a6 6C68     		ldr	r4, [r5, #4]
 1561 00a8 A045     		cmp	r8, r4
 1562 00aa 03D9     		bls	.L127
 492:Generated_Source\PSoC5/cy_em_eeprom.c **** 
 1563              		.loc 1 492 0 is_stmt 0 discriminator 1
 1564 00ac C4EB0804 		rsb	r4, r4, r8
 1565 00b0 0134     		adds	r4, r4, #1
 1566 00b2 00E0     		b	.L112
 1567              	.L127:
 492:Generated_Source\PSoC5/cy_em_eeprom.c **** 
 1568              		.loc 1 492 0
 1569 00b4 0124     		movs	r4, #1
 1570              	.L112:
 492:Generated_Source\PSoC5/cy_em_eeprom.c **** 
 1571              		.loc 1 492 0 discriminator 1
 1572 00b6 0027     		movs	r7, #0
 1573 00b8 31E0     		b	.L113
 1574              	.LVL223:
 1575              	.L120:
 496:Generated_Source\PSoC5/cy_em_eeprom.c ****                 {
 1576              		.loc 1 496 0 is_stmt 1
 1577 00ba 4445     		cmp	r4, r8
 1578 00bc 01D1     		bne	.L114
 502:Generated_Source\PSoC5/cy_em_eeprom.c ****                 }
 1579              		.loc 1 502 0
 1580 00be 0CAE     		add	r6, sp, #48
 1581              	.LVL224:
 1582 00c0 04E0     		b	.L115
ARM GAS  C:\Users\dmarsch\AppData\Local\Temp\ccpoCrMH.s 			page 57


 1583              	.LVL225:
 1584              	.L114:
 509:Generated_Source\PSoC5/cy_em_eeprom.c ****                 }
 1585              		.loc 1 509 0
 1586 00c2 2946     		mov	r1, r5
 1587 00c4 2046     		mov	r0, r4
 1588 00c6 FFF7FEFF 		bl	GetRowAddrBySeqNum
 1589              	.LVL226:
 1590 00ca 0646     		mov	r6, r0
 1591              	.LVL227:
 1592              	.L115:
 512:Generated_Source\PSoC5/cy_em_eeprom.c ****                                                                            context->numberOfRows,
 1593              		.loc 1 512 0
 1594 00cc AA69     		ldr	r2, [r5, #24]
 1595 00ce 099B     		ldr	r3, [sp, #36]
 1596 00d0 9A1A     		subs	r2, r3, r2
 1597 00d2 120A     		lsrs	r2, r2, #8
 1598 00d4 6968     		ldr	r1, [r5, #4]
 1599 00d6 B2FBF1F3 		udiv	r3, r2, r1
 1600 00da 01FB1323 		mls	r3, r1, r3, r2
 1601              	.LVL228:
 515:Generated_Source\PSoC5/cy_em_eeprom.c ****                 {
 1602              		.loc 1 515 0
 1603 00de 56B1     		cbz	r6, .L116
 518:Generated_Source\PSoC5/cy_em_eeprom.c ****                                               &startAddr,
 1604              		.loc 1 518 0
 1605 00e0 7268     		ldr	r2, [r6, #4]
 1606 00e2 B168     		ldr	r1, [r6, #8]
 1607 00e4 0191     		str	r1, [sp, #4]
 1608 00e6 0092     		str	r2, [sp]
 1609 00e8 07AA     		add	r2, sp, #28
 1610 00ea 0AA9     		add	r1, sp, #40
 1611 00ec 0BA8     		add	r0, sp, #44
 1612 00ee FFF7FEFF 		bl	GetAddresses
 1613              	.LVL229:
 1614 00f2 0746     		mov	r7, r0
 1615              	.LVL230:
 1616 00f4 00E0     		b	.L117
 1617              	.LVL231:
 1618              	.L116:
 529:Generated_Source\PSoC5/cy_em_eeprom.c ****                 }
 1619              		.loc 1 529 0
 1620 00f6 0137     		adds	r7, r7, #1
 1621              	.LVL232:
 1622              	.L117:
 533:Generated_Source\PSoC5/cy_em_eeprom.c ****                 {
 1623              		.loc 1 533 0
 1624 00f8 4FB9     		cbnz	r7, .L118
 1625              	.LBB13:
