ARM GAS  C:\Users\dmarsch\AppData\Local\Temp\ccNydXIK.s 			page 1


   1              		.syntax unified
   2              		.cpu cortex-m3
   3              		.fpu softvfp
   4              		.eabi_attribute 20, 1
   5              		.eabi_attribute 21, 1
   6              		.eabi_attribute 23, 3
   7              		.eabi_attribute 24, 1
   8              		.eabi_attribute 25, 1
   9              		.eabi_attribute 26, 1
  10              		.eabi_attribute 30, 1
  11              		.eabi_attribute 34, 1
  12              		.eabi_attribute 18, 4
  13              		.thumb
  14              		.syntax unified
  15              		.file	"CyLib.c"
  16              		.text
  17              	.Ltext0:
  18              		.cfi_sections	.debug_frame
  19              		.section	.text.CyUSB_PowerOnCheck,"ax",%progbits
  20              		.align	2
  21              		.thumb
  22              		.thumb_func
  23              		.type	CyUSB_PowerOnCheck, %function
  24              	CyUSB_PowerOnCheck:
  25              	.LFB6:
  26              		.file 1 "Generated_Source\\PSoC5\\CyLib.c"
   1:Generated_Source\PSoC5/CyLib.c **** /***************************************************************************//**
   2:Generated_Source\PSoC5/CyLib.c **** * \file CyLib.c
   3:Generated_Source\PSoC5/CyLib.c **** * \version 5.70
   4:Generated_Source\PSoC5/CyLib.c **** *
   5:Generated_Source\PSoC5/CyLib.c **** * \brief Provides a system API for the clocking, interrupts and watchdog timer.
   6:Generated_Source\PSoC5/CyLib.c **** *
   7:Generated_Source\PSoC5/CyLib.c **** * \note Documentation of the API's in this file is located in the System
   8:Generated_Source\PSoC5/CyLib.c **** * Reference Guide provided with PSoC Creator.
   9:Generated_Source\PSoC5/CyLib.c **** *
  10:Generated_Source\PSoC5/CyLib.c **** ********************************************************************************
  11:Generated_Source\PSoC5/CyLib.c **** * \copyright
  12:Generated_Source\PSoC5/CyLib.c **** * Copyright 2008-2018, Cypress Semiconductor Corporation.  All rights reserved.
  13:Generated_Source\PSoC5/CyLib.c **** * You may use this file only in accordance with the license, terms, conditions,
  14:Generated_Source\PSoC5/CyLib.c **** * disclaimers, and limitations in the end user license agreement accompanying
  15:Generated_Source\PSoC5/CyLib.c **** * the software package with which this file was provided.
  16:Generated_Source\PSoC5/CyLib.c **** *******************************************************************************/
  17:Generated_Source\PSoC5/CyLib.c **** 
  18:Generated_Source\PSoC5/CyLib.c **** #include "CyLib.h"
  19:Generated_Source\PSoC5/CyLib.c **** 
  20:Generated_Source\PSoC5/CyLib.c **** 
  21:Generated_Source\PSoC5/CyLib.c **** /*******************************************************************************
  22:Generated_Source\PSoC5/CyLib.c **** * The CyResetStatus variable is used to obtain value of RESET_SR0 register after
  23:Generated_Source\PSoC5/CyLib.c **** * a device reset. It is set from initialize_psoc() at the early initialization
  24:Generated_Source\PSoC5/CyLib.c **** * stage. In case of IAR EW IDE, initialize_psoc() is executed before the data
  25:Generated_Source\PSoC5/CyLib.c **** * sections are initialized. To avoid zeroing, CyResetStatus should be placed
  26:Generated_Source\PSoC5/CyLib.c **** * to the .noinit section.
  27:Generated_Source\PSoC5/CyLib.c **** *******************************************************************************/
  28:Generated_Source\PSoC5/CyLib.c **** CY_NOINIT uint8 CYXDATA CyResetStatus;
  29:Generated_Source\PSoC5/CyLib.c **** 
  30:Generated_Source\PSoC5/CyLib.c **** 
  31:Generated_Source\PSoC5/CyLib.c **** /* Variable Vdda */
ARM GAS  C:\Users\dmarsch\AppData\Local\Temp\ccNydXIK.s 			page 2


  32:Generated_Source\PSoC5/CyLib.c **** #if(CYDEV_VARIABLE_VDDA == 1)
  33:Generated_Source\PSoC5/CyLib.c **** 
  34:Generated_Source\PSoC5/CyLib.c ****     uint8 CyScPumpEnabled = (uint8)(CYDEV_VDDA_MV < 2700);
  35:Generated_Source\PSoC5/CyLib.c **** 
  36:Generated_Source\PSoC5/CyLib.c **** #endif  /* (CYDEV_VARIABLE_VDDA == 1) */
  37:Generated_Source\PSoC5/CyLib.c **** 
  38:Generated_Source\PSoC5/CyLib.c **** 
  39:Generated_Source\PSoC5/CyLib.c **** /* Do not use these definitions directly in your application */
  40:Generated_Source\PSoC5/CyLib.c **** uint32 cydelay_freq_hz  = BCLK__BUS_CLK__HZ;
  41:Generated_Source\PSoC5/CyLib.c **** uint32 cydelay_freq_khz = (BCLK__BUS_CLK__HZ + 999u) / 1000u;
  42:Generated_Source\PSoC5/CyLib.c **** uint8  cydelay_freq_mhz = (uint8)((BCLK__BUS_CLK__HZ + 999999u) / 1000000u);
  43:Generated_Source\PSoC5/CyLib.c **** uint32 cydelay_32k_ms   = 32768u * ((BCLK__BUS_CLK__HZ + 999u) / 1000u);
  44:Generated_Source\PSoC5/CyLib.c **** 
  45:Generated_Source\PSoC5/CyLib.c **** 
  46:Generated_Source\PSoC5/CyLib.c **** /* Function Prototypes */
  47:Generated_Source\PSoC5/CyLib.c **** static uint8 CyUSB_PowerOnCheck(void)  ;
  48:Generated_Source\PSoC5/CyLib.c **** static void CyIMO_SetTrimValue(uint8 freq) ;
  49:Generated_Source\PSoC5/CyLib.c **** static void CyBusClk_Internal_SetDivider(uint16 divider);
  50:Generated_Source\PSoC5/CyLib.c **** 
  51:Generated_Source\PSoC5/CyLib.c **** #if(CY_PSOC5)
  52:Generated_Source\PSoC5/CyLib.c ****     static cySysTickCallback CySysTickCallbacks[CY_SYS_SYST_NUM_OF_CALLBACKS];
  53:Generated_Source\PSoC5/CyLib.c ****     static void CySysTickServiceCallbacks(void);
  54:Generated_Source\PSoC5/CyLib.c ****     uint32 CySysTickInitVar = 0u;
  55:Generated_Source\PSoC5/CyLib.c **** #endif  /* (CY_PSOC5) */
  56:Generated_Source\PSoC5/CyLib.c **** 
  57:Generated_Source\PSoC5/CyLib.c **** 
  58:Generated_Source\PSoC5/CyLib.c **** #if(CY_PSOC3)
  59:Generated_Source\PSoC5/CyLib.c ****     CY_ISR_PROTO(IntDefaultHandler);
  60:Generated_Source\PSoC5/CyLib.c **** #endif /* (CY_PSOC3) */
  61:Generated_Source\PSoC5/CyLib.c **** 
  62:Generated_Source\PSoC5/CyLib.c **** 
  63:Generated_Source\PSoC5/CyLib.c **** /*******************************************************************************
  64:Generated_Source\PSoC5/CyLib.c **** * Function Name: CyPLL_OUT_Start
  65:Generated_Source\PSoC5/CyLib.c **** ****************************************************************************//**
  66:Generated_Source\PSoC5/CyLib.c **** *
  67:Generated_Source\PSoC5/CyLib.c **** *   Enables the PLL.  Optionally waits for it to become stable.
  68:Generated_Source\PSoC5/CyLib.c **** *   Waits at least 250 us or until it is detected that the PLL is stable.
  69:Generated_Source\PSoC5/CyLib.c **** *
  70:Generated_Source\PSoC5/CyLib.c **** *   \param wait:
  71:Generated_Source\PSoC5/CyLib.c **** *    \param 0: Return immediately after configuration
  72:Generated_Source\PSoC5/CyLib.c **** *    \param 1: Wait for PLL lock or timeout.
  73:Generated_Source\PSoC5/CyLib.c **** *
  74:Generated_Source\PSoC5/CyLib.c **** * \return
  75:Generated_Source\PSoC5/CyLib.c **** *   Status
  76:Generated_Source\PSoC5/CyLib.c **** *    CYRET_SUCCESS - Completed successfully
  77:Generated_Source\PSoC5/CyLib.c **** *    CYRET_TIMEOUT - Timeout occurred without detecting a stable clock.
  78:Generated_Source\PSoC5/CyLib.c **** *     If the input source of the clock is jittery, then the lock indication
  79:Generated_Source\PSoC5/CyLib.c **** *     may not occur.  However, after the timeout has expired the generated PLL
  80:Generated_Source\PSoC5/CyLib.c **** *     clock can still be used.
  81:Generated_Source\PSoC5/CyLib.c **** *
  82:Generated_Source\PSoC5/CyLib.c **** * \sideeffect
  83:Generated_Source\PSoC5/CyLib.c **** *  If wait is enabled: This function uses the Fast Time Wheel to time the wait.
  84:Generated_Source\PSoC5/CyLib.c **** *  Any other use of the Fast Time Wheel will be stopped during the period of
  85:Generated_Source\PSoC5/CyLib.c **** *  this function and then restored. This function also uses the 100 KHz ILO.
  86:Generated_Source\PSoC5/CyLib.c **** *  If not enabled, this function will enable the 100 KHz ILO for the period of
  87:Generated_Source\PSoC5/CyLib.c **** *  this function.
  88:Generated_Source\PSoC5/CyLib.c **** *
ARM GAS  C:\Users\dmarsch\AppData\Local\Temp\ccNydXIK.s 			page 3


  89:Generated_Source\PSoC5/CyLib.c **** *  No changes to the setup of the ILO, Fast Time Wheel, Central Time Wheel or
  90:Generated_Source\PSoC5/CyLib.c **** *  Once Per Second interrupt may be made by interrupt routines during the period
  91:Generated_Source\PSoC5/CyLib.c **** *  of this function execution. The current operation of the ILO, Central Time
  92:Generated_Source\PSoC5/CyLib.c **** *  Wheel and Once Per Second interrupt are maintained during the operation of
  93:Generated_Source\PSoC5/CyLib.c **** *  this function provided the reading of the Power Manager Interrupt Status
  94:Generated_Source\PSoC5/CyLib.c **** *  Register is only done using the CyPmReadStatus() function.
  95:Generated_Source\PSoC5/CyLib.c **** *
  96:Generated_Source\PSoC5/CyLib.c **** *******************************************************************************/
  97:Generated_Source\PSoC5/CyLib.c **** cystatus CyPLL_OUT_Start(uint8 wait) 
  98:Generated_Source\PSoC5/CyLib.c **** {
  99:Generated_Source\PSoC5/CyLib.c ****     cystatus status = CYRET_SUCCESS;
 100:Generated_Source\PSoC5/CyLib.c **** 
 101:Generated_Source\PSoC5/CyLib.c ****     uint8 iloEnableState;
 102:Generated_Source\PSoC5/CyLib.c ****     uint8 pmTwCfg0State;
 103:Generated_Source\PSoC5/CyLib.c ****     uint8 pmTwCfg2State;
 104:Generated_Source\PSoC5/CyLib.c **** 
 105:Generated_Source\PSoC5/CyLib.c **** 
 106:Generated_Source\PSoC5/CyLib.c ****     /* Enables PLL circuit  */
 107:Generated_Source\PSoC5/CyLib.c ****     CY_CLK_PLL_CFG0_REG |= CY_CLK_PLL_ENABLE;
 108:Generated_Source\PSoC5/CyLib.c **** 
 109:Generated_Source\PSoC5/CyLib.c ****     if(wait != 0u)
 110:Generated_Source\PSoC5/CyLib.c ****     {
 111:Generated_Source\PSoC5/CyLib.c ****         /* Save 100 KHz ILO, FTW interval, enable and interrupt enable */
 112:Generated_Source\PSoC5/CyLib.c ****         iloEnableState = CY_LIB_SLOWCLK_ILO_CR0_REG & CY_LIB_SLOWCLK_ILO_CR0_EN_100KHZ;
 113:Generated_Source\PSoC5/CyLib.c ****         pmTwCfg0State = CY_LIB_PM_TW_CFG0_REG;
 114:Generated_Source\PSoC5/CyLib.c ****         pmTwCfg2State = CY_LIB_PM_TW_CFG2_REG;
 115:Generated_Source\PSoC5/CyLib.c **** 
 116:Generated_Source\PSoC5/CyLib.c ****         CyPmFtwSetInterval(CY_CLK_PLL_FTW_INTERVAL);
 117:Generated_Source\PSoC5/CyLib.c **** 
 118:Generated_Source\PSoC5/CyLib.c ****         status = CYRET_TIMEOUT;
 119:Generated_Source\PSoC5/CyLib.c **** 
 120:Generated_Source\PSoC5/CyLib.c ****         while(0u == (CY_PM_FTW_INT & CyPmReadStatus(CY_PM_FTW_INT)))
 121:Generated_Source\PSoC5/CyLib.c ****         {
 122:Generated_Source\PSoC5/CyLib.c ****             /* Wait for interrupt status */
 123:Generated_Source\PSoC5/CyLib.c ****             if(0u != (CY_CLK_PLL_SR_REG & CY_CLK_PLL_LOCK_STATUS))
 124:Generated_Source\PSoC5/CyLib.c ****             {
 125:Generated_Source\PSoC5/CyLib.c ****                 if(0u != (CY_CLK_PLL_SR_REG & CY_CLK_PLL_LOCK_STATUS))
 126:Generated_Source\PSoC5/CyLib.c ****                 {
 127:Generated_Source\PSoC5/CyLib.c ****                     status = CYRET_SUCCESS;
 128:Generated_Source\PSoC5/CyLib.c ****                     break;
 129:Generated_Source\PSoC5/CyLib.c ****                 }
 130:Generated_Source\PSoC5/CyLib.c ****             }
 131:Generated_Source\PSoC5/CyLib.c ****         }
 132:Generated_Source\PSoC5/CyLib.c **** 
 133:Generated_Source\PSoC5/CyLib.c ****         /* Restore 100 KHz ILO, FTW interval, enable and interrupt enable */
 134:Generated_Source\PSoC5/CyLib.c ****         if(0u == iloEnableState)
 135:Generated_Source\PSoC5/CyLib.c ****         {
 136:Generated_Source\PSoC5/CyLib.c ****             CyILO_Stop100K();
 137:Generated_Source\PSoC5/CyLib.c ****         }
 138:Generated_Source\PSoC5/CyLib.c **** 
 139:Generated_Source\PSoC5/CyLib.c ****         CY_LIB_PM_TW_CFG0_REG = pmTwCfg0State;
 140:Generated_Source\PSoC5/CyLib.c ****         CY_LIB_PM_TW_CFG2_REG = pmTwCfg2State;
 141:Generated_Source\PSoC5/CyLib.c ****     }
 142:Generated_Source\PSoC5/CyLib.c **** 
 143:Generated_Source\PSoC5/CyLib.c ****     return(status);
 144:Generated_Source\PSoC5/CyLib.c **** }
 145:Generated_Source\PSoC5/CyLib.c **** 
ARM GAS  C:\Users\dmarsch\AppData\Local\Temp\ccNydXIK.s 			page 4


 146:Generated_Source\PSoC5/CyLib.c **** 
 147:Generated_Source\PSoC5/CyLib.c **** /*******************************************************************************
 148:Generated_Source\PSoC5/CyLib.c **** * Function Name: CyPLL_OUT_Stop
 149:Generated_Source\PSoC5/CyLib.c **** ****************************************************************************//**
 150:Generated_Source\PSoC5/CyLib.c **** *
 151:Generated_Source\PSoC5/CyLib.c **** *  Disables the PLL.
 152:Generated_Source\PSoC5/CyLib.c **** *
 153:Generated_Source\PSoC5/CyLib.c **** *******************************************************************************/
 154:Generated_Source\PSoC5/CyLib.c **** void CyPLL_OUT_Stop(void) 
 155:Generated_Source\PSoC5/CyLib.c **** {
 156:Generated_Source\PSoC5/CyLib.c ****     CY_CLK_PLL_CFG0_REG &= ((uint8)(~CY_CLK_PLL_ENABLE));
 157:Generated_Source\PSoC5/CyLib.c **** }
 158:Generated_Source\PSoC5/CyLib.c **** 
 159:Generated_Source\PSoC5/CyLib.c **** 
 160:Generated_Source\PSoC5/CyLib.c **** /*******************************************************************************
 161:Generated_Source\PSoC5/CyLib.c **** * Function Name: CyPLL_OUT_SetPQ
 162:Generated_Source\PSoC5/CyLib.c **** ****************************************************************************//**
 163:Generated_Source\PSoC5/CyLib.c **** *
 164:Generated_Source\PSoC5/CyLib.c **** *  Sets the P and Q dividers and the charge pump current.
 165:Generated_Source\PSoC5/CyLib.c **** *  The Frequency Out will be P/Q * Frequency In.
 166:Generated_Source\PSoC5/CyLib.c **** *  The PLL must be disabled before calling this function.
 167:Generated_Source\PSoC5/CyLib.c **** *
 168:Generated_Source\PSoC5/CyLib.c **** *  \param uint8 pDiv:
 169:Generated_Source\PSoC5/CyLib.c **** *   Valid range [8 - 255].
 170:Generated_Source\PSoC5/CyLib.c **** *
 171:Generated_Source\PSoC5/CyLib.c **** *  \param uint8 qDiv:
 172:Generated_Source\PSoC5/CyLib.c **** *   Valid range [1 - 16]. Input Frequency / Q must be in range of 1 to 3 MHz.
 173:Generated_Source\PSoC5/CyLib.c **** 
 174:Generated_Source\PSoC5/CyLib.c **** *  \param uint8 current:
 175:Generated_Source\PSoC5/CyLib.c **** *   Valid range [1 - 7]. Charge pump current in uA. Refer to the device TRM and
 176:Generated_Source\PSoC5/CyLib.c **** *   datasheet for more information.
 177:Generated_Source\PSoC5/CyLib.c **** *
 178:Generated_Source\PSoC5/CyLib.c **** * \sideeffect
 179:Generated_Source\PSoC5/CyLib.c **** *  If this function execution results in the CPU clock frequency increasing,
 180:Generated_Source\PSoC5/CyLib.c **** *  then the number of clock cycles the cache will wait before it samples data
 181:Generated_Source\PSoC5/CyLib.c **** *  coming back from the Flash must be adjusted by calling
 182:Generated_Source\PSoC5/CyLib.c **** *  CyFlash_SetWaitCycles() with an appropriate parameter. It can be optionally
 183:Generated_Source\PSoC5/CyLib.c **** *  called if the CPU clock frequency is lowered in order to improve the CPU
 184:Generated_Source\PSoC5/CyLib.c **** *  performance. See CyFlash_SetWaitCycles() description for more information.
 185:Generated_Source\PSoC5/CyLib.c **** *
 186:Generated_Source\PSoC5/CyLib.c **** *******************************************************************************/
 187:Generated_Source\PSoC5/CyLib.c **** void CyPLL_OUT_SetPQ(uint8 pDiv, uint8 qDiv, uint8 current) 
 188:Generated_Source\PSoC5/CyLib.c **** {
 189:Generated_Source\PSoC5/CyLib.c ****     /* Halt CPU in debug mode if PLL is enabled */
 190:Generated_Source\PSoC5/CyLib.c ****     CYASSERT(0u == (CY_CLK_PLL_CFG0_REG & CY_CLK_PLL_ENABLE));
 191:Generated_Source\PSoC5/CyLib.c **** 
 192:Generated_Source\PSoC5/CyLib.c ****     if((pDiv    >= CY_CLK_PLL_MIN_P_VALUE  ) &&
 193:Generated_Source\PSoC5/CyLib.c ****        (qDiv    <= CY_CLK_PLL_MAX_Q_VALUE  ) && (qDiv    >= CY_CLK_PLL_MIN_Q_VALUE  ) &&
 194:Generated_Source\PSoC5/CyLib.c ****        (current >= CY_CLK_PLL_MIN_CUR_VALUE) && (current <= CY_CLK_PLL_MAX_CUR_VALUE))
 195:Generated_Source\PSoC5/CyLib.c ****     {
 196:Generated_Source\PSoC5/CyLib.c ****         /* Set new values */
 197:Generated_Source\PSoC5/CyLib.c ****         CY_CLK_PLL_P_REG = pDiv;
 198:Generated_Source\PSoC5/CyLib.c ****         CY_CLK_PLL_Q_REG = ((uint8)(qDiv - 1u));
 199:Generated_Source\PSoC5/CyLib.c ****         CY_CLK_PLL_CFG1_REG = (CY_CLK_PLL_CFG1_REG & CY_CLK_PLL_CURRENT_MASK) |
 200:Generated_Source\PSoC5/CyLib.c ****                                 ((uint8)(((uint8)(current - 1u)) << CY_CLK_PLL_CURRENT_POSITION));
 201:Generated_Source\PSoC5/CyLib.c ****     }
 202:Generated_Source\PSoC5/CyLib.c ****     else
ARM GAS  C:\Users\dmarsch\AppData\Local\Temp\ccNydXIK.s 			page 5


 203:Generated_Source\PSoC5/CyLib.c ****     {
 204:Generated_Source\PSoC5/CyLib.c ****         /***********************************************************************
 205:Generated_Source\PSoC5/CyLib.c ****         * Halt CPU in debug mode if:
 206:Generated_Source\PSoC5/CyLib.c ****         * - P divider is less than required
 207:Generated_Source\PSoC5/CyLib.c ****         * - Q divider is out of range
 208:Generated_Source\PSoC5/CyLib.c ****         * - pump current is out of range
 209:Generated_Source\PSoC5/CyLib.c ****         ***********************************************************************/
 210:Generated_Source\PSoC5/CyLib.c ****         CYASSERT(0u != 0u);
 211:Generated_Source\PSoC5/CyLib.c ****     }
 212:Generated_Source\PSoC5/CyLib.c **** 
 213:Generated_Source\PSoC5/CyLib.c **** }
 214:Generated_Source\PSoC5/CyLib.c **** 
 215:Generated_Source\PSoC5/CyLib.c **** 
 216:Generated_Source\PSoC5/CyLib.c **** /*******************************************************************************
 217:Generated_Source\PSoC5/CyLib.c **** * Function Name: CyPLL_OUT_SetSource
 218:Generated_Source\PSoC5/CyLib.c **** ****************************************************************************//**
 219:Generated_Source\PSoC5/CyLib.c **** *
 220:Generated_Source\PSoC5/CyLib.c **** *  Sets the input clock source to the PLL. The PLL must be disabled before
 221:Generated_Source\PSoC5/CyLib.c **** *  calling this function.
 222:Generated_Source\PSoC5/CyLib.c **** *
 223:Generated_Source\PSoC5/CyLib.c **** *   \param source: One of the three available PLL clock sources
 224:Generated_Source\PSoC5/CyLib.c **** *    \param CY_PLL_SOURCE_IMO  :   IMO
 225:Generated_Source\PSoC5/CyLib.c **** *    \param CY_PLL_SOURCE_XTAL :   MHz Crystal
 226:Generated_Source\PSoC5/CyLib.c **** *    \param CY_PLL_SOURCE_DSI  :   DSI
 227:Generated_Source\PSoC5/CyLib.c **** *
 228:Generated_Source\PSoC5/CyLib.c **** * \sideeffect
 229:Generated_Source\PSoC5/CyLib.c **** *  If this function execution results in the CPU clock frequency increasing,
 230:Generated_Source\PSoC5/CyLib.c **** *  then the number of clock cycles the cache will wait before it samples data
 231:Generated_Source\PSoC5/CyLib.c **** *  coming back from the3 Flash must be adjusted by calling
 232:Generated_Source\PSoC5/CyLib.c **** *  CyFlash_SetWaitCycles() with an appropriate parameter. It can be optionally
 233:Generated_Source\PSoC5/CyLib.c **** *  called if the CPU clock frequency is lowered in order to improve the CPU
 234:Generated_Source\PSoC5/CyLib.c **** *  performance. See CyFlash_SetWaitCycles() description for more information.
 235:Generated_Source\PSoC5/CyLib.c **** *
 236:Generated_Source\PSoC5/CyLib.c **** *******************************************************************************/
 237:Generated_Source\PSoC5/CyLib.c **** void CyPLL_OUT_SetSource(uint8 source) 
 238:Generated_Source\PSoC5/CyLib.c **** {
 239:Generated_Source\PSoC5/CyLib.c ****     /* Halt CPU in debug mode if PLL is enabled */
 240:Generated_Source\PSoC5/CyLib.c ****     CYASSERT(0u == (CY_CLK_PLL_CFG0_REG & CY_CLK_PLL_ENABLE));
 241:Generated_Source\PSoC5/CyLib.c **** 
 242:Generated_Source\PSoC5/CyLib.c ****     switch(source)
 243:Generated_Source\PSoC5/CyLib.c ****     {
 244:Generated_Source\PSoC5/CyLib.c ****         case CY_PLL_SOURCE_IMO:
 245:Generated_Source\PSoC5/CyLib.c ****         case CY_PLL_SOURCE_XTAL:
 246:Generated_Source\PSoC5/CyLib.c ****         case CY_PLL_SOURCE_DSI:
 247:Generated_Source\PSoC5/CyLib.c ****             CY_LIB_CLKDIST_CR_REG = ((CY_LIB_CLKDIST_CR_REG & CY_LIB_CLKDIST_CR_PLL_SCR_MASK) | sou
 248:Generated_Source\PSoC5/CyLib.c ****         break;
 249:Generated_Source\PSoC5/CyLib.c **** 
 250:Generated_Source\PSoC5/CyLib.c ****         default:
 251:Generated_Source\PSoC5/CyLib.c ****             CYASSERT(0u != 0u);
 252:Generated_Source\PSoC5/CyLib.c ****         break;
 253:Generated_Source\PSoC5/CyLib.c ****     }
 254:Generated_Source\PSoC5/CyLib.c **** }
 255:Generated_Source\PSoC5/CyLib.c **** 
 256:Generated_Source\PSoC5/CyLib.c **** 
 257:Generated_Source\PSoC5/CyLib.c **** /*******************************************************************************
 258:Generated_Source\PSoC5/CyLib.c **** * Function Name: CyIMO_Start
 259:Generated_Source\PSoC5/CyLib.c **** ****************************************************************************//**
ARM GAS  C:\Users\dmarsch\AppData\Local\Temp\ccNydXIK.s 			page 6


 260:Generated_Source\PSoC5/CyLib.c **** *
 261:Generated_Source\PSoC5/CyLib.c **** *  Enables the IMO. Optionally waits at least 6 us for it to settle.
 262:Generated_Source\PSoC5/CyLib.c **** *
 263:Generated_Source\PSoC5/CyLib.c **** *  \param uint8 wait:
 264:Generated_Source\PSoC5/CyLib.c **** *   \param 0: Return immediately after configuration
 265:Generated_Source\PSoC5/CyLib.c **** *   \param 1: Wait for at least 6 us for the IMO to settle.
 266:Generated_Source\PSoC5/CyLib.c **** *
 267:Generated_Source\PSoC5/CyLib.c **** * \sideeffect
 268:Generated_Source\PSoC5/CyLib.c **** *  If wait is enabled: This function uses the Fast Time Wheel to time the wait.
 269:Generated_Source\PSoC5/CyLib.c **** *  Any other use of the Fast Time Wheel will be stopped during the period of
 270:Generated_Source\PSoC5/CyLib.c **** *  this function and then restored. This function also uses the 100 KHz ILO.
 271:Generated_Source\PSoC5/CyLib.c **** *  If not enabled, this function will enable the 100 KHz ILO for the period of
 272:Generated_Source\PSoC5/CyLib.c **** *  this function.
 273:Generated_Source\PSoC5/CyLib.c **** *
 274:Generated_Source\PSoC5/CyLib.c **** *  No changes to the setup of the ILO, Fast Time Wheel, Central Time Wheel or
 275:Generated_Source\PSoC5/CyLib.c **** *  Once Per Second interrupt may be made by interrupt routines during the period
 276:Generated_Source\PSoC5/CyLib.c **** *  of this function execution. The current operation of the ILO, Central Time
 277:Generated_Source\PSoC5/CyLib.c **** *  Wheel and Once Per Second interrupt are maintained during the operation of
 278:Generated_Source\PSoC5/CyLib.c **** *  this function provided the reading of the Power Manager Interrupt Status
 279:Generated_Source\PSoC5/CyLib.c **** *  Register is only done using the CyPmReadStatus() function.
 280:Generated_Source\PSoC5/CyLib.c **** *
 281:Generated_Source\PSoC5/CyLib.c **** *******************************************************************************/
 282:Generated_Source\PSoC5/CyLib.c **** void CyIMO_Start(uint8 wait) 
 283:Generated_Source\PSoC5/CyLib.c **** {
 284:Generated_Source\PSoC5/CyLib.c ****     uint8 pmFtwCfg2Reg;
 285:Generated_Source\PSoC5/CyLib.c ****     uint8 pmFtwCfg0Reg;
 286:Generated_Source\PSoC5/CyLib.c ****     uint8 ilo100KhzEnable;
 287:Generated_Source\PSoC5/CyLib.c **** 
 288:Generated_Source\PSoC5/CyLib.c **** 
 289:Generated_Source\PSoC5/CyLib.c ****     CY_LIB_PM_ACT_CFG0_REG  |= CY_LIB_PM_ACT_CFG0_IMO_EN;
 290:Generated_Source\PSoC5/CyLib.c ****     CY_LIB_PM_STBY_CFG0_REG |= CY_LIB_PM_STBY_CFG0_IMO_EN;
 291:Generated_Source\PSoC5/CyLib.c **** 
 292:Generated_Source\PSoC5/CyLib.c ****     if(0u != wait)
 293:Generated_Source\PSoC5/CyLib.c ****     {
 294:Generated_Source\PSoC5/CyLib.c ****         /* Need to turn on 100KHz ILO if it happens to not already be running.*/
 295:Generated_Source\PSoC5/CyLib.c ****         ilo100KhzEnable = CY_LIB_SLOWCLK_ILO_CR0_REG & CY_LIB_SLOWCLK_ILO_CR0_EN_100KHZ;
 296:Generated_Source\PSoC5/CyLib.c ****         pmFtwCfg0Reg = CY_LIB_PM_TW_CFG0_REG;
 297:Generated_Source\PSoC5/CyLib.c ****         pmFtwCfg2Reg = CY_LIB_PM_TW_CFG2_REG;
 298:Generated_Source\PSoC5/CyLib.c **** 
 299:Generated_Source\PSoC5/CyLib.c ****         CyPmFtwSetInterval(CY_LIB_CLK_IMO_FTW_TIMEOUT);
 300:Generated_Source\PSoC5/CyLib.c **** 
 301:Generated_Source\PSoC5/CyLib.c ****         while (0u == (CY_PM_FTW_INT & CyPmReadStatus(CY_PM_FTW_INT)))
 302:Generated_Source\PSoC5/CyLib.c ****         {
 303:Generated_Source\PSoC5/CyLib.c ****             /* Wait for interrupt status */
 304:Generated_Source\PSoC5/CyLib.c ****         }
 305:Generated_Source\PSoC5/CyLib.c **** 
 306:Generated_Source\PSoC5/CyLib.c ****         if(0u == ilo100KhzEnable)
 307:Generated_Source\PSoC5/CyLib.c ****         {
 308:Generated_Source\PSoC5/CyLib.c ****             CyILO_Stop100K();
 309:Generated_Source\PSoC5/CyLib.c ****         }
 310:Generated_Source\PSoC5/CyLib.c **** 
 311:Generated_Source\PSoC5/CyLib.c ****         CY_LIB_PM_TW_CFG0_REG = pmFtwCfg0Reg;
 312:Generated_Source\PSoC5/CyLib.c ****         CY_LIB_PM_TW_CFG2_REG = pmFtwCfg2Reg;
 313:Generated_Source\PSoC5/CyLib.c ****     }
 314:Generated_Source\PSoC5/CyLib.c **** }
 315:Generated_Source\PSoC5/CyLib.c **** 
 316:Generated_Source\PSoC5/CyLib.c **** 
ARM GAS  C:\Users\dmarsch\AppData\Local\Temp\ccNydXIK.s 			page 7


 317:Generated_Source\PSoC5/CyLib.c **** /*******************************************************************************
 318:Generated_Source\PSoC5/CyLib.c **** * Function Name: CyIMO_Stop
 319:Generated_Source\PSoC5/CyLib.c **** ****************************************************************************//**
 320:Generated_Source\PSoC5/CyLib.c **** *
 321:Generated_Source\PSoC5/CyLib.c **** *   Disables the IMO.
 322:Generated_Source\PSoC5/CyLib.c **** *
 323:Generated_Source\PSoC5/CyLib.c **** *******************************************************************************/
 324:Generated_Source\PSoC5/CyLib.c **** void CyIMO_Stop(void) 
 325:Generated_Source\PSoC5/CyLib.c **** {
 326:Generated_Source\PSoC5/CyLib.c ****     CY_LIB_PM_ACT_CFG0_REG  &= ((uint8) (~CY_LIB_PM_ACT_CFG0_IMO_EN));
 327:Generated_Source\PSoC5/CyLib.c ****     CY_LIB_PM_STBY_CFG0_REG &= ((uint8) (~CY_LIB_PM_STBY_CFG0_IMO_EN));
 328:Generated_Source\PSoC5/CyLib.c **** }
 329:Generated_Source\PSoC5/CyLib.c **** 
 330:Generated_Source\PSoC5/CyLib.c **** 
 331:Generated_Source\PSoC5/CyLib.c **** /*******************************************************************************
 332:Generated_Source\PSoC5/CyLib.c **** * Function Name: CyUSB_PowerOnCheck
 333:Generated_Source\PSoC5/CyLib.c **** ****************************************************************************//**
 334:Generated_Source\PSoC5/CyLib.c **** *
 335:Generated_Source\PSoC5/CyLib.c **** *  Returns the USB power status value. A private function to cy_boot.
 336:Generated_Source\PSoC5/CyLib.c **** *
 337:Generated_Source\PSoC5/CyLib.c **** * \return
 338:Generated_Source\PSoC5/CyLib.c **** *   uint8: one if the USB is enabled, 0 if not enabled.
 339:Generated_Source\PSoC5/CyLib.c **** *
 340:Generated_Source\PSoC5/CyLib.c **** *******************************************************************************/
 341:Generated_Source\PSoC5/CyLib.c **** static uint8 CyUSB_PowerOnCheck(void)  
 342:Generated_Source\PSoC5/CyLib.c **** {
  27              		.loc 1 342 0
  28              		.cfi_startproc
  29              		@ args = 0, pretend = 0, frame = 0
  30              		@ frame_needed = 0, uses_anonymous_args = 0
  31              		@ link register save eliminated.
  32              	.LVL0:
 343:Generated_Source\PSoC5/CyLib.c ****     uint8 poweredOn = 0u;
 344:Generated_Source\PSoC5/CyLib.c **** 
 345:Generated_Source\PSoC5/CyLib.c ****     /* Check whether device is in Active or AltActive and if USB is powered on */
 346:Generated_Source\PSoC5/CyLib.c ****     if((((CY_PM_MODE_CSR_REG & CY_PM_MODE_CSR_MASK) == CY_PM_MODE_CSR_ACTIVE ) &&
  33              		.loc 1 346 0
  34 0000 0E4B     		ldr	r3, .L7
  35 0002 1B78     		ldrb	r3, [r3]	@ zero_extendqisi2
  36 0004 13F0070F 		tst	r3, #7
  37 0008 04D1     		bne	.L2
 347:Generated_Source\PSoC5/CyLib.c ****        (0u != (CY_LIB_PM_ACT_CFG5_REG & CY_ACT_USB_ENABLED     )))  ||
  38              		.loc 1 347 0 discriminator 1
  39 000a 0D4B     		ldr	r3, .L7+4
  40 000c 1B78     		ldrb	r3, [r3]	@ zero_extendqisi2
 346:Generated_Source\PSoC5/CyLib.c ****        (0u != (CY_LIB_PM_ACT_CFG5_REG & CY_ACT_USB_ENABLED     )))  ||
  41              		.loc 1 346 0 discriminator 1
  42 000e 13F0010F 		tst	r3, #1
  43 0012 0CD1     		bne	.L4
  44              	.L2:
 348:Generated_Source\PSoC5/CyLib.c ****        (((CY_PM_MODE_CSR_REG & CY_PM_MODE_CSR_MASK) == CY_PM_MODE_CSR_ALT_ACT) &&
  45              		.loc 1 348 0
  46 0014 094B     		ldr	r3, .L7
  47 0016 1B78     		ldrb	r3, [r3]	@ zero_extendqisi2
 347:Generated_Source\PSoC5/CyLib.c ****        (0u != (CY_LIB_PM_ACT_CFG5_REG & CY_ACT_USB_ENABLED     )))  ||
  48              		.loc 1 347 0
  49 0018 03F00703 		and	r3, r3, #7
ARM GAS  C:\Users\dmarsch\AppData\Local\Temp\ccNydXIK.s 			page 8


  50 001c 012B     		cmp	r3, #1
  51 001e 08D1     		bne	.L5
 349:Generated_Source\PSoC5/CyLib.c ****        (0u != (CY_LIB_PM_STBY_CFG5_REG & CY_ALT_ACT_USB_ENABLED))))
  52              		.loc 1 349 0
  53 0020 084B     		ldr	r3, .L7+8
  54 0022 1B78     		ldrb	r3, [r3]	@ zero_extendqisi2
 348:Generated_Source\PSoC5/CyLib.c ****        (((CY_PM_MODE_CSR_REG & CY_PM_MODE_CSR_MASK) == CY_PM_MODE_CSR_ALT_ACT) &&
  55              		.loc 1 348 0
  56 0024 13F0010F 		tst	r3, #1
  57 0028 05D1     		bne	.L6
 343:Generated_Source\PSoC5/CyLib.c **** 
  58              		.loc 1 343 0
  59 002a 0020     		movs	r0, #0
  60 002c 7047     		bx	lr
  61              	.L4:
 350:Generated_Source\PSoC5/CyLib.c ****     {
 351:Generated_Source\PSoC5/CyLib.c ****         poweredOn = 1u;
  62              		.loc 1 351 0
  63 002e 0120     		movs	r0, #1
  64 0030 7047     		bx	lr
  65              	.L5:
 343:Generated_Source\PSoC5/CyLib.c **** 
  66              		.loc 1 343 0
  67 0032 0020     		movs	r0, #0
  68 0034 7047     		bx	lr
  69              	.L6:
  70              		.loc 1 351 0
  71 0036 0120     		movs	r0, #1
  72              	.LVL1:
 352:Generated_Source\PSoC5/CyLib.c ****     }
 353:Generated_Source\PSoC5/CyLib.c **** 
 354:Generated_Source\PSoC5/CyLib.c ****     return (poweredOn);
 355:Generated_Source\PSoC5/CyLib.c **** }
  73              		.loc 1 355 0
  74 0038 7047     		bx	lr
  75              	.L8:
  76 003a 00BF     		.align	2
  77              	.L7:
  78 003c 93430040 		.word	1073759123
  79 0040 A5430040 		.word	1073759141
  80 0044 B5430040 		.word	1073759157
  81              		.cfi_endproc
  82              	.LFE6:
  83              		.size	CyUSB_PowerOnCheck, .-CyUSB_PowerOnCheck
  84              		.section	.text.CyBusClk_Internal_SetDivider,"ax",%progbits
  85              		.align	2
  86              		.thumb
  87              		.thumb_func
  88              		.type	CyBusClk_Internal_SetDivider, %function
  89              	CyBusClk_Internal_SetDivider:
  90              	.LFB14:
 356:Generated_Source\PSoC5/CyLib.c **** 
 357:Generated_Source\PSoC5/CyLib.c **** 
 358:Generated_Source\PSoC5/CyLib.c **** /*******************************************************************************
 359:Generated_Source\PSoC5/CyLib.c **** * Function Name: CyIMO_SetTrimValue
 360:Generated_Source\PSoC5/CyLib.c **** ****************************************************************************//**
 361:Generated_Source\PSoC5/CyLib.c **** *
ARM GAS  C:\Users\dmarsch\AppData\Local\Temp\ccNydXIK.s 			page 9


 362:Generated_Source\PSoC5/CyLib.c **** *  Sets the IMO factory trim values.
 363:Generated_Source\PSoC5/CyLib.c **** *
 364:Generated_Source\PSoC5/CyLib.c **** *  uint8 freq - frequency for which trims must be set
 365:Generated_Source\PSoC5/CyLib.c **** *
 366:Generated_Source\PSoC5/CyLib.c **** *******************************************************************************/
 367:Generated_Source\PSoC5/CyLib.c **** static void CyIMO_SetTrimValue(uint8 freq) 
 368:Generated_Source\PSoC5/CyLib.c **** {
 369:Generated_Source\PSoC5/CyLib.c ****     uint8 usbPowerOn = CyUSB_PowerOnCheck();
 370:Generated_Source\PSoC5/CyLib.c **** 
 371:Generated_Source\PSoC5/CyLib.c ****     /* If USB is powered */
 372:Generated_Source\PSoC5/CyLib.c ****     if(usbPowerOn == 1u)
 373:Generated_Source\PSoC5/CyLib.c ****     {
 374:Generated_Source\PSoC5/CyLib.c ****         /* Unlock USB write */
 375:Generated_Source\PSoC5/CyLib.c ****         CY_LIB_USB_CR1_REG &= ((uint8)(~CY_LIB_USB_CLK_EN));
 376:Generated_Source\PSoC5/CyLib.c ****     }
 377:Generated_Source\PSoC5/CyLib.c ****     switch(freq)
 378:Generated_Source\PSoC5/CyLib.c ****     {
 379:Generated_Source\PSoC5/CyLib.c ****     case CY_IMO_FREQ_3MHZ:
 380:Generated_Source\PSoC5/CyLib.c ****         CY_LIB_IMO_TR1_REG = CY_GET_XTND_REG8(CY_LIB_TRIM_IMO_3MHZ_PTR);
 381:Generated_Source\PSoC5/CyLib.c ****         break;
 382:Generated_Source\PSoC5/CyLib.c **** 
 383:Generated_Source\PSoC5/CyLib.c ****     case CY_IMO_FREQ_6MHZ:
 384:Generated_Source\PSoC5/CyLib.c ****         CY_LIB_IMO_TR1_REG = CY_GET_XTND_REG8(CY_LIB_TRIM_IMO_6MHZ_PTR);
 385:Generated_Source\PSoC5/CyLib.c ****         break;
 386:Generated_Source\PSoC5/CyLib.c **** 
 387:Generated_Source\PSoC5/CyLib.c ****     case CY_IMO_FREQ_12MHZ:
 388:Generated_Source\PSoC5/CyLib.c ****         CY_LIB_IMO_TR1_REG = CY_GET_XTND_REG8(CY_LIB_TRIM_IMO_12MHZ_PTR);
 389:Generated_Source\PSoC5/CyLib.c ****         break;
 390:Generated_Source\PSoC5/CyLib.c **** 
 391:Generated_Source\PSoC5/CyLib.c ****     case CY_IMO_FREQ_24MHZ:
 392:Generated_Source\PSoC5/CyLib.c ****         CY_LIB_IMO_TR1_REG = CY_GET_XTND_REG8(CY_LIB_TRIM_IMO_24MHZ_PTR);
 393:Generated_Source\PSoC5/CyLib.c ****         break;
 394:Generated_Source\PSoC5/CyLib.c **** 
 395:Generated_Source\PSoC5/CyLib.c ****     case CY_IMO_FREQ_48MHZ:
 396:Generated_Source\PSoC5/CyLib.c ****         CY_LIB_IMO_TR1_REG = CY_GET_XTND_REG8(CY_LIB_TRIM_IMO_TR1_PTR);
 397:Generated_Source\PSoC5/CyLib.c ****         break;
 398:Generated_Source\PSoC5/CyLib.c **** 
 399:Generated_Source\PSoC5/CyLib.c ****     case CY_IMO_FREQ_62MHZ:
 400:Generated_Source\PSoC5/CyLib.c ****         CY_LIB_IMO_TR1_REG = CY_GET_XTND_REG8(CY_LIB_TRIM_IMO_67MHZ_PTR);
 401:Generated_Source\PSoC5/CyLib.c ****         break;
 402:Generated_Source\PSoC5/CyLib.c **** 
 403:Generated_Source\PSoC5/CyLib.c **** #if(CY_PSOC5)
 404:Generated_Source\PSoC5/CyLib.c ****     case CY_IMO_FREQ_74MHZ:
 405:Generated_Source\PSoC5/CyLib.c ****         CY_LIB_IMO_TR1_REG = CY_GET_XTND_REG8(CY_LIB_TRIM_IMO_80MHZ_PTR);
 406:Generated_Source\PSoC5/CyLib.c ****         break;
 407:Generated_Source\PSoC5/CyLib.c **** #endif  /* (CY_PSOC5) */
 408:Generated_Source\PSoC5/CyLib.c **** 
 409:Generated_Source\PSoC5/CyLib.c ****     case CY_IMO_FREQ_USB:
 410:Generated_Source\PSoC5/CyLib.c ****         CY_LIB_IMO_TR1_REG = CY_GET_XTND_REG8(CY_LIB_TRIM_IMO_USB_PTR);
 411:Generated_Source\PSoC5/CyLib.c **** 
 412:Generated_Source\PSoC5/CyLib.c ****         /* If USB is powered */
 413:Generated_Source\PSoC5/CyLib.c ****         if(usbPowerOn == 1u)
 414:Generated_Source\PSoC5/CyLib.c ****         {
 415:Generated_Source\PSoC5/CyLib.c ****             /* Lock USB Oscillator */
 416:Generated_Source\PSoC5/CyLib.c ****             CY_LIB_USB_CR1_REG |= CY_LIB_USB_CLK_EN;
 417:Generated_Source\PSoC5/CyLib.c ****         }
 418:Generated_Source\PSoC5/CyLib.c ****         break;
ARM GAS  C:\Users\dmarsch\AppData\Local\Temp\ccNydXIK.s 			page 10


 419:Generated_Source\PSoC5/CyLib.c **** 
 420:Generated_Source\PSoC5/CyLib.c ****     default:
 421:Generated_Source\PSoC5/CyLib.c ****             CYASSERT(0u != 0u);
 422:Generated_Source\PSoC5/CyLib.c ****         break;
 423:Generated_Source\PSoC5/CyLib.c ****     }
 424:Generated_Source\PSoC5/CyLib.c **** 
 425:Generated_Source\PSoC5/CyLib.c **** }
 426:Generated_Source\PSoC5/CyLib.c **** 
 427:Generated_Source\PSoC5/CyLib.c **** 
 428:Generated_Source\PSoC5/CyLib.c **** /*******************************************************************************
 429:Generated_Source\PSoC5/CyLib.c **** * Function Name: CyIMO_SetFreq
 430:Generated_Source\PSoC5/CyLib.c **** ****************************************************************************//**
 431:Generated_Source\PSoC5/CyLib.c **** *
 432:Generated_Source\PSoC5/CyLib.c **** *  Sets the frequency of the IMO. Changes may be made while the IMO is running.
 433:Generated_Source\PSoC5/CyLib.c **** *
 434:Generated_Source\PSoC5/CyLib.c **** *  \param freq: Frequency of IMO operation
 435:Generated_Source\PSoC5/CyLib.c **** *       CY_IMO_FREQ_3MHZ  to set  3   MHz
 436:Generated_Source\PSoC5/CyLib.c **** *       CY_IMO_FREQ_6MHZ  to set  6   MHz
 437:Generated_Source\PSoC5/CyLib.c **** *       CY_IMO_FREQ_12MHZ to set 12   MHz
 438:Generated_Source\PSoC5/CyLib.c **** *       CY_IMO_FREQ_24MHZ to set 24   MHz
 439:Generated_Source\PSoC5/CyLib.c **** *       CY_IMO_FREQ_48MHZ to set 48   MHz
 440:Generated_Source\PSoC5/CyLib.c **** *       CY_IMO_FREQ_62MHZ to set 62.6 MHz
 441:Generated_Source\PSoC5/CyLib.c **** *       CY_IMO_FREQ_74MHZ to set 74.7 MHz (not applicable for PSoC 3)
 442:Generated_Source\PSoC5/CyLib.c **** *       CY_IMO_FREQ_USB   to set 24   MHz (Trimmed for USB operation)
 443:Generated_Source\PSoC5/CyLib.c **** *
 444:Generated_Source\PSoC5/CyLib.c **** * \sideeffect
 445:Generated_Source\PSoC5/CyLib.c **** *  If this function execution results in the CPU clock frequency increasing,
 446:Generated_Source\PSoC5/CyLib.c **** *  then the number of clock cycles the cache will wait before it samples data
 447:Generated_Source\PSoC5/CyLib.c **** *  coming back from the Flash must be adjusted by calling
 448:Generated_Source\PSoC5/CyLib.c **** *  CyFlash_SetWaitCycles() with an appropriate parameter. It can be optionally
 449:Generated_Source\PSoC5/CyLib.c **** *  called if the CPU clock frequency is lowered in order to improve the CPU
 450:Generated_Source\PSoC5/CyLib.c **** *  performance. See CyFlash_SetWaitCycles() description for more information.
 451:Generated_Source\PSoC5/CyLib.c **** *
 452:Generated_Source\PSoC5/CyLib.c **** *  When the USB setting is chosen, the USB clock locking circuit is enabled.
 453:Generated_Source\PSoC5/CyLib.c **** *  Otherwise this circuit is disabled. The USB block must be powered before
 454:Generated_Source\PSoC5/CyLib.c **** *  selecting the USB setting.
 455:Generated_Source\PSoC5/CyLib.c **** *
 456:Generated_Source\PSoC5/CyLib.c **** *******************************************************************************/
 457:Generated_Source\PSoC5/CyLib.c **** void CyIMO_SetFreq(uint8 freq) 
 458:Generated_Source\PSoC5/CyLib.c **** {
 459:Generated_Source\PSoC5/CyLib.c ****     uint8 currentFreq;
 460:Generated_Source\PSoC5/CyLib.c ****     uint8 nextFreq;
 461:Generated_Source\PSoC5/CyLib.c **** 
 462:Generated_Source\PSoC5/CyLib.c ****     /***************************************************************************
 463:Generated_Source\PSoC5/CyLib.c ****     * If the IMO frequency is changed,the Trim values must also be set
 464:Generated_Source\PSoC5/CyLib.c ****     * accordingly.This requires reading the current frequency. If the new
 465:Generated_Source\PSoC5/CyLib.c ****     * frequency is faster, then set a new trim and then change the frequency,
 466:Generated_Source\PSoC5/CyLib.c ****     * otherwise change the frequency and then set new trim values.
 467:Generated_Source\PSoC5/CyLib.c ****     ***************************************************************************/
 468:Generated_Source\PSoC5/CyLib.c **** 
 469:Generated_Source\PSoC5/CyLib.c ****     currentFreq = CY_LIB_FASTCLK_IMO_CR_REG & ((uint8)(~CY_LIB_FASTCLK_IMO_CR_RANGE_MASK));
 470:Generated_Source\PSoC5/CyLib.c **** 
 471:Generated_Source\PSoC5/CyLib.c ****     /* Check if requested frequency is USB. */
 472:Generated_Source\PSoC5/CyLib.c ****     nextFreq = (freq == CY_IMO_FREQ_USB) ? CY_IMO_FREQ_24MHZ : freq;
 473:Generated_Source\PSoC5/CyLib.c **** 
 474:Generated_Source\PSoC5/CyLib.c ****     switch (currentFreq)
 475:Generated_Source\PSoC5/CyLib.c ****     {
ARM GAS  C:\Users\dmarsch\AppData\Local\Temp\ccNydXIK.s 			page 11


 476:Generated_Source\PSoC5/CyLib.c ****     case 0u:
 477:Generated_Source\PSoC5/CyLib.c ****         currentFreq = CY_IMO_FREQ_12MHZ;
 478:Generated_Source\PSoC5/CyLib.c ****         break;
 479:Generated_Source\PSoC5/CyLib.c **** 
 480:Generated_Source\PSoC5/CyLib.c ****     case 1u:
 481:Generated_Source\PSoC5/CyLib.c ****         currentFreq = CY_IMO_FREQ_6MHZ;
 482:Generated_Source\PSoC5/CyLib.c ****         break;
 483:Generated_Source\PSoC5/CyLib.c **** 
 484:Generated_Source\PSoC5/CyLib.c ****     case 2u:
 485:Generated_Source\PSoC5/CyLib.c ****         currentFreq = CY_IMO_FREQ_24MHZ;
 486:Generated_Source\PSoC5/CyLib.c ****         break;
 487:Generated_Source\PSoC5/CyLib.c **** 
 488:Generated_Source\PSoC5/CyLib.c ****     case 3u:
 489:Generated_Source\PSoC5/CyLib.c ****         currentFreq = CY_IMO_FREQ_3MHZ;
 490:Generated_Source\PSoC5/CyLib.c ****         break;
 491:Generated_Source\PSoC5/CyLib.c **** 
 492:Generated_Source\PSoC5/CyLib.c ****     case 4u:
 493:Generated_Source\PSoC5/CyLib.c ****         currentFreq = CY_IMO_FREQ_48MHZ;
 494:Generated_Source\PSoC5/CyLib.c ****         break;
 495:Generated_Source\PSoC5/CyLib.c **** 
 496:Generated_Source\PSoC5/CyLib.c ****     case 5u:
 497:Generated_Source\PSoC5/CyLib.c ****         currentFreq = CY_IMO_FREQ_62MHZ;
 498:Generated_Source\PSoC5/CyLib.c ****         break;
 499:Generated_Source\PSoC5/CyLib.c **** 
 500:Generated_Source\PSoC5/CyLib.c **** #if(CY_PSOC5)
 501:Generated_Source\PSoC5/CyLib.c ****     case 6u:
 502:Generated_Source\PSoC5/CyLib.c ****         currentFreq = CY_IMO_FREQ_74MHZ;
 503:Generated_Source\PSoC5/CyLib.c ****         break;
 504:Generated_Source\PSoC5/CyLib.c **** #endif  /* (CY_PSOC5) */
 505:Generated_Source\PSoC5/CyLib.c **** 
 506:Generated_Source\PSoC5/CyLib.c ****     default:
 507:Generated_Source\PSoC5/CyLib.c ****         CYASSERT(0u != 0u);
 508:Generated_Source\PSoC5/CyLib.c ****         break;
 509:Generated_Source\PSoC5/CyLib.c ****     }
 510:Generated_Source\PSoC5/CyLib.c **** 
 511:Generated_Source\PSoC5/CyLib.c ****     if (nextFreq >= currentFreq)
 512:Generated_Source\PSoC5/CyLib.c ****     {
 513:Generated_Source\PSoC5/CyLib.c ****         /* Set new trim first */
 514:Generated_Source\PSoC5/CyLib.c ****         CyIMO_SetTrimValue(freq);
 515:Generated_Source\PSoC5/CyLib.c ****     }
 516:Generated_Source\PSoC5/CyLib.c **** 
 517:Generated_Source\PSoC5/CyLib.c ****     /* Set usbclk_on bit when using CY_IMO_FREQ_USB, if not clear it */
 518:Generated_Source\PSoC5/CyLib.c ****     switch(freq)
 519:Generated_Source\PSoC5/CyLib.c ****     {
 520:Generated_Source\PSoC5/CyLib.c ****     case CY_IMO_FREQ_3MHZ:
 521:Generated_Source\PSoC5/CyLib.c ****         CY_LIB_FASTCLK_IMO_CR_REG = ((CY_LIB_FASTCLK_IMO_CR_REG & CY_LIB_FASTCLK_IMO_CR_RANGE_MASK)
 522:Generated_Source\PSoC5/CyLib.c ****             CY_LIB_IMO_3MHZ_VALUE) & ((uint8)(~CY_LIB_IMO_USBCLK_ON_SET));
 523:Generated_Source\PSoC5/CyLib.c ****         break;
 524:Generated_Source\PSoC5/CyLib.c **** 
 525:Generated_Source\PSoC5/CyLib.c ****     case CY_IMO_FREQ_6MHZ:
 526:Generated_Source\PSoC5/CyLib.c ****         CY_LIB_FASTCLK_IMO_CR_REG = ((CY_LIB_FASTCLK_IMO_CR_REG & CY_LIB_FASTCLK_IMO_CR_RANGE_MASK)
 527:Generated_Source\PSoC5/CyLib.c ****             CY_LIB_IMO_6MHZ_VALUE) & ((uint8)(~CY_LIB_IMO_USBCLK_ON_SET));
 528:Generated_Source\PSoC5/CyLib.c ****         break;
 529:Generated_Source\PSoC5/CyLib.c **** 
 530:Generated_Source\PSoC5/CyLib.c ****     case CY_IMO_FREQ_12MHZ:
 531:Generated_Source\PSoC5/CyLib.c ****         CY_LIB_FASTCLK_IMO_CR_REG = ((CY_LIB_FASTCLK_IMO_CR_REG & CY_LIB_FASTCLK_IMO_CR_RANGE_MASK)
 532:Generated_Source\PSoC5/CyLib.c ****             CY_LIB_IMO_12MHZ_VALUE) & ((uint8)(~CY_LIB_IMO_USBCLK_ON_SET));
ARM GAS  C:\Users\dmarsch\AppData\Local\Temp\ccNydXIK.s 			page 12


 533:Generated_Source\PSoC5/CyLib.c ****         break;
 534:Generated_Source\PSoC5/CyLib.c **** 
 535:Generated_Source\PSoC5/CyLib.c ****     case CY_IMO_FREQ_24MHZ:
 536:Generated_Source\PSoC5/CyLib.c ****         CY_LIB_FASTCLK_IMO_CR_REG = ((CY_LIB_FASTCLK_IMO_CR_REG & CY_LIB_FASTCLK_IMO_CR_RANGE_MASK)
 537:Generated_Source\PSoC5/CyLib.c ****             CY_LIB_IMO_24MHZ_VALUE) & ((uint8)(~CY_LIB_IMO_USBCLK_ON_SET));
 538:Generated_Source\PSoC5/CyLib.c ****         break;
 539:Generated_Source\PSoC5/CyLib.c **** 
 540:Generated_Source\PSoC5/CyLib.c ****     case CY_IMO_FREQ_48MHZ:
 541:Generated_Source\PSoC5/CyLib.c ****         CY_LIB_FASTCLK_IMO_CR_REG = ((CY_LIB_FASTCLK_IMO_CR_REG & CY_LIB_FASTCLK_IMO_CR_RANGE_MASK)
 542:Generated_Source\PSoC5/CyLib.c ****             CY_LIB_IMO_48MHZ_VALUE) & ((uint8)(~CY_LIB_IMO_USBCLK_ON_SET));
 543:Generated_Source\PSoC5/CyLib.c ****         break;
 544:Generated_Source\PSoC5/CyLib.c **** 
 545:Generated_Source\PSoC5/CyLib.c ****     case CY_IMO_FREQ_62MHZ:
 546:Generated_Source\PSoC5/CyLib.c ****         CY_LIB_FASTCLK_IMO_CR_REG = ((CY_LIB_FASTCLK_IMO_CR_REG & CY_LIB_FASTCLK_IMO_CR_RANGE_MASK)
 547:Generated_Source\PSoC5/CyLib.c ****             CY_LIB_IMO_62MHZ_VALUE) & ((uint8)(~CY_LIB_IMO_USBCLK_ON_SET));
 548:Generated_Source\PSoC5/CyLib.c ****         break;
 549:Generated_Source\PSoC5/CyLib.c **** 
 550:Generated_Source\PSoC5/CyLib.c **** #if(CY_PSOC5)
 551:Generated_Source\PSoC5/CyLib.c ****     case CY_IMO_FREQ_74MHZ:
 552:Generated_Source\PSoC5/CyLib.c ****         CY_LIB_FASTCLK_IMO_CR_REG = ((CY_LIB_FASTCLK_IMO_CR_REG & CY_LIB_FASTCLK_IMO_CR_RANGE_MASK)
 553:Generated_Source\PSoC5/CyLib.c ****             CY_LIB_IMO_74MHZ_VALUE) & ((uint8)(~CY_LIB_IMO_USBCLK_ON_SET));
 554:Generated_Source\PSoC5/CyLib.c ****         break;
 555:Generated_Source\PSoC5/CyLib.c **** #endif  /* (CY_PSOC5) */
 556:Generated_Source\PSoC5/CyLib.c **** 
 557:Generated_Source\PSoC5/CyLib.c ****     case CY_IMO_FREQ_USB:
 558:Generated_Source\PSoC5/CyLib.c ****         CY_LIB_FASTCLK_IMO_CR_REG = ((CY_LIB_FASTCLK_IMO_CR_REG & CY_LIB_FASTCLK_IMO_CR_RANGE_MASK)
 559:Generated_Source\PSoC5/CyLib.c ****             CY_LIB_IMO_24MHZ_VALUE) | CY_LIB_IMO_USBCLK_ON_SET;
 560:Generated_Source\PSoC5/CyLib.c ****         break;
 561:Generated_Source\PSoC5/CyLib.c **** 
 562:Generated_Source\PSoC5/CyLib.c ****     default:
 563:Generated_Source\PSoC5/CyLib.c ****         CYASSERT(0u != 0u);
 564:Generated_Source\PSoC5/CyLib.c ****         break;
 565:Generated_Source\PSoC5/CyLib.c ****     }
 566:Generated_Source\PSoC5/CyLib.c **** 
 567:Generated_Source\PSoC5/CyLib.c ****     /* Tu rn onIMO Doubler, if switching to CY_IMO_FREQ_USB */
 568:Generated_Source\PSoC5/CyLib.c ****     if (freq == CY_IMO_FREQ_USB)
 569:Generated_Source\PSoC5/CyLib.c ****     {
 570:Generated_Source\PSoC5/CyLib.c ****         CyIMO_EnableDoubler();
 571:Generated_Source\PSoC5/CyLib.c ****     }
 572:Generated_Source\PSoC5/CyLib.c ****     else
 573:Generated_Source\PSoC5/CyLib.c ****     {
 574:Generated_Source\PSoC5/CyLib.c ****         CyIMO_DisableDoubler();
 575:Generated_Source\PSoC5/CyLib.c ****     }
 576:Generated_Source\PSoC5/CyLib.c **** 
 577:Generated_Source\PSoC5/CyLib.c ****     if (nextFreq < currentFreq)
 578:Generated_Source\PSoC5/CyLib.c ****     {
 579:Generated_Source\PSoC5/CyLib.c ****         /* Set the trim after setting frequency */
 580:Generated_Source\PSoC5/CyLib.c ****         CyIMO_SetTrimValue(freq);
 581:Generated_Source\PSoC5/CyLib.c ****     }
 582:Generated_Source\PSoC5/CyLib.c **** }
 583:Generated_Source\PSoC5/CyLib.c **** 
 584:Generated_Source\PSoC5/CyLib.c **** 
 585:Generated_Source\PSoC5/CyLib.c **** /*******************************************************************************
 586:Generated_Source\PSoC5/CyLib.c **** * Function Name: CyIMO_SetSource
 587:Generated_Source\PSoC5/CyLib.c **** ****************************************************************************//**
 588:Generated_Source\PSoC5/CyLib.c **** *
 589:Generated_Source\PSoC5/CyLib.c **** *  Sets the source of the clock output from the IMO block.
ARM GAS  C:\Users\dmarsch\AppData\Local\Temp\ccNydXIK.s 			page 13


 590:Generated_Source\PSoC5/CyLib.c **** *
 591:Generated_Source\PSoC5/CyLib.c **** *  The output from the IMO is by default the IMO itself. Optionally the MHz
 592:Generated_Source\PSoC5/CyLib.c **** *  Crystal or DSI input can be the source of the IMO output instead.
 593:Generated_Source\PSoC5/CyLib.c **** *
 594:Generated_Source\PSoC5/CyLib.c **** *   \param source: CY_IMO_SOURCE_DSI to set the DSI as source.
 595:Generated_Source\PSoC5/CyLib.c **** *           CY_IMO_SOURCE_XTAL to set the MHz as source.
 596:Generated_Source\PSoC5/CyLib.c **** *           CY_IMO_SOURCE_IMO to set the IMO itself.
 597:Generated_Source\PSoC5/CyLib.c **** *
 598:Generated_Source\PSoC5/CyLib.c **** * \sideeffect
 599:Generated_Source\PSoC5/CyLib.c **** *  If this function execution resulted in the CPU clock frequency increasing,
 600:Generated_Source\PSoC5/CyLib.c **** *  then the number of clock cycles the cache will wait before it samples data
 601:Generated_Source\PSoC5/CyLib.c **** *  coming back from the Flash must be adjusted by calling
 602:Generated_Source\PSoC5/CyLib.c **** *  CyFlash_SetWaitCycles() with an appropriate parameter. It can be optionally
 603:Generated_Source\PSoC5/CyLib.c **** *  called if the CPU clock frequency is lowered in order to improve the CPU
 604:Generated_Source\PSoC5/CyLib.c **** *  performance. See CyFlash_SetWaitCycles() description for more information.
 605:Generated_Source\PSoC5/CyLib.c **** *
 606:Generated_Source\PSoC5/CyLib.c **** *******************************************************************************/
 607:Generated_Source\PSoC5/CyLib.c **** void CyIMO_SetSource(uint8 source) 
 608:Generated_Source\PSoC5/CyLib.c **** {
 609:Generated_Source\PSoC5/CyLib.c ****     switch(source)
 610:Generated_Source\PSoC5/CyLib.c ****     {
 611:Generated_Source\PSoC5/CyLib.c ****     case CY_IMO_SOURCE_DSI:
 612:Generated_Source\PSoC5/CyLib.c ****         CY_LIB_CLKDIST_CR_REG     &= ((uint8)(~CY_LIB_CLKDIST_CR_IMO2X));
 613:Generated_Source\PSoC5/CyLib.c ****         CY_LIB_FASTCLK_IMO_CR_REG |= CY_LIB_FASTCLK_IMO_IMO;
 614:Generated_Source\PSoC5/CyLib.c ****         break;
 615:Generated_Source\PSoC5/CyLib.c **** 
 616:Generated_Source\PSoC5/CyLib.c ****     case CY_IMO_SOURCE_XTAL:
 617:Generated_Source\PSoC5/CyLib.c ****         CY_LIB_CLKDIST_CR_REG     |= CY_LIB_CLKDIST_CR_IMO2X;
 618:Generated_Source\PSoC5/CyLib.c ****         CY_LIB_FASTCLK_IMO_CR_REG |= CY_LIB_FASTCLK_IMO_IMO;
 619:Generated_Source\PSoC5/CyLib.c ****         break;
 620:Generated_Source\PSoC5/CyLib.c **** 
 621:Generated_Source\PSoC5/CyLib.c ****     case CY_IMO_SOURCE_IMO:
 622:Generated_Source\PSoC5/CyLib.c ****         CY_LIB_FASTCLK_IMO_CR_REG &= ((uint8)(~CY_LIB_FASTCLK_IMO_IMO));
 623:Generated_Source\PSoC5/CyLib.c ****         break;
 624:Generated_Source\PSoC5/CyLib.c **** 
 625:Generated_Source\PSoC5/CyLib.c ****     default:
 626:Generated_Source\PSoC5/CyLib.c ****         /* Incorrect source value */
 627:Generated_Source\PSoC5/CyLib.c ****         CYASSERT(0u != 0u);
 628:Generated_Source\PSoC5/CyLib.c ****         break;
 629:Generated_Source\PSoC5/CyLib.c ****     }
 630:Generated_Source\PSoC5/CyLib.c **** }
 631:Generated_Source\PSoC5/CyLib.c **** 
 632:Generated_Source\PSoC5/CyLib.c **** 
 633:Generated_Source\PSoC5/CyLib.c **** /*******************************************************************************
 634:Generated_Source\PSoC5/CyLib.c **** * Function Name: CyIMO_EnableDoubler
 635:Generated_Source\PSoC5/CyLib.c **** ****************************************************************************//**
 636:Generated_Source\PSoC5/CyLib.c **** *
 637:Generated_Source\PSoC5/CyLib.c **** *  Enables the IMO doubler.  The 2x frequency clock is used to convert a 24 MHz
 638:Generated_Source\PSoC5/CyLib.c **** *  input to a 48 MHz output for use by the USB block.
 639:Generated_Source\PSoC5/CyLib.c **** *
 640:Generated_Source\PSoC5/CyLib.c **** *******************************************************************************/
 641:Generated_Source\PSoC5/CyLib.c **** void CyIMO_EnableDoubler(void) 
 642:Generated_Source\PSoC5/CyLib.c **** {
 643:Generated_Source\PSoC5/CyLib.c ****     /* Set FASTCLK_IMO_CR_PTR regigster's 4th bit */
 644:Generated_Source\PSoC5/CyLib.c ****     CY_LIB_FASTCLK_IMO_CR_REG |= CY_LIB_FASTCLK_IMO_DOUBLER;
 645:Generated_Source\PSoC5/CyLib.c **** }
 646:Generated_Source\PSoC5/CyLib.c **** 
ARM GAS  C:\Users\dmarsch\AppData\Local\Temp\ccNydXIK.s 			page 14


 647:Generated_Source\PSoC5/CyLib.c **** 
 648:Generated_Source\PSoC5/CyLib.c **** /*******************************************************************************
 649:Generated_Source\PSoC5/CyLib.c **** * Function Name: CyIMO_DisableDoubler
 650:Generated_Source\PSoC5/CyLib.c **** ****************************************************************************//**
 651:Generated_Source\PSoC5/CyLib.c **** *
 652:Generated_Source\PSoC5/CyLib.c **** *   Disables the IMO doubler.
 653:Generated_Source\PSoC5/CyLib.c **** *
 654:Generated_Source\PSoC5/CyLib.c **** *******************************************************************************/
 655:Generated_Source\PSoC5/CyLib.c **** void CyIMO_DisableDoubler(void) 
 656:Generated_Source\PSoC5/CyLib.c **** {
 657:Generated_Source\PSoC5/CyLib.c ****     CY_LIB_FASTCLK_IMO_CR_REG &= ((uint8)(~CY_LIB_FASTCLK_IMO_DOUBLER));
 658:Generated_Source\PSoC5/CyLib.c **** }
 659:Generated_Source\PSoC5/CyLib.c **** 
 660:Generated_Source\PSoC5/CyLib.c **** 
 661:Generated_Source\PSoC5/CyLib.c **** /*******************************************************************************
 662:Generated_Source\PSoC5/CyLib.c **** * Function Name: CyMasterClk_SetSource
 663:Generated_Source\PSoC5/CyLib.c **** ****************************************************************************//**
 664:Generated_Source\PSoC5/CyLib.c **** *
 665:Generated_Source\PSoC5/CyLib.c **** *  Sets the source of the master clock.
 666:Generated_Source\PSoC5/CyLib.c **** *
 667:Generated_Source\PSoC5/CyLib.c **** *   \param source: One of the four available Master clock sources.
 668:Generated_Source\PSoC5/CyLib.c **** *     CY_MASTER_SOURCE_IMO
 669:Generated_Source\PSoC5/CyLib.c **** *     CY_MASTER_SOURCE_PLL
 670:Generated_Source\PSoC5/CyLib.c **** *     CY_MASTER_SOURCE_XTAL
 671:Generated_Source\PSoC5/CyLib.c **** *     CY_MASTER_SOURCE_DSI
 672:Generated_Source\PSoC5/CyLib.c **** *
 673:Generated_Source\PSoC5/CyLib.c **** * \sideeffect
 674:Generated_Source\PSoC5/CyLib.c **** *  The current source and the new source must both be running and stable before
 675:Generated_Source\PSoC5/CyLib.c **** *  calling this function.
 676:Generated_Source\PSoC5/CyLib.c **** *
 677:Generated_Source\PSoC5/CyLib.c **** *  If this function execution resulted in the CPU clock frequency increasing,
 678:Generated_Source\PSoC5/CyLib.c **** *  then the number of clock cycles the cache will wait before it samples data
 679:Generated_Source\PSoC5/CyLib.c **** *  coming back from the Flash must be adjusted by calling
 680:Generated_Source\PSoC5/CyLib.c **** *  CyFlash_SetWaitCycles() with an appropriate parameter. It can be optionally
 681:Generated_Source\PSoC5/CyLib.c **** *  called if the CPU clock frequency is lowered in order to improve the CPU
 682:Generated_Source\PSoC5/CyLib.c **** *  performance. See CyFlash_SetWaitCycles() description for more information.
 683:Generated_Source\PSoC5/CyLib.c **** *
 684:Generated_Source\PSoC5/CyLib.c **** *******************************************************************************/
 685:Generated_Source\PSoC5/CyLib.c **** void CyMasterClk_SetSource(uint8 source) 
 686:Generated_Source\PSoC5/CyLib.c **** {
 687:Generated_Source\PSoC5/CyLib.c ****     CY_LIB_CLKDIST_MSTR1_REG = (CY_LIB_CLKDIST_MSTR1_REG & MASTER_CLK_SRC_CLEAR) |
 688:Generated_Source\PSoC5/CyLib.c ****                                 (source & ((uint8)(~MASTER_CLK_SRC_CLEAR)));
 689:Generated_Source\PSoC5/CyLib.c **** }
 690:Generated_Source\PSoC5/CyLib.c **** 
 691:Generated_Source\PSoC5/CyLib.c **** 
 692:Generated_Source\PSoC5/CyLib.c **** /*******************************************************************************
 693:Generated_Source\PSoC5/CyLib.c **** * Function Name: CyMasterClk_SetDivider
 694:Generated_Source\PSoC5/CyLib.c **** ****************************************************************************//**
 695:Generated_Source\PSoC5/CyLib.c **** *
 696:Generated_Source\PSoC5/CyLib.c **** *  Sets the divider value used to generate Master Clock.
 697:Generated_Source\PSoC5/CyLib.c **** *
 698:Generated_Source\PSoC5/CyLib.c **** *  \param uint8 divider:
 699:Generated_Source\PSoC5/CyLib.c **** *   The valid range is [0-255]. The clock will be divided by this value + 1.
 700:Generated_Source\PSoC5/CyLib.c **** *   For example to divide this parameter by two should be set to 1.
 701:Generated_Source\PSoC5/CyLib.c **** *
 702:Generated_Source\PSoC5/CyLib.c **** * \sideeffect
 703:Generated_Source\PSoC5/CyLib.c **** *  If this function execution resulted in the CPU clock frequency increasing,
ARM GAS  C:\Users\dmarsch\AppData\Local\Temp\ccNydXIK.s 			page 15


 704:Generated_Source\PSoC5/CyLib.c **** *  then the number of clock cycles the cache will wait before it samples data
 705:Generated_Source\PSoC5/CyLib.c **** *  coming back from the Flash must be adjusted by calling
 706:Generated_Source\PSoC5/CyLib.c **** *  CyFlash_SetWaitCycles() with an appropriate parameter. It can be optionally
 707:Generated_Source\PSoC5/CyLib.c **** *  called if the CPU clock frequency is lowered in order to improve the CPU
 708:Generated_Source\PSoC5/CyLib.c **** *  performance. See CyFlash_SetWaitCycles() description for more information.
 709:Generated_Source\PSoC5/CyLib.c **** *
 710:Generated_Source\PSoC5/CyLib.c **** *  When changing the Master or Bus clock divider value from div-by-n to div-by-1
 711:Generated_Source\PSoC5/CyLib.c **** *  the first clock cycle output after the div-by-1 can be up to 4 ns shorter
 712:Generated_Source\PSoC5/CyLib.c **** *  than the final/expected div-by-1 period.
 713:Generated_Source\PSoC5/CyLib.c **** *
 714:Generated_Source\PSoC5/CyLib.c **** *******************************************************************************/
 715:Generated_Source\PSoC5/CyLib.c **** void CyMasterClk_SetDivider(uint8 divider) 
 716:Generated_Source\PSoC5/CyLib.c **** {
 717:Generated_Source\PSoC5/CyLib.c ****     CY_LIB_CLKDIST_MSTR0_REG = divider;
 718:Generated_Source\PSoC5/CyLib.c **** }
 719:Generated_Source\PSoC5/CyLib.c **** 
 720:Generated_Source\PSoC5/CyLib.c **** 
 721:Generated_Source\PSoC5/CyLib.c **** /*******************************************************************************
 722:Generated_Source\PSoC5/CyLib.c **** * Function Name: CyBusClk_Internal_SetDivider
 723:Generated_Source\PSoC5/CyLib.c **** ****************************************************************************//**
 724:Generated_Source\PSoC5/CyLib.c **** *
 725:Generated_Source\PSoC5/CyLib.c **** *  The function used by CyBusClk_SetDivider(). For internal use only.
 726:Generated_Source\PSoC5/CyLib.c **** *
 727:Generated_Source\PSoC5/CyLib.c **** *   \param divider: Valid range [0-65535].
 728:Generated_Source\PSoC5/CyLib.c **** *   The clock will be divided by this value + 1.
 729:Generated_Source\PSoC5/CyLib.c **** *   For example, to divide this parameter by two should be set to 1.
 730:Generated_Source\PSoC5/CyLib.c **** *
 731:Generated_Source\PSoC5/CyLib.c **** *******************************************************************************/
 732:Generated_Source\PSoC5/CyLib.c **** static void CyBusClk_Internal_SetDivider(uint16 divider)
 733:Generated_Source\PSoC5/CyLib.c **** {
  91              		.loc 1 733 0
  92              		.cfi_startproc
  93              		@ args = 0, pretend = 0, frame = 0
  94              		@ frame_needed = 0, uses_anonymous_args = 0
  95              		@ link register save eliminated.
  96              	.LVL2:
 734:Generated_Source\PSoC5/CyLib.c ****     /* Mask bits to enable shadow loads  */
 735:Generated_Source\PSoC5/CyLib.c ****     CY_LIB_CLKDIST_AMASK_REG &= CY_LIB_CLKDIST_AMASK_MASK;
  97              		.loc 1 735 0
  98 0000 0C4A     		ldr	r2, .L10
  99 0002 1378     		ldrb	r3, [r2]	@ zero_extendqisi2
 100 0004 03F0F003 		and	r3, r3, #240
 101 0008 1370     		strb	r3, [r2]
 736:Generated_Source\PSoC5/CyLib.c ****     CY_LIB_CLKDIST_DMASK_REG  = CY_LIB_CLKDIST_DMASK_MASK;
 102              		.loc 1 736 0
 103 000a 0022     		movs	r2, #0
 104 000c 0A4B     		ldr	r3, .L10+4
 105 000e 1A70     		strb	r2, [r3]
 737:Generated_Source\PSoC5/CyLib.c **** 
 738:Generated_Source\PSoC5/CyLib.c ****     /* Enable mask bits to enable shadow loads */
 739:Generated_Source\PSoC5/CyLib.c ****     CY_LIB_CLKDIST_BCFG2_REG |= CY_LIB_CLKDIST_BCFG2_MASK;
 106              		.loc 1 739 0
 107 0010 0A4A     		ldr	r2, .L10+8
 108 0012 1378     		ldrb	r3, [r2]	@ zero_extendqisi2
 109 0014 43F08003 		orr	r3, r3, #128
 110 0018 1370     		strb	r3, [r2]
 740:Generated_Source\PSoC5/CyLib.c **** 
ARM GAS  C:\Users\dmarsch\AppData\Local\Temp\ccNydXIK.s 			page 16


 741:Generated_Source\PSoC5/CyLib.c ****     /* Update Shadow Divider Value Register with new divider */
 742:Generated_Source\PSoC5/CyLib.c ****     CY_LIB_CLKDIST_WRK_LSB_REG = LO8(divider);
 111              		.loc 1 742 0
 112 001a C2B2     		uxtb	r2, r0
 113 001c 084B     		ldr	r3, .L10+12
 114 001e 1A70     		strb	r2, [r3]
 743:Generated_Source\PSoC5/CyLib.c ****     CY_LIB_CLKDIST_WRK_MSB_REG = HI8(divider);
 115              		.loc 1 743 0
 116 0020 000A     		lsrs	r0, r0, #8
 117              	.LVL3:
 118 0022 0133     		adds	r3, r3, #1
 119 0024 1870     		strb	r0, [r3]
 744:Generated_Source\PSoC5/CyLib.c **** 
 745:Generated_Source\PSoC5/CyLib.c **** 
 746:Generated_Source\PSoC5/CyLib.c ****     /***************************************************************************
 747:Generated_Source\PSoC5/CyLib.c ****     * Copy shadow value defined in Shadow Divider Value Register
 748:Generated_Source\PSoC5/CyLib.c ****     * (CY_LIB_CLKDIST_WRK_LSB_REG and CY_LIB_CLKDIST_WRK_MSB_REG) to all
 749:Generated_Source\PSoC5/CyLib.c ****     * dividers selected in Analog and Digital Clock Mask Registers
 750:Generated_Source\PSoC5/CyLib.c ****     * (CY_LIB_CLKDIST_AMASK_REG and CY_LIB_CLKDIST_DMASK_REG).
 751:Generated_Source\PSoC5/CyLib.c ****     ***************************************************************************/
 752:Generated_Source\PSoC5/CyLib.c ****     CY_LIB_CLKDIST_LD_REG |= CY_LIB_CLKDIST_LD_LOAD;
 120              		.loc 1 752 0
 121 0026 074A     		ldr	r2, .L10+16
 122 0028 1378     		ldrb	r3, [r2]	@ zero_extendqisi2
 123 002a 43F00103 		orr	r3, r3, #1
 124 002e 1370     		strb	r3, [r2]
 125 0030 7047     		bx	lr
 126              	.L11:
 127 0032 00BF     		.align	2
 128              	.L10:
 129 0034 14400040 		.word	1073758228
 130 0038 10400040 		.word	1073758224
 131 003c 08400040 		.word	1073758216
 132 0040 02400040 		.word	1073758210
 133 0044 01400040 		.word	1073758209
 134              		.cfi_endproc
 135              	.LFE14:
 136              		.size	CyBusClk_Internal_SetDivider, .-CyBusClk_Internal_SetDivider
 137              		.section	.text.CyPLL_OUT_Stop,"ax",%progbits
 138              		.align	2
 139              		.global	CyPLL_OUT_Stop
 140              		.thumb
 141              		.thumb_func
 142              		.type	CyPLL_OUT_Stop, %function
 143              	CyPLL_OUT_Stop:
 144              	.LFB1:
 155:Generated_Source\PSoC5/CyLib.c ****     CY_CLK_PLL_CFG0_REG &= ((uint8)(~CY_CLK_PLL_ENABLE));
 145              		.loc 1 155 0
 146              		.cfi_startproc
 147              		@ args = 0, pretend = 0, frame = 0
 148              		@ frame_needed = 0, uses_anonymous_args = 0
 149              		@ link register save eliminated.
 156:Generated_Source\PSoC5/CyLib.c **** }
 150              		.loc 1 156 0
 151 0000 024A     		ldr	r2, .L13
 152 0002 1378     		ldrb	r3, [r2]	@ zero_extendqisi2
 153 0004 03F0FE03 		and	r3, r3, #254
ARM GAS  C:\Users\dmarsch\AppData\Local\Temp\ccNydXIK.s 			page 17


 154 0008 1370     		strb	r3, [r2]
 155 000a 7047     		bx	lr
 156              	.L14:
 157              		.align	2
 158              	.L13:
 159 000c 20420040 		.word	1073758752
 160              		.cfi_endproc
 161              	.LFE1:
 162              		.size	CyPLL_OUT_Stop, .-CyPLL_OUT_Stop
 163              		.section	.text.CyIMO_Stop,"ax",%progbits
 164              		.align	2
 165              		.global	CyIMO_Stop
 166              		.thumb
 167              		.thumb_func
 168              		.type	CyIMO_Stop, %function
 169              	CyIMO_Stop:
 170              	.LFB5:
 325:Generated_Source\PSoC5/CyLib.c ****     CY_LIB_PM_ACT_CFG0_REG  &= ((uint8) (~CY_LIB_PM_ACT_CFG0_IMO_EN));
 171              		.loc 1 325 0
 172              		.cfi_startproc
 173              		@ args = 0, pretend = 0, frame = 0
 174              		@ frame_needed = 0, uses_anonymous_args = 0
 175              		@ link register save eliminated.
 326:Generated_Source\PSoC5/CyLib.c ****     CY_LIB_PM_STBY_CFG0_REG &= ((uint8) (~CY_LIB_PM_STBY_CFG0_IMO_EN));
 176              		.loc 1 326 0
 177 0000 054A     		ldr	r2, .L16
 178 0002 1378     		ldrb	r3, [r2]	@ zero_extendqisi2
 179 0004 03F0EF03 		and	r3, r3, #239
 180 0008 1370     		strb	r3, [r2]
 327:Generated_Source\PSoC5/CyLib.c **** }
 181              		.loc 1 327 0
 182 000a 1032     		adds	r2, r2, #16
 183 000c 1378     		ldrb	r3, [r2]	@ zero_extendqisi2
 184 000e 03F0EF03 		and	r3, r3, #239
 185 0012 1370     		strb	r3, [r2]
 186 0014 7047     		bx	lr
 187              	.L17:
 188 0016 00BF     		.align	2
 189              	.L16:
 190 0018 A0430040 		.word	1073759136
 191              		.cfi_endproc
 192              	.LFE5:
 193              		.size	CyIMO_Stop, .-CyIMO_Stop
 194              		.section	.text.CyIMO_EnableDoubler,"ax",%progbits
 195              		.align	2
 196              		.global	CyIMO_EnableDoubler
 197              		.thumb
 198              		.thumb_func
 199              		.type	CyIMO_EnableDoubler, %function
 200              	CyIMO_EnableDoubler:
 201              	.LFB10:
 642:Generated_Source\PSoC5/CyLib.c ****     /* Set FASTCLK_IMO_CR_PTR regigster's 4th bit */
 202              		.loc 1 642 0
 203              		.cfi_startproc
 204              		@ args = 0, pretend = 0, frame = 0
 205              		@ frame_needed = 0, uses_anonymous_args = 0
 206              		@ link register save eliminated.
ARM GAS  C:\Users\dmarsch\AppData\Local\Temp\ccNydXIK.s 			page 18


 644:Generated_Source\PSoC5/CyLib.c **** }
 207              		.loc 1 644 0
 208 0000 024A     		ldr	r2, .L19
 209 0002 1378     		ldrb	r3, [r2]	@ zero_extendqisi2
 210 0004 43F01003 		orr	r3, r3, #16
 211 0008 1370     		strb	r3, [r2]
 212 000a 7047     		bx	lr
 213              	.L20:
 214              		.align	2
 215              	.L19:
 216 000c 00420040 		.word	1073758720
 217              		.cfi_endproc
 218              	.LFE10:
 219              		.size	CyIMO_EnableDoubler, .-CyIMO_EnableDoubler
 220              		.section	.text.CyIMO_DisableDoubler,"ax",%progbits
 221              		.align	2
 222              		.global	CyIMO_DisableDoubler
 223              		.thumb
 224              		.thumb_func
 225              		.type	CyIMO_DisableDoubler, %function
 226              	CyIMO_DisableDoubler:
 227              	.LFB11:
 656:Generated_Source\PSoC5/CyLib.c ****     CY_LIB_FASTCLK_IMO_CR_REG &= ((uint8)(~CY_LIB_FASTCLK_IMO_DOUBLER));
 228              		.loc 1 656 0
 229              		.cfi_startproc
 230              		@ args = 0, pretend = 0, frame = 0
 231              		@ frame_needed = 0, uses_anonymous_args = 0
 232              		@ link register save eliminated.
 657:Generated_Source\PSoC5/CyLib.c **** }
 233              		.loc 1 657 0
 234 0000 024A     		ldr	r2, .L22
 235 0002 1378     		ldrb	r3, [r2]	@ zero_extendqisi2
 236 0004 03F0EF03 		and	r3, r3, #239
 237 0008 1370     		strb	r3, [r2]
 238 000a 7047     		bx	lr
 239              	.L23:
 240              		.align	2
 241              	.L22:
 242 000c 00420040 		.word	1073758720
 243              		.cfi_endproc
 244              	.LFE11:
 245              		.size	CyIMO_DisableDoubler, .-CyIMO_DisableDoubler
 246              		.section	.text.CyMasterClk_SetSource,"ax",%progbits
 247              		.align	2
 248              		.global	CyMasterClk_SetSource
 249              		.thumb
 250              		.thumb_func
 251              		.type	CyMasterClk_SetSource, %function
 252              	CyMasterClk_SetSource:
 253              	.LFB12:
 686:Generated_Source\PSoC5/CyLib.c ****     CY_LIB_CLKDIST_MSTR1_REG = (CY_LIB_CLKDIST_MSTR1_REG & MASTER_CLK_SRC_CLEAR) |
 254              		.loc 1 686 0
 255              		.cfi_startproc
 256              		@ args = 0, pretend = 0, frame = 0
 257              		@ frame_needed = 0, uses_anonymous_args = 0
 258              		@ link register save eliminated.
 259              	.LVL4:
ARM GAS  C:\Users\dmarsch\AppData\Local\Temp\ccNydXIK.s 			page 19


 687:Generated_Source\PSoC5/CyLib.c ****                                 (source & ((uint8)(~MASTER_CLK_SRC_CLEAR)));
 260              		.loc 1 687 0
 261 0000 044A     		ldr	r2, .L25
 262 0002 1378     		ldrb	r3, [r2]	@ zero_extendqisi2
 263 0004 03F0FC03 		and	r3, r3, #252
 264 0008 00F00300 		and	r0, r0, #3
 265              	.LVL5:
 266 000c 1843     		orrs	r0, r0, r3
 267 000e 1070     		strb	r0, [r2]
 268 0010 7047     		bx	lr
 269              	.L26:
 270 0012 00BF     		.align	2
 271              	.L25:
 272 0014 05400040 		.word	1073758213
 273              		.cfi_endproc
 274              	.LFE12:
 275              		.size	CyMasterClk_SetSource, .-CyMasterClk_SetSource
 276              		.section	.text.CyMasterClk_SetDivider,"ax",%progbits
 277              		.align	2
 278              		.global	CyMasterClk_SetDivider
 279              		.thumb
 280              		.thumb_func
 281              		.type	CyMasterClk_SetDivider, %function
 282              	CyMasterClk_SetDivider:
 283              	.LFB13:
 716:Generated_Source\PSoC5/CyLib.c ****     CY_LIB_CLKDIST_MSTR0_REG = divider;
 284              		.loc 1 716 0
 285              		.cfi_startproc
 286              		@ args = 0, pretend = 0, frame = 0
 287              		@ frame_needed = 0, uses_anonymous_args = 0
 288              		@ link register save eliminated.
 289              	.LVL6:
 717:Generated_Source\PSoC5/CyLib.c **** }
 290              		.loc 1 717 0
 291 0000 014B     		ldr	r3, .L28
 292 0002 1870     		strb	r0, [r3]
 293 0004 7047     		bx	lr
 294              	.L29:
 295 0006 00BF     		.align	2
 296              	.L28:
 297 0008 04400040 		.word	1073758212
 298              		.cfi_endproc
 299              	.LFE13:
 300              		.size	CyMasterClk_SetDivider, .-CyMasterClk_SetDivider
 301              		.section	.text.CyBusClk_SetDivider,"ax",%progbits
 302              		.align	2
 303              		.global	CyBusClk_SetDivider
 304              		.thumb
 305              		.thumb_func
 306              		.type	CyBusClk_SetDivider, %function
 307              	CyBusClk_SetDivider:
 308              	.LFB15:
 753:Generated_Source\PSoC5/CyLib.c **** }
 754:Generated_Source\PSoC5/CyLib.c **** 
 755:Generated_Source\PSoC5/CyLib.c **** 
 756:Generated_Source\PSoC5/CyLib.c **** /*******************************************************************************
 757:Generated_Source\PSoC5/CyLib.c **** * Function Name: CyBusClk_SetDivider
ARM GAS  C:\Users\dmarsch\AppData\Local\Temp\ccNydXIK.s 			page 20


 758:Generated_Source\PSoC5/CyLib.c **** ****************************************************************************//**
 759:Generated_Source\PSoC5/CyLib.c **** *
 760:Generated_Source\PSoC5/CyLib.c **** *  Sets the divider value used to generate the Bus Clock.
 761:Generated_Source\PSoC5/CyLib.c **** *
 762:Generated_Source\PSoC5/CyLib.c **** *  \param divider: Valid range [0-65535]. The clock will be divided by this value + 1.
 763:Generated_Source\PSoC5/CyLib.c **** *  For example, to divide this parameter by two should be set to 1.
 764:Generated_Source\PSoC5/CyLib.c **** *
 765:Generated_Source\PSoC5/CyLib.c **** * \sideeffect
 766:Generated_Source\PSoC5/CyLib.c **** *  If this function execution resulted in the CPU clock frequency increasing,
 767:Generated_Source\PSoC5/CyLib.c **** *  then the number of clock cycles the cache will wait before it samples data
 768:Generated_Source\PSoC5/CyLib.c **** *  coming back from the Flash must be adjusted by calling
 769:Generated_Source\PSoC5/CyLib.c **** *  CyFlash_SetWaitCycles() with an appropriate parameter. It can be optionally
 770:Generated_Source\PSoC5/CyLib.c **** *  called if the CPU clock frequency is lowered in order to improve the CPU
 771:Generated_Source\PSoC5/CyLib.c **** *  performance. See CyFlash_SetWaitCycles() description for more information.
 772:Generated_Source\PSoC5/CyLib.c **** *
 773:Generated_Source\PSoC5/CyLib.c **** *******************************************************************************/
 774:Generated_Source\PSoC5/CyLib.c **** void CyBusClk_SetDivider(uint16 divider) 
 775:Generated_Source\PSoC5/CyLib.c **** {
 309              		.loc 1 775 0
 310              		.cfi_startproc
 311              		@ args = 0, pretend = 0, frame = 0
 312              		@ frame_needed = 0, uses_anonymous_args = 0
 313              	.LVL7:
 314 0000 70B5     		push	{r4, r5, r6, lr}
 315              		.cfi_def_cfa_offset 16
 316              		.cfi_offset 4, -16
 317              		.cfi_offset 5, -12
 318              		.cfi_offset 6, -8
 319              		.cfi_offset 14, -4
 320 0002 0546     		mov	r5, r0
 776:Generated_Source\PSoC5/CyLib.c ****     uint8  masterClkDiv;
 777:Generated_Source\PSoC5/CyLib.c ****     uint16 busClkDiv;
 778:Generated_Source\PSoC5/CyLib.c ****     uint8 interruptState;
 779:Generated_Source\PSoC5/CyLib.c **** 
 780:Generated_Source\PSoC5/CyLib.c ****     interruptState = CyEnterCriticalSection();
 321              		.loc 1 780 0
 322 0004 FFF7FEFF 		bl	CyEnterCriticalSection
 323              	.LVL8:
 324 0008 0646     		mov	r6, r0
 325              	.LVL9:
 781:Generated_Source\PSoC5/CyLib.c **** 
 782:Generated_Source\PSoC5/CyLib.c ****     /* Work around to set bus clock divider value */
 783:Generated_Source\PSoC5/CyLib.c ****     busClkDiv = (uint16)((uint16)CY_LIB_CLKDIST_BCFG_MSB_REG << 8u);
 326              		.loc 1 783 0
 327 000a 164B     		ldr	r3, .L38
 328 000c 1A78     		ldrb	r2, [r3]	@ zero_extendqisi2
 329              	.LVL10:
 784:Generated_Source\PSoC5/CyLib.c ****     busClkDiv |= CY_LIB_CLKDIST_BCFG_LSB_REG;
 330              		.loc 1 784 0
 331 000e 013B     		subs	r3, r3, #1
 332 0010 1B78     		ldrb	r3, [r3]	@ zero_extendqisi2
 333 0012 43EA0223 		orr	r3, r3, r2, lsl #8
 334              	.LVL11:
 785:Generated_Source\PSoC5/CyLib.c **** 
 786:Generated_Source\PSoC5/CyLib.c ****     if ((divider == 0u) || (busClkDiv == 0u))
 335              		.loc 1 786 0
 336 0016 05B1     		cbz	r5, .L31
ARM GAS  C:\Users\dmarsch\AppData\Local\Temp\ccNydXIK.s 			page 21


 337              		.loc 1 786 0 is_stmt 0 discriminator 1
 338 0018 EBB9     		cbnz	r3, .L32
 339              	.L31:
 787:Generated_Source\PSoC5/CyLib.c ****     {
 788:Generated_Source\PSoC5/CyLib.c ****         /* Save away master clock divider value */
 789:Generated_Source\PSoC5/CyLib.c ****         masterClkDiv = CY_LIB_CLKDIST_MSTR0_REG;
 340              		.loc 1 789 0 is_stmt 1
 341 001a 134B     		ldr	r3, .L38+4
 342              	.LVL12:
 343 001c 1C78     		ldrb	r4, [r3]	@ zero_extendqisi2
 344 001e E4B2     		uxtb	r4, r4
 345              	.LVL13:
 790:Generated_Source\PSoC5/CyLib.c **** 
 791:Generated_Source\PSoC5/CyLib.c ****         if (masterClkDiv < CY_LIB_CLKDIST_MASTERCLK_DIV)
 346              		.loc 1 791 0
 347 0020 062C     		cmp	r4, #6
 348 0022 02D8     		bhi	.L33
 792:Generated_Source\PSoC5/CyLib.c ****         {
 793:Generated_Source\PSoC5/CyLib.c ****             /* Set master clock divider to 7 */
 794:Generated_Source\PSoC5/CyLib.c ****             CyMasterClk_SetDivider(CY_LIB_CLKDIST_MASTERCLK_DIV);
 349              		.loc 1 794 0
 350 0024 0720     		movs	r0, #7
 351 0026 FFF7FEFF 		bl	CyMasterClk_SetDivider
 352              	.LVL14:
 353              	.L33:
 795:Generated_Source\PSoC5/CyLib.c ****         }
 796:Generated_Source\PSoC5/CyLib.c **** 
 797:Generated_Source\PSoC5/CyLib.c ****         if (divider == 0u)
 354              		.loc 1 797 0
 355 002a 45B9     		cbnz	r5, .L34
 798:Generated_Source\PSoC5/CyLib.c ****         {
 799:Generated_Source\PSoC5/CyLib.c ****             /* Set SSS bit and divider register desired value */
 800:Generated_Source\PSoC5/CyLib.c ****             CY_LIB_CLKDIST_BCFG2_REG |= CY_LIB_CLKDIST_BCFG2_SSS;
 356              		.loc 1 800 0
 357 002c 0F4A     		ldr	r2, .L38+8
 358 002e 1378     		ldrb	r3, [r2]	@ zero_extendqisi2
 359 0030 43F04003 		orr	r3, r3, #64
 360 0034 1370     		strb	r3, [r2]
 801:Generated_Source\PSoC5/CyLib.c ****             CyBusClk_Internal_SetDivider(divider);
 361              		.loc 1 801 0
 362 0036 2846     		mov	r0, r5
 363 0038 FFF7FEFF 		bl	CyBusClk_Internal_SetDivider
 364              	.LVL15:
 365 003c 07E0     		b	.L35
 366              	.L34:
 802:Generated_Source\PSoC5/CyLib.c ****         }
 803:Generated_Source\PSoC5/CyLib.c ****         else
 804:Generated_Source\PSoC5/CyLib.c ****         {
 805:Generated_Source\PSoC5/CyLib.c ****             CyBusClk_Internal_SetDivider(divider);
 367              		.loc 1 805 0
 368 003e 2846     		mov	r0, r5
 369 0040 FFF7FEFF 		bl	CyBusClk_Internal_SetDivider
 370              	.LVL16:
 806:Generated_Source\PSoC5/CyLib.c ****             CY_LIB_CLKDIST_BCFG2_REG &= ((uint8)(~CY_LIB_CLKDIST_BCFG2_SSS));
 371              		.loc 1 806 0
 372 0044 094A     		ldr	r2, .L38+8
 373 0046 1378     		ldrb	r3, [r2]	@ zero_extendqisi2
ARM GAS  C:\Users\dmarsch\AppData\Local\Temp\ccNydXIK.s 			page 22


 374 0048 03F0BF03 		and	r3, r3, #191
 375 004c 1370     		strb	r3, [r2]
 376              	.L35:
 807:Generated_Source\PSoC5/CyLib.c ****         }
 808:Generated_Source\PSoC5/CyLib.c **** 
 809:Generated_Source\PSoC5/CyLib.c ****         /* Restore master clock */
 810:Generated_Source\PSoC5/CyLib.c ****         CyMasterClk_SetDivider(masterClkDiv);
 377              		.loc 1 810 0
 378 004e 2046     		mov	r0, r4
 379 0050 FFF7FEFF 		bl	CyMasterClk_SetDivider
 380              	.LVL17:
 381 0054 02E0     		b	.L36
 382              	.LVL18:
 383              	.L32:
 811:Generated_Source\PSoC5/CyLib.c ****     }
 812:Generated_Source\PSoC5/CyLib.c ****     else
 813:Generated_Source\PSoC5/CyLib.c ****     {
 814:Generated_Source\PSoC5/CyLib.c ****         CyBusClk_Internal_SetDivider(divider);
 384              		.loc 1 814 0
 385 0056 2846     		mov	r0, r5
 386 0058 FFF7FEFF 		bl	CyBusClk_Internal_SetDivider
 387              	.LVL19:
 388              	.L36:
 815:Generated_Source\PSoC5/CyLib.c ****     }
 816:Generated_Source\PSoC5/CyLib.c **** 
 817:Generated_Source\PSoC5/CyLib.c ****     CyExitCriticalSection(interruptState);
 389              		.loc 1 817 0
 390 005c 3046     		mov	r0, r6
 391 005e FFF7FEFF 		bl	CyExitCriticalSection
 392              	.LVL20:
 393 0062 70BD     		pop	{r4, r5, r6, pc}
 394              	.LVL21:
 395              	.L39:
 396              		.align	2
 397              	.L38:
 398 0064 07400040 		.word	1073758215
 399 0068 04400040 		.word	1073758212
 400 006c 08400040 		.word	1073758216
 401              		.cfi_endproc
 402              	.LFE15:
 403              		.size	CyBusClk_SetDivider, .-CyBusClk_SetDivider
 404              		.section	.text.CyUsbClk_SetSource,"ax",%progbits
 405              		.align	2
 406              		.global	CyUsbClk_SetSource
 407              		.thumb
 408              		.thumb_func
 409              		.type	CyUsbClk_SetSource, %function
 410              	CyUsbClk_SetSource:
 411              	.LFB16:
 818:Generated_Source\PSoC5/CyLib.c **** }
 819:Generated_Source\PSoC5/CyLib.c **** 
 820:Generated_Source\PSoC5/CyLib.c **** 
 821:Generated_Source\PSoC5/CyLib.c **** #if(CY_PSOC3)
 822:Generated_Source\PSoC5/CyLib.c **** 
 823:Generated_Source\PSoC5/CyLib.c ****     /*******************************************************************************
 824:Generated_Source\PSoC5/CyLib.c ****     * Function Name: CyCpuClk_SetDivider
 825:Generated_Source\PSoC5/CyLib.c ****     ****************************************************************************//**
ARM GAS  C:\Users\dmarsch\AppData\Local\Temp\ccNydXIK.s 			page 23


 826:Generated_Source\PSoC5/CyLib.c ****     *
 827:Generated_Source\PSoC5/CyLib.c ****     *  Sets the divider value used to generate the CPU Clock. Only applicable for
 828:Generated_Source\PSoC5/CyLib.c ****     *  PSoC 3 parts.
 829:Generated_Source\PSoC5/CyLib.c ****     *
 830:Generated_Source\PSoC5/CyLib.c ****     *  \param divider: Valid range [0-15]. The clock will be divided by this value + 1.
 831:Generated_Source\PSoC5/CyLib.c ****     *  For example, to divide this parameter by two should be set to 1.
 832:Generated_Source\PSoC5/CyLib.c ****     *
 833:Generated_Source\PSoC5/CyLib.c ****     * \sideeffect
 834:Generated_Source\PSoC5/CyLib.c ****     *  If this function execution resulted in the CPU clock frequency increasing,
 835:Generated_Source\PSoC5/CyLib.c ****     *  then the number of clock cycles the cache will wait before it samples data
 836:Generated_Source\PSoC5/CyLib.c ****     *  coming back from the Flash must be adjusted by calling
 837:Generated_Source\PSoC5/CyLib.c ****     *  CyFlash_SetWaitCycles() with an appropriate parameter. It can be optionally
 838:Generated_Source\PSoC5/CyLib.c ****     *  called if the CPU clock frequency is lowered in order to improve the CPU
 839:Generated_Source\PSoC5/CyLib.c ****     *  performance. See CyFlash_SetWaitCycles() description for more information.
 840:Generated_Source\PSoC5/CyLib.c ****     *
 841:Generated_Source\PSoC5/CyLib.c ****     *******************************************************************************/
 842:Generated_Source\PSoC5/CyLib.c ****     void CyCpuClk_SetDivider(uint8 divider) 
 843:Generated_Source\PSoC5/CyLib.c ****     {
 844:Generated_Source\PSoC5/CyLib.c ****             CY_LIB_CLKDIST_MSTR1_REG = (CY_LIB_CLKDIST_MSTR1_REG & CY_LIB_CLKDIST_MSTR1_DIV_MASK) |
 845:Generated_Source\PSoC5/CyLib.c ****                                 ((uint8)(divider << CY_LIB_CLKDIST_DIV_POSITION));
 846:Generated_Source\PSoC5/CyLib.c ****     }
 847:Generated_Source\PSoC5/CyLib.c **** 
 848:Generated_Source\PSoC5/CyLib.c **** #endif /* (CY_PSOC3) */
 849:Generated_Source\PSoC5/CyLib.c **** 
 850:Generated_Source\PSoC5/CyLib.c **** 
 851:Generated_Source\PSoC5/CyLib.c **** /*******************************************************************************
 852:Generated_Source\PSoC5/CyLib.c **** * Function Name: CyUsbClk_SetSource
 853:Generated_Source\PSoC5/CyLib.c **** ****************************************************************************//**
 854:Generated_Source\PSoC5/CyLib.c **** *
 855:Generated_Source\PSoC5/CyLib.c **** *  Sets the source of the USB clock.
 856:Generated_Source\PSoC5/CyLib.c **** *
 857:Generated_Source\PSoC5/CyLib.c **** *  \param source: One of the four available USB clock sources
 858:Generated_Source\PSoC5/CyLib.c **** *    CY_LIB_USB_CLK_IMO2X     - IMO 2x
 859:Generated_Source\PSoC5/CyLib.c **** *    CY_LIB_USB_CLK_IMO       - IMO
 860:Generated_Source\PSoC5/CyLib.c **** *    CY_LIB_USB_CLK_PLL       - PLL
 861:Generated_Source\PSoC5/CyLib.c **** *    CY_LIB_USB_CLK_DSI       - DSI
 862:Generated_Source\PSoC5/CyLib.c **** *
 863:Generated_Source\PSoC5/CyLib.c **** *******************************************************************************/
 864:Generated_Source\PSoC5/CyLib.c **** void CyUsbClk_SetSource(uint8 source) 
 865:Generated_Source\PSoC5/CyLib.c **** {
 412              		.loc 1 865 0
 413              		.cfi_startproc
 414              		@ args = 0, pretend = 0, frame = 0
 415              		@ frame_needed = 0, uses_anonymous_args = 0
 416              		@ link register save eliminated.
 417              	.LVL22:
 866:Generated_Source\PSoC5/CyLib.c ****     CY_LIB_CLKDIST_UCFG_REG = (CY_LIB_CLKDIST_UCFG_REG & ((uint8)(~CY_LIB_CLKDIST_UCFG_SRC_SEL_MASK
 418              		.loc 1 866 0
 419 0000 044A     		ldr	r2, .L41
 420 0002 1378     		ldrb	r3, [r2]	@ zero_extendqisi2
 421 0004 03F0FC03 		and	r3, r3, #252
 422 0008 00F00300 		and	r0, r0, #3
 423              	.LVL23:
 424 000c 1843     		orrs	r0, r0, r3
 425 000e 1070     		strb	r0, [r2]
 426 0010 7047     		bx	lr
 427              	.L42:
ARM GAS  C:\Users\dmarsch\AppData\Local\Temp\ccNydXIK.s 			page 24


 428 0012 00BF     		.align	2
 429              	.L41:
 430 0014 09400040 		.word	1073758217
 431              		.cfi_endproc
 432              	.LFE16:
 433              		.size	CyUsbClk_SetSource, .-CyUsbClk_SetSource
 434              		.section	.text.CyILO_Start1K,"ax",%progbits
 435              		.align	2
 436              		.global	CyILO_Start1K
 437              		.thumb
 438              		.thumb_func
 439              		.type	CyILO_Start1K, %function
 440              	CyILO_Start1K:
 441              	.LFB17:
 867:Generated_Source\PSoC5/CyLib.c ****                         (CY_LIB_CLKDIST_UCFG_SRC_SEL_MASK & source);
 868:Generated_Source\PSoC5/CyLib.c **** }
 869:Generated_Source\PSoC5/CyLib.c **** 
 870:Generated_Source\PSoC5/CyLib.c **** 
 871:Generated_Source\PSoC5/CyLib.c **** /*******************************************************************************
 872:Generated_Source\PSoC5/CyLib.c **** * Function Name: CyILO_Start1K
 873:Generated_Source\PSoC5/CyLib.c **** ****************************************************************************//**
 874:Generated_Source\PSoC5/CyLib.c **** *
 875:Generated_Source\PSoC5/CyLib.c **** *  Enables the ILO 1 KHz oscillator.
 876:Generated_Source\PSoC5/CyLib.c **** *
 877:Generated_Source\PSoC5/CyLib.c **** *  Note The ILO 1 KHz oscillator is always enabled by default, regardless of the
 878:Generated_Source\PSoC5/CyLib.c **** *  selection in the Clock Editor. Therefore, this API is only needed if the
 879:Generated_Source\PSoC5/CyLib.c **** *  oscillator was turned off manually.
 880:Generated_Source\PSoC5/CyLib.c **** *
 881:Generated_Source\PSoC5/CyLib.c **** *******************************************************************************/
 882:Generated_Source\PSoC5/CyLib.c **** void CyILO_Start1K(void) 
 883:Generated_Source\PSoC5/CyLib.c **** {
 442              		.loc 1 883 0
 443              		.cfi_startproc
 444              		@ args = 0, pretend = 0, frame = 0
 445              		@ frame_needed = 0, uses_anonymous_args = 0
 446              		@ link register save eliminated.
 884:Generated_Source\PSoC5/CyLib.c ****     /* Set bit 1 of ILO RS */
 885:Generated_Source\PSoC5/CyLib.c ****     CY_LIB_SLOWCLK_ILO_CR0_REG |= CY_LIB_SLOWCLK_ILO_CR0_EN_1KHZ;
 447              		.loc 1 885 0
 448 0000 024A     		ldr	r2, .L44
 449 0002 1378     		ldrb	r3, [r2]	@ zero_extendqisi2
 450 0004 43F00203 		orr	r3, r3, #2
 451 0008 1370     		strb	r3, [r2]
 452 000a 7047     		bx	lr
 453              	.L45:
 454              		.align	2
 455              	.L44:
 456 000c 00430040 		.word	1073758976
 457              		.cfi_endproc
 458              	.LFE17:
 459              		.size	CyILO_Start1K, .-CyILO_Start1K
 460              		.section	.text.CyILO_Stop1K,"ax",%progbits
 461              		.align	2
 462              		.global	CyILO_Stop1K
 463              		.thumb
 464              		.thumb_func
 465              		.type	CyILO_Stop1K, %function
ARM GAS  C:\Users\dmarsch\AppData\Local\Temp\ccNydXIK.s 			page 25


 466              	CyILO_Stop1K:
 467              	.LFB18:
 886:Generated_Source\PSoC5/CyLib.c **** }
 887:Generated_Source\PSoC5/CyLib.c **** 
 888:Generated_Source\PSoC5/CyLib.c **** 
 889:Generated_Source\PSoC5/CyLib.c **** /*******************************************************************************
 890:Generated_Source\PSoC5/CyLib.c **** * Function Name: CyILO_Stop1K
 891:Generated_Source\PSoC5/CyLib.c **** ****************************************************************************//**
 892:Generated_Source\PSoC5/CyLib.c **** *
 893:Generated_Source\PSoC5/CyLib.c **** *  Disables the ILO 1 KHz oscillator.
 894:Generated_Source\PSoC5/CyLib.c **** *
 895:Generated_Source\PSoC5/CyLib.c **** *  Note The ILO 1 KHz oscillator must be enabled if the Sleep or Hibernate low
 896:Generated_Source\PSoC5/CyLib.c **** *  power mode APIs are expected to be used. For more information, refer to the
 897:Generated_Source\PSoC5/CyLib.c **** *  Power Management section of this document.
 898:Generated_Source\PSoC5/CyLib.c **** *
 899:Generated_Source\PSoC5/CyLib.c **** * \sideeffect
 900:Generated_Source\PSoC5/CyLib.c **** *  PSoC5: Stopping the ILO 1 kHz could break the active WDT functionality.
 901:Generated_Source\PSoC5/CyLib.c **** *
 902:Generated_Source\PSoC5/CyLib.c **** *******************************************************************************/
 903:Generated_Source\PSoC5/CyLib.c **** void CyILO_Stop1K(void) 
 904:Generated_Source\PSoC5/CyLib.c **** {
 468              		.loc 1 904 0
 469              		.cfi_startproc
 470              		@ args = 0, pretend = 0, frame = 0
 471              		@ frame_needed = 0, uses_anonymous_args = 0
 472              		@ link register save eliminated.
 905:Generated_Source\PSoC5/CyLib.c ****     /* Clear bit 1 of ILO RS */
 906:Generated_Source\PSoC5/CyLib.c ****     CY_LIB_SLOWCLK_ILO_CR0_REG &= ((uint8)(~CY_LIB_SLOWCLK_ILO_CR0_EN_1KHZ));
 473              		.loc 1 906 0
 474 0000 024A     		ldr	r2, .L47
 475 0002 1378     		ldrb	r3, [r2]	@ zero_extendqisi2
 476 0004 03F0FD03 		and	r3, r3, #253
 477 0008 1370     		strb	r3, [r2]
 478 000a 7047     		bx	lr
 479              	.L48:
 480              		.align	2
 481              	.L47:
 482 000c 00430040 		.word	1073758976
 483              		.cfi_endproc
 484              	.LFE18:
 485              		.size	CyILO_Stop1K, .-CyILO_Stop1K
 486              		.section	.text.CyILO_Start100K,"ax",%progbits
 487              		.align	2
 488              		.global	CyILO_Start100K
 489              		.thumb
 490              		.thumb_func
 491              		.type	CyILO_Start100K, %function
 492              	CyILO_Start100K:
 493              	.LFB19:
 907:Generated_Source\PSoC5/CyLib.c **** }
 908:Generated_Source\PSoC5/CyLib.c **** 
 909:Generated_Source\PSoC5/CyLib.c **** 
 910:Generated_Source\PSoC5/CyLib.c **** /*******************************************************************************
 911:Generated_Source\PSoC5/CyLib.c **** * Function Name: CyILO_Start100K
 912:Generated_Source\PSoC5/CyLib.c **** ****************************************************************************//**
 913:Generated_Source\PSoC5/CyLib.c **** *
 914:Generated_Source\PSoC5/CyLib.c **** *  Enables the ILO 100 KHz oscillator.
ARM GAS  C:\Users\dmarsch\AppData\Local\Temp\ccNydXIK.s 			page 26


 915:Generated_Source\PSoC5/CyLib.c **** *
 916:Generated_Source\PSoC5/CyLib.c **** *******************************************************************************/
 917:Generated_Source\PSoC5/CyLib.c **** void CyILO_Start100K(void) 
 918:Generated_Source\PSoC5/CyLib.c **** {
 494              		.loc 1 918 0
 495              		.cfi_startproc
 496              		@ args = 0, pretend = 0, frame = 0
 497              		@ frame_needed = 0, uses_anonymous_args = 0
 498              		@ link register save eliminated.
 919:Generated_Source\PSoC5/CyLib.c ****     CY_LIB_SLOWCLK_ILO_CR0_REG |= CY_LIB_SLOWCLK_ILO_CR0_EN_100KHZ;
 499              		.loc 1 919 0
 500 0000 024A     		ldr	r2, .L50
 501 0002 1378     		ldrb	r3, [r2]	@ zero_extendqisi2
 502 0004 43F00403 		orr	r3, r3, #4
 503 0008 1370     		strb	r3, [r2]
 504 000a 7047     		bx	lr
 505              	.L51:
 506              		.align	2
 507              	.L50:
 508 000c 00430040 		.word	1073758976
 509              		.cfi_endproc
 510              	.LFE19:
 511              		.size	CyILO_Start100K, .-CyILO_Start100K
 512              		.section	.text.CyILO_Stop100K,"ax",%progbits
 513              		.align	2
 514              		.global	CyILO_Stop100K
 515              		.thumb
 516              		.thumb_func
 517              		.type	CyILO_Stop100K, %function
 518              	CyILO_Stop100K:
 519              	.LFB20:
 920:Generated_Source\PSoC5/CyLib.c **** }
 921:Generated_Source\PSoC5/CyLib.c **** 
 922:Generated_Source\PSoC5/CyLib.c **** 
 923:Generated_Source\PSoC5/CyLib.c **** /*******************************************************************************
 924:Generated_Source\PSoC5/CyLib.c **** * Function Name: CyILO_Stop100K
 925:Generated_Source\PSoC5/CyLib.c **** ****************************************************************************//**
 926:Generated_Source\PSoC5/CyLib.c **** *
 927:Generated_Source\PSoC5/CyLib.c **** *  Disables the ILO 100 KHz oscillator.
 928:Generated_Source\PSoC5/CyLib.c **** *
 929:Generated_Source\PSoC5/CyLib.c **** *******************************************************************************/
 930:Generated_Source\PSoC5/CyLib.c **** void CyILO_Stop100K(void) 
 931:Generated_Source\PSoC5/CyLib.c **** {
 520              		.loc 1 931 0
 521              		.cfi_startproc
 522              		@ args = 0, pretend = 0, frame = 0
 523              		@ frame_needed = 0, uses_anonymous_args = 0
 524              		@ link register save eliminated.
 932:Generated_Source\PSoC5/CyLib.c ****     CY_LIB_SLOWCLK_ILO_CR0_REG &= ((uint8)(~CY_LIB_SLOWCLK_ILO_CR0_EN_100KHZ));
 525              		.loc 1 932 0
 526 0000 024A     		ldr	r2, .L53
 527 0002 1378     		ldrb	r3, [r2]	@ zero_extendqisi2
 528 0004 03F0FB03 		and	r3, r3, #251
 529 0008 1370     		strb	r3, [r2]
 530 000a 7047     		bx	lr
 531              	.L54:
 532              		.align	2
ARM GAS  C:\Users\dmarsch\AppData\Local\Temp\ccNydXIK.s 			page 27


 533              	.L53:
 534 000c 00430040 		.word	1073758976
 535              		.cfi_endproc
 536              	.LFE20:
 537              		.size	CyILO_Stop100K, .-CyILO_Stop100K
 538              		.section	.text.CyPLL_OUT_Start,"ax",%progbits
 539              		.align	2
 540              		.global	CyPLL_OUT_Start
 541              		.thumb
 542              		.thumb_func
 543              		.type	CyPLL_OUT_Start, %function
 544              	CyPLL_OUT_Start:
 545              	.LFB0:
  98:Generated_Source\PSoC5/CyLib.c ****     cystatus status = CYRET_SUCCESS;
 546              		.loc 1 98 0
 547              		.cfi_startproc
 548              		@ args = 0, pretend = 0, frame = 0
 549              		@ frame_needed = 0, uses_anonymous_args = 0
 550              	.LVL24:
 551 0000 F8B5     		push	{r3, r4, r5, r6, r7, lr}
 552              		.cfi_def_cfa_offset 24
 553              		.cfi_offset 3, -24
 554              		.cfi_offset 4, -20
 555              		.cfi_offset 5, -16
 556              		.cfi_offset 6, -12
 557              		.cfi_offset 7, -8
 558              		.cfi_offset 14, -4
 559              	.LVL25:
 107:Generated_Source\PSoC5/CyLib.c **** 
 560              		.loc 1 107 0
 561 0002 194A     		ldr	r2, .L64
 562 0004 1378     		ldrb	r3, [r2]	@ zero_extendqisi2
 563 0006 43F00103 		orr	r3, r3, #1
 564 000a 1370     		strb	r3, [r2]
 109:Generated_Source\PSoC5/CyLib.c ****     {
 565              		.loc 1 109 0
 566 000c 48B3     		cbz	r0, .L61
 112:Generated_Source\PSoC5/CyLib.c ****         pmTwCfg0State = CY_LIB_PM_TW_CFG0_REG;
 567              		.loc 1 112 0
 568 000e 174B     		ldr	r3, .L64+4
 569 0010 1C78     		ldrb	r4, [r3]	@ zero_extendqisi2
 570 0012 04F00404 		and	r4, r4, #4
 571 0016 E4B2     		uxtb	r4, r4
 572              	.LVL26:
 113:Generated_Source\PSoC5/CyLib.c ****         pmTwCfg2State = CY_LIB_PM_TW_CFG2_REG;
 573              		.loc 1 113 0
 574 0018 8033     		adds	r3, r3, #128
 575 001a 1F78     		ldrb	r7, [r3]	@ zero_extendqisi2
 576 001c FFB2     		uxtb	r7, r7
 577              	.LVL27:
 114:Generated_Source\PSoC5/CyLib.c **** 
 578              		.loc 1 114 0
 579 001e 0233     		adds	r3, r3, #2
 580 0020 1E78     		ldrb	r6, [r3]	@ zero_extendqisi2
 581 0022 F6B2     		uxtb	r6, r6
 582              	.LVL28:
 116:Generated_Source\PSoC5/CyLib.c **** 
ARM GAS  C:\Users\dmarsch\AppData\Local\Temp\ccNydXIK.s 			page 28


 583              		.loc 1 116 0
 584 0024 1820     		movs	r0, #24
 585              	.LVL29:
 586 0026 FFF7FEFF 		bl	CyPmFtwSetInterval
 587              	.LVL30:
 120:Generated_Source\PSoC5/CyLib.c ****         {
 588              		.loc 1 120 0
 589 002a 09E0     		b	.L57
 590              	.L59:
 123:Generated_Source\PSoC5/CyLib.c ****             {
 591              		.loc 1 123 0
 592 002c 104B     		ldr	r3, .L64+8
 593 002e 1B78     		ldrb	r3, [r3]	@ zero_extendqisi2
 594 0030 13F0010F 		tst	r3, #1
 595 0034 04D0     		beq	.L57
 125:Generated_Source\PSoC5/CyLib.c ****                 {
 596              		.loc 1 125 0
 597 0036 0E4B     		ldr	r3, .L64+8
 598 0038 1B78     		ldrb	r3, [r3]	@ zero_extendqisi2
 599 003a 13F0010F 		tst	r3, #1
 600 003e 07D1     		bne	.L62
 601              	.L57:
 120:Generated_Source\PSoC5/CyLib.c ****         {
 602              		.loc 1 120 0
 603 0040 0120     		movs	r0, #1
 604 0042 FFF7FEFF 		bl	CyPmReadStatus
 605              	.LVL31:
 606 0046 10F0010F 		tst	r0, #1
 607 004a EFD0     		beq	.L59
 118:Generated_Source\PSoC5/CyLib.c **** 
 608              		.loc 1 118 0
 609 004c 1025     		movs	r5, #16
 610 004e 00E0     		b	.L58
 611              	.L62:
 127:Generated_Source\PSoC5/CyLib.c ****                     break;
 612              		.loc 1 127 0
 613 0050 0025     		movs	r5, #0
 614              	.L58:
 615              	.LVL32:
 134:Generated_Source\PSoC5/CyLib.c ****         {
 616              		.loc 1 134 0
 617 0052 0CB9     		cbnz	r4, .L60
 136:Generated_Source\PSoC5/CyLib.c ****         }
 618              		.loc 1 136 0
 619 0054 FFF7FEFF 		bl	CyILO_Stop100K
 620              	.LVL33:
 621              	.L60:
 139:Generated_Source\PSoC5/CyLib.c ****         CY_LIB_PM_TW_CFG2_REG = pmTwCfg2State;
 622              		.loc 1 139 0
 623 0058 064B     		ldr	r3, .L64+12
 624 005a 1F70     		strb	r7, [r3]
 140:Generated_Source\PSoC5/CyLib.c ****     }
 625              		.loc 1 140 0
 626 005c 0233     		adds	r3, r3, #2
 627 005e 1E70     		strb	r6, [r3]
 628 0060 00E0     		b	.L56
 629              	.LVL34:
ARM GAS  C:\Users\dmarsch\AppData\Local\Temp\ccNydXIK.s 			page 29


 630              	.L61:
  99:Generated_Source\PSoC5/CyLib.c **** 
 631              		.loc 1 99 0
 632 0062 0025     		movs	r5, #0
 633              	.LVL35:
 634              	.L56:
 144:Generated_Source\PSoC5/CyLib.c **** 
 635              		.loc 1 144 0
 636 0064 2846     		mov	r0, r5
 637 0066 F8BD     		pop	{r3, r4, r5, r6, r7, pc}
 638              	.LVL36:
 639              	.L65:
 640              		.align	2
 641              	.L64:
 642 0068 20420040 		.word	1073758752
 643 006c 00430040 		.word	1073758976
 644 0070 25420040 		.word	1073758757
 645 0074 80430040 		.word	1073759104
 646              		.cfi_endproc
 647              	.LFE0:
 648              		.size	CyPLL_OUT_Start, .-CyPLL_OUT_Start
 649              		.section	.text.CyIMO_Start,"ax",%progbits
 650              		.align	2
 651              		.global	CyIMO_Start
 652              		.thumb
 653              		.thumb_func
 654              		.type	CyIMO_Start, %function
 655              	CyIMO_Start:
 656              	.LFB4:
 283:Generated_Source\PSoC5/CyLib.c ****     uint8 pmFtwCfg2Reg;
 657              		.loc 1 283 0
 658              		.cfi_startproc
 659              		@ args = 0, pretend = 0, frame = 0
 660              		@ frame_needed = 0, uses_anonymous_args = 0
 661              	.LVL37:
 289:Generated_Source\PSoC5/CyLib.c ****     CY_LIB_PM_STBY_CFG0_REG |= CY_LIB_PM_STBY_CFG0_IMO_EN;
 662              		.loc 1 289 0
 663 0000 144A     		ldr	r2, .L72
 664 0002 1378     		ldrb	r3, [r2]	@ zero_extendqisi2
 665 0004 43F01003 		orr	r3, r3, #16
 666 0008 1370     		strb	r3, [r2]
 290:Generated_Source\PSoC5/CyLib.c **** 
 667              		.loc 1 290 0
 668 000a 1032     		adds	r2, r2, #16
 669 000c 1378     		ldrb	r3, [r2]	@ zero_extendqisi2
 670 000e 43F01003 		orr	r3, r3, #16
 671 0012 1370     		strb	r3, [r2]
 292:Generated_Source\PSoC5/CyLib.c ****     {
 672              		.loc 1 292 0
 673 0014 E0B1     		cbz	r0, .L71
 283:Generated_Source\PSoC5/CyLib.c ****     uint8 pmFtwCfg2Reg;
 674              		.loc 1 283 0
 675 0016 70B5     		push	{r4, r5, r6, lr}
 676              		.cfi_def_cfa_offset 16
 677              		.cfi_offset 4, -16
 678              		.cfi_offset 5, -12
 679              		.cfi_offset 6, -8
ARM GAS  C:\Users\dmarsch\AppData\Local\Temp\ccNydXIK.s 			page 30


 680              		.cfi_offset 14, -4
 295:Generated_Source\PSoC5/CyLib.c ****         pmFtwCfg0Reg = CY_LIB_PM_TW_CFG0_REG;
 681              		.loc 1 295 0
 682 0018 0F4B     		ldr	r3, .L72+4
 683 001a 1C78     		ldrb	r4, [r3]	@ zero_extendqisi2
 684 001c 04F00404 		and	r4, r4, #4
 685 0020 E4B2     		uxtb	r4, r4
 686              	.LVL38:
 296:Generated_Source\PSoC5/CyLib.c ****         pmFtwCfg2Reg = CY_LIB_PM_TW_CFG2_REG;
 687              		.loc 1 296 0
 688 0022 8033     		adds	r3, r3, #128
 689 0024 1E78     		ldrb	r6, [r3]	@ zero_extendqisi2
 690 0026 F6B2     		uxtb	r6, r6
 691              	.LVL39:
 297:Generated_Source\PSoC5/CyLib.c **** 
 692              		.loc 1 297 0
 693 0028 0233     		adds	r3, r3, #2
 694 002a 1D78     		ldrb	r5, [r3]	@ zero_extendqisi2
 695 002c EDB2     		uxtb	r5, r5
 696              	.LVL40:
 299:Generated_Source\PSoC5/CyLib.c **** 
 697              		.loc 1 299 0
 698 002e 0020     		movs	r0, #0
 699              	.LVL41:
 700 0030 FFF7FEFF 		bl	CyPmFtwSetInterval
 701              	.LVL42:
 702              	.L68:
 301:Generated_Source\PSoC5/CyLib.c ****         {
 703              		.loc 1 301 0 discriminator 1
 704 0034 0120     		movs	r0, #1
 705 0036 FFF7FEFF 		bl	CyPmReadStatus
 706              	.LVL43:
 707 003a 10F0010F 		tst	r0, #1
 708 003e F9D0     		beq	.L68
 306:Generated_Source\PSoC5/CyLib.c ****         {
 709              		.loc 1 306 0
 710 0040 0CB9     		cbnz	r4, .L69
 308:Generated_Source\PSoC5/CyLib.c ****         }
 711              		.loc 1 308 0
 712 0042 FFF7FEFF 		bl	CyILO_Stop100K
 713              	.LVL44:
 714              	.L69:
 311:Generated_Source\PSoC5/CyLib.c ****         CY_LIB_PM_TW_CFG2_REG = pmFtwCfg2Reg;
 715              		.loc 1 311 0
 716 0046 054B     		ldr	r3, .L72+8
 717 0048 1E70     		strb	r6, [r3]
 312:Generated_Source\PSoC5/CyLib.c ****     }
 718              		.loc 1 312 0
 719 004a 0233     		adds	r3, r3, #2
 720 004c 1D70     		strb	r5, [r3]
 721 004e 70BD     		pop	{r4, r5, r6, pc}
 722              	.LVL45:
 723              	.L71:
 724              		.cfi_def_cfa_offset 0
 725              		.cfi_restore 4
 726              		.cfi_restore 5
 727              		.cfi_restore 6
ARM GAS  C:\Users\dmarsch\AppData\Local\Temp\ccNydXIK.s 			page 31


 728              		.cfi_restore 14
 729 0050 7047     		bx	lr
 730              	.L73:
 731 0052 00BF     		.align	2
 732              	.L72:
 733 0054 A0430040 		.word	1073759136
 734 0058 00430040 		.word	1073758976
 735 005c 80430040 		.word	1073759104
 736              		.cfi_endproc
 737              	.LFE4:
 738              		.size	CyIMO_Start, .-CyIMO_Start
 739              		.section	.text.CyILO_Enable33K,"ax",%progbits
 740              		.align	2
 741              		.global	CyILO_Enable33K
 742              		.thumb
 743              		.thumb_func
 744              		.type	CyILO_Enable33K, %function
 745              	CyILO_Enable33K:
 746              	.LFB21:
 933:Generated_Source\PSoC5/CyLib.c **** }
 934:Generated_Source\PSoC5/CyLib.c **** 
 935:Generated_Source\PSoC5/CyLib.c **** 
 936:Generated_Source\PSoC5/CyLib.c **** /*******************************************************************************
 937:Generated_Source\PSoC5/CyLib.c **** * Function Name: CyILO_Enable33K
 938:Generated_Source\PSoC5/CyLib.c **** ****************************************************************************//**
 939:Generated_Source\PSoC5/CyLib.c **** *
 940:Generated_Source\PSoC5/CyLib.c **** *  Enables the ILO 33 KHz divider.
 941:Generated_Source\PSoC5/CyLib.c **** *
 942:Generated_Source\PSoC5/CyLib.c **** *  Note that the 33 KHz clock is generated from the 100 KHz oscillator,
 943:Generated_Source\PSoC5/CyLib.c **** *  so it must also be running in order to generate the 33 KHz output.
 944:Generated_Source\PSoC5/CyLib.c **** *
 945:Generated_Source\PSoC5/CyLib.c **** *******************************************************************************/
 946:Generated_Source\PSoC5/CyLib.c **** void CyILO_Enable33K(void) 
 947:Generated_Source\PSoC5/CyLib.c **** {
 747              		.loc 1 947 0
 748              		.cfi_startproc
 749              		@ args = 0, pretend = 0, frame = 0
 750              		@ frame_needed = 0, uses_anonymous_args = 0
 751              		@ link register save eliminated.
 948:Generated_Source\PSoC5/CyLib.c ****     /* Set bit 5 of ILO RS */
 949:Generated_Source\PSoC5/CyLib.c ****     CY_LIB_SLOWCLK_ILO_CR0_REG |= CY_LIB_SLOWCLK_ILO_CR0_EN_33KHZ;
 752              		.loc 1 949 0
 753 0000 024A     		ldr	r2, .L75
 754 0002 1378     		ldrb	r3, [r2]	@ zero_extendqisi2
 755 0004 43F02003 		orr	r3, r3, #32
 756 0008 1370     		strb	r3, [r2]
 757 000a 7047     		bx	lr
 758              	.L76:
 759              		.align	2
 760              	.L75:
 761 000c 00430040 		.word	1073758976
 762              		.cfi_endproc
 763              	.LFE21:
 764              		.size	CyILO_Enable33K, .-CyILO_Enable33K
 765              		.section	.text.CyILO_Disable33K,"ax",%progbits
 766              		.align	2
 767              		.global	CyILO_Disable33K
ARM GAS  C:\Users\dmarsch\AppData\Local\Temp\ccNydXIK.s 			page 32


 768              		.thumb
 769              		.thumb_func
 770              		.type	CyILO_Disable33K, %function
 771              	CyILO_Disable33K:
 772              	.LFB22:
 950:Generated_Source\PSoC5/CyLib.c **** }
 951:Generated_Source\PSoC5/CyLib.c **** 
 952:Generated_Source\PSoC5/CyLib.c **** 
 953:Generated_Source\PSoC5/CyLib.c **** /*******************************************************************************
 954:Generated_Source\PSoC5/CyLib.c **** * Function Name: CyILO_Disable33K
 955:Generated_Source\PSoC5/CyLib.c **** ****************************************************************************//**
 956:Generated_Source\PSoC5/CyLib.c **** *
 957:Generated_Source\PSoC5/CyLib.c **** *  Disables the ILO 33 KHz divider.
 958:Generated_Source\PSoC5/CyLib.c **** *
 959:Generated_Source\PSoC5/CyLib.c **** *  Note that the 33 KHz clock is generated from the 100 KHz oscillator, but this
 960:Generated_Source\PSoC5/CyLib.c **** *  API does not disable the 100 KHz clock.
 961:Generated_Source\PSoC5/CyLib.c **** *
 962:Generated_Source\PSoC5/CyLib.c **** *******************************************************************************/
 963:Generated_Source\PSoC5/CyLib.c **** void CyILO_Disable33K(void) 
 964:Generated_Source\PSoC5/CyLib.c **** {
 773              		.loc 1 964 0
 774              		.cfi_startproc
 775              		@ args = 0, pretend = 0, frame = 0
 776              		@ frame_needed = 0, uses_anonymous_args = 0
 777              		@ link register save eliminated.
 965:Generated_Source\PSoC5/CyLib.c ****     CY_LIB_SLOWCLK_ILO_CR0_REG &= ((uint8)(~CY_LIB_SLOWCLK_ILO_CR0_EN_33KHZ));
 778              		.loc 1 965 0
 779 0000 024A     		ldr	r2, .L78
 780 0002 1378     		ldrb	r3, [r2]	@ zero_extendqisi2
 781 0004 03F0DF03 		and	r3, r3, #223
 782 0008 1370     		strb	r3, [r2]
 783 000a 7047     		bx	lr
 784              	.L79:
 785              		.align	2
 786              	.L78:
 787 000c 00430040 		.word	1073758976
 788              		.cfi_endproc
 789              	.LFE22:
 790              		.size	CyILO_Disable33K, .-CyILO_Disable33K
 791              		.section	.text.CyILO_SetSource,"ax",%progbits
 792              		.align	2
 793              		.global	CyILO_SetSource
 794              		.thumb
 795              		.thumb_func
 796              		.type	CyILO_SetSource, %function
 797              	CyILO_SetSource:
 798              	.LFB23:
 966:Generated_Source\PSoC5/CyLib.c **** }
 967:Generated_Source\PSoC5/CyLib.c **** 
 968:Generated_Source\PSoC5/CyLib.c **** 
 969:Generated_Source\PSoC5/CyLib.c **** /*******************************************************************************
 970:Generated_Source\PSoC5/CyLib.c **** * Function Name: CyILO_SetSource
 971:Generated_Source\PSoC5/CyLib.c **** ****************************************************************************//**
 972:Generated_Source\PSoC5/CyLib.c **** *
 973:Generated_Source\PSoC5/CyLib.c **** *  Sets the source of the clock output from the ILO block.
 974:Generated_Source\PSoC5/CyLib.c **** *
 975:Generated_Source\PSoC5/CyLib.c **** *  \param source: One of the three available ILO output sources
ARM GAS  C:\Users\dmarsch\AppData\Local\Temp\ccNydXIK.s 			page 33


 976:Generated_Source\PSoC5/CyLib.c **** *       Value        Define                Source
 977:Generated_Source\PSoC5/CyLib.c **** *       0            CY_ILO_SOURCE_100K    ILO 100 KHz
 978:Generated_Source\PSoC5/CyLib.c **** *       1            CY_ILO_SOURCE_33K     ILO 33 KHz
 979:Generated_Source\PSoC5/CyLib.c **** *       2            CY_ILO_SOURCE_1K      ILO 1 KHz
 980:Generated_Source\PSoC5/CyLib.c **** *
 981:Generated_Source\PSoC5/CyLib.c **** *******************************************************************************/
 982:Generated_Source\PSoC5/CyLib.c **** void CyILO_SetSource(uint8 source) 
 983:Generated_Source\PSoC5/CyLib.c **** {
 799              		.loc 1 983 0
 800              		.cfi_startproc
 801              		@ args = 0, pretend = 0, frame = 0
 802              		@ frame_needed = 0, uses_anonymous_args = 0
 803              		@ link register save eliminated.
 804              	.LVL46:
 984:Generated_Source\PSoC5/CyLib.c ****     CY_LIB_CLKDIST_CR_REG = (CY_LIB_CLKDIST_CR_REG & CY_ILO_SOURCE_BITS_CLEAR) |
 805              		.loc 1 984 0
 806 0000 4FF04022 		mov	r2, #1073758208
 807 0004 1378     		ldrb	r3, [r2]	@ zero_extendqisi2
 985:Generated_Source\PSoC5/CyLib.c ****                     (((uint8) (source << 2u)) & ((uint8)(~CY_ILO_SOURCE_BITS_CLEAR)));
 808              		.loc 1 985 0
 809 0006 8000     		lsls	r0, r0, #2
 810              	.LVL47:
 984:Generated_Source\PSoC5/CyLib.c ****     CY_LIB_CLKDIST_CR_REG = (CY_LIB_CLKDIST_CR_REG & CY_ILO_SOURCE_BITS_CLEAR) |
 811              		.loc 1 984 0
 812 0008 03F0F303 		and	r3, r3, #243
 813 000c 00F00C00 		and	r0, r0, #12
 814 0010 1843     		orrs	r0, r0, r3
 815 0012 1070     		strb	r0, [r2]
 816 0014 7047     		bx	lr
 817              		.cfi_endproc
 818              	.LFE23:
 819              		.size	CyILO_SetSource, .-CyILO_SetSource
 820 0016 00BF     		.section	.text.CyILO_SetPowerMode,"ax",%progbits
 821              		.align	2
 822              		.global	CyILO_SetPowerMode
 823              		.thumb
 824              		.thumb_func
 825              		.type	CyILO_SetPowerMode, %function
 826              	CyILO_SetPowerMode:
 827              	.LFB24:
 986:Generated_Source\PSoC5/CyLib.c **** }
 987:Generated_Source\PSoC5/CyLib.c **** 
 988:Generated_Source\PSoC5/CyLib.c **** 
 989:Generated_Source\PSoC5/CyLib.c **** /*******************************************************************************
 990:Generated_Source\PSoC5/CyLib.c **** * Function Name: CyILO_SetPowerMode
 991:Generated_Source\PSoC5/CyLib.c **** ****************************************************************************//**
 992:Generated_Source\PSoC5/CyLib.c **** *
 993:Generated_Source\PSoC5/CyLib.c **** * Sets the power mode used by the ILO during power down. Allows for lower power
 994:Generated_Source\PSoC5/CyLib.c **** * down power usage resulting in a slower startup time.
 995:Generated_Source\PSoC5/CyLib.c **** *
 996:Generated_Source\PSoC5/CyLib.c **** * \param mode
 997:Generated_Source\PSoC5/CyLib.c **** * CY_ILO_FAST_START - Faster start-up, internal bias left on when powered down
 998:Generated_Source\PSoC5/CyLib.c **** * CY_ILO_SLOW_START - Slower start-up, internal bias off when powered down
 999:Generated_Source\PSoC5/CyLib.c **** *
1000:Generated_Source\PSoC5/CyLib.c **** * \return Prevous power mode state.
1001:Generated_Source\PSoC5/CyLib.c **** *
1002:Generated_Source\PSoC5/CyLib.c **** *******************************************************************************/
ARM GAS  C:\Users\dmarsch\AppData\Local\Temp\ccNydXIK.s 			page 34


1003:Generated_Source\PSoC5/CyLib.c **** uint8 CyILO_SetPowerMode(uint8 mode) 
1004:Generated_Source\PSoC5/CyLib.c **** {
 828              		.loc 1 1004 0
 829              		.cfi_startproc
 830              		@ args = 0, pretend = 0, frame = 0
 831              		@ frame_needed = 0, uses_anonymous_args = 0
 832              		@ link register save eliminated.
 833              	.LVL48:
1005:Generated_Source\PSoC5/CyLib.c ****     uint8 state;
1006:Generated_Source\PSoC5/CyLib.c **** 
1007:Generated_Source\PSoC5/CyLib.c ****     /* Get current state. */
1008:Generated_Source\PSoC5/CyLib.c ****     state = CY_LIB_SLOWCLK_ILO_CR0_REG;
 834              		.loc 1 1008 0
 835 0000 074B     		ldr	r3, .L84
 836 0002 1B78     		ldrb	r3, [r3]	@ zero_extendqisi2
 837 0004 DBB2     		uxtb	r3, r3
 838              	.LVL49:
1009:Generated_Source\PSoC5/CyLib.c **** 
1010:Generated_Source\PSoC5/CyLib.c ****     /* Set the oscillator power mode. */
1011:Generated_Source\PSoC5/CyLib.c ****     if(mode != CY_ILO_FAST_START)
 839              		.loc 1 1011 0
 840 0006 20B1     		cbz	r0, .L82
1012:Generated_Source\PSoC5/CyLib.c ****     {
1013:Generated_Source\PSoC5/CyLib.c ****         CY_LIB_SLOWCLK_ILO_CR0_REG = (state | CY_ILO_CONTROL_PD_MODE);
 841              		.loc 1 1013 0
 842 0008 43F01002 		orr	r2, r3, #16
 843 000c 0449     		ldr	r1, .L84
 844 000e 0A70     		strb	r2, [r1]
 845 0010 03E0     		b	.L83
 846              	.L82:
1014:Generated_Source\PSoC5/CyLib.c ****     }
1015:Generated_Source\PSoC5/CyLib.c ****     else
1016:Generated_Source\PSoC5/CyLib.c ****     {
1017:Generated_Source\PSoC5/CyLib.c ****         CY_LIB_SLOWCLK_ILO_CR0_REG = (state & ((uint8)(~CY_ILO_CONTROL_PD_MODE)));
 847              		.loc 1 1017 0
 848 0012 03F0EF02 		and	r2, r3, #239
 849 0016 0249     		ldr	r1, .L84
 850 0018 0A70     		strb	r2, [r1]
 851              	.L83:
1018:Generated_Source\PSoC5/CyLib.c ****     }
1019:Generated_Source\PSoC5/CyLib.c **** 
1020:Generated_Source\PSoC5/CyLib.c ****     /* Return old mode. */
1021:Generated_Source\PSoC5/CyLib.c ****     return ((state & CY_ILO_CONTROL_PD_MODE) >> CY_ILO_CONTROL_PD_POSITION);
1022:Generated_Source\PSoC5/CyLib.c **** }
 852              		.loc 1 1022 0
 853 001a C3F30010 		ubfx	r0, r3, #4, #1
 854              	.LVL50:
 855 001e 7047     		bx	lr
 856              	.L85:
 857              		.align	2
 858              	.L84:
 859 0020 00430040 		.word	1073758976
 860              		.cfi_endproc
 861              	.LFE24:
 862              		.size	CyILO_SetPowerMode, .-CyILO_SetPowerMode
 863              		.section	.text.CyXTAL_32KHZ_Stop,"ax",%progbits
 864              		.align	2
ARM GAS  C:\Users\dmarsch\AppData\Local\Temp\ccNydXIK.s 			page 35


 865              		.global	CyXTAL_32KHZ_Stop
 866              		.thumb
 867              		.thumb_func
 868              		.type	CyXTAL_32KHZ_Stop, %function
 869              	CyXTAL_32KHZ_Stop:
 870              	.LFB26:
1023:Generated_Source\PSoC5/CyLib.c **** 
1024:Generated_Source\PSoC5/CyLib.c **** 
1025:Generated_Source\PSoC5/CyLib.c **** /*******************************************************************************
1026:Generated_Source\PSoC5/CyLib.c **** * Function Name: CyXTAL_32KHZ_Start
1027:Generated_Source\PSoC5/CyLib.c **** ****************************************************************************//**
1028:Generated_Source\PSoC5/CyLib.c **** *
1029:Generated_Source\PSoC5/CyLib.c **** *  Enables the 32 KHz Crystal Oscillator.
1030:Generated_Source\PSoC5/CyLib.c **** *
1031:Generated_Source\PSoC5/CyLib.c **** *******************************************************************************/
1032:Generated_Source\PSoC5/CyLib.c **** void CyXTAL_32KHZ_Start(void) 
1033:Generated_Source\PSoC5/CyLib.c **** {
1034:Generated_Source\PSoC5/CyLib.c ****     volatile uint16 i;
1035:Generated_Source\PSoC5/CyLib.c **** 
1036:Generated_Source\PSoC5/CyLib.c ****     CY_CLK_XTAL32_TST_REG = CY_CLK_XTAL32_TST_DEFAULT;
1037:Generated_Source\PSoC5/CyLib.c ****     CY_CLK_XTAL32_TR_REG  = CY_CLK_XTAL32_TR_STARTUP;
1038:Generated_Source\PSoC5/CyLib.c ****     CY_CLK_XTAL32_CFG_REG = (CY_CLK_XTAL32_CFG_REG & ((uint8)(~CY_CLK_XTAL32_CFG_LP_MASK))) |
1039:Generated_Source\PSoC5/CyLib.c ****                                 CY_CLK_XTAL32_CFG_LP_DEFAULT;
1040:Generated_Source\PSoC5/CyLib.c **** 
1041:Generated_Source\PSoC5/CyLib.c ****     #if(CY_PSOC3)
1042:Generated_Source\PSoC5/CyLib.c ****         CY_CLK_XTAL32_CR_REG |= CY_CLK_XTAL32_CR_PDBEN;
1043:Generated_Source\PSoC5/CyLib.c ****     #endif  /* (CY_PSOC3) */
1044:Generated_Source\PSoC5/CyLib.c **** 
1045:Generated_Source\PSoC5/CyLib.c ****     /* Enable operation of 32K Crystal Oscillator */
1046:Generated_Source\PSoC5/CyLib.c ****     CY_CLK_XTAL32_CR_REG |= CY_CLK_XTAL32_CR_EN;
1047:Generated_Source\PSoC5/CyLib.c **** 
1048:Generated_Source\PSoC5/CyLib.c ****     for (i = 1000u; i > 0u; i--)
1049:Generated_Source\PSoC5/CyLib.c ****     {
1050:Generated_Source\PSoC5/CyLib.c ****         if(0u != (CyXTAL_32KHZ_ReadStatus() & CY_XTAL32K_ANA_STAT))
1051:Generated_Source\PSoC5/CyLib.c ****         {
1052:Generated_Source\PSoC5/CyLib.c ****             /* Ready - switch to high power mode */
1053:Generated_Source\PSoC5/CyLib.c ****             (void) CyXTAL_32KHZ_SetPowerMode(0u);
1054:Generated_Source\PSoC5/CyLib.c **** 
1055:Generated_Source\PSoC5/CyLib.c ****             break;
1056:Generated_Source\PSoC5/CyLib.c ****         }
1057:Generated_Source\PSoC5/CyLib.c ****         CyDelayUs(1u);
1058:Generated_Source\PSoC5/CyLib.c ****     }
1059:Generated_Source\PSoC5/CyLib.c **** }
1060:Generated_Source\PSoC5/CyLib.c **** 
1061:Generated_Source\PSoC5/CyLib.c **** 
1062:Generated_Source\PSoC5/CyLib.c **** /*******************************************************************************
1063:Generated_Source\PSoC5/CyLib.c **** * Function Name: CyXTAL_32KHZ_Stop
1064:Generated_Source\PSoC5/CyLib.c **** ****************************************************************************//**
1065:Generated_Source\PSoC5/CyLib.c **** *
1066:Generated_Source\PSoC5/CyLib.c **** *  Disables the 32KHz Crystal Oscillator.
1067:Generated_Source\PSoC5/CyLib.c **** *
1068:Generated_Source\PSoC5/CyLib.c **** *******************************************************************************/
1069:Generated_Source\PSoC5/CyLib.c **** void CyXTAL_32KHZ_Stop(void) 
1070:Generated_Source\PSoC5/CyLib.c **** {
 871              		.loc 1 1070 0
 872              		.cfi_startproc
 873              		@ args = 0, pretend = 0, frame = 0
ARM GAS  C:\Users\dmarsch\AppData\Local\Temp\ccNydXIK.s 			page 36


 874              		@ frame_needed = 0, uses_anonymous_args = 0
 875              		@ link register save eliminated.
1071:Generated_Source\PSoC5/CyLib.c ****     CY_CLK_XTAL32_TST_REG  = CY_CLK_XTAL32_TST_DEFAULT;
 876              		.loc 1 1071 0
 877 0000 F322     		movs	r2, #243
 878 0002 094B     		ldr	r3, .L87
 879 0004 1A70     		strb	r2, [r3]
1072:Generated_Source\PSoC5/CyLib.c ****     CY_CLK_XTAL32_TR_REG   = CY_CLK_XTAL32_TR_POWERDOWN;
 880              		.loc 1 1072 0
 881 0006 0022     		movs	r2, #0
 882 0008 03F28E33 		addw	r3, r3, #910
 883 000c 1A70     		strb	r2, [r3]
1073:Generated_Source\PSoC5/CyLib.c ****     CY_CLK_XTAL32_CFG_REG = (CY_CLK_XTAL32_CFG_REG & ((uint8)(~CY_CLK_XTAL32_CFG_LP_MASK))) |
 884              		.loc 1 1073 0
 885 000e 074A     		ldr	r2, .L87+4
 886 0010 1378     		ldrb	r3, [r2]	@ zero_extendqisi2
 887 0012 03F0F303 		and	r3, r3, #243
 888 0016 43F00403 		orr	r3, r3, #4
 889 001a 1370     		strb	r3, [r2]
1074:Generated_Source\PSoC5/CyLib.c ****                              CY_CLK_XTAL32_CFG_LP_DEFAULT;
1075:Generated_Source\PSoC5/CyLib.c ****     CY_CLK_XTAL32_CR_REG &= ((uint8)(~(CY_CLK_XTAL32_CR_EN | CY_CLK_XTAL32_CR_LPM)));
 890              		.loc 1 1075 0
 891 001c 013A     		subs	r2, r2, #1
 892 001e 1378     		ldrb	r3, [r2]	@ zero_extendqisi2
 893 0020 03F0FC03 		and	r3, r3, #252
 894 0024 1370     		strb	r3, [r2]
 895 0026 7047     		bx	lr
 896              	.L88:
 897              		.align	2
 898              	.L87:
 899 0028 0A430040 		.word	1073758986
 900 002c 09430040 		.word	1073758985
 901              		.cfi_endproc
 902              	.LFE26:
 903              		.size	CyXTAL_32KHZ_Stop, .-CyXTAL_32KHZ_Stop
 904              		.section	.text.CyXTAL_32KHZ_ReadStatus,"ax",%progbits
 905              		.align	2
 906              		.global	CyXTAL_32KHZ_ReadStatus
 907              		.thumb
 908              		.thumb_func
 909              		.type	CyXTAL_32KHZ_ReadStatus, %function
 910              	CyXTAL_32KHZ_ReadStatus:
 911              	.LFB27:
1076:Generated_Source\PSoC5/CyLib.c **** 
1077:Generated_Source\PSoC5/CyLib.c ****     #if(CY_PSOC3)
1078:Generated_Source\PSoC5/CyLib.c ****         CY_CLK_XTAL32_CR_REG &= ((uint8)(~CY_CLK_XTAL32_CR_PDBEN));
1079:Generated_Source\PSoC5/CyLib.c ****     #endif  /* (CY_PSOC3) */
1080:Generated_Source\PSoC5/CyLib.c **** }
1081:Generated_Source\PSoC5/CyLib.c **** 
1082:Generated_Source\PSoC5/CyLib.c **** 
1083:Generated_Source\PSoC5/CyLib.c **** /*******************************************************************************
1084:Generated_Source\PSoC5/CyLib.c **** * Function Name: CyXTAL_32KHZ_ReadStatus
1085:Generated_Source\PSoC5/CyLib.c **** ****************************************************************************//**
1086:Generated_Source\PSoC5/CyLib.c **** *
1087:Generated_Source\PSoC5/CyLib.c **** *  Returns status of the 32 KHz oscillator.
1088:Generated_Source\PSoC5/CyLib.c **** *
1089:Generated_Source\PSoC5/CyLib.c **** * \return
ARM GAS  C:\Users\dmarsch\AppData\Local\Temp\ccNydXIK.s 			page 37


1090:Generated_Source\PSoC5/CyLib.c **** *  Value     Define                    Source
1091:Generated_Source\PSoC5/CyLib.c **** *  20        CY_XTAL32K_ANA_STAT       Analog measurement
1092:Generated_Source\PSoC5/CyLib.c **** *                                       1: Stable
1093:Generated_Source\PSoC5/CyLib.c **** *                                       0: Not stable
1094:Generated_Source\PSoC5/CyLib.c **** *
1095:Generated_Source\PSoC5/CyLib.c **** *******************************************************************************/
1096:Generated_Source\PSoC5/CyLib.c **** uint8 CyXTAL_32KHZ_ReadStatus(void) 
1097:Generated_Source\PSoC5/CyLib.c **** {
 912              		.loc 1 1097 0
 913              		.cfi_startproc
 914              		@ args = 0, pretend = 0, frame = 0
 915              		@ frame_needed = 0, uses_anonymous_args = 0
 916              		@ link register save eliminated.
1098:Generated_Source\PSoC5/CyLib.c ****     return(CY_CLK_XTAL32_CR_REG & CY_XTAL32K_ANA_STAT);
 917              		.loc 1 1098 0
 918 0000 024B     		ldr	r3, .L90
 919 0002 1878     		ldrb	r0, [r3]	@ zero_extendqisi2
1099:Generated_Source\PSoC5/CyLib.c **** }
 920              		.loc 1 1099 0
 921 0004 00F02000 		and	r0, r0, #32
 922 0008 7047     		bx	lr
 923              	.L91:
 924 000a 00BF     		.align	2
 925              	.L90:
 926 000c 08430040 		.word	1073758984
 927              		.cfi_endproc
 928              	.LFE27:
 929              		.size	CyXTAL_32KHZ_ReadStatus, .-CyXTAL_32KHZ_ReadStatus
 930              		.section	.text.CyXTAL_Start,"ax",%progbits
 931              		.align	2
 932              		.global	CyXTAL_Start
 933              		.thumb
 934              		.thumb_func
 935              		.type	CyXTAL_Start, %function
 936              	CyXTAL_Start:
 937              	.LFB29:
1100:Generated_Source\PSoC5/CyLib.c **** 
1101:Generated_Source\PSoC5/CyLib.c **** 
1102:Generated_Source\PSoC5/CyLib.c **** /*******************************************************************************
1103:Generated_Source\PSoC5/CyLib.c **** * Function Name: CyXTAL_32KHZ_SetPowerMode
1104:Generated_Source\PSoC5/CyLib.c **** ****************************************************************************//**
1105:Generated_Source\PSoC5/CyLib.c **** *
1106:Generated_Source\PSoC5/CyLib.c **** *  Sets the power mode for the 32 KHz oscillator used during the sleep mode.
1107:Generated_Source\PSoC5/CyLib.c **** *  Allows for lower power during sleep when there are fewer sources of noise.
1108:Generated_Source\PSoC5/CyLib.c **** *  During the active mode the oscillator is always run in the high power mode.
1109:Generated_Source\PSoC5/CyLib.c **** *
1110:Generated_Source\PSoC5/CyLib.c **** *  uint8 mode
1111:Generated_Source\PSoC5/CyLib.c **** *       \param 0: High power mode
1112:Generated_Source\PSoC5/CyLib.c **** *       \param 1: Low power mode during sleep
1113:Generated_Source\PSoC5/CyLib.c **** *
1114:Generated_Source\PSoC5/CyLib.c **** * \return
1115:Generated_Source\PSoC5/CyLib.c **** *  Previous power mode.
1116:Generated_Source\PSoC5/CyLib.c **** *
1117:Generated_Source\PSoC5/CyLib.c **** *******************************************************************************/
1118:Generated_Source\PSoC5/CyLib.c **** uint8 CyXTAL_32KHZ_SetPowerMode(uint8 mode) 
1119:Generated_Source\PSoC5/CyLib.c **** {
1120:Generated_Source\PSoC5/CyLib.c ****     uint8 state = (0u != (CY_CLK_XTAL32_CR_REG & CY_CLK_XTAL32_CR_LPM)) ? 1u : 0u;
ARM GAS  C:\Users\dmarsch\AppData\Local\Temp\ccNydXIK.s 			page 38


1121:Generated_Source\PSoC5/CyLib.c **** 
1122:Generated_Source\PSoC5/CyLib.c ****     CY_CLK_XTAL32_TST_REG = CY_CLK_XTAL32_TST_DEFAULT;
1123:Generated_Source\PSoC5/CyLib.c **** 
1124:Generated_Source\PSoC5/CyLib.c ****     if(1u == mode)
1125:Generated_Source\PSoC5/CyLib.c ****     {
1126:Generated_Source\PSoC5/CyLib.c ****         /* Low power mode during Sleep */
1127:Generated_Source\PSoC5/CyLib.c ****         CY_CLK_XTAL32_TR_REG  = CY_CLK_XTAL32_TR_LOW_POWER;
1128:Generated_Source\PSoC5/CyLib.c ****         CyDelayUs(10u);
1129:Generated_Source\PSoC5/CyLib.c ****         CY_CLK_XTAL32_CFG_REG = (CY_CLK_XTAL32_CFG_REG & ((uint8)(~CY_CLK_XTAL32_CFG_LP_MASK))) |
1130:Generated_Source\PSoC5/CyLib.c ****                                 CY_CLK_XTAL32_CFG_LP_LOWPOWER;
1131:Generated_Source\PSoC5/CyLib.c ****         CyDelayUs(20u);
1132:Generated_Source\PSoC5/CyLib.c ****         CY_CLK_XTAL32_CR_REG |= CY_CLK_XTAL32_CR_LPM;
1133:Generated_Source\PSoC5/CyLib.c ****     }
1134:Generated_Source\PSoC5/CyLib.c ****     else
1135:Generated_Source\PSoC5/CyLib.c ****     {
1136:Generated_Source\PSoC5/CyLib.c ****         /* High power mode */
1137:Generated_Source\PSoC5/CyLib.c ****         CY_CLK_XTAL32_TR_REG  = CY_CLK_XTAL32_TR_HIGH_POWER;
1138:Generated_Source\PSoC5/CyLib.c ****         CyDelayUs(10u);
1139:Generated_Source\PSoC5/CyLib.c ****         CY_CLK_XTAL32_CFG_REG = (CY_CLK_XTAL32_CFG_REG & ((uint8)(~CY_CLK_XTAL32_CFG_LP_MASK))) |
1140:Generated_Source\PSoC5/CyLib.c ****                                 CY_CLK_XTAL32_CFG_LP_DEFAULT;
1141:Generated_Source\PSoC5/CyLib.c ****         CY_CLK_XTAL32_CR_REG &= ((uint8)(~CY_CLK_XTAL32_CR_LPM));
1142:Generated_Source\PSoC5/CyLib.c ****     }
1143:Generated_Source\PSoC5/CyLib.c **** 
1144:Generated_Source\PSoC5/CyLib.c ****     return(state);
1145:Generated_Source\PSoC5/CyLib.c **** }
1146:Generated_Source\PSoC5/CyLib.c **** 
1147:Generated_Source\PSoC5/CyLib.c **** 
1148:Generated_Source\PSoC5/CyLib.c **** /*******************************************************************************
1149:Generated_Source\PSoC5/CyLib.c **** * Function Name: CyXTAL_Start
1150:Generated_Source\PSoC5/CyLib.c **** ****************************************************************************//**
1151:Generated_Source\PSoC5/CyLib.c **** *
1152:Generated_Source\PSoC5/CyLib.c **** *  Enables the megahertz crystal.
1153:Generated_Source\PSoC5/CyLib.c **** *
1154:Generated_Source\PSoC5/CyLib.c **** *  PSoC 3:
1155:Generated_Source\PSoC5/CyLib.c **** *  Waits until the XERR bit is low (no error) for a millisecond or until the
1156:Generated_Source\PSoC5/CyLib.c **** *  number of milliseconds specified by the wait parameter has expired.
1157:Generated_Source\PSoC5/CyLib.c **** *
1158:Generated_Source\PSoC5/CyLib.c **** *   \param wait: Valid range [0-255].
1159:Generated_Source\PSoC5/CyLib.c **** *   This is the timeout value in milliseconds.
1160:Generated_Source\PSoC5/CyLib.c **** *   The appropriate value is crystal specific.
1161:Generated_Source\PSoC5/CyLib.c **** *
1162:Generated_Source\PSoC5/CyLib.c **** * \return
1163:Generated_Source\PSoC5/CyLib.c **** *   CYRET_SUCCESS - Completed successfully
1164:Generated_Source\PSoC5/CyLib.c **** *   CYRET_TIMEOUT - Timeout occurred without detecting a low value on XERR.
1165:Generated_Source\PSoC5/CyLib.c **** *
1166:Generated_Source\PSoC5/CyLib.c **** * Side Effects and Restrictions:
1167:Generated_Source\PSoC5/CyLib.c **** *  If wait is enabled (non-zero wait). Uses the Fast Timewheel to time the wait.
1168:Generated_Source\PSoC5/CyLib.c **** *  Any other use of the Fast Timewheel (FTW) will be stopped during the period
1169:Generated_Source\PSoC5/CyLib.c **** *  of this function and then restored.
1170:Generated_Source\PSoC5/CyLib.c **** *
1171:Generated_Source\PSoC5/CyLib.c **** *  Uses the 100KHz ILO.  If not enabled, this function will enable the 100KHz
1172:Generated_Source\PSoC5/CyLib.c **** *  ILO for the period of this function. No changes to the setup of the ILO,
1173:Generated_Source\PSoC5/CyLib.c **** *  Fast Timewheel, Central Timewheel or Once Per Second interrupt may be made
1174:Generated_Source\PSoC5/CyLib.c **** *  by interrupt routines during the period of this function.
1175:Generated_Source\PSoC5/CyLib.c **** *
1176:Generated_Source\PSoC5/CyLib.c **** *  The current operation of the ILO, Central Timewheel and Once Per Second
1177:Generated_Source\PSoC5/CyLib.c **** *  interrupt are maintained during the operation of this function provided the
ARM GAS  C:\Users\dmarsch\AppData\Local\Temp\ccNydXIK.s 			page 39


1178:Generated_Source\PSoC5/CyLib.c **** *  reading of the Power Manager Interrupt Status Register is only done using the
1179:Generated_Source\PSoC5/CyLib.c **** *  CyPmReadStatus() function.
1180:Generated_Source\PSoC5/CyLib.c **** *
1181:Generated_Source\PSoC5/CyLib.c **** *******************************************************************************/
1182:Generated_Source\PSoC5/CyLib.c **** cystatus CyXTAL_Start(uint8 wait) 
1183:Generated_Source\PSoC5/CyLib.c **** {
 938              		.loc 1 1183 0
 939              		.cfi_startproc
 940              		@ args = 0, pretend = 0, frame = 8
 941              		@ frame_needed = 0, uses_anonymous_args = 0
 942              	.LVL51:
 943 0000 F0B5     		push	{r4, r5, r6, r7, lr}
 944              		.cfi_def_cfa_offset 20
 945              		.cfi_offset 4, -20
 946              		.cfi_offset 5, -16
 947              		.cfi_offset 6, -12
 948              		.cfi_offset 7, -8
 949              		.cfi_offset 14, -4
 950 0002 83B0     		sub	sp, sp, #12
 951              		.cfi_def_cfa_offset 32
 952              	.LVL52:
1184:Generated_Source\PSoC5/CyLib.c ****     cystatus status = CYRET_SUCCESS;
1185:Generated_Source\PSoC5/CyLib.c ****     volatile uint8  timeout = wait;
 953              		.loc 1 1185 0
 954 0004 8DF80700 		strb	r0, [sp, #7]
1186:Generated_Source\PSoC5/CyLib.c ****     volatile uint8 count;
1187:Generated_Source\PSoC5/CyLib.c ****     uint8 iloEnableState;
1188:Generated_Source\PSoC5/CyLib.c ****     uint8 pmTwCfg0Tmp;
1189:Generated_Source\PSoC5/CyLib.c ****     uint8 pmTwCfg2Tmp;
1190:Generated_Source\PSoC5/CyLib.c **** 
1191:Generated_Source\PSoC5/CyLib.c **** 
1192:Generated_Source\PSoC5/CyLib.c ****     /* Enables MHz crystal oscillator circuit  */
1193:Generated_Source\PSoC5/CyLib.c ****     CY_CLK_XMHZ_CSR_REG |= CY_CLK_XMHZ_CSR_ENABLE;
 955              		.loc 1 1193 0
 956 0008 254A     		ldr	r2, .L103
 957 000a 1378     		ldrb	r3, [r2]	@ zero_extendqisi2
 958 000c 43F00103 		orr	r3, r3, #1
 959 0010 1370     		strb	r3, [r2]
1194:Generated_Source\PSoC5/CyLib.c **** 
1195:Generated_Source\PSoC5/CyLib.c **** 
1196:Generated_Source\PSoC5/CyLib.c ****     if(wait > 0u)
 960              		.loc 1 1196 0
 961 0012 0028     		cmp	r0, #0
 962 0014 40D0     		beq	.L100
1197:Generated_Source\PSoC5/CyLib.c ****     {
1198:Generated_Source\PSoC5/CyLib.c ****         /* Save 100 KHz ILO, FTW interval, enable and interrupt enable */
1199:Generated_Source\PSoC5/CyLib.c ****         iloEnableState = CY_LIB_SLOWCLK_ILO_CR0_REG;
 963              		.loc 1 1199 0
 964 0016 234B     		ldr	r3, .L103+4
 965 0018 1E78     		ldrb	r6, [r3]	@ zero_extendqisi2
 966 001a F6B2     		uxtb	r6, r6
 967              	.LVL53:
1200:Generated_Source\PSoC5/CyLib.c ****         pmTwCfg0Tmp = CY_LIB_PM_TW_CFG0_REG;
 968              		.loc 1 1200 0
 969 001c 8033     		adds	r3, r3, #128
 970 001e 1D78     		ldrb	r5, [r3]	@ zero_extendqisi2
 971 0020 EDB2     		uxtb	r5, r5
ARM GAS  C:\Users\dmarsch\AppData\Local\Temp\ccNydXIK.s 			page 40


 972              	.LVL54:
1201:Generated_Source\PSoC5/CyLib.c ****         pmTwCfg2Tmp = CY_LIB_PM_TW_CFG2_REG;
 973              		.loc 1 1201 0
 974 0022 0233     		adds	r3, r3, #2
 975 0024 1C78     		ldrb	r4, [r3]	@ zero_extendqisi2
 976 0026 E4B2     		uxtb	r4, r4
 977              	.LVL55:
1202:Generated_Source\PSoC5/CyLib.c **** 
1203:Generated_Source\PSoC5/CyLib.c ****         /* Set 250 us interval */
1204:Generated_Source\PSoC5/CyLib.c ****         CyPmFtwSetInterval(CY_CLK_XMHZ_FTW_INTERVAL);
 978              		.loc 1 1204 0
 979 0028 1820     		movs	r0, #24
 980              	.LVL56:
 981 002a FFF7FEFF 		bl	CyPmFtwSetInterval
 982              	.LVL57:
1205:Generated_Source\PSoC5/CyLib.c ****         status = CYRET_TIMEOUT;
1206:Generated_Source\PSoC5/CyLib.c **** 
1207:Generated_Source\PSoC5/CyLib.c **** 
1208:Generated_Source\PSoC5/CyLib.c ****         for( ; timeout > 0u; timeout--)
 983              		.loc 1 1208 0
 984 002e 21E0     		b	.L94
 985              	.L98:
1209:Generated_Source\PSoC5/CyLib.c ****         {
1210:Generated_Source\PSoC5/CyLib.c ****             /* Read XERR bit to clear it */
1211:Generated_Source\PSoC5/CyLib.c ****             (void) CY_CLK_XMHZ_CSR_REG;
 986              		.loc 1 1211 0
 987 0030 1B4B     		ldr	r3, .L103
 988 0032 1B78     		ldrb	r3, [r3]	@ zero_extendqisi2
1212:Generated_Source\PSoC5/CyLib.c **** 
1213:Generated_Source\PSoC5/CyLib.c ****             /* Wait for 1 millisecond - 4 x 250 us */
1214:Generated_Source\PSoC5/CyLib.c ****             for(count = 4u; count > 0u; count--)
 989              		.loc 1 1214 0
 990 0034 0423     		movs	r3, #4
 991 0036 8DF80630 		strb	r3, [sp, #6]
 992 003a 0BE0     		b	.L95
 993              	.L96:
1215:Generated_Source\PSoC5/CyLib.c ****             {
1216:Generated_Source\PSoC5/CyLib.c ****                 while(0u == (CY_PM_FTW_INT & CyPmReadStatus(CY_PM_FTW_INT)))
 994              		.loc 1 1216 0 discriminator 1
 995 003c 0120     		movs	r0, #1
 996 003e FFF7FEFF 		bl	CyPmReadStatus
 997              	.LVL58:
 998 0042 10F0010F 		tst	r0, #1
 999 0046 F9D0     		beq	.L96
1214:Generated_Source\PSoC5/CyLib.c ****             {
 1000              		.loc 1 1214 0 discriminator 2
 1001 0048 9DF80630 		ldrb	r3, [sp, #6]	@ zero_extendqisi2
 1002 004c 013B     		subs	r3, r3, #1
 1003 004e DBB2     		uxtb	r3, r3
 1004 0050 8DF80630 		strb	r3, [sp, #6]
 1005              	.L95:
1214:Generated_Source\PSoC5/CyLib.c ****             {
 1006              		.loc 1 1214 0 is_stmt 0 discriminator 1
 1007 0054 9DF80630 		ldrb	r3, [sp, #6]	@ zero_extendqisi2
 1008 0058 13F0FF0F 		tst	r3, #255
 1009 005c EED1     		bne	.L96
1217:Generated_Source\PSoC5/CyLib.c ****                 {
ARM GAS  C:\Users\dmarsch\AppData\Local\Temp\ccNydXIK.s 			page 41


1218:Generated_Source\PSoC5/CyLib.c ****                     /* Wait for FTW interrupt event */
1219:Generated_Source\PSoC5/CyLib.c ****                 }
1220:Generated_Source\PSoC5/CyLib.c ****             }
1221:Generated_Source\PSoC5/CyLib.c **** 
1222:Generated_Source\PSoC5/CyLib.c **** 
1223:Generated_Source\PSoC5/CyLib.c ****             /*******************************************************************
1224:Generated_Source\PSoC5/CyLib.c ****             * High output indicates an oscillator failure.
1225:Generated_Source\PSoC5/CyLib.c ****             * Only can be used after a start-up interval (1 ms) is completed.
1226:Generated_Source\PSoC5/CyLib.c ****             *******************************************************************/
1227:Generated_Source\PSoC5/CyLib.c ****             if(0u == (CY_CLK_XMHZ_CSR_REG & CY_CLK_XMHZ_CSR_XERR))
 1010              		.loc 1 1227 0 is_stmt 1
 1011 005e 104B     		ldr	r3, .L103
 1012 0060 1B78     		ldrb	r3, [r3]	@ zero_extendqisi2
 1013 0062 13F0800F 		tst	r3, #128
 1014 0066 0CD0     		beq	.L101
1208:Generated_Source\PSoC5/CyLib.c ****         {
 1015              		.loc 1 1208 0
 1016 0068 9DF80730 		ldrb	r3, [sp, #7]	@ zero_extendqisi2
 1017 006c 013B     		subs	r3, r3, #1
 1018 006e DBB2     		uxtb	r3, r3
 1019 0070 8DF80730 		strb	r3, [sp, #7]
 1020              	.L94:
1208:Generated_Source\PSoC5/CyLib.c ****         {
 1021              		.loc 1 1208 0 is_stmt 0 discriminator 1
 1022 0074 9DF80730 		ldrb	r3, [sp, #7]	@ zero_extendqisi2
 1023 0078 13F0FF0F 		tst	r3, #255
 1024 007c D8D1     		bne	.L98
1205:Generated_Source\PSoC5/CyLib.c **** 
 1025              		.loc 1 1205 0 is_stmt 1
 1026 007e 1027     		movs	r7, #16
 1027 0080 00E0     		b	.L97
 1028              	.L101:
1228:Generated_Source\PSoC5/CyLib.c ****             {
1229:Generated_Source\PSoC5/CyLib.c ****                 status = CYRET_SUCCESS;
 1029              		.loc 1 1229 0
 1030 0082 0027     		movs	r7, #0
 1031              	.L97:
 1032              	.LVL59:
1230:Generated_Source\PSoC5/CyLib.c ****                 break;
1231:Generated_Source\PSoC5/CyLib.c ****             }
1232:Generated_Source\PSoC5/CyLib.c ****         }
1233:Generated_Source\PSoC5/CyLib.c **** 
1234:Generated_Source\PSoC5/CyLib.c **** 
1235:Generated_Source\PSoC5/CyLib.c ****         /* Restore 100 KHz ILO, FTW interval, enable and interrupt enable */
1236:Generated_Source\PSoC5/CyLib.c ****         if(0u == (iloEnableState & CY_LIB_SLOWCLK_ILO_CR0_EN_100KHZ))
 1033              		.loc 1 1236 0
 1034 0084 16F0040F 		tst	r6, #4
 1035 0088 01D1     		bne	.L99
1237:Generated_Source\PSoC5/CyLib.c ****         {
1238:Generated_Source\PSoC5/CyLib.c ****             CyILO_Stop100K();
 1036              		.loc 1 1238 0
 1037 008a FFF7FEFF 		bl	CyILO_Stop100K
 1038              	.LVL60:
 1039              	.L99:
1239:Generated_Source\PSoC5/CyLib.c ****         }
1240:Generated_Source\PSoC5/CyLib.c ****         CY_LIB_PM_TW_CFG0_REG = pmTwCfg0Tmp;
 1040              		.loc 1 1240 0
ARM GAS  C:\Users\dmarsch\AppData\Local\Temp\ccNydXIK.s 			page 42


 1041 008e 064B     		ldr	r3, .L103+8
 1042 0090 1D70     		strb	r5, [r3]
1241:Generated_Source\PSoC5/CyLib.c ****         CY_LIB_PM_TW_CFG2_REG = pmTwCfg2Tmp;
 1043              		.loc 1 1241 0
 1044 0092 0233     		adds	r3, r3, #2
 1045 0094 1C70     		strb	r4, [r3]
 1046 0096 00E0     		b	.L93
 1047              	.LVL61:
 1048              	.L100:
1184:Generated_Source\PSoC5/CyLib.c ****     volatile uint8  timeout = wait;
 1049              		.loc 1 1184 0
 1050 0098 0027     		movs	r7, #0
 1051              	.LVL62:
 1052              	.L93:
1242:Generated_Source\PSoC5/CyLib.c ****     }
1243:Generated_Source\PSoC5/CyLib.c **** 
1244:Generated_Source\PSoC5/CyLib.c ****     return(status);
1245:Generated_Source\PSoC5/CyLib.c **** }
 1053              		.loc 1 1245 0
 1054 009a 3846     		mov	r0, r7
 1055 009c 03B0     		add	sp, sp, #12
 1056              		.cfi_def_cfa_offset 20
 1057              		@ sp needed
 1058 009e F0BD     		pop	{r4, r5, r6, r7, pc}
 1059              	.LVL63:
 1060              	.L104:
 1061              		.align	2
 1062              	.L103:
 1063 00a0 10420040 		.word	1073758736
 1064 00a4 00430040 		.word	1073758976
 1065 00a8 80430040 		.word	1073759104
 1066              		.cfi_endproc
 1067              	.LFE29:
 1068              		.size	CyXTAL_Start, .-CyXTAL_Start
 1069              		.section	.text.CyXTAL_Stop,"ax",%progbits
 1070              		.align	2
 1071              		.global	CyXTAL_Stop
 1072              		.thumb
 1073              		.thumb_func
 1074              		.type	CyXTAL_Stop, %function
 1075              	CyXTAL_Stop:
 1076              	.LFB30:
1246:Generated_Source\PSoC5/CyLib.c **** 
1247:Generated_Source\PSoC5/CyLib.c **** 
1248:Generated_Source\PSoC5/CyLib.c **** /*******************************************************************************
1249:Generated_Source\PSoC5/CyLib.c **** * Function Name: CyXTAL_Stop
1250:Generated_Source\PSoC5/CyLib.c **** ****************************************************************************//**
1251:Generated_Source\PSoC5/CyLib.c **** *
1252:Generated_Source\PSoC5/CyLib.c **** *  Disables the megahertz crystal oscillator.
1253:Generated_Source\PSoC5/CyLib.c **** *
1254:Generated_Source\PSoC5/CyLib.c **** *******************************************************************************/
1255:Generated_Source\PSoC5/CyLib.c **** void CyXTAL_Stop(void) 
1256:Generated_Source\PSoC5/CyLib.c **** {
 1077              		.loc 1 1256 0
 1078              		.cfi_startproc
 1079              		@ args = 0, pretend = 0, frame = 0
 1080              		@ frame_needed = 0, uses_anonymous_args = 0
ARM GAS  C:\Users\dmarsch\AppData\Local\Temp\ccNydXIK.s 			page 43


 1081              		@ link register save eliminated.
1257:Generated_Source\PSoC5/CyLib.c ****     /* Disable oscillator. */
1258:Generated_Source\PSoC5/CyLib.c ****     FASTCLK_XMHZ_CSR &= ((uint8)(~XMHZ_CONTROL_ENABLE));
 1082              		.loc 1 1258 0
 1083 0000 024A     		ldr	r2, .L106
 1084 0002 1378     		ldrb	r3, [r2]	@ zero_extendqisi2
 1085 0004 03F0FE03 		and	r3, r3, #254
 1086 0008 1370     		strb	r3, [r2]
 1087 000a 7047     		bx	lr
 1088              	.L107:
 1089              		.align	2
 1090              	.L106:
 1091 000c 10420040 		.word	1073758736
 1092              		.cfi_endproc
 1093              	.LFE30:
 1094              		.size	CyXTAL_Stop, .-CyXTAL_Stop
 1095              		.section	.text.CyXTAL_EnableErrStatus,"ax",%progbits
 1096              		.align	2
 1097              		.global	CyXTAL_EnableErrStatus
 1098              		.thumb
 1099              		.thumb_func
 1100              		.type	CyXTAL_EnableErrStatus, %function
 1101              	CyXTAL_EnableErrStatus:
 1102              	.LFB31:
1259:Generated_Source\PSoC5/CyLib.c **** }
1260:Generated_Source\PSoC5/CyLib.c **** 
1261:Generated_Source\PSoC5/CyLib.c **** 
1262:Generated_Source\PSoC5/CyLib.c **** /*******************************************************************************
1263:Generated_Source\PSoC5/CyLib.c **** * Function Name: CyXTAL_EnableErrStatus
1264:Generated_Source\PSoC5/CyLib.c **** ****************************************************************************//**
1265:Generated_Source\PSoC5/CyLib.c **** *
1266:Generated_Source\PSoC5/CyLib.c **** *  Enables the generation of the XERR status bit for the megahertz crystal.
1267:Generated_Source\PSoC5/CyLib.c **** *  This function is not available for PSoC5.
1268:Generated_Source\PSoC5/CyLib.c **** *
1269:Generated_Source\PSoC5/CyLib.c **** *******************************************************************************/
1270:Generated_Source\PSoC5/CyLib.c **** void CyXTAL_EnableErrStatus(void) 
1271:Generated_Source\PSoC5/CyLib.c **** {
 1103              		.loc 1 1271 0
 1104              		.cfi_startproc
 1105              		@ args = 0, pretend = 0, frame = 0
 1106              		@ frame_needed = 0, uses_anonymous_args = 0
 1107              		@ link register save eliminated.
1272:Generated_Source\PSoC5/CyLib.c ****     /* If oscillator has insufficient amplitude, XERR bit will be high. */
1273:Generated_Source\PSoC5/CyLib.c ****     CY_CLK_XMHZ_CSR_REG &= ((uint8)(~CY_CLK_XMHZ_CSR_XFB));
 1108              		.loc 1 1273 0
 1109 0000 024A     		ldr	r2, .L109
 1110 0002 1378     		ldrb	r3, [r2]	@ zero_extendqisi2
 1111 0004 03F0FB03 		and	r3, r3, #251
 1112 0008 1370     		strb	r3, [r2]
 1113 000a 7047     		bx	lr
 1114              	.L110:
 1115              		.align	2
 1116              	.L109:
 1117 000c 10420040 		.word	1073758736
 1118              		.cfi_endproc
 1119              	.LFE31:
 1120              		.size	CyXTAL_EnableErrStatus, .-CyXTAL_EnableErrStatus
ARM GAS  C:\Users\dmarsch\AppData\Local\Temp\ccNydXIK.s 			page 44


 1121              		.section	.text.CyXTAL_DisableErrStatus,"ax",%progbits
 1122              		.align	2
 1123              		.global	CyXTAL_DisableErrStatus
 1124              		.thumb
 1125              		.thumb_func
 1126              		.type	CyXTAL_DisableErrStatus, %function
 1127              	CyXTAL_DisableErrStatus:
 1128              	.LFB32:
1274:Generated_Source\PSoC5/CyLib.c **** }
1275:Generated_Source\PSoC5/CyLib.c **** 
1276:Generated_Source\PSoC5/CyLib.c **** 
1277:Generated_Source\PSoC5/CyLib.c **** /*******************************************************************************
1278:Generated_Source\PSoC5/CyLib.c **** * Function Name: CyXTAL_DisableErrStatus
1279:Generated_Source\PSoC5/CyLib.c **** ****************************************************************************//**
1280:Generated_Source\PSoC5/CyLib.c **** *
1281:Generated_Source\PSoC5/CyLib.c **** *  Disables the generation of the XERR status bit for the megahertz crystal.
1282:Generated_Source\PSoC5/CyLib.c **** *  This function is not available for PSoC5.
1283:Generated_Source\PSoC5/CyLib.c **** *
1284:Generated_Source\PSoC5/CyLib.c **** *******************************************************************************/
1285:Generated_Source\PSoC5/CyLib.c **** void CyXTAL_DisableErrStatus(void) 
1286:Generated_Source\PSoC5/CyLib.c **** {
 1129              		.loc 1 1286 0
 1130              		.cfi_startproc
 1131              		@ args = 0, pretend = 0, frame = 0
 1132              		@ frame_needed = 0, uses_anonymous_args = 0
 1133              		@ link register save eliminated.
1287:Generated_Source\PSoC5/CyLib.c ****     /* If oscillator has insufficient amplitude, XERR bit will be high. */
1288:Generated_Source\PSoC5/CyLib.c ****     CY_CLK_XMHZ_CSR_REG |= CY_CLK_XMHZ_CSR_XFB;
 1134              		.loc 1 1288 0
 1135 0000 024A     		ldr	r2, .L112
 1136 0002 1378     		ldrb	r3, [r2]	@ zero_extendqisi2
 1137 0004 43F00403 		orr	r3, r3, #4
 1138 0008 1370     		strb	r3, [r2]
 1139 000a 7047     		bx	lr
 1140              	.L113:
 1141              		.align	2
 1142              	.L112:
 1143 000c 10420040 		.word	1073758736
 1144              		.cfi_endproc
 1145              	.LFE32:
 1146              		.size	CyXTAL_DisableErrStatus, .-CyXTAL_DisableErrStatus
 1147              		.section	.text.CyXTAL_ReadStatus,"ax",%progbits
 1148              		.align	2
 1149              		.global	CyXTAL_ReadStatus
 1150              		.thumb
 1151              		.thumb_func
 1152              		.type	CyXTAL_ReadStatus, %function
 1153              	CyXTAL_ReadStatus:
 1154              	.LFB33:
1289:Generated_Source\PSoC5/CyLib.c **** }
1290:Generated_Source\PSoC5/CyLib.c **** 
1291:Generated_Source\PSoC5/CyLib.c **** 
1292:Generated_Source\PSoC5/CyLib.c **** /*******************************************************************************
1293:Generated_Source\PSoC5/CyLib.c **** * Function Name: CyXTAL_ReadStatus
1294:Generated_Source\PSoC5/CyLib.c **** ****************************************************************************//**
1295:Generated_Source\PSoC5/CyLib.c **** *
1296:Generated_Source\PSoC5/CyLib.c **** *  Reads the XERR status bit for the megahertz crystal. This status bit is a
ARM GAS  C:\Users\dmarsch\AppData\Local\Temp\ccNydXIK.s 			page 45


1297:Generated_Source\PSoC5/CyLib.c **** *  sticky, clear on read. This function is not available for PSoC5.
1298:Generated_Source\PSoC5/CyLib.c **** *
1299:Generated_Source\PSoC5/CyLib.c **** * \return
1300:Generated_Source\PSoC5/CyLib.c **** *   Status
1301:Generated_Source\PSoC5/CyLib.c **** *    0: No error
1302:Generated_Source\PSoC5/CyLib.c **** *    1: Error
1303:Generated_Source\PSoC5/CyLib.c **** *
1304:Generated_Source\PSoC5/CyLib.c **** *******************************************************************************/
1305:Generated_Source\PSoC5/CyLib.c **** uint8 CyXTAL_ReadStatus(void) 
1306:Generated_Source\PSoC5/CyLib.c **** {
 1155              		.loc 1 1306 0
 1156              		.cfi_startproc
 1157              		@ args = 0, pretend = 0, frame = 0
 1158              		@ frame_needed = 0, uses_anonymous_args = 0
 1159              		@ link register save eliminated.
1307:Generated_Source\PSoC5/CyLib.c ****     /***************************************************************************
1308:Generated_Source\PSoC5/CyLib.c ****     * High output indicates an oscillator failure. Only use this after a start-up
1309:Generated_Source\PSoC5/CyLib.c ****     * interval is completed. This can be used for the status and failure recovery.
1310:Generated_Source\PSoC5/CyLib.c ****     ***************************************************************************/
1311:Generated_Source\PSoC5/CyLib.c ****     return((0u != (CY_CLK_XMHZ_CSR_REG & CY_CLK_XMHZ_CSR_XERR)) ? 1u : 0u);
 1160              		.loc 1 1311 0
 1161 0000 044B     		ldr	r3, .L117
 1162 0002 1B78     		ldrb	r3, [r3]	@ zero_extendqisi2
 1163 0004 13F0800F 		tst	r3, #128
 1164 0008 01D0     		beq	.L116
 1165 000a 0120     		movs	r0, #1
 1166 000c 7047     		bx	lr
 1167              	.L116:
 1168 000e 0020     		movs	r0, #0
1312:Generated_Source\PSoC5/CyLib.c **** }
 1169              		.loc 1 1312 0
 1170 0010 7047     		bx	lr
 1171              	.L118:
 1172 0012 00BF     		.align	2
 1173              	.L117:
 1174 0014 10420040 		.word	1073758736
 1175              		.cfi_endproc
 1176              	.LFE33:
 1177              		.size	CyXTAL_ReadStatus, .-CyXTAL_ReadStatus
 1178              		.section	.text.CyXTAL_EnableFaultRecovery,"ax",%progbits
 1179              		.align	2
 1180              		.global	CyXTAL_EnableFaultRecovery
 1181              		.thumb
 1182              		.thumb_func
 1183              		.type	CyXTAL_EnableFaultRecovery, %function
 1184              	CyXTAL_EnableFaultRecovery:
 1185              	.LFB34:
1313:Generated_Source\PSoC5/CyLib.c **** 
1314:Generated_Source\PSoC5/CyLib.c **** 
1315:Generated_Source\PSoC5/CyLib.c **** /*******************************************************************************
1316:Generated_Source\PSoC5/CyLib.c **** * Function Name: CyXTAL_EnableFaultRecovery
1317:Generated_Source\PSoC5/CyLib.c **** ****************************************************************************//**
1318:Generated_Source\PSoC5/CyLib.c **** *
1319:Generated_Source\PSoC5/CyLib.c **** *  Enables the fault recovery circuit which will switch to the IMO in the case
1320:Generated_Source\PSoC5/CyLib.c **** *  of a fault in the megahertz crystal circuit. The crystal must be up and
1321:Generated_Source\PSoC5/CyLib.c **** *  running with the XERR bit at 0, before calling this function to prevent
1322:Generated_Source\PSoC5/CyLib.c **** *  an immediate fault switchover. This function is not available for PSoC5.
ARM GAS  C:\Users\dmarsch\AppData\Local\Temp\ccNydXIK.s 			page 46


1323:Generated_Source\PSoC5/CyLib.c **** *
1324:Generated_Source\PSoC5/CyLib.c **** *******************************************************************************/
1325:Generated_Source\PSoC5/CyLib.c **** void CyXTAL_EnableFaultRecovery(void) 
1326:Generated_Source\PSoC5/CyLib.c **** {
 1186              		.loc 1 1326 0
 1187              		.cfi_startproc
 1188              		@ args = 0, pretend = 0, frame = 0
 1189              		@ frame_needed = 0, uses_anonymous_args = 0
 1190              		@ link register save eliminated.
1327:Generated_Source\PSoC5/CyLib.c ****     CY_CLK_XMHZ_CSR_REG |= CY_CLK_XMHZ_CSR_XPROT;
 1191              		.loc 1 1327 0
 1192 0000 024A     		ldr	r2, .L120
 1193 0002 1378     		ldrb	r3, [r2]	@ zero_extendqisi2
 1194 0004 43F04003 		orr	r3, r3, #64
 1195 0008 1370     		strb	r3, [r2]
 1196 000a 7047     		bx	lr
 1197              	.L121:
 1198              		.align	2
 1199              	.L120:
 1200 000c 10420040 		.word	1073758736
 1201              		.cfi_endproc
 1202              	.LFE34:
 1203              		.size	CyXTAL_EnableFaultRecovery, .-CyXTAL_EnableFaultRecovery
 1204              		.section	.text.CyXTAL_DisableFaultRecovery,"ax",%progbits
 1205              		.align	2
 1206              		.global	CyXTAL_DisableFaultRecovery
 1207              		.thumb
 1208              		.thumb_func
 1209              		.type	CyXTAL_DisableFaultRecovery, %function
 1210              	CyXTAL_DisableFaultRecovery:
 1211              	.LFB35:
1328:Generated_Source\PSoC5/CyLib.c **** }
1329:Generated_Source\PSoC5/CyLib.c **** 
1330:Generated_Source\PSoC5/CyLib.c **** 
1331:Generated_Source\PSoC5/CyLib.c **** /*******************************************************************************
1332:Generated_Source\PSoC5/CyLib.c **** * Function Name: CyXTAL_DisableFaultRecovery
1333:Generated_Source\PSoC5/CyLib.c **** ****************************************************************************//**
1334:Generated_Source\PSoC5/CyLib.c **** *
1335:Generated_Source\PSoC5/CyLib.c **** *  Disables the fault recovery circuit which will switch to the IMO in the case
1336:Generated_Source\PSoC5/CyLib.c **** *  of a fault in the megahertz crystal circuit. This function is not available
1337:Generated_Source\PSoC5/CyLib.c **** *  for PSoC5.
1338:Generated_Source\PSoC5/CyLib.c **** *
1339:Generated_Source\PSoC5/CyLib.c **** *******************************************************************************/
1340:Generated_Source\PSoC5/CyLib.c **** void CyXTAL_DisableFaultRecovery(void) 
1341:Generated_Source\PSoC5/CyLib.c **** {
 1212              		.loc 1 1341 0
 1213              		.cfi_startproc
 1214              		@ args = 0, pretend = 0, frame = 0
 1215              		@ frame_needed = 0, uses_anonymous_args = 0
 1216              		@ link register save eliminated.
1342:Generated_Source\PSoC5/CyLib.c ****     CY_CLK_XMHZ_CSR_REG &= ((uint8)(~CY_CLK_XMHZ_CSR_XPROT));
 1217              		.loc 1 1342 0
 1218 0000 024A     		ldr	r2, .L123
 1219 0002 1378     		ldrb	r3, [r2]	@ zero_extendqisi2
 1220 0004 03F0BF03 		and	r3, r3, #191
 1221 0008 1370     		strb	r3, [r2]
 1222 000a 7047     		bx	lr
ARM GAS  C:\Users\dmarsch\AppData\Local\Temp\ccNydXIK.s 			page 47


 1223              	.L124:
 1224              		.align	2
 1225              	.L123:
 1226 000c 10420040 		.word	1073758736
 1227              		.cfi_endproc
 1228              	.LFE35:
 1229              		.size	CyXTAL_DisableFaultRecovery, .-CyXTAL_DisableFaultRecovery
 1230              		.section	.text.CyXTAL_SetStartup,"ax",%progbits
 1231              		.align	2
 1232              		.global	CyXTAL_SetStartup
 1233              		.thumb
 1234              		.thumb_func
 1235              		.type	CyXTAL_SetStartup, %function
 1236              	CyXTAL_SetStartup:
 1237              	.LFB36:
1343:Generated_Source\PSoC5/CyLib.c **** }
1344:Generated_Source\PSoC5/CyLib.c **** 
1345:Generated_Source\PSoC5/CyLib.c **** 
1346:Generated_Source\PSoC5/CyLib.c **** /*******************************************************************************
1347:Generated_Source\PSoC5/CyLib.c **** * Function Name: CyXTAL_SetStartup
1348:Generated_Source\PSoC5/CyLib.c **** ****************************************************************************//**
1349:Generated_Source\PSoC5/CyLib.c **** *
1350:Generated_Source\PSoC5/CyLib.c **** *  Sets the startup settings for the crystal. The logic model outputs a
1351:Generated_Source\PSoC5/CyLib.c **** *  frequency (setting + 4) MHz when enabled.
1352:Generated_Source\PSoC5/CyLib.c **** *
1353:Generated_Source\PSoC5/CyLib.c **** *  This is artificial as the actual frequency is determined by an attached
1354:Generated_Source\PSoC5/CyLib.c **** *  external crystal.
1355:Generated_Source\PSoC5/CyLib.c **** *
1356:Generated_Source\PSoC5/CyLib.c **** *  \param setting: Valid range [0-31].
1357:Generated_Source\PSoC5/CyLib.c **** *   The value is dependent on the frequency and quality of the crystal being
1358:Generated_Source\PSoC5/CyLib.c **** *   used. Refer to the device TRM and datasheet for more information.
1359:Generated_Source\PSoC5/CyLib.c **** *
1360:Generated_Source\PSoC5/CyLib.c **** *******************************************************************************/
1361:Generated_Source\PSoC5/CyLib.c **** void CyXTAL_SetStartup(uint8 setting) 
1362:Generated_Source\PSoC5/CyLib.c **** {
 1238              		.loc 1 1362 0
 1239              		.cfi_startproc
 1240              		@ args = 0, pretend = 0, frame = 0
 1241              		@ frame_needed = 0, uses_anonymous_args = 0
 1242              		@ link register save eliminated.
 1243              	.LVL64:
1363:Generated_Source\PSoC5/CyLib.c ****     CY_CLK_XMHZ_CFG0_REG = (CY_CLK_XMHZ_CFG0_REG & ((uint8)(~CY_CLK_XMHZ_CFG0_XCFG_MASK))) |
 1244              		.loc 1 1363 0
 1245 0000 044A     		ldr	r2, .L126
 1246 0002 1378     		ldrb	r3, [r2]	@ zero_extendqisi2
 1247 0004 03F0E003 		and	r3, r3, #224
 1248 0008 00F01F00 		and	r0, r0, #31
 1249              	.LVL65:
 1250 000c 1843     		orrs	r0, r0, r3
 1251 000e 1070     		strb	r0, [r2]
 1252 0010 7047     		bx	lr
 1253              	.L127:
 1254 0012 00BF     		.align	2
 1255              	.L126:
 1256 0014 12420040 		.word	1073758738
 1257              		.cfi_endproc
 1258              	.LFE36:
ARM GAS  C:\Users\dmarsch\AppData\Local\Temp\ccNydXIK.s 			page 48


 1259              		.size	CyXTAL_SetStartup, .-CyXTAL_SetStartup
 1260              		.section	.text.CyXTAL_SetFbVoltage,"ax",%progbits
 1261              		.align	2
 1262              		.global	CyXTAL_SetFbVoltage
 1263              		.thumb
 1264              		.thumb_func
 1265              		.type	CyXTAL_SetFbVoltage, %function
 1266              	CyXTAL_SetFbVoltage:
 1267              	.LFB37:
1364:Generated_Source\PSoC5/CyLib.c ****                            (setting & CY_CLK_XMHZ_CFG0_XCFG_MASK);
1365:Generated_Source\PSoC5/CyLib.c **** }
1366:Generated_Source\PSoC5/CyLib.c **** 
1367:Generated_Source\PSoC5/CyLib.c **** 
1368:Generated_Source\PSoC5/CyLib.c **** 
1369:Generated_Source\PSoC5/CyLib.c **** /*******************************************************************************
1370:Generated_Source\PSoC5/CyLib.c **** * Function Name: CyXTAL_SetFbVoltage
1371:Generated_Source\PSoC5/CyLib.c **** ****************************************************************************//**
1372:Generated_Source\PSoC5/CyLib.c **** *
1373:Generated_Source\PSoC5/CyLib.c **** *  Sets the feedback reference voltage to use for the crystal circuit.
1374:Generated_Source\PSoC5/CyLib.c **** *  This function is only available for PSoC3 and PSoC 5LP.
1375:Generated_Source\PSoC5/CyLib.c **** *
1376:Generated_Source\PSoC5/CyLib.c **** *  \param setting: Valid range [0-15].
1377:Generated_Source\PSoC5/CyLib.c **** *  Refer to the device TRM and datasheet for more information.
1378:Generated_Source\PSoC5/CyLib.c **** *
1379:Generated_Source\PSoC5/CyLib.c **** *******************************************************************************/
1380:Generated_Source\PSoC5/CyLib.c **** void CyXTAL_SetFbVoltage(uint8 setting) 
1381:Generated_Source\PSoC5/CyLib.c **** {
 1268              		.loc 1 1381 0
 1269              		.cfi_startproc
 1270              		@ args = 0, pretend = 0, frame = 0
 1271              		@ frame_needed = 0, uses_anonymous_args = 0
 1272              		@ link register save eliminated.
 1273              	.LVL66:
1382:Generated_Source\PSoC5/CyLib.c ****     CY_CLK_XMHZ_CFG1_REG = ((CY_CLK_XMHZ_CFG1_REG & ((uint8)(~CY_CLK_XMHZ_CFG1_VREF_FB_MASK))) |
 1274              		.loc 1 1382 0
 1275 0000 044A     		ldr	r2, .L129
 1276 0002 1378     		ldrb	r3, [r2]	@ zero_extendqisi2
 1277 0004 03F0F003 		and	r3, r3, #240
 1278 0008 00F00F00 		and	r0, r0, #15
 1279              	.LVL67:
 1280 000c 1843     		orrs	r0, r0, r3
 1281 000e 1070     		strb	r0, [r2]
 1282 0010 7047     		bx	lr
 1283              	.L130:
 1284 0012 00BF     		.align	2
 1285              	.L129:
 1286 0014 13420040 		.word	1073758739
 1287              		.cfi_endproc
 1288              	.LFE37:
 1289              		.size	CyXTAL_SetFbVoltage, .-CyXTAL_SetFbVoltage
 1290              		.section	.text.CyXTAL_SetWdVoltage,"ax",%progbits
 1291              		.align	2
 1292              		.global	CyXTAL_SetWdVoltage
 1293              		.thumb
 1294              		.thumb_func
 1295              		.type	CyXTAL_SetWdVoltage, %function
 1296              	CyXTAL_SetWdVoltage:
ARM GAS  C:\Users\dmarsch\AppData\Local\Temp\ccNydXIK.s 			page 49


 1297              	.LFB38:
1383:Generated_Source\PSoC5/CyLib.c ****                             (setting & CY_CLK_XMHZ_CFG1_VREF_FB_MASK));
1384:Generated_Source\PSoC5/CyLib.c **** }
1385:Generated_Source\PSoC5/CyLib.c **** 
1386:Generated_Source\PSoC5/CyLib.c **** 
1387:Generated_Source\PSoC5/CyLib.c **** /*******************************************************************************
1388:Generated_Source\PSoC5/CyLib.c **** * Function Name: CyXTAL_SetWdVoltage
1389:Generated_Source\PSoC5/CyLib.c **** ****************************************************************************//**
1390:Generated_Source\PSoC5/CyLib.c **** *
1391:Generated_Source\PSoC5/CyLib.c **** *  Sets the reference voltage used by the watchdog to detect a failure in the
1392:Generated_Source\PSoC5/CyLib.c **** *  crystal circuit. This function is only available for PSoC3 and PSoC 5LP.
1393:Generated_Source\PSoC5/CyLib.c **** *
1394:Generated_Source\PSoC5/CyLib.c **** *  \param setting: Valid range [0-7].
1395:Generated_Source\PSoC5/CyLib.c **** *  Refer to the device TRM and datasheet for more information.
1396:Generated_Source\PSoC5/CyLib.c **** *
1397:Generated_Source\PSoC5/CyLib.c **** *******************************************************************************/
1398:Generated_Source\PSoC5/CyLib.c **** void CyXTAL_SetWdVoltage(uint8 setting) 
1399:Generated_Source\PSoC5/CyLib.c **** {
 1298              		.loc 1 1399 0
 1299              		.cfi_startproc
 1300              		@ args = 0, pretend = 0, frame = 0
 1301              		@ frame_needed = 0, uses_anonymous_args = 0
 1302              		@ link register save eliminated.
 1303              	.LVL68:
1400:Generated_Source\PSoC5/CyLib.c ****     CY_CLK_XMHZ_CFG1_REG = ((CY_CLK_XMHZ_CFG1_REG & ((uint8)(~CY_CLK_XMHZ_CFG1_VREF_WD_MASK))) |
 1304              		.loc 1 1400 0
 1305 0000 044A     		ldr	r2, .L132
 1306 0002 1378     		ldrb	r3, [r2]	@ zero_extendqisi2
1401:Generated_Source\PSoC5/CyLib.c ****                             (((uint8)(setting << 4u)) & CY_CLK_XMHZ_CFG1_VREF_WD_MASK));
 1307              		.loc 1 1401 0
 1308 0004 0001     		lsls	r0, r0, #4
 1309              	.LVL69:
1400:Generated_Source\PSoC5/CyLib.c ****     CY_CLK_XMHZ_CFG1_REG = ((CY_CLK_XMHZ_CFG1_REG & ((uint8)(~CY_CLK_XMHZ_CFG1_VREF_WD_MASK))) |
 1310              		.loc 1 1400 0
 1311 0006 03F08F03 		and	r3, r3, #143
 1312 000a 00F07000 		and	r0, r0, #112
 1313 000e 1843     		orrs	r0, r0, r3
 1314 0010 1070     		strb	r0, [r2]
 1315 0012 7047     		bx	lr
 1316              	.L133:
 1317              		.align	2
 1318              	.L132:
 1319 0014 13420040 		.word	1073758739
 1320              		.cfi_endproc
 1321              	.LFE38:
 1322              		.size	CyXTAL_SetWdVoltage, .-CyXTAL_SetWdVoltage
 1323              		.section	.text.CyHalt,"ax",%progbits
 1324              		.align	2
 1325              		.global	CyHalt
 1326              		.thumb
 1327              		.thumb_func
 1328              		.type	CyHalt, %function
 1329              	CyHalt:
 1330              	.LFB39:
1402:Generated_Source\PSoC5/CyLib.c **** }
1403:Generated_Source\PSoC5/CyLib.c **** 
1404:Generated_Source\PSoC5/CyLib.c **** 
ARM GAS  C:\Users\dmarsch\AppData\Local\Temp\ccNydXIK.s 			page 50


1405:Generated_Source\PSoC5/CyLib.c **** /*******************************************************************************
1406:Generated_Source\PSoC5/CyLib.c **** * Function Name: CyHalt
1407:Generated_Source\PSoC5/CyLib.c **** ****************************************************************************//**
1408:Generated_Source\PSoC5/CyLib.c **** *
1409:Generated_Source\PSoC5/CyLib.c **** *  Halts the CPU.
1410:Generated_Source\PSoC5/CyLib.c **** *
1411:Generated_Source\PSoC5/CyLib.c **** *  \param uint8 reason: Value to be used during debugging.
1412:Generated_Source\PSoC5/CyLib.c **** *
1413:Generated_Source\PSoC5/CyLib.c **** *******************************************************************************/
1414:Generated_Source\PSoC5/CyLib.c **** void CyHalt(uint8 reason) CYREENTRANT
1415:Generated_Source\PSoC5/CyLib.c **** {
 1331              		.loc 1 1415 0
 1332              		.cfi_startproc
 1333              		@ args = 0, pretend = 0, frame = 0
 1334              		@ frame_needed = 0, uses_anonymous_args = 0
 1335              		@ link register save eliminated.
 1336              	.LVL70:
1416:Generated_Source\PSoC5/CyLib.c ****     if(0u != reason)
1417:Generated_Source\PSoC5/CyLib.c ****     {
1418:Generated_Source\PSoC5/CyLib.c ****         /* To remove unreferenced local variable warning */
1419:Generated_Source\PSoC5/CyLib.c ****     }
1420:Generated_Source\PSoC5/CyLib.c **** 
1421:Generated_Source\PSoC5/CyLib.c ****     #if defined (__ARMCC_VERSION)
1422:Generated_Source\PSoC5/CyLib.c ****         __breakpoint(0x0);
1423:Generated_Source\PSoC5/CyLib.c ****     #elif defined(__GNUC__) || defined (__ICCARM__)
1424:Generated_Source\PSoC5/CyLib.c ****         __asm("    bkpt    1");
 1337              		.loc 1 1424 0
 1338              		.syntax unified
 1339              	@ 1424 "Generated_Source\PSoC5\CyLib.c" 1
 1340 0000 01BE     		    bkpt    1
 1341              	@ 0 "" 2
 1342              		.thumb
 1343              		.syntax unified
 1344 0002 7047     		bx	lr
 1345              		.cfi_endproc
 1346              	.LFE39:
 1347              		.size	CyHalt, .-CyHalt
 1348              		.section	.text.CyPLL_OUT_SetPQ,"ax",%progbits
 1349              		.align	2
 1350              		.global	CyPLL_OUT_SetPQ
 1351              		.thumb
 1352              		.thumb_func
 1353              		.type	CyPLL_OUT_SetPQ, %function
 1354              	CyPLL_OUT_SetPQ:
 1355              	.LFB2:
 188:Generated_Source\PSoC5/CyLib.c ****     /* Halt CPU in debug mode if PLL is enabled */
 1356              		.loc 1 188 0
 1357              		.cfi_startproc
 1358              		@ args = 0, pretend = 0, frame = 0
 1359              		@ frame_needed = 0, uses_anonymous_args = 0
 1360              	.LVL71:
 1361 0000 70B5     		push	{r4, r5, r6, lr}
 1362              		.cfi_def_cfa_offset 16
 1363              		.cfi_offset 4, -16
 1364              		.cfi_offset 5, -12
 1365              		.cfi_offset 6, -8
 1366              		.cfi_offset 14, -4
ARM GAS  C:\Users\dmarsch\AppData\Local\Temp\ccNydXIK.s 			page 51


 1367 0002 0546     		mov	r5, r0
 1368 0004 0C46     		mov	r4, r1
 1369 0006 1646     		mov	r6, r2
 190:Generated_Source\PSoC5/CyLib.c **** 
 1370              		.loc 1 190 0
 1371 0008 124B     		ldr	r3, .L140
 1372 000a 1B78     		ldrb	r3, [r3]	@ zero_extendqisi2
 1373 000c 13F0010F 		tst	r3, #1
 1374 0010 02D0     		beq	.L136
 190:Generated_Source\PSoC5/CyLib.c **** 
 1375              		.loc 1 190 0 is_stmt 0 discriminator 1
 1376 0012 0020     		movs	r0, #0
 1377              	.LVL72:
 1378 0014 FFF7FEFF 		bl	CyHalt
 1379              	.LVL73:
 1380              	.L136:
 192:Generated_Source\PSoC5/CyLib.c ****        (qDiv    <= CY_CLK_PLL_MAX_Q_VALUE  ) && (qDiv    >= CY_CLK_PLL_MIN_Q_VALUE  ) &&
 1381              		.loc 1 192 0 is_stmt 1
 1382 0018 072D     		cmp	r5, #7
 1383 001a 16D9     		bls	.L137
 192:Generated_Source\PSoC5/CyLib.c ****        (qDiv    <= CY_CLK_PLL_MAX_Q_VALUE  ) && (qDiv    >= CY_CLK_PLL_MIN_Q_VALUE  ) &&
 1384              		.loc 1 192 0 is_stmt 0 discriminator 1
 1385 001c 102C     		cmp	r4, #16
 1386 001e 14D8     		bhi	.L137
 193:Generated_Source\PSoC5/CyLib.c ****        (current >= CY_CLK_PLL_MIN_CUR_VALUE) && (current <= CY_CLK_PLL_MAX_CUR_VALUE))
 1387              		.loc 1 193 0 is_stmt 1
 1388 0020 9CB1     		cbz	r4, .L137
 193:Generated_Source\PSoC5/CyLib.c ****        (current >= CY_CLK_PLL_MIN_CUR_VALUE) && (current <= CY_CLK_PLL_MAX_CUR_VALUE))
 1389              		.loc 1 193 0 is_stmt 0 discriminator 1
 1390 0022 96B1     		cbz	r6, .L137
 194:Generated_Source\PSoC5/CyLib.c ****     {
 1391              		.loc 1 194 0 is_stmt 1
 1392 0024 072E     		cmp	r6, #7
 1393 0026 10D8     		bhi	.L137
 197:Generated_Source\PSoC5/CyLib.c ****         CY_CLK_PLL_Q_REG = ((uint8)(qDiv - 1u));
 1394              		.loc 1 197 0
 1395 0028 0B4B     		ldr	r3, .L140+4
 1396 002a 1D70     		strb	r5, [r3]
 198:Generated_Source\PSoC5/CyLib.c ****         CY_CLK_PLL_CFG1_REG = (CY_CLK_PLL_CFG1_REG & CY_CLK_PLL_CURRENT_MASK) |
 1397              		.loc 1 198 0
 1398 002c 013C     		subs	r4, r4, #1
 1399 002e E4B2     		uxtb	r4, r4
 1400 0030 0133     		adds	r3, r3, #1
 1401 0032 1C70     		strb	r4, [r3]
 199:Generated_Source\PSoC5/CyLib.c ****                                 ((uint8)(((uint8)(current - 1u)) << CY_CLK_PLL_CURRENT_POSITION));
 1402              		.loc 1 199 0
 1403 0034 0949     		ldr	r1, .L140+8
 1404 0036 0A78     		ldrb	r2, [r1]	@ zero_extendqisi2
 200:Generated_Source\PSoC5/CyLib.c ****     }
 1405              		.loc 1 200 0
 1406 0038 731E     		subs	r3, r6, #1
 1407 003a DBB2     		uxtb	r3, r3
 1408 003c 1B01     		lsls	r3, r3, #4
 1409 003e DBB2     		uxtb	r3, r3
 199:Generated_Source\PSoC5/CyLib.c ****                                 ((uint8)(((uint8)(current - 1u)) << CY_CLK_PLL_CURRENT_POSITION));
 1410              		.loc 1 199 0
 1411 0040 02F08F02 		and	r2, r2, #143
ARM GAS  C:\Users\dmarsch\AppData\Local\Temp\ccNydXIK.s 			page 52


 1412 0044 1343     		orrs	r3, r3, r2
 1413 0046 0B70     		strb	r3, [r1]
 1414 0048 70BD     		pop	{r4, r5, r6, pc}
 1415              	.L137:
 210:Generated_Source\PSoC5/CyLib.c ****     }
 1416              		.loc 1 210 0 discriminator 1
 1417 004a 0020     		movs	r0, #0
 1418 004c FFF7FEFF 		bl	CyHalt
 1419              	.LVL74:
 1420 0050 70BD     		pop	{r4, r5, r6, pc}
 1421              	.L141:
 1422 0052 00BF     		.align	2
 1423              	.L140:
 1424 0054 20420040 		.word	1073758752
 1425 0058 22420040 		.word	1073758754
 1426 005c 21420040 		.word	1073758753
 1427              		.cfi_endproc
 1428              	.LFE2:
 1429              		.size	CyPLL_OUT_SetPQ, .-CyPLL_OUT_SetPQ
 1430              		.section	.text.CyPLL_OUT_SetSource,"ax",%progbits
 1431              		.align	2
 1432              		.global	CyPLL_OUT_SetSource
 1433              		.thumb
 1434              		.thumb_func
 1435              		.type	CyPLL_OUT_SetSource, %function
 1436              	CyPLL_OUT_SetSource:
 1437              	.LFB3:
 238:Generated_Source\PSoC5/CyLib.c ****     /* Halt CPU in debug mode if PLL is enabled */
 1438              		.loc 1 238 0
 1439              		.cfi_startproc
 1440              		@ args = 0, pretend = 0, frame = 0
 1441              		@ frame_needed = 0, uses_anonymous_args = 0
 1442              	.LVL75:
 1443 0000 10B5     		push	{r4, lr}
 1444              		.cfi_def_cfa_offset 8
 1445              		.cfi_offset 4, -8
 1446              		.cfi_offset 14, -4
 1447 0002 0446     		mov	r4, r0
 240:Generated_Source\PSoC5/CyLib.c **** 
 1448              		.loc 1 240 0
 1449 0004 0A4B     		ldr	r3, .L148
 1450 0006 1B78     		ldrb	r3, [r3]	@ zero_extendqisi2
 1451 0008 13F0010F 		tst	r3, #1
 1452 000c 02D0     		beq	.L143
 240:Generated_Source\PSoC5/CyLib.c **** 
 1453              		.loc 1 240 0 is_stmt 0 discriminator 1
 1454 000e 0020     		movs	r0, #0
 1455              	.LVL76:
 1456 0010 FFF7FEFF 		bl	CyHalt
 1457              	.LVL77:
 1458              	.L143:
 242:Generated_Source\PSoC5/CyLib.c ****     {
 1459              		.loc 1 242 0 is_stmt 1
 1460 0014 022C     		cmp	r4, #2
 1461 0016 07D8     		bhi	.L144
 247:Generated_Source\PSoC5/CyLib.c ****         break;
 1462              		.loc 1 247 0
ARM GAS  C:\Users\dmarsch\AppData\Local\Temp\ccNydXIK.s 			page 53


 1463 0018 4FF04023 		mov	r3, #1073758208
 1464 001c 1878     		ldrb	r0, [r3]	@ zero_extendqisi2
 1465 001e 00F0FC00 		and	r0, r0, #252
 1466 0022 2043     		orrs	r0, r0, r4
 1467 0024 1870     		strb	r0, [r3]
 248:Generated_Source\PSoC5/CyLib.c **** 
 1468              		.loc 1 248 0
 1469 0026 10BD     		pop	{r4, pc}
 1470              	.L144:
 251:Generated_Source\PSoC5/CyLib.c ****         break;
 1471              		.loc 1 251 0 discriminator 1
 1472 0028 0020     		movs	r0, #0
 1473 002a FFF7FEFF 		bl	CyHalt
 1474              	.LVL78:
 1475 002e 10BD     		pop	{r4, pc}
 1476              	.L149:
 1477              		.align	2
 1478              	.L148:
 1479 0030 20420040 		.word	1073758752
 1480              		.cfi_endproc
 1481              	.LFE3:
 1482              		.size	CyPLL_OUT_SetSource, .-CyPLL_OUT_SetSource
 1483              		.section	.text.CyIMO_SetTrimValue,"ax",%progbits
 1484              		.align	2
 1485              		.thumb
 1486              		.thumb_func
 1487              		.type	CyIMO_SetTrimValue, %function
 1488              	CyIMO_SetTrimValue:
 1489              	.LFB7:
 368:Generated_Source\PSoC5/CyLib.c ****     uint8 usbPowerOn = CyUSB_PowerOnCheck();
 1490              		.loc 1 368 0
 1491              		.cfi_startproc
 1492              		@ args = 0, pretend = 0, frame = 0
 1493              		@ frame_needed = 0, uses_anonymous_args = 0
 1494              	.LVL79:
 1495 0000 10B5     		push	{r4, lr}
 1496              		.cfi_def_cfa_offset 8
 1497              		.cfi_offset 4, -8
 1498              		.cfi_offset 14, -4
 1499 0002 0446     		mov	r4, r0
 369:Generated_Source\PSoC5/CyLib.c **** 
 1500              		.loc 1 369 0
 1501 0004 FFF7FEFF 		bl	CyUSB_PowerOnCheck
 1502              	.LVL80:
 372:Generated_Source\PSoC5/CyLib.c ****     {
 1503              		.loc 1 372 0
 1504 0008 0128     		cmp	r0, #1
 1505 000a 04D1     		bne	.L151
 375:Generated_Source\PSoC5/CyLib.c ****     }
 1506              		.loc 1 375 0
 1507 000c 254A     		ldr	r2, .L164
 1508 000e 1378     		ldrb	r3, [r2]	@ zero_extendqisi2
 1509 0010 03F0FD03 		and	r3, r3, #253
 1510 0014 1370     		strb	r3, [r2]
 1511              	.L151:
 377:Generated_Source\PSoC5/CyLib.c ****     {
 1512              		.loc 1 377 0
ARM GAS  C:\Users\dmarsch\AppData\Local\Temp\ccNydXIK.s 			page 54


 1513 0016 082C     		cmp	r4, #8
 1514 0018 3FD8     		bhi	.L152
 1515 001a DFE804F0 		tbb	[pc, r4]
 1516              	.L154:
 1517 001e 05       		.byte	(.L153-.L154)/2
 1518 001f 0B       		.byte	(.L155-.L154)/2
 1519 0020 11       		.byte	(.L156-.L154)/2
 1520 0021 17       		.byte	(.L157-.L154)/2
 1521 0022 1D       		.byte	(.L158-.L154)/2
 1522 0023 23       		.byte	(.L159-.L154)/2
 1523 0024 29       		.byte	(.L160-.L154)/2
 1524 0025 3E       		.byte	(.L152-.L154)/2
 1525 0026 2F       		.byte	(.L161-.L154)/2
 1526 0027 00       		.p2align 1
 1527              	.L153:
 380:Generated_Source\PSoC5/CyLib.c ****         break;
 1528              		.loc 1 380 0
 1529 0028 1F4B     		ldr	r3, .L164+4
 1530 002a 1B78     		ldrb	r3, [r3]	@ zero_extendqisi2
 1531 002c DBB2     		uxtb	r3, r3
 1532 002e 1F4A     		ldr	r2, .L164+8
 1533 0030 1370     		strb	r3, [r2]
 381:Generated_Source\PSoC5/CyLib.c **** 
 1534              		.loc 1 381 0
 1535 0032 10BD     		pop	{r4, pc}
 1536              	.L155:
 384:Generated_Source\PSoC5/CyLib.c ****         break;
 1537              		.loc 1 384 0
 1538 0034 1E4B     		ldr	r3, .L164+12
 1539 0036 1B78     		ldrb	r3, [r3]	@ zero_extendqisi2
 1540 0038 DBB2     		uxtb	r3, r3
 1541 003a 1C4A     		ldr	r2, .L164+8
 1542 003c 1370     		strb	r3, [r2]
 385:Generated_Source\PSoC5/CyLib.c **** 
 1543              		.loc 1 385 0
 1544 003e 10BD     		pop	{r4, pc}
 1545              	.L156:
 388:Generated_Source\PSoC5/CyLib.c ****         break;
 1546              		.loc 1 388 0
 1547 0040 1C4B     		ldr	r3, .L164+16
 1548 0042 1B78     		ldrb	r3, [r3]	@ zero_extendqisi2
 1549 0044 DBB2     		uxtb	r3, r3
 1550 0046 194A     		ldr	r2, .L164+8
 1551 0048 1370     		strb	r3, [r2]
 389:Generated_Source\PSoC5/CyLib.c **** 
 1552              		.loc 1 389 0
 1553 004a 10BD     		pop	{r4, pc}
 1554              	.L157:
 392:Generated_Source\PSoC5/CyLib.c ****         break;
 1555              		.loc 1 392 0
 1556 004c 1A4B     		ldr	r3, .L164+20
 1557 004e 1B78     		ldrb	r3, [r3]	@ zero_extendqisi2
 1558 0050 DBB2     		uxtb	r3, r3
 1559 0052 164A     		ldr	r2, .L164+8
 1560 0054 1370     		strb	r3, [r2]
 393:Generated_Source\PSoC5/CyLib.c **** 
 1561              		.loc 1 393 0
ARM GAS  C:\Users\dmarsch\AppData\Local\Temp\ccNydXIK.s 			page 55


 1562 0056 10BD     		pop	{r4, pc}
 1563              	.L158:
 396:Generated_Source\PSoC5/CyLib.c ****         break;
 1564              		.loc 1 396 0
 1565 0058 184B     		ldr	r3, .L164+24
 1566 005a 1B78     		ldrb	r3, [r3]	@ zero_extendqisi2
 1567 005c DBB2     		uxtb	r3, r3
 1568 005e 134A     		ldr	r2, .L164+8
 1569 0060 1370     		strb	r3, [r2]
 397:Generated_Source\PSoC5/CyLib.c **** 
 1570              		.loc 1 397 0
 1571 0062 10BD     		pop	{r4, pc}
 1572              	.L159:
 400:Generated_Source\PSoC5/CyLib.c ****         break;
 1573              		.loc 1 400 0
 1574 0064 164B     		ldr	r3, .L164+28
 1575 0066 1B78     		ldrb	r3, [r3]	@ zero_extendqisi2
 1576 0068 DBB2     		uxtb	r3, r3
 1577 006a 104A     		ldr	r2, .L164+8
 1578 006c 1370     		strb	r3, [r2]
 401:Generated_Source\PSoC5/CyLib.c **** 
 1579              		.loc 1 401 0
 1580 006e 10BD     		pop	{r4, pc}
 1581              	.L160:
 405:Generated_Source\PSoC5/CyLib.c ****         break;
 1582              		.loc 1 405 0
 1583 0070 144B     		ldr	r3, .L164+32
 1584 0072 1B78     		ldrb	r3, [r3]	@ zero_extendqisi2
 1585 0074 DBB2     		uxtb	r3, r3
 1586 0076 0D4A     		ldr	r2, .L164+8
 1587 0078 1370     		strb	r3, [r2]
 406:Generated_Source\PSoC5/CyLib.c **** #endif  /* (CY_PSOC5) */
 1588              		.loc 1 406 0
 1589 007a 10BD     		pop	{r4, pc}
 1590              	.L161:
 410:Generated_Source\PSoC5/CyLib.c **** 
 1591              		.loc 1 410 0
 1592 007c 124B     		ldr	r3, .L164+36
 1593 007e 1B78     		ldrb	r3, [r3]	@ zero_extendqisi2
 1594 0080 DBB2     		uxtb	r3, r3
 1595 0082 0A4A     		ldr	r2, .L164+8
 1596 0084 1370     		strb	r3, [r2]
 413:Generated_Source\PSoC5/CyLib.c ****         {
 1597              		.loc 1 413 0
 1598 0086 0128     		cmp	r0, #1
 1599 0088 0AD1     		bne	.L150
 416:Generated_Source\PSoC5/CyLib.c ****         }
 1600              		.loc 1 416 0
 1601 008a 02F5CB52 		add	r2, r2, #6496
 1602 008e 0832     		adds	r2, r2, #8
 1603 0090 1378     		ldrb	r3, [r2]	@ zero_extendqisi2
 1604 0092 43F00203 		orr	r3, r3, #2
 1605 0096 1370     		strb	r3, [r2]
 1606 0098 10BD     		pop	{r4, pc}
 1607              	.L152:
 421:Generated_Source\PSoC5/CyLib.c ****         break;
 1608              		.loc 1 421 0 discriminator 1
ARM GAS  C:\Users\dmarsch\AppData\Local\Temp\ccNydXIK.s 			page 56


 1609 009a 0020     		movs	r0, #0
 1610              	.LVL81:
 1611 009c FFF7FEFF 		bl	CyHalt
 1612              	.LVL82:
 1613              	.L150:
 1614 00a0 10BD     		pop	{r4, pc}
 1615              	.L165:
 1616 00a2 00BF     		.align	2
 1617              	.L164:
 1618 00a4 09600040 		.word	1073766409
 1619 00a8 08010049 		.word	1224737032
 1620 00ac A1460040 		.word	1073759905
 1621 00b0 09010049 		.word	1224737033
 1622 00b4 0A010049 		.word	1224737034
 1623 00b8 0B010049 		.word	1224737035
 1624 00bc 89010049 		.word	1224737161
 1625 00c0 0C010049 		.word	1224737036
 1626 00c4 0D010049 		.word	1224737037
 1627 00c8 0F010049 		.word	1224737039
 1628              		.cfi_endproc
 1629              	.LFE7:
 1630              		.size	CyIMO_SetTrimValue, .-CyIMO_SetTrimValue
 1631              		.section	.text.CyIMO_SetFreq,"ax",%progbits
 1632              		.align	2
 1633              		.global	CyIMO_SetFreq
 1634              		.thumb
 1635              		.thumb_func
 1636              		.type	CyIMO_SetFreq, %function
 1637              	CyIMO_SetFreq:
 1638              	.LFB8:
 458:Generated_Source\PSoC5/CyLib.c ****     uint8 currentFreq;
 1639              		.loc 1 458 0
 1640              		.cfi_startproc
 1641              		@ args = 0, pretend = 0, frame = 0
 1642              		@ frame_needed = 0, uses_anonymous_args = 0
 1643              	.LVL83:
 1644 0000 70B5     		push	{r4, r5, r6, lr}
 1645              		.cfi_def_cfa_offset 16
 1646              		.cfi_offset 4, -16
 1647              		.cfi_offset 5, -12
 1648              		.cfi_offset 6, -8
 1649              		.cfi_offset 14, -4
 1650 0002 0646     		mov	r6, r0
 469:Generated_Source\PSoC5/CyLib.c **** 
 1651              		.loc 1 469 0
 1652 0004 3A4B     		ldr	r3, .L191
 1653 0006 1C78     		ldrb	r4, [r3]	@ zero_extendqisi2
 1654 0008 04F00704 		and	r4, r4, #7
 1655              	.LVL84:
 472:Generated_Source\PSoC5/CyLib.c **** 
 1656              		.loc 1 472 0
 1657 000c 0828     		cmp	r0, #8
 1658 000e 01D1     		bne	.L189
 1659 0010 0325     		movs	r5, #3
 1660 0012 00E0     		b	.L167
 1661              	.L189:
 1662 0014 0546     		mov	r5, r0
ARM GAS  C:\Users\dmarsch\AppData\Local\Temp\ccNydXIK.s 			page 57


 1663              	.L167:
 1664              	.LVL85:
 474:Generated_Source\PSoC5/CyLib.c ****     {
 1665              		.loc 1 474 0 discriminator 4
 1666 0016 062C     		cmp	r4, #6
 1667 0018 0BD8     		bhi	.L168
 1668 001a DFE804F0 		tbb	[pc, r4]
 1669              	.L170:
 1670 001e 04       		.byte	(.L169-.L170)/2
 1671 001f 0D       		.byte	(.L171-.L170)/2
 1672 0020 06       		.byte	(.L172-.L170)/2
 1673 0021 08       		.byte	(.L173-.L170)/2
 1674 0022 0D       		.byte	(.L171-.L170)/2
 1675 0023 0D       		.byte	(.L171-.L170)/2
 1676 0024 0D       		.byte	(.L171-.L170)/2
 1677 0025 00       		.p2align 1
 1678              	.L169:
 477:Generated_Source\PSoC5/CyLib.c ****         break;
 1679              		.loc 1 477 0
 1680 0026 0224     		movs	r4, #2
 1681              	.LVL86:
 1682 0028 06E0     		b	.L171
 1683              	.LVL87:
 1684              	.L172:
 485:Generated_Source\PSoC5/CyLib.c ****         break;
 1685              		.loc 1 485 0
 1686 002a 0324     		movs	r4, #3
 486:Generated_Source\PSoC5/CyLib.c **** 
 1687              		.loc 1 486 0
 1688 002c 04E0     		b	.L171
 1689              	.LVL88:
 1690              	.L173:
 489:Generated_Source\PSoC5/CyLib.c ****         break;
 1691              		.loc 1 489 0
 1692 002e 0024     		movs	r4, #0
 490:Generated_Source\PSoC5/CyLib.c **** 
 1693              		.loc 1 490 0
 1694 0030 02E0     		b	.L171
 1695              	.LVL89:
 1696              	.L168:
 507:Generated_Source\PSoC5/CyLib.c ****         break;
 1697              		.loc 1 507 0 discriminator 1
 1698 0032 0020     		movs	r0, #0
 1699              	.LVL90:
 1700 0034 FFF7FEFF 		bl	CyHalt
 1701              	.LVL91:
 1702              	.L171:
 511:Generated_Source\PSoC5/CyLib.c ****     {
 1703              		.loc 1 511 0
 1704 0038 AC42     		cmp	r4, r5
 1705 003a 02D8     		bhi	.L174
 514:Generated_Source\PSoC5/CyLib.c ****     }
 1706              		.loc 1 514 0
 1707 003c 3046     		mov	r0, r6
 1708 003e FFF7FEFF 		bl	CyIMO_SetTrimValue
 1709              	.LVL92:
 1710              	.L174:
ARM GAS  C:\Users\dmarsch\AppData\Local\Temp\ccNydXIK.s 			page 58


 518:Generated_Source\PSoC5/CyLib.c ****     {
 1711              		.loc 1 518 0
 1712 0042 082E     		cmp	r6, #8
 1713 0044 44D8     		bhi	.L175
 1714 0046 DFE806F0 		tbb	[pc, r6]
 1715              	.L177:
 1716 004a 05       		.byte	(.L176-.L177)/2
 1717 004b 0D       		.byte	(.L178-.L177)/2
 1718 004c 15       		.byte	(.L179-.L177)/2
 1719 004d 1B       		.byte	(.L180-.L177)/2
 1720 004e 23       		.byte	(.L181-.L177)/2
 1721 004f 2B       		.byte	(.L182-.L177)/2
 1722 0050 33       		.byte	(.L183-.L177)/2
 1723 0051 43       		.byte	(.L175-.L177)/2
 1724 0052 3B       		.byte	(.L184-.L177)/2
 1725 0053 00       		.p2align 1
 1726              	.L176:
 521:Generated_Source\PSoC5/CyLib.c ****             CY_LIB_IMO_3MHZ_VALUE) & ((uint8)(~CY_LIB_IMO_USBCLK_ON_SET));
 1727              		.loc 1 521 0
 1728 0054 264A     		ldr	r2, .L191
 1729 0056 1378     		ldrb	r3, [r2]	@ zero_extendqisi2
 1730 0058 03F0B803 		and	r3, r3, #184
 1731 005c 43F00303 		orr	r3, r3, #3
 1732 0060 1370     		strb	r3, [r2]
 523:Generated_Source\PSoC5/CyLib.c **** 
 1733              		.loc 1 523 0
 1734 0062 38E0     		b	.L185
 1735              	.L178:
 526:Generated_Source\PSoC5/CyLib.c ****             CY_LIB_IMO_6MHZ_VALUE) & ((uint8)(~CY_LIB_IMO_USBCLK_ON_SET));
 1736              		.loc 1 526 0
 1737 0064 224A     		ldr	r2, .L191
 1738 0066 1378     		ldrb	r3, [r2]	@ zero_extendqisi2
 1739 0068 03F0B803 		and	r3, r3, #184
 1740 006c 43F00103 		orr	r3, r3, #1
 1741 0070 1370     		strb	r3, [r2]
 528:Generated_Source\PSoC5/CyLib.c **** 
 1742              		.loc 1 528 0
 1743 0072 30E0     		b	.L185
 1744              	.L179:
 531:Generated_Source\PSoC5/CyLib.c ****             CY_LIB_IMO_12MHZ_VALUE) & ((uint8)(~CY_LIB_IMO_USBCLK_ON_SET));
 1745              		.loc 1 531 0
 1746 0074 1E4A     		ldr	r2, .L191
 1747 0076 1378     		ldrb	r3, [r2]	@ zero_extendqisi2
 1748 0078 03F0B803 		and	r3, r3, #184
 1749 007c 1370     		strb	r3, [r2]
 533:Generated_Source\PSoC5/CyLib.c **** 
 1750              		.loc 1 533 0
 1751 007e 2AE0     		b	.L185
 1752              	.L180:
 536:Generated_Source\PSoC5/CyLib.c ****             CY_LIB_IMO_24MHZ_VALUE) & ((uint8)(~CY_LIB_IMO_USBCLK_ON_SET));
 1753              		.loc 1 536 0
 1754 0080 1B4A     		ldr	r2, .L191
 1755 0082 1378     		ldrb	r3, [r2]	@ zero_extendqisi2
 1756 0084 03F0B803 		and	r3, r3, #184
 1757 0088 43F00203 		orr	r3, r3, #2
 1758 008c 1370     		strb	r3, [r2]
 538:Generated_Source\PSoC5/CyLib.c **** 
ARM GAS  C:\Users\dmarsch\AppData\Local\Temp\ccNydXIK.s 			page 59


 1759              		.loc 1 538 0
 1760 008e 22E0     		b	.L185
 1761              	.L181:
 541:Generated_Source\PSoC5/CyLib.c ****             CY_LIB_IMO_48MHZ_VALUE) & ((uint8)(~CY_LIB_IMO_USBCLK_ON_SET));
 1762              		.loc 1 541 0
 1763 0090 174A     		ldr	r2, .L191
 1764 0092 1378     		ldrb	r3, [r2]	@ zero_extendqisi2
 1765 0094 03F0B803 		and	r3, r3, #184
 1766 0098 43F00403 		orr	r3, r3, #4
 1767 009c 1370     		strb	r3, [r2]
 543:Generated_Source\PSoC5/CyLib.c **** 
 1768              		.loc 1 543 0
 1769 009e 1AE0     		b	.L185
 1770              	.L182:
 546:Generated_Source\PSoC5/CyLib.c ****             CY_LIB_IMO_62MHZ_VALUE) & ((uint8)(~CY_LIB_IMO_USBCLK_ON_SET));
 1771              		.loc 1 546 0
 1772 00a0 134A     		ldr	r2, .L191
 1773 00a2 1378     		ldrb	r3, [r2]	@ zero_extendqisi2
 1774 00a4 03F0B803 		and	r3, r3, #184
 1775 00a8 43F00503 		orr	r3, r3, #5
 1776 00ac 1370     		strb	r3, [r2]
 548:Generated_Source\PSoC5/CyLib.c **** 
 1777              		.loc 1 548 0
 1778 00ae 12E0     		b	.L185
 1779              	.L183:
 552:Generated_Source\PSoC5/CyLib.c ****             CY_LIB_IMO_74MHZ_VALUE) & ((uint8)(~CY_LIB_IMO_USBCLK_ON_SET));
 1780              		.loc 1 552 0
 1781 00b0 0F4A     		ldr	r2, .L191
 1782 00b2 1378     		ldrb	r3, [r2]	@ zero_extendqisi2
 1783 00b4 03F0B803 		and	r3, r3, #184
 1784 00b8 43F00603 		orr	r3, r3, #6
 1785 00bc 1370     		strb	r3, [r2]
 554:Generated_Source\PSoC5/CyLib.c **** #endif  /* (CY_PSOC5) */
 1786              		.loc 1 554 0
 1787 00be 0AE0     		b	.L185
 1788              	.L184:
 558:Generated_Source\PSoC5/CyLib.c ****             CY_LIB_IMO_24MHZ_VALUE) | CY_LIB_IMO_USBCLK_ON_SET;
 1789              		.loc 1 558 0
 1790 00c0 0B4A     		ldr	r2, .L191
 1791 00c2 1378     		ldrb	r3, [r2]	@ zero_extendqisi2
 1792 00c4 03F0B803 		and	r3, r3, #184
 1793 00c8 43F04203 		orr	r3, r3, #66
 1794 00cc 1370     		strb	r3, [r2]
 560:Generated_Source\PSoC5/CyLib.c **** 
 1795              		.loc 1 560 0
 1796 00ce 02E0     		b	.L185
 1797              	.L175:
 563:Generated_Source\PSoC5/CyLib.c ****         break;
 1798              		.loc 1 563 0 discriminator 1
 1799 00d0 0020     		movs	r0, #0
 1800 00d2 FFF7FEFF 		bl	CyHalt
 1801              	.LVL93:
 1802              	.L185:
 568:Generated_Source\PSoC5/CyLib.c ****     {
 1803              		.loc 1 568 0
 1804 00d6 082E     		cmp	r6, #8
 1805 00d8 02D1     		bne	.L186
ARM GAS  C:\Users\dmarsch\AppData\Local\Temp\ccNydXIK.s 			page 60


 570:Generated_Source\PSoC5/CyLib.c ****     }
 1806              		.loc 1 570 0
 1807 00da FFF7FEFF 		bl	CyIMO_EnableDoubler
 1808              	.LVL94:
 1809 00de 01E0     		b	.L187
 1810              	.L186:
 574:Generated_Source\PSoC5/CyLib.c ****     }
 1811              		.loc 1 574 0
 1812 00e0 FFF7FEFF 		bl	CyIMO_DisableDoubler
 1813              	.LVL95:
 1814              	.L187:
 577:Generated_Source\PSoC5/CyLib.c ****     {
 1815              		.loc 1 577 0
 1816 00e4 AC42     		cmp	r4, r5
 1817 00e6 02D9     		bls	.L166
 580:Generated_Source\PSoC5/CyLib.c ****     }
 1818              		.loc 1 580 0
 1819 00e8 3046     		mov	r0, r6
 1820 00ea FFF7FEFF 		bl	CyIMO_SetTrimValue
 1821              	.LVL96:
 1822              	.L166:
 1823 00ee 70BD     		pop	{r4, r5, r6, pc}
 1824              	.LVL97:
 1825              	.L192:
 1826              		.align	2
 1827              	.L191:
 1828 00f0 00420040 		.word	1073758720
 1829              		.cfi_endproc
 1830              	.LFE8:
 1831              		.size	CyIMO_SetFreq, .-CyIMO_SetFreq
 1832              		.section	.text.CyIMO_SetSource,"ax",%progbits
 1833              		.align	2
 1834              		.global	CyIMO_SetSource
 1835              		.thumb
 1836              		.thumb_func
 1837              		.type	CyIMO_SetSource, %function
 1838              	CyIMO_SetSource:
 1839              	.LFB9:
 608:Generated_Source\PSoC5/CyLib.c ****     switch(source)
 1840              		.loc 1 608 0
 1841              		.cfi_startproc
 1842              		@ args = 0, pretend = 0, frame = 0
 1843              		@ frame_needed = 0, uses_anonymous_args = 0
 1844              	.LVL98:
 1845 0000 08B5     		push	{r3, lr}
 1846              		.cfi_def_cfa_offset 8
 1847              		.cfi_offset 3, -8
 1848              		.cfi_offset 14, -4
 609:Generated_Source\PSoC5/CyLib.c ****     {
 1849              		.loc 1 609 0
 1850 0002 0128     		cmp	r0, #1
 1851 0004 0FD0     		beq	.L195
 1852 0006 D8B1     		cbz	r0, .L196
 1853 0008 0228     		cmp	r0, #2
 1854 000a 1FD1     		bne	.L199
 612:Generated_Source\PSoC5/CyLib.c ****         CY_LIB_FASTCLK_IMO_CR_REG |= CY_LIB_FASTCLK_IMO_IMO;
 1855              		.loc 1 612 0
ARM GAS  C:\Users\dmarsch\AppData\Local\Temp\ccNydXIK.s 			page 61


 1856 000c 4FF04022 		mov	r2, #1073758208
 1857 0010 1378     		ldrb	r3, [r2]	@ zero_extendqisi2
 1858 0012 03F0BF03 		and	r3, r3, #191
 1859 0016 1370     		strb	r3, [r2]
 613:Generated_Source\PSoC5/CyLib.c ****         break;
 1860              		.loc 1 613 0
 1861 0018 02F50072 		add	r2, r2, #512
 1862 001c 1378     		ldrb	r3, [r2]	@ zero_extendqisi2
 1863 001e 43F02003 		orr	r3, r3, #32
 1864 0022 1370     		strb	r3, [r2]
 614:Generated_Source\PSoC5/CyLib.c **** 
 1865              		.loc 1 614 0
 1866 0024 08BD     		pop	{r3, pc}
 1867              	.L195:
 617:Generated_Source\PSoC5/CyLib.c ****         CY_LIB_FASTCLK_IMO_CR_REG |= CY_LIB_FASTCLK_IMO_IMO;
 1868              		.loc 1 617 0
 1869 0026 4FF04022 		mov	r2, #1073758208
 1870 002a 1378     		ldrb	r3, [r2]	@ zero_extendqisi2
 1871 002c 43F04003 		orr	r3, r3, #64
 1872 0030 1370     		strb	r3, [r2]
 618:Generated_Source\PSoC5/CyLib.c ****         break;
 1873              		.loc 1 618 0
 1874 0032 02F50072 		add	r2, r2, #512
 1875 0036 1378     		ldrb	r3, [r2]	@ zero_extendqisi2
 1876 0038 43F02003 		orr	r3, r3, #32
 1877 003c 1370     		strb	r3, [r2]
 619:Generated_Source\PSoC5/CyLib.c **** 
 1878              		.loc 1 619 0
 1879 003e 08BD     		pop	{r3, pc}
 1880              	.L196:
 622:Generated_Source\PSoC5/CyLib.c ****         break;
 1881              		.loc 1 622 0
 1882 0040 044A     		ldr	r2, .L201
 1883 0042 1378     		ldrb	r3, [r2]	@ zero_extendqisi2
 1884 0044 03F0DF03 		and	r3, r3, #223
 1885 0048 1370     		strb	r3, [r2]
 623:Generated_Source\PSoC5/CyLib.c **** 
 1886              		.loc 1 623 0
 1887 004a 08BD     		pop	{r3, pc}
 1888              	.L199:
 627:Generated_Source\PSoC5/CyLib.c ****         break;
 1889              		.loc 1 627 0 discriminator 1
 1890 004c 0020     		movs	r0, #0
 1891              	.LVL99:
 1892 004e FFF7FEFF 		bl	CyHalt
 1893              	.LVL100:
 1894 0052 08BD     		pop	{r3, pc}
 1895              	.L202:
 1896              		.align	2
 1897              	.L201:
 1898 0054 00420040 		.word	1073758720
 1899              		.cfi_endproc
 1900              	.LFE9:
 1901              		.size	CyIMO_SetSource, .-CyIMO_SetSource
 1902              		.section	.text.CySoftwareReset,"ax",%progbits
 1903              		.align	2
 1904              		.global	CySoftwareReset
ARM GAS  C:\Users\dmarsch\AppData\Local\Temp\ccNydXIK.s 			page 62


 1905              		.thumb
 1906              		.thumb_func
 1907              		.type	CySoftwareReset, %function
 1908              	CySoftwareReset:
 1909              	.LFB40:
1425:Generated_Source\PSoC5/CyLib.c ****     #elif defined(__C51__)
1426:Generated_Source\PSoC5/CyLib.c ****         CYDEV_HALT_CPU;
1427:Generated_Source\PSoC5/CyLib.c ****     #endif  /* (__ARMCC_VERSION) */
1428:Generated_Source\PSoC5/CyLib.c **** }
1429:Generated_Source\PSoC5/CyLib.c **** 
1430:Generated_Source\PSoC5/CyLib.c **** 
1431:Generated_Source\PSoC5/CyLib.c **** /*******************************************************************************
1432:Generated_Source\PSoC5/CyLib.c **** * Function Name: CySoftwareReset
1433:Generated_Source\PSoC5/CyLib.c **** ****************************************************************************//**
1434:Generated_Source\PSoC5/CyLib.c **** *
1435:Generated_Source\PSoC5/CyLib.c **** *  Forces a device software reset.
1436:Generated_Source\PSoC5/CyLib.c **** *
1437:Generated_Source\PSoC5/CyLib.c **** *******************************************************************************/
1438:Generated_Source\PSoC5/CyLib.c **** void CySoftwareReset(void) 
1439:Generated_Source\PSoC5/CyLib.c **** {
 1910              		.loc 1 1439 0
 1911              		.cfi_startproc
 1912              		@ args = 0, pretend = 0, frame = 0
 1913              		@ frame_needed = 0, uses_anonymous_args = 0
 1914              		@ link register save eliminated.
1440:Generated_Source\PSoC5/CyLib.c ****     CY_LIB_RESET_CR2_REG |= CY_LIB_RESET_CR2_RESET;
 1915              		.loc 1 1440 0
 1916 0000 024A     		ldr	r2, .L204
 1917 0002 1378     		ldrb	r3, [r2]	@ zero_extendqisi2
 1918 0004 43F00103 		orr	r3, r3, #1
 1919 0008 1370     		strb	r3, [r2]
 1920 000a 7047     		bx	lr
 1921              	.L205:
 1922              		.align	2
 1923              	.L204:
 1924 000c F6460040 		.word	1073759990
 1925              		.cfi_endproc
 1926              	.LFE40:
 1927              		.size	CySoftwareReset, .-CySoftwareReset
 1928              		.section	.text.CyDelay,"ax",%progbits
 1929              		.align	2
 1930              		.global	CyDelay
 1931              		.thumb
 1932              		.thumb_func
 1933              		.type	CyDelay, %function
 1934              	CyDelay:
 1935              	.LFB41:
1441:Generated_Source\PSoC5/CyLib.c **** }
1442:Generated_Source\PSoC5/CyLib.c **** 
1443:Generated_Source\PSoC5/CyLib.c **** 
1444:Generated_Source\PSoC5/CyLib.c **** /*******************************************************************************
1445:Generated_Source\PSoC5/CyLib.c **** * Function Name: CyDelay
1446:Generated_Source\PSoC5/CyLib.c **** ****************************************************************************//**
1447:Generated_Source\PSoC5/CyLib.c **** *
1448:Generated_Source\PSoC5/CyLib.c **** *  Blocks for milliseconds.
1449:Generated_Source\PSoC5/CyLib.c **** *
1450:Generated_Source\PSoC5/CyLib.c **** *  Note:
ARM GAS  C:\Users\dmarsch\AppData\Local\Temp\ccNydXIK.s 			page 63


1451:Generated_Source\PSoC5/CyLib.c **** *  CyDelay has been implemented with the instruction cache assumed enabled. When
1452:Generated_Source\PSoC5/CyLib.c **** *  the instruction cache is disabled on PSoC5, CyDelay will be two times larger.
1453:Generated_Source\PSoC5/CyLib.c **** *  For example, with instruction cache disabled CyDelay(100) would result in
1454:Generated_Source\PSoC5/CyLib.c **** *  about 200 ms delay instead of 100 ms.
1455:Generated_Source\PSoC5/CyLib.c **** *
1456:Generated_Source\PSoC5/CyLib.c **** *  \param milliseconds: number of milliseconds to delay.
1457:Generated_Source\PSoC5/CyLib.c **** *
1458:Generated_Source\PSoC5/CyLib.c **** *******************************************************************************/
1459:Generated_Source\PSoC5/CyLib.c **** void CyDelay(uint32 milliseconds) CYREENTRANT
1460:Generated_Source\PSoC5/CyLib.c **** {
 1936              		.loc 1 1460 0
 1937              		.cfi_startproc
 1938              		@ args = 0, pretend = 0, frame = 0
 1939              		@ frame_needed = 0, uses_anonymous_args = 0
 1940              	.LVL101:
 1941 0000 10B5     		push	{r4, lr}
 1942              		.cfi_def_cfa_offset 8
 1943              		.cfi_offset 4, -8
 1944              		.cfi_offset 14, -4
 1945 0002 0446     		mov	r4, r0
1461:Generated_Source\PSoC5/CyLib.c ****     while (milliseconds > 32768u)
