ARM GAS  C:\Users\dmarsch\AppData\Local\Temp\ccl1OWHj.s 			page 1


   1              		.syntax unified
   2              		.cpu cortex-m3
   3              		.fpu softvfp
   4              		.eabi_attribute 20, 1
   5              		.eabi_attribute 21, 1
   6              		.eabi_attribute 23, 3
   7              		.eabi_attribute 24, 1
   8              		.eabi_attribute 25, 1
   9              		.eabi_attribute 26, 1
  10              		.eabi_attribute 30, 1
  11              		.eabi_attribute 34, 1
  12              		.eabi_attribute 18, 4
  13              		.thumb
  14              		.syntax unified
  15              		.file	"ENC.c"
  16              		.text
  17              	.Ltext0:
  18              		.cfi_sections	.debug_frame
  19              		.section	.text.ENC_Write,"ax",%progbits
  20              		.align	2
  21              		.global	ENC_Write
  22              		.thumb
  23              		.thumb_func
  24              		.type	ENC_Write, %function
  25              	ENC_Write:
  26              	.LFB0:
  27              		.file 1 "Generated_Source\\PSoC5\\ENC.c"
   1:Generated_Source\PSoC5/ENC.c **** /*******************************************************************************
   2:Generated_Source\PSoC5/ENC.c **** * File Name: ENC.c  
   3:Generated_Source\PSoC5/ENC.c **** * Version 2.20
   4:Generated_Source\PSoC5/ENC.c **** *
   5:Generated_Source\PSoC5/ENC.c **** * Description:
   6:Generated_Source\PSoC5/ENC.c **** *  This file contains API to enable firmware control of a Pins component.
   7:Generated_Source\PSoC5/ENC.c **** *
   8:Generated_Source\PSoC5/ENC.c **** * Note:
   9:Generated_Source\PSoC5/ENC.c **** *
  10:Generated_Source\PSoC5/ENC.c **** ********************************************************************************
  11:Generated_Source\PSoC5/ENC.c **** * Copyright 2008-2015, Cypress Semiconductor Corporation.  All rights reserved.
  12:Generated_Source\PSoC5/ENC.c **** * You may use this file only in accordance with the license, terms, conditions, 
  13:Generated_Source\PSoC5/ENC.c **** * disclaimers, and limitations in the end user license agreement accompanying 
  14:Generated_Source\PSoC5/ENC.c **** * the software package with which this file was provided.
  15:Generated_Source\PSoC5/ENC.c **** *******************************************************************************/
  16:Generated_Source\PSoC5/ENC.c **** 
  17:Generated_Source\PSoC5/ENC.c **** #include "cytypes.h"
  18:Generated_Source\PSoC5/ENC.c **** #include "ENC.h"
  19:Generated_Source\PSoC5/ENC.c **** 
  20:Generated_Source\PSoC5/ENC.c **** /* APIs are not generated for P15[7:6] on PSoC 5 */
  21:Generated_Source\PSoC5/ENC.c **** #if !(CY_PSOC5A &&\
  22:Generated_Source\PSoC5/ENC.c **** 	 ENC__PORT == 15 && ((ENC__MASK & 0xC0) != 0))
  23:Generated_Source\PSoC5/ENC.c **** 
  24:Generated_Source\PSoC5/ENC.c **** 
  25:Generated_Source\PSoC5/ENC.c **** /*******************************************************************************
  26:Generated_Source\PSoC5/ENC.c **** * Function Name: ENC_Write
  27:Generated_Source\PSoC5/ENC.c **** ****************************************************************************//**
  28:Generated_Source\PSoC5/ENC.c **** *
  29:Generated_Source\PSoC5/ENC.c **** * \brief Writes the value to the physical port (data output register), masking
  30:Generated_Source\PSoC5/ENC.c **** *  and shifting the bits appropriately. 
ARM GAS  C:\Users\dmarsch\AppData\Local\Temp\ccl1OWHj.s 			page 2


  31:Generated_Source\PSoC5/ENC.c **** *
  32:Generated_Source\PSoC5/ENC.c **** * The data output register controls the signal applied to the physical pin in 
  33:Generated_Source\PSoC5/ENC.c **** * conjunction with the drive mode parameter. This function avoids changing 
  34:Generated_Source\PSoC5/ENC.c **** * other bits in the port by using the appropriate method (read-modify-write or
  35:Generated_Source\PSoC5/ENC.c **** * bit banding).
  36:Generated_Source\PSoC5/ENC.c **** *
  37:Generated_Source\PSoC5/ENC.c **** * <b>Note</b> This function should not be used on a hardware digital output pin 
  38:Generated_Source\PSoC5/ENC.c **** * as it is driven by the hardware signal attached to it.
  39:Generated_Source\PSoC5/ENC.c **** *
  40:Generated_Source\PSoC5/ENC.c **** * \param value
  41:Generated_Source\PSoC5/ENC.c **** *  Value to write to the component instance.
  42:Generated_Source\PSoC5/ENC.c **** *
  43:Generated_Source\PSoC5/ENC.c **** * \return 
  44:Generated_Source\PSoC5/ENC.c **** *  None 
  45:Generated_Source\PSoC5/ENC.c **** *
  46:Generated_Source\PSoC5/ENC.c **** * \sideeffect
  47:Generated_Source\PSoC5/ENC.c **** *  If you use read-modify-write operations that are not atomic; the Interrupt 
  48:Generated_Source\PSoC5/ENC.c **** *  Service Routines (ISR) can cause corruption of this function. An ISR that 
  49:Generated_Source\PSoC5/ENC.c **** *  interrupts this function and performs writes to the Pins component data 
  50:Generated_Source\PSoC5/ENC.c **** *  register can cause corrupted port data. To avoid this issue, you should 
  51:Generated_Source\PSoC5/ENC.c **** *  either use the Per-Pin APIs (primary method) or disable interrupts around 
  52:Generated_Source\PSoC5/ENC.c **** *  this function.
  53:Generated_Source\PSoC5/ENC.c **** *
  54:Generated_Source\PSoC5/ENC.c **** * \funcusage
  55:Generated_Source\PSoC5/ENC.c **** *  \snippet ENC_SUT.c usage_ENC_Write
  56:Generated_Source\PSoC5/ENC.c **** *******************************************************************************/
  57:Generated_Source\PSoC5/ENC.c **** void ENC_Write(uint8 value)
  58:Generated_Source\PSoC5/ENC.c **** {
  28              		.loc 1 58 0
  29              		.cfi_startproc
  30              		@ args = 0, pretend = 0, frame = 0
  31              		@ frame_needed = 0, uses_anonymous_args = 0
  32              		@ link register save eliminated.
  33              	.LVL0:
  59:Generated_Source\PSoC5/ENC.c ****     uint8 staticBits = (ENC_DR & (uint8)(~ENC_MASK));
  34              		.loc 1 59 0
  35 0000 044A     		ldr	r2, .L2
  36 0002 1378     		ldrb	r3, [r2]	@ zero_extendqisi2
  37 0004 03F0FC03 		and	r3, r3, #252
  38              	.LVL1:
  60:Generated_Source\PSoC5/ENC.c ****     ENC_DR = staticBits | ((uint8)(value << ENC_SHIFT) & ENC_MASK);
  39              		.loc 1 60 0
  40 0008 00F00300 		and	r0, r0, #3
  41              	.LVL2:
  42 000c 1843     		orrs	r0, r0, r3
  43 000e 1070     		strb	r0, [r2]
  44 0010 7047     		bx	lr
  45              	.L3:
  46 0012 00BF     		.align	2
  47              	.L2:
  48 0014 30510040 		.word	1073762608
  49              		.cfi_endproc
  50              	.LFE0:
  51              		.size	ENC_Write, .-ENC_Write
  52              		.section	.text.ENC_SetDriveMode,"ax",%progbits
  53              		.align	2
  54              		.global	ENC_SetDriveMode
ARM GAS  C:\Users\dmarsch\AppData\Local\Temp\ccl1OWHj.s 			page 3


  55              		.thumb
  56              		.thumb_func
  57              		.type	ENC_SetDriveMode, %function
  58              	ENC_SetDriveMode:
  59              	.LFB1:
  61:Generated_Source\PSoC5/ENC.c **** }
  62:Generated_Source\PSoC5/ENC.c **** 
  63:Generated_Source\PSoC5/ENC.c **** 
  64:Generated_Source\PSoC5/ENC.c **** /*******************************************************************************
  65:Generated_Source\PSoC5/ENC.c **** * Function Name: ENC_SetDriveMode
  66:Generated_Source\PSoC5/ENC.c **** ****************************************************************************//**
  67:Generated_Source\PSoC5/ENC.c **** *
  68:Generated_Source\PSoC5/ENC.c **** * \brief Sets the drive mode for each of the Pins component's pins.
  69:Generated_Source\PSoC5/ENC.c **** * 
  70:Generated_Source\PSoC5/ENC.c **** * <b>Note</b> This affects all pins in the Pins component instance. Use the
  71:Generated_Source\PSoC5/ENC.c **** * Per-Pin APIs if you wish to control individual pin's drive modes.
  72:Generated_Source\PSoC5/ENC.c **** *
  73:Generated_Source\PSoC5/ENC.c **** * \param mode
  74:Generated_Source\PSoC5/ENC.c **** *  Mode for the selected signals. Valid options are documented in 
  75:Generated_Source\PSoC5/ENC.c **** *  \ref driveMode.
  76:Generated_Source\PSoC5/ENC.c **** *
  77:Generated_Source\PSoC5/ENC.c **** * \return
  78:Generated_Source\PSoC5/ENC.c **** *  None
  79:Generated_Source\PSoC5/ENC.c **** *
  80:Generated_Source\PSoC5/ENC.c **** * \sideeffect
  81:Generated_Source\PSoC5/ENC.c **** *  If you use read-modify-write operations that are not atomic, the ISR can
  82:Generated_Source\PSoC5/ENC.c **** *  cause corruption of this function. An ISR that interrupts this function 
  83:Generated_Source\PSoC5/ENC.c **** *  and performs writes to the Pins component Drive Mode registers can cause 
  84:Generated_Source\PSoC5/ENC.c **** *  corrupted port data. To avoid this issue, you should either use the Per-Pin
  85:Generated_Source\PSoC5/ENC.c **** *  APIs (primary method) or disable interrupts around this function.
  86:Generated_Source\PSoC5/ENC.c **** *
  87:Generated_Source\PSoC5/ENC.c **** * \funcusage
  88:Generated_Source\PSoC5/ENC.c **** *  \snippet ENC_SUT.c usage_ENC_SetDriveMode
  89:Generated_Source\PSoC5/ENC.c **** *******************************************************************************/
  90:Generated_Source\PSoC5/ENC.c **** void ENC_SetDriveMode(uint8 mode)
  91:Generated_Source\PSoC5/ENC.c **** {
  60              		.loc 1 91 0
  61              		.cfi_startproc
  62              		@ args = 0, pretend = 0, frame = 0
  63              		@ frame_needed = 0, uses_anonymous_args = 0
  64              		@ link register save eliminated.
  65              	.LVL3:
  92:Generated_Source\PSoC5/ENC.c **** 	CyPins_SetPinDriveMode(ENC_0, mode);
  66              		.loc 1 92 0
  67 0000 074A     		ldr	r2, .L5
  68 0002 1378     		ldrb	r3, [r2]	@ zero_extendqisi2
  69 0004 00F00E00 		and	r0, r0, #14
  70              	.LVL4:
  71 0008 03F0F103 		and	r3, r3, #241
  72 000c 0343     		orrs	r3, r3, r0
  73 000e 1370     		strb	r3, [r2]
  93:Generated_Source\PSoC5/ENC.c **** 	CyPins_SetPinDriveMode(ENC_1, mode);
  74              		.loc 1 93 0
  75 0010 0132     		adds	r2, r2, #1
  76 0012 1378     		ldrb	r3, [r2]	@ zero_extendqisi2
  77 0014 03F0F103 		and	r3, r3, #241
  78 0018 1843     		orrs	r0, r0, r3
ARM GAS  C:\Users\dmarsch\AppData\Local\Temp\ccl1OWHj.s 			page 4


  79 001a 1070     		strb	r0, [r2]
  80 001c 7047     		bx	lr
  81              	.L6:
  82 001e 00BF     		.align	2
  83              	.L5:
  84 0020 18500040 		.word	1073762328
  85              		.cfi_endproc
  86              	.LFE1:
  87              		.size	ENC_SetDriveMode, .-ENC_SetDriveMode
  88              		.section	.text.ENC_Read,"ax",%progbits
  89              		.align	2
  90              		.global	ENC_Read
  91              		.thumb
  92              		.thumb_func
  93              		.type	ENC_Read, %function
  94              	ENC_Read:
  95              	.LFB2:
  94:Generated_Source\PSoC5/ENC.c **** }
  95:Generated_Source\PSoC5/ENC.c **** 
  96:Generated_Source\PSoC5/ENC.c **** 
  97:Generated_Source\PSoC5/ENC.c **** /*******************************************************************************
  98:Generated_Source\PSoC5/ENC.c **** * Function Name: ENC_Read
  99:Generated_Source\PSoC5/ENC.c **** ****************************************************************************//**
 100:Generated_Source\PSoC5/ENC.c **** *
 101:Generated_Source\PSoC5/ENC.c **** * \brief Reads the associated physical port (pin status register) and masks 
 102:Generated_Source\PSoC5/ENC.c **** *  the required bits according to the width and bit position of the component
 103:Generated_Source\PSoC5/ENC.c **** *  instance. 
 104:Generated_Source\PSoC5/ENC.c **** *
 105:Generated_Source\PSoC5/ENC.c **** * The pin's status register returns the current logic level present on the 
 106:Generated_Source\PSoC5/ENC.c **** * physical pin.
 107:Generated_Source\PSoC5/ENC.c **** *
 108:Generated_Source\PSoC5/ENC.c **** * \return 
 109:Generated_Source\PSoC5/ENC.c **** *  The current value for the pins in the component as a right justified number.
 110:Generated_Source\PSoC5/ENC.c **** *
 111:Generated_Source\PSoC5/ENC.c **** * \funcusage
 112:Generated_Source\PSoC5/ENC.c **** *  \snippet ENC_SUT.c usage_ENC_Read  
 113:Generated_Source\PSoC5/ENC.c **** *******************************************************************************/
 114:Generated_Source\PSoC5/ENC.c **** uint8 ENC_Read(void)
 115:Generated_Source\PSoC5/ENC.c **** {
  96              		.loc 1 115 0
  97              		.cfi_startproc
  98              		@ args = 0, pretend = 0, frame = 0
  99              		@ frame_needed = 0, uses_anonymous_args = 0
 100              		@ link register save eliminated.
 116:Generated_Source\PSoC5/ENC.c ****     return (ENC_PS & ENC_MASK) >> ENC_SHIFT;
 101              		.loc 1 116 0
 102 0000 024B     		ldr	r3, .L8
 103 0002 1878     		ldrb	r0, [r3]	@ zero_extendqisi2
 117:Generated_Source\PSoC5/ENC.c **** }
 104              		.loc 1 117 0
 105 0004 00F00300 		and	r0, r0, #3
 106 0008 7047     		bx	lr
 107              	.L9:
 108 000a 00BF     		.align	2
 109              	.L8:
 110 000c 31510040 		.word	1073762609
 111              		.cfi_endproc
ARM GAS  C:\Users\dmarsch\AppData\Local\Temp\ccl1OWHj.s 			page 5


 112              	.LFE2:
 113              		.size	ENC_Read, .-ENC_Read
 114              		.section	.text.ENC_ReadDataReg,"ax",%progbits
 115              		.align	2
 116              		.global	ENC_ReadDataReg
 117              		.thumb
 118              		.thumb_func
 119              		.type	ENC_ReadDataReg, %function
 120              	ENC_ReadDataReg:
 121              	.LFB3:
 118:Generated_Source\PSoC5/ENC.c **** 
 119:Generated_Source\PSoC5/ENC.c **** 
 120:Generated_Source\PSoC5/ENC.c **** /*******************************************************************************
 121:Generated_Source\PSoC5/ENC.c **** * Function Name: ENC_ReadDataReg
 122:Generated_Source\PSoC5/ENC.c **** ****************************************************************************//**
 123:Generated_Source\PSoC5/ENC.c **** *
 124:Generated_Source\PSoC5/ENC.c **** * \brief Reads the associated physical port's data output register and masks 
 125:Generated_Source\PSoC5/ENC.c **** *  the correct bits according to the width and bit position of the component 
 126:Generated_Source\PSoC5/ENC.c **** *  instance. 
 127:Generated_Source\PSoC5/ENC.c **** *
 128:Generated_Source\PSoC5/ENC.c **** * The data output register controls the signal applied to the physical pin in 
 129:Generated_Source\PSoC5/ENC.c **** * conjunction with the drive mode parameter. This is not the same as the 
 130:Generated_Source\PSoC5/ENC.c **** * preferred ENC_Read() API because the 
 131:Generated_Source\PSoC5/ENC.c **** * ENC_ReadDataReg() reads the data register instead of the status 
 132:Generated_Source\PSoC5/ENC.c **** * register. For output pins this is a useful function to determine the value 
 133:Generated_Source\PSoC5/ENC.c **** * just written to the pin.
 134:Generated_Source\PSoC5/ENC.c **** *
 135:Generated_Source\PSoC5/ENC.c **** * \return 
 136:Generated_Source\PSoC5/ENC.c **** *  The current value of the data register masked and shifted into a right 
 137:Generated_Source\PSoC5/ENC.c **** *  justified number for the component instance.
 138:Generated_Source\PSoC5/ENC.c **** *
 139:Generated_Source\PSoC5/ENC.c **** * \funcusage
 140:Generated_Source\PSoC5/ENC.c **** *  \snippet ENC_SUT.c usage_ENC_ReadDataReg 
 141:Generated_Source\PSoC5/ENC.c **** *******************************************************************************/
 142:Generated_Source\PSoC5/ENC.c **** uint8 ENC_ReadDataReg(void)
 143:Generated_Source\PSoC5/ENC.c **** {
 122              		.loc 1 143 0
 123              		.cfi_startproc
 124              		@ args = 0, pretend = 0, frame = 0
 125              		@ frame_needed = 0, uses_anonymous_args = 0
 126              		@ link register save eliminated.
 144:Generated_Source\PSoC5/ENC.c ****     return (ENC_DR & ENC_MASK) >> ENC_SHIFT;
 127              		.loc 1 144 0
 128 0000 024B     		ldr	r3, .L11
 129 0002 1878     		ldrb	r0, [r3]	@ zero_extendqisi2
 145:Generated_Source\PSoC5/ENC.c **** }
 130              		.loc 1 145 0
 131 0004 00F00300 		and	r0, r0, #3
 132 0008 7047     		bx	lr
 133              	.L12:
 134 000a 00BF     		.align	2
 135              	.L11:
 136 000c 30510040 		.word	1073762608
 137              		.cfi_endproc
 138              	.LFE3:
 139              		.size	ENC_ReadDataReg, .-ENC_ReadDataReg
 140              		.section	.text.ENC_SetInterruptMode,"ax",%progbits
ARM GAS  C:\Users\dmarsch\AppData\Local\Temp\ccl1OWHj.s 			page 6


 141              		.align	2
 142              		.global	ENC_SetInterruptMode
 143              		.thumb
 144              		.thumb_func
 145              		.type	ENC_SetInterruptMode, %function
 146              	ENC_SetInterruptMode:
 147              	.LFB4:
 146:Generated_Source\PSoC5/ENC.c **** 
 147:Generated_Source\PSoC5/ENC.c **** 
 148:Generated_Source\PSoC5/ENC.c **** /* If interrupt is connected for this Pins component */ 
 149:Generated_Source\PSoC5/ENC.c **** #if defined(ENC_INTSTAT) 
 150:Generated_Source\PSoC5/ENC.c **** 
 151:Generated_Source\PSoC5/ENC.c ****     /*******************************************************************************
 152:Generated_Source\PSoC5/ENC.c ****     * Function Name: ENC_SetInterruptMode
 153:Generated_Source\PSoC5/ENC.c ****     ****************************************************************************//**
 154:Generated_Source\PSoC5/ENC.c ****     *
 155:Generated_Source\PSoC5/ENC.c ****     * \brief Configures the interrupt mode for each of the Pins component's
 156:Generated_Source\PSoC5/ENC.c ****     *  pins. Alternatively you may set the interrupt mode for all the pins
 157:Generated_Source\PSoC5/ENC.c ****     *  specified in the Pins component.
 158:Generated_Source\PSoC5/ENC.c ****     *
 159:Generated_Source\PSoC5/ENC.c ****     *  <b>Note</b> The interrupt is port-wide and therefore any enabled pin
 160:Generated_Source\PSoC5/ENC.c ****     *  interrupt may trigger it.
 161:Generated_Source\PSoC5/ENC.c ****     *
 162:Generated_Source\PSoC5/ENC.c ****     * \param position
 163:Generated_Source\PSoC5/ENC.c ****     *  The pin position as listed in the Pins component. You may OR these to be 
 164:Generated_Source\PSoC5/ENC.c ****     *  able to configure the interrupt mode of multiple pins within a Pins 
 165:Generated_Source\PSoC5/ENC.c ****     *  component. Or you may use ENC_INTR_ALL to configure the
 166:Generated_Source\PSoC5/ENC.c ****     *  interrupt mode of all the pins in the Pins component.       
 167:Generated_Source\PSoC5/ENC.c ****     *  - ENC_0_INTR       (First pin in the list)
 168:Generated_Source\PSoC5/ENC.c ****     *  - ENC_1_INTR       (Second pin in the list)
 169:Generated_Source\PSoC5/ENC.c ****     *  - ...
 170:Generated_Source\PSoC5/ENC.c ****     *  - ENC_INTR_ALL     (All pins in Pins component)
 171:Generated_Source\PSoC5/ENC.c ****     *
 172:Generated_Source\PSoC5/ENC.c ****     * \param mode
 173:Generated_Source\PSoC5/ENC.c ****     *  Interrupt mode for the selected pins. Valid options are documented in
 174:Generated_Source\PSoC5/ENC.c ****     *  \ref intrMode.
 175:Generated_Source\PSoC5/ENC.c ****     *
 176:Generated_Source\PSoC5/ENC.c ****     * \return 
 177:Generated_Source\PSoC5/ENC.c ****     *  None
 178:Generated_Source\PSoC5/ENC.c ****     *  
 179:Generated_Source\PSoC5/ENC.c ****     * \sideeffect
 180:Generated_Source\PSoC5/ENC.c ****     *  It is recommended that the interrupt be disabled before calling this 
 181:Generated_Source\PSoC5/ENC.c ****     *  function to avoid unintended interrupt requests. Note that the interrupt
 182:Generated_Source\PSoC5/ENC.c ****     *  type is port wide, and therefore will trigger for any enabled pin on the 
 183:Generated_Source\PSoC5/ENC.c ****     *  port.
 184:Generated_Source\PSoC5/ENC.c ****     *
 185:Generated_Source\PSoC5/ENC.c ****     * \funcusage
 186:Generated_Source\PSoC5/ENC.c ****     *  \snippet ENC_SUT.c usage_ENC_SetInterruptMode
 187:Generated_Source\PSoC5/ENC.c ****     *******************************************************************************/
 188:Generated_Source\PSoC5/ENC.c ****     void ENC_SetInterruptMode(uint16 position, uint16 mode)
 189:Generated_Source\PSoC5/ENC.c ****     {
 148              		.loc 1 189 0
 149              		.cfi_startproc
 150              		@ args = 0, pretend = 0, frame = 0
 151              		@ frame_needed = 0, uses_anonymous_args = 0
 152              		@ link register save eliminated.
 153              	.LVL5:
ARM GAS  C:\Users\dmarsch\AppData\Local\Temp\ccl1OWHj.s 			page 7


 190:Generated_Source\PSoC5/ENC.c **** 		if((position & ENC_0_INTR) != 0u) 
 154              		.loc 1 190 0
 155 0000 10F0010F 		tst	r0, #1
 156 0004 02D0     		beq	.L14
 191:Generated_Source\PSoC5/ENC.c **** 		{ 
 192:Generated_Source\PSoC5/ENC.c **** 			 ENC_0_INTTYPE_REG = (uint8)mode; 
 157              		.loc 1 192 0
 158 0006 CBB2     		uxtb	r3, r1
 159 0008 044A     		ldr	r2, .L16
 160 000a 1370     		strb	r3, [r2]
 161              	.L14:
 193:Generated_Source\PSoC5/ENC.c **** 		} 
 194:Generated_Source\PSoC5/ENC.c **** 		if((position & ENC_1_INTR) != 0u) 
 162              		.loc 1 194 0
 163 000c 00F00200 		and	r0, r0, #2
 164              	.LVL6:
 165 0010 80B2     		uxth	r0, r0
 166 0012 10B1     		cbz	r0, .L13
 195:Generated_Source\PSoC5/ENC.c **** 		{ 
 196:Generated_Source\PSoC5/ENC.c **** 			 ENC_1_INTTYPE_REG = (uint8)mode; 
 167              		.loc 1 196 0
 168 0014 C9B2     		uxtb	r1, r1
 169              	.LVL7:
 170 0016 024B     		ldr	r3, .L16+4
 171 0018 1970     		strb	r1, [r3]
 172              	.L13:
 173 001a 7047     		bx	lr
 174              	.L17:
 175              		.align	2
 176              	.L16:
 177 001c 18450040 		.word	1073759512
 178 0020 19450040 		.word	1073759513
 179              		.cfi_endproc
 180              	.LFE4:
 181              		.size	ENC_SetInterruptMode, .-ENC_SetInterruptMode
 182              		.section	.text.ENC_ClearInterrupt,"ax",%progbits
 183              		.align	2
 184              		.global	ENC_ClearInterrupt
 185              		.thumb
 186              		.thumb_func
 187              		.type	ENC_ClearInterrupt, %function
 188              	ENC_ClearInterrupt:
 189              	.LFB5:
 197:Generated_Source\PSoC5/ENC.c **** 		}
 198:Generated_Source\PSoC5/ENC.c ****     }
 199:Generated_Source\PSoC5/ENC.c ****     
 200:Generated_Source\PSoC5/ENC.c ****     
 201:Generated_Source\PSoC5/ENC.c ****     /*******************************************************************************
 202:Generated_Source\PSoC5/ENC.c ****     * Function Name: ENC_ClearInterrupt
 203:Generated_Source\PSoC5/ENC.c ****     ****************************************************************************//**
 204:Generated_Source\PSoC5/ENC.c ****     *
 205:Generated_Source\PSoC5/ENC.c ****     * \brief Clears any active interrupts attached with the component and returns 
 206:Generated_Source\PSoC5/ENC.c ****     *  the value of the interrupt status register allowing determination of which
 207:Generated_Source\PSoC5/ENC.c ****     *  pins generated an interrupt event.
 208:Generated_Source\PSoC5/ENC.c ****     *
 209:Generated_Source\PSoC5/ENC.c ****     * \return 
 210:Generated_Source\PSoC5/ENC.c ****     *  The right-shifted current value of the interrupt status register. Each pin 
ARM GAS  C:\Users\dmarsch\AppData\Local\Temp\ccl1OWHj.s 			page 8


 211:Generated_Source\PSoC5/ENC.c ****     *  has one bit set if it generated an interrupt event. For example, bit 0 is 
 212:Generated_Source\PSoC5/ENC.c ****     *  for pin 0 and bit 1 is for pin 1 of the Pins component.
 213:Generated_Source\PSoC5/ENC.c ****     *  
 214:Generated_Source\PSoC5/ENC.c ****     * \sideeffect
 215:Generated_Source\PSoC5/ENC.c ****     *  Clears all bits of the physical port's interrupt status register, not just
 216:Generated_Source\PSoC5/ENC.c ****     *  those associated with the Pins component.
 217:Generated_Source\PSoC5/ENC.c ****     *
 218:Generated_Source\PSoC5/ENC.c ****     * \funcusage
 219:Generated_Source\PSoC5/ENC.c ****     *  \snippet ENC_SUT.c usage_ENC_ClearInterrupt
 220:Generated_Source\PSoC5/ENC.c ****     *******************************************************************************/
 221:Generated_Source\PSoC5/ENC.c ****     uint8 ENC_ClearInterrupt(void)
 222:Generated_Source\PSoC5/ENC.c ****     {
 190              		.loc 1 222 0
 191              		.cfi_startproc
 192              		@ args = 0, pretend = 0, frame = 0
 193              		@ frame_needed = 0, uses_anonymous_args = 0
 194              		@ link register save eliminated.
 223:Generated_Source\PSoC5/ENC.c ****         return (ENC_INTSTAT & ENC_MASK) >> ENC_SHIFT;
 195              		.loc 1 223 0
 196 0000 024B     		ldr	r3, .L19
 197 0002 1878     		ldrb	r0, [r3]	@ zero_extendqisi2
 224:Generated_Source\PSoC5/ENC.c ****     }
 198              		.loc 1 224 0
 199 0004 00F00300 		and	r0, r0, #3
 200 0008 7047     		bx	lr
 201              	.L20:
 202 000a 00BF     		.align	2
 203              	.L19:
 204 000c 83450040 		.word	1073759619
 205              		.cfi_endproc
 206              	.LFE5:
 207              		.size	ENC_ClearInterrupt, .-ENC_ClearInterrupt
 208              		.text
 209              	.Letext0:
 210              		.file 2 "Generated_Source\\PSoC5\\cytypes.h"
